:100000000000012079030000610300006303000089
:1000100065030000670300006903000000000000A2
:100020000000000000000000000000006B03000062
:100030006D030000000000006F030000710300006A
:100040007303000073030000491C0000BD1D000085
:10005000CD1D000073030000CD1A000073030000E3
:1000600073030000730300007303000073030000B8
:1000700073030000730300007303000073030000A8
:1000800073030000C50D000073030000730300003C
:10009000610E00007303000073030000730300008F
:1000A0007303000073030000730300007303000078
:1000B0007303000073030000000000000000000054
:1000C0007303000073030000730300007303000058
:1000D00073030000730300007303000000000000BE
:1000E0000000000000000000000000000000000010
:1000F0000000000000000000000000000000000000
:1001000000000000000000000000000000000000EF
:1001100000000000000000000000000000000000DF
:1001200000000000000000000000000000000000CF
:1001300000000000000000000000000000000000BF
:1001400000000000000000000000000000000000AF
:10015000000000000000000000000000000000009F
:10016000000000000000000000000000000000008F
:10017000000000000000000000000000000000007F
:10018000000000000000000000000000000000006F
:10019000000000000000000000000000000000005F
:1001A000000000000000000000000000000000004F
:1001B000000000000000000000000000000000003F
:1001C000000000000000000000000000000000002F
:1001D000000000000000000000000000000000001F
:1001E000000000000000000000000000000000000F
:1001F00000000000000000000000000000000000FF
:10020000364937480A1A02D0072291438D463549AC
:1002100035480A1A06D00722914381F30988022241
:1002200082F3148831483249324A00F045F83248A6
:100230003249334A00F040F832483349334A00F03B
:100240003BF833483349344A00F036F833483449F0
:10025000344A00F031F834483449354A00F02CF87B
:1002600034483549354A00F027F8354835490022E9
:1002700000F02DF834483549002200F028F83448C1
:100280003449091A082903DB0022026004300160A6
:10029000314A90471F482049884205D002680430FF
:1002A00003B4904703BCF7E700208646EC460020E5
:1002B00000212A4A9047FEE7884207D0521A05D00B
:1002C000037801300B700131013AF9D1704788424F
:1002D00002D002700130FAE77047000000000120F0
:1002E00000E0002000000120000001200038000094
:1002F0000000002020000020D8030000D8030000E8
:1003000066330000003800000000002000000020DC
:10031000BC330000BC330000BC330000BC33000021
:10032000BC330000BC330000BC330000BC33000011
:1003300000380000203800002000002020000020AD
:1003400020000020A00A0020A00A0020A00A00200F
:10035000A00A0020A02A0020A10300002D220000F6
:10036000FEE7FEE7FEE7FEE7FEE7FEE7FEE7FEE765
:10037000FEE7FEE7704700BF1048804710484FF087
:100380000701884385460F4880470F48016841F4BC
:1003900070010160BFF34F8FBFF36F8FFFF730BF66
:1003A0000A480B490B4A884207D0521A05D00378F5
:1003B00001300B700131013AF9D17047750300002B
:1003C00000000120252E000088ED00E0BC33000075
:0803D0000000002000000020E5
:1003D8007047000007B5044B0093044A402300F01F
:1003E80032F803B05DF804FBF90300002100002097
:1003F8002DE9F84389461446B2B10F4B0F4E032539
:10040800002743F00108224609EB0701002002F00B
:1004180095FC0744241A48B933782BB14FF47A4035
:10042800C047013D02D13570BDE8F8830123337020
:10043800002CE8D1F8E700BFC033000020000020FE
:10044800704702F0AFBCF0B595B01C46164608469A
:100458000D4601F04AF91A9B0D93CDE90864002472
:100468002346082205A928460A948DF82C400C94A6
:1004780001F059F9079B0293BDF81830ADF80C301C
:10048800BDF81A30ADF80E309DF814308DF81140D3
:1004980003F00302012A1DD1BDF81440059EC3F3E1
:1004A800C203C4F383148DF81030A20008230EA9E8
:1004B800284601F038F9C6F3952608AB0093224682
:1004C80002AB0EA9304600F04BFB284601F011F9AB
:1004D80015B0F0BD022AF8D1BDF81640C3F3C20327
:1004E800A4098DF810300827082C264628BF0826AE
:1004F8003B4632460EA9284601F015F9A41B08AB65
:1005080002AA31460EA8374400F08EFB002CEBD12E
:10051800DBE7000008B5FFF794FF0421034800F06B
:100528008DFA034B01225A7108BD00BF98330000B1
:1005380000000020037813F0040216D003F0030330
:10054800012B03D0022B09D0012070470A680088CC
:100558000232C0F3831002440A60F5E70B68428850
:10056800023303EB92130B60EEE71046704700006E
:100578002DE9F04F484C87B00F460546861C0020F1
:10058800019200F0D1FD23683B60D4E901231344B4
:10059800226801339B1A04F21C4704F5836A04F2AB
:1005A8001448B34219D3019A0023002A6CD00122BF
:1005B80062F3010343F0040365F389132168A26819
:1005C8000A4003320E44002044F82230266000F02E
:1005D800ADFD012007B0BDE8F08F0121384600F0DD
:1005E800C7FD504600F0DAFD404600F0D7FD0DF19A
:1005F80018096068D4F808B049F8100D00EA0B0033
:10060800033004EB80004946FFF794FF029BB0B922
:100618000BEA030204EB8202D16803919A1C0133AE
:1006280003EA0B0B04EB8B0C01F00303012B029282
:10063800DCF80CB020D0022B04D083460BE00BEA88
:100648000300DDE7BDF80E309B0903334FEA1B4B6F
:1006580002EB93030293404600F0A3FD08B1029B0E
:1006680063605946384600F083FDD4E901231344FA
:10067800226801339B1A94E7BDF80C30C3F3831347
:100688004FEA1B4B1344E5E7022262F3010343F0F0
:10069800040365F39F5391E7340100200B4B0C488A
:1006A800FF2210B59A600022C3F81824C3E900227B
:1006B800C3F8142483F8202400F0D0FF044610B9AE
:1006C800044801F03BF8204610BD00BF340100206B
:1006D800A8330000E433000030B50A4C71B10A4A6F
:1006E8000A49121BD20800239A4201D1002030BDCA
:1006F80031F82350854202D00133F5E7034654F818
:100708003300F4E76833000098330000000000204D
:10071800094B013903EBC000032909D8DFE801F0D0
:100728000A02040604207047007970474079704730
:10073800002070470220704768330000034BD3E95C
:100748000030C31A58425841704700BF3401002096
:100758002DE9F04385B0FFF7F1FF0646002840F089
:10076800F9807D4DC5F81804BFF34F8F6868AC68F1
:1007780004AF47F8100D2040033005EB80003946E0
:10078800FFF7D8FE009B18B1D5F81824002A5FD0CF
:1007980004EA0302991C013305EB8202234005EBAE
:1007A8008303D268DB68029302F00303022B0192F1
:1007B800009162D1BDF8063068484FEA9318B8F145
:1007C800500FC14628BF4FF0500969F38F1309F144
:1007D8000801ADF8063000F059FF0746002800F080
:1007E800A48000F082FF01A900230822384600F007
:1007F8008FFF009924EA01060136B600B14535D9C4
:100808005FFA89F97EB3F6B2A9EB060921400331F4
:100818005FFA89F4B146524E05EB810108234A4636
:10082800384600F075FF36B109F108032246314613
:10083800384600F06DFF009B08F1030803EB9803AE
:100848000093D5F81834002B4BD1D5F810445BE051
:100858002A689A4204D86A60304605B0BDE8F08339
:1008680004EA030088E73E493446D7E721400331CC
:1008780008234A4605EB8101DAE7012B55D1BDF87B
:1008880004303648C3F38311062928BF062161F3D3
:10089800891302318900ADF8043000F0F7FE0746ED
:1008A800002842D000F021FF0023082201A9384681
:1008B80000F02EFF0026BDF80420C2F38312B31CFB
:1008C80096424FEA8303BCD200994A1C2140033167
:1008D800009205EB81010422384600F019FF013629
:1008E800E9E7384600F005FFFFF728FF80F0010030
:1008F800C6B2B1E7E3685B7923B1236839461B6860
:1009080020469847E3681C68002CF3D1384600F06D
:10091800F0FE204600F008FCD5F818340BB9009B0F
:100928006B60002000F002FCDEE7D5F8104454B9F3
:100938000C4B0D480D49C01AC008000440F00200D5
:1009480000F06EF8D0E7236820469B689847E36874
:100958001C68ECE700267FE734010020A83300007C
:10096800400100206833000090330000F03300009D
:100978002DE9F74F284C80460F46924601A90122DF
:1009880018469B46D4F80890FFF7F2FD88B3019DFE
:100998000026A91C5E4506EB010234D100211F4840
:1009A80000F0C6FB80F310006A1C02EA090204EB9F
:1009B8008202000405EA0903033340EA1840D060C4
:1009C80014F8232068F3C50204F8232034F8232000
:1009D80066F3891224F8232054F82320012167F3B1
:1009E8009F2244F8232061F301026FF3820204F886
:1009F800232094F820341BB1FFF7AAFE0028FBD16E
:100A080003B0BDE8F08F09EA020204EB82025AF84B
:100A18002630D3600136BDE73401002050050020A0
:100A280000231A46FFF7A4BF13B502AC012344F80C
:100A3800042D2246FFF79CFF02B010BD30B50F49C8
:100A4800D1F81024002314463CB9C468237152B964
:100A5800C1F810042260184630BDE46825799D422B
:100A680006D02468F0E7D268116821601060F2E7C8
:100A780001330A2BE7D14FF0FF33ECE734010020B4
:100A8800094A38B50123D2F8104482F820341D46AB
:100A980004B938BDE3685D71236820465B689847F0
:100AA800E3681C68F4E700BF34010020037A052BD3
:100AB80010B50C460FD0437A23B1084A084920469E
:100AC80000F0C9FB0749204600F0C5FB2046BDE8F9
:100AD800104000F0B5BB002AF8D0F3E73B34000023
:100AE8004034000060340000C38873B504460D46E6
:100AF80033B1144A00921449144A284600F0ABFB5B
:100B0800217A05291CD0637A4BB1A088FFF700FE33
:100B18000F4B104953F82020284600F09CFB227AFE
:100B28000D4BA08853F822600021FFF7D5FD0B4933
:100B380003463246284602B0BDE8704000F08BBB41
:100B480002B070BD3B3400004B3400004334000059
:100B580008340000403400007034000063340000A2
:100B68002DE9F04385B01F460C9D002306460C4630
:100B7800904695F80C902B7329463846FFF7B4FF3A
:100B8800B8F1060F09D8DFE808F00412181F283357
:100B980040003146284600F05EFB002229463846D0
:100BA800FFF784FF85F80C9005B0BDE8F083226854
:100BB8003146284600F04FFBEFE7D4E900233146E1
:100BC800284600F048FBE8E7A36800933146D4E9DB
:100BD8000023284600F03FFBDFE7E3680193A368A2
:100BE80000933146D4E90023284600F034FBD4E7CB
:100BF80023690293E3680193A36800933146D4E91B
:100C08000023284600F027FBC7E76369039323699D
:100C18000293E3680193A36800933146D4E9002363
:100C2800284600F018FBB8E708292DE9F84F804658
:100C38000E4617461C463AD8002593F80C901D73AB
:100C480019461046FFF750FFDFF884A0DFF884B09C
:100C5800AE422ED918F805205946204600F0FBFA76
:100C68000135082DF4D11849DFF86CB0204600F0A2
:100C7800F2FA4FF0000A564520D918F80A507E2D8E
:100C880003D8284602F0B8FA00B92E252A46594654
:100C9800204600F0E0FA0AF1010ABAF1080FEAD199
:100CA800012221463846FFF701FF84F80C90BDE881
:100CB800F88F5146204600F0CEFAD1E70349204686
:100CC80000F0C9FAE7E700BF36340000343400000A
:100CD800323400002C340000383400001FB50021E5
:100CE800039001AA44F20100CDE9011100F004F8D3
:100CF80005B05DF804FB000010B572B6FFF7C0FE42
:100D0800FFF726FD0028FBD1104B114C1149E41ABE
:100D1800E408240444F00100FFF782FE0E4B1B6830
:100D2800DB0700D500BE0D4944F00200FFF778FE4E
:100D3800BFF34F8F0A490B4BCA6802F4E0621343B2
:100D4800CB60BFF34F8F00BFFDE700BF68330000E3
:100D580090330000CF340000F0ED00E0DB340000F9
:100D680000ED00E00400FA05024B4FF43C6043F04C
:100D780001031847F034000038B50C4B0C4C4FF405
:100D88000032C3F8802001254FF48033C4F848337B
:100D9800C4F808336560FFF7E7FF064BA560002439
:100DA8001C60FFF7E1FF044B1C7038BD00E100E058
:100DB800001001400C070020FD060020F8B51F4B6D
:100DC8001F491B680025C1F84051C1F84451C1F8BA
:100DD8004851C1F84C51C1F80051C1F804514BB306
:100DE800D1F8044517490968641A24F07F442F464E
:100DF8001A68A24209D8A41A15441A7CDE691AB1E5
:100E08001F74D3E905209047AEB90F4B0F4A1978E4
:100E180013788B4205D10133DBB2022B08BF0023C4
:100E2800137012780A4B43F822500A4B4FF4801281
:100E3800C3F80021F8BD3346DAE700BF10070020E9
:100E4800001001400C0700200807002009070020B7
:100E58000007002000E100E02DE9F74F9E4A9F4976
:100E6800137809789E4D99423CD00133DBB2022BAE
:100E780008BF002313709B4912789B4B0F6853F8E7
:100E880022003B1823F07F4300220B602B68164694
:100E98001446944613B942B12B6006E019688142A2
:100EA8000ED902B12B60091A19604FF001082B689E
:100EB800DFF83CA200930027BEB9DFF83CB260E03F
:100EC800401A0C44D968C3F800C0D3F81CE031B10B
:100ED8003A1922F07F42C3E90121DE611E46012250
:100EE8007346D7E70026B046E1E73446F6697D4AFF
:100EF80063681268DFF804C2A068991A21F07F417C
:100F0800614500F2A58001442160012222742A680B
:100F18000023C4E90133E361002A40F0A2802C6079
:100F2800CAE75A1C9BF80210D2B291428BF80020F3
:100F380004BF00228BF80020182202FB03B32A68A2
:100F480019799C68022974D003297ED0012918D107
:100F5800217CB1B9DA6862601A69A2605A699B6932
:100F6800A361624BE2601B78002BC0D06160BEE7D2
:100F78009C4200F093809946DB69002BF8D100234E
:100F880023749BF800309BF801209A42C9D12B6842
:100F98002FB9009A934202D1B8F1000F43D0002B29
:100FA80079D0D3F800A0524D4E4BD5F804751C6883
:100FB800DFF84C813E1B98F8003026F07F46033658
:100FC8009BB94FF48033C5F84433C5F80433494B13
:100FD8004FF400324FF00109C3F880211A60C5F8B8
:100FE8000090FFF7C1FE88F80090B2452CBF54442A
:100FF800A41924F07F44C5F84045D5F80435DB1B17
:1010080023F07F43E41B033324F07F44A3420AD92F
:10101800D5F80435C5F84035FFF7A6FE354B4FF433
:101028000032C3F80021314B00221A7003B0BDE82A
:10103800F08F13469146A0E71174D2690123002A64
:10104800FAD1002B9DD02A609BE700231946F6E7CA
:10105800D31A23F07F43834234BFC31A002323608B
:1010680053E721681368994213D8591A1160E2614D
:1010780055E7091AD8691A4638B1034618688842EC
:10108800F7D3401A1860184613462160E061DC6106
:1010980012E71346F2E7FFF76FFEC4E74C450DD1A0
:1010A800D3692B6053B90F4801920121CAF808107F
:1010B80003600E4B1970FFF757FE019AE169236828
:1010C800C9F81C1011B1086803440B602B689A42D8
:1010D80018BF012753E700BF0807002009070020B1
:1010E800100700200C07002000070020FC06002045
:1010F8000010014000E100E0F0050020FEFF7F0045
:10110800FD06002072B6024A136801331360704767
:1011180014070020034A1368013B136003B962B641
:10112800704700BF14070020FFF7ECBFFFF7F2BFBE
:1011380050E8002F0B4640E8003C9CF0000FF7D128
:101148001046704750E8003F43EA010240E8002C8F
:101158009CF0000FF6D11046704750E8002F02EAC5
:10116800010340E8003C9CF0000FF6D110467047A0
:1011780050E8003F03EB010240E8002C9CF0000F10
:10118800F6D11046704750E8003FA3EB010240E853
:10119800002C9CF0000FF6D1104670470121FFF794
:1011A800D1BF0021FFF7D9BF10B590B1D0E9012315
:1011B80001689B1ADBB20A60013BDBB2FF2B0268B5
:1011C80002D10020107110BD11684C1C14600B7006
:1011D800F2E70E20F7E738B504460020FFF7A4FF32
:1011E800226863681168994213D9481E106011F883
:1011F800015CE368218A01FB0535A36811791B1A94
:10120800DBB2994200D213710020FFF78FFF284606
:1012180038BD0025F8E738B5054600200C46FFF72D
:1012280083FF2A681368591C1160E968641A298ABF
:10123800B4FBF1F41C700020BDE83840FFF776BF1E
:10124800826810B504462AB1436901680069984765
:101258000023A36010BD0EB403B5039929B102AAF7
:1012680004AB42F8043D00F073F802B05DF804EBFB
:1012780003B070470A2938B504460D4602D10D213E
:10128800FFF7F8FFA3682268591CA160D554D4E978
:1012980001329A4204D32046BDE83840FFF7D0BF58
:1012A80038BD00002DE9F84F9946DDE90A43174695
:1012B800824688460A460126BA420FD24E4538BFB2
:1012C8004E4613F0010B01D164B900240125B9F190
:1012D800010F1AD909F1FF397D43F8E7B2FBF7F29C
:1012E8000136E9E79B070ED5B9F1000F0CBF302591
:1012F8002025A642EAD2013C29465046FFF7BAFF0C
:10130800002CF6D1E1E72025F3E7B8FBF5F39F427F
:10131800E2D9DFF83890B8FBF5F3504619F8031016
:1013280005FB1388FFF7A6FFB5FBF7F5002DF2D1F3
:10133800BBF1000F02D00CB1A64201D3BDE8F88F73
:1013480020215046013CFFF795FFF4E7F6340000F2
:101358002DE9F74F054690460E46002900F03A81E0
:1013680016F8011B002958D0252940F0D180002704
:1013780002E047F001071646324612F8013B2D2BD2
:10138800F7D0302B04D02B2B05D147F00407F2E718
:1013980047F00207EFE700242A2B06F101021BD1D0
:1013A800D8F80030191D1B68C8F800101C441646F0
:1013B80033782E2B1CD101364FF0000A314611F834
:1013C800012BA2F13000092814D80A2303FB0A23B1
:1013D800A3F1300A0E46F1E712F8013CA3F13001FF
:1013E8000929E5D80A2101FB0434303C1646D3E725
:1013F8004FF0000A324612F8011B01F0FB00682882
:101408001646F8D0692916D054D8582970D00ED865
:1014180025297DD03378002BA2D12B7B002B00F01F
:10142800D980284603B0BDE8F04FFFF709BF63290C
:1014380068D06429EED1D8F80020D2F80090111DA8
:1014480089EAE972C8F80010A2EBE9724FF0010BC3
:10145800092A61DCD34538BFD3462CB1B9F1000F56
:1014680001DB790700D5013CBA0702D5BAF1000FB4
:1014780004D0FB0702D4002C54D10024B9F1000F8A
:1014880058DAC9F100092D212846FFF7F3FE07F0C5
:101498000302022A05D1BAF1000F02D1002C4DD166
:1014A8000024CDE9004753460A2249462846FFF75B
:1014B800F9FEAFE7732954D016D87029AAD1D8F805
:1014C80000301A1DC8F80020302128461C68FFF794
:1014D800D1FE78212846FFF7CDFE00220823CDE96A
:1014E800003221461022E1E775292FD0782991D1C1
:1014F800D8F800100A1DC8F80020CDE90047534667
:1015080010222CE0D8F800301A1D1978C8F80020ED
:101518002846FFF7AFFE7DE70A230BF1010B92FB8C
:10152800F3F295E7A345A9D220212846013CFFF70D
:10153800A1FEA0E77807AAD52B21A5E7A345B0D23D
:1015480030212846013CFFF795FEA7E7D8F80010A0
:10155800CDE900470A1DC8F8002053460A22096849
:10156800A4E7D8F800301A1DC8F80020F907D3F806
:10157800009012D54F46A7EB090B17F8011B41B98C
:10158800A345BFF447AF20212846013CFFF772FE70
:10159800F6E72846FFF76EFEEDE7B9F1000F17D022
:1015A800484601F0ACFE0746BC4200D954B909F1DF
:1015B800FF3919F8011F00293FF42CAF2846FFF71F
:1015C80059FEF6E720212846013CFFF753FEEBE7DA
:1015D8004F46E9E703B0BDE8F08F2DE9F047B0F8D2
:1015E80006904479D2F800A09DF8208009FB04F405
:1015F800043C06460AEB0300A0420F4688BFA4EB52
:10160800030A191DC2F800A0B1FBF9F509FB151171
:101618004DB9A9EB0104544528BF5446BAF1000F4F
:1016280004D1BDE8F0873668013DF1E704317B1944
:1016380070182246B8F1000F0ED001461846AAEBE2
:10164800040A01F0DEFDD145254436684C464FF0CA
:10165800000128BF5446E1E71946F0E7FFF7A4BDAB
:10166800F8B546790146721E0546002393422D6857
:1016780003D30024A64202D8F8BD0133F6E70F6869
:101688002846FFF7C8FD01343946F3E72DE9F8434A
:10169800068ACD1C0746FFF79EFD043E35440446E6
:1016A800B5FBF6F5F0B14FF48073EDB28380C680D8
:1016B800013D076081464FF00008A84512D2384620
:1016C800FFF789FD064648B163790133637108F174
:1016D8000108C9F8000007608146EEE72046FFF7D9
:1016E800BFFF34462046BDE8F88301210430FFF7E8
:1016F8003FBD10B5012104460430FFF744FD10F04A
:10170800FF0F04D12046BDE81040FFF7A9BF10BD68
:101718001FB504AC44F8042D002200922246FFF7BE
:101728005CFF04B010BD1FB504AC44F8042D0122C1
:1017380000922246FFF751FF04B010BD83680022D3
:101748005A609A60C3E90422DA601A6070470000A0
:101758001FB503788DF8003003798DF8043043798C
:101768008DF8053083688DF80630C3688DF807302A
:101778000369029343690393054A064B684653F885
:10178800213052F82110984705B05DF804FB00BFDE
:101798001807002020070020024B4FF4807043F008
:1017A80001031847103500002DE9F04791460778E6
:1017B800324A42F82790324A42F827304B7B80461B
:1017C8000C4663B30868496882008B0002F1A042A6
:1017D80003F1A04340F20C65C2F800570126C3F894
:1017E80000574FF0A04506FA00F006FA01F1C5F8D7
:1017F8000805C5F8081540F20D61C2F80017C3F8CE
:101808000017FFF7C9FF4FF0000AD5F810256368E5
:1018180022FA03F3DB070FD5BAF1000F1FD1B9F194
:10182800000F3B46174A214608F1040008BF002272
:10183800BDE8F04700F0CEBA236806FA03F3C5F80E
:101848000C35FFF7A9FF236806FA03F3C5F8083536
:101858000AF1010AFFF7A0FFBAF1090FD5D16368B1
:1018680001254FF0A04605FA03F3C6F80C35FFF73B
:1018780093FF63689D40C6F80855D0E7200700200D
:10188800180700205917000000F1804000F5C040FB
:10189800002382B0036003680193019B02B0704784
:1018A800800000F1A040D0F8003723F44033C0F89E
:1018B8000037D0F8003743EA0141C0F800177047F5
:1018C800054B4FF0FF32072843F8202084BF1B1830
:1018D80083F84820704700BF2807002010B5164C31
:1018E80094F8583033BBFF21E2180133202B82F8DB
:1018F8003010F9D10021C8B2FFF7E2FF01310C29FD
:10190800F9D1042200210D4801F0A4FC0C4BC0229F
:1019180083F8062340221A604FF4BE70FFF7B4FF25
:10192800084B4FF00042C3F80423012384F85830D1
:10193800002010BD0820FCE7280700207C070020B5
:1019480000E100E000600040F0B5394D2C189446E5
:1019580094F93040002C68DA8E78C6F34006002EE1
:1019680015BF0023082308270C27BB4201D10420F8
:10197800F0BD55F8232001324FEA830441D12F18D6
:1019880045F823C087F8303016B9EA1882F84800BD
:101998008A78560716D4D70735D5820002F1A042B7
:1019A800D2F8006726F00206C2F80067214FC60881
:1019B80000F0070C012202FA0CF217F806C042EAFE
:1019C8000C02BA558A780E7812F0020224D004F17B
:1019D800804303F5C0430002D3F8102522F44732B0
:1019E80022F44072C3F810253604D3F8102500F409
:1019F800F85006F4403630431043C3F81005002071
:101A0800B6E70133B1E74E7800F5E0724FF0A04732
:101A1800B60047F82260C9E7083B2B4493F850000A
:101A280040EA861683F85060E9E70820A0E700BF7F
:101A3800280700207C07002038B5204C251895F988
:101A48003020072A18DD224492F848309B09032BDE
:101A58000DD14FF0A043D3F81035C34013F0010F58
:101A68000CBF02210321BDE83840FFF719BF012B45
:101A780014BF03210221F6E7D3B2072B1CD8930029
:101A880003F1804303F5C043D3F8100540F001008B
:101A9800C3F8100502F14000800080B2FFF7F4FEA1
:101AA80051B195F9303054F823302BB1012303FAA2
:101AB80002F2034BC3F8042338BD00BF28070020F7
:101AC800006000402DE9FF470024584A584E594D00
:101AD800019401211368A2F5C040012B80B206D100
:101AE800D6F804330B4202D0FFF7CEFE0C43043283
:101AF800AA424FEA4101EDD14F4B1B68012B0AD195
:101B08004FF4BE70FFF7C0FE4FF0A04344F000440E
:101B1800D3F81035019314F0FF0F1AD0474F002562
:101B28000126344210D0AB0003F1804303F5C043D3
:101B3800D3F81005D3F8101557F82530C0F3042052
:101B4800C1F3014103B198470135082D4FEA460614
:101B5800E7D1002C66DA00224FF0FF33CDE90223EB
:101B6800DFF8D8900127002634464FF0A04809EB4B
:101B7800060393F95020531C45D0D2B222F0C00579
:101B8800E90804A8084402F0070310F804CC07FA8F
:101B980003F31CEA030F36D009EB050C92099CF9F4
:101BA80030C059F82CA0BAF1000F0AD1032A2AD163
:101BB8000DF1080E1EF801C04CEA030C0EF801C026
:101BC80001E0032AF4D005F5E07110F80C0C58F880
:101BD80021101842C1F3014105D0022913D1032A6B
:101BE8000BD1114604E003290DD1032A05D10221A6
:101BF8002846FFF755FE0134E4B2BAF1000F02D0CF
:101C080011462846D0470136042EB0D154B14FF0C2
:101C1800A043019AD3F81035934203D00193029B55
:101C28000393A0E704B0BDE8F08700BF006100405F
:101C380000600040206100407C61004028070020CF
:101C4800014B1B68184700BF8407002038B50A4BB2
:101C580098420D460CD10020FFF766FA074B1C7915
:101C680014B901221D601A710020FFF75FFA0CB940
:101C7800002038BD1120FCE7002000408407002028
:101C88000023435082B043580193019B02B0704730
:101C9800F0B5D0F8243187B004460D469BB14FF417
:101CA8009271FFF7EDFFD0F8043163B9AB68C0F863
:101CB80008330223AB60AB68C0F804330123036226
:101CC800436107B0F0BDD4F80431002B34D04FF491
:101CD8008271204605F10C07FFF7D2FF0FCF01AE46
:101CE8000FC63B68336095F82E3073B12B7B012B00
:101CF8000CBFD4F83C25D4F84C250292022B0CBF1B
:101D0800D4F83C35D4F84C3503934FF4B0712046E1
:101D1800FFF7B6FF4FF4AE71FFF7B2FF95F830301A
:101D280013B195F82E30CBB10023C4F80032AB6064
:101D38001F4BC4F8083311E04FF4A4712046FFF795
:101D48009FFF2B7BEBB905F10C070FCF01AE0FC638
:101D58003B68336095F83030002BE6D0D4F8C434B3
:101D6800C4F8C4349A071ED501238DF8003095F8BD
:101D780030300BB985F82F30D5E9003168469847DF
:101D88009FE74FF40073C4F8003240F20223AB60BF
:101D980003F1CE73C4F80833AB68C4F804330123E5
:101DA800A36023628DE713F0040318BF0223DCE766
:101DB80002029C0101490248FFF76ABF8C07002014
:101DC8000030004002494FF04020FFF761BF00BFDC
:101DD800C00700202DE9F84F0479344D4FF034083E
:101DE80008FB04F805EB08069B4696F82D3081465B
:101DF8000F469246002B54D12D4B006853F82410FF
:101E0800FFF724FF00284ED139687B7B86F83230F3
:101E180001F5E0724FF0A043B060C6F804B086F850
:101E28002F0086F8300040F20C6645F808A043F809
:101E380022607A6802F5E07C43F82C60D9F800301B
:101E4800C3F80815C3F80C25BA68C3F82425BAF1F5
:101E5800000F1ED01B0B59B200293A7BB4BF154E98
:101E680001F16046DBB2B8BF03F00F074FEA421238
:101E7800A8BF06F56146D2B2B4BFF25586F8002372
:101E880003F01F03012202FA03F349090A4A42F840
:101E98002130342303FB0454012384F82D30BDE89A
:101EA800F88F0820FBE71120F9E700BF8C07002016
:101EB8002435000014ED00E000E100E00268037939
:101EC8000621C2F80015044A342101FB032302222B
:101ED80083F82D20704700BF8C0700202DE9F843B8
:101EE800CB6803F06043B3F1005F0D46904603D022
:101EF80010221046BDE8F8830779964E0468964B81
:101F0800C4F808334FF0340C0CFB076C9CF82F30E6
:101F18002BB1DCF80830C4F804331122E9E712F0D9
:101F2800140F0CBF012300238CF82F308946B9E821
:101F38000F000CF10C0EAEE80F00D9F80030CEF807
:101F48000030C8F300138CF830306B78C4F888354B
:101F58004FF482712046FFF793FE4FF49271FFF71A
:101F68008FFE18F0010318BF0123C4F8503518F08C
:101F7800020318BF0123C4F840352B78032B00F265
:101F8800C780DFE803F087AF68022B6903F060437E
:101F9800B3F1005FACD14FF48073EA68C4F8003243
:101FA8006B68C4F844254FF4A871C4F84835FFF7A6
:101FB80067FE4FF4B071FFF763FE4FF4A471FFF7AB
:101FC8005FFE01232362A360D4F85031002BFBD0BD
:101FD8004FF4A8712046FFF753FEAB682A69C4F88E
:101FE8004425C4F84835342303FB07635B4A9A60E9
:101FF8004FF482730821002218F0080F04D12878C2
:1020080003281CBF0120605034217943701871588F
:10201800002940F08280012523441968002900F036
:1020280089803421D4F8C434C4F8C43401FB076669
:10203800002186F82F10002B3FF45BAF13F0020F3E
:1020480048F2012208BF032213F0040F48F20223CA
:1020580018BF1A464DE76B68EA68C4F84425C4F807
:1020680048352B6903F06042B2F1005F7FF440AF5E
:10207800AA68C4F834354FF48453C4F83825C4F832
:102088000032342303FB076340F202229A600123E3
:102098002362ADE76B68EA68C4F8442518F0200F9E
:1020A800C4F848354FF0340310D003FB07634FF4EE
:1020B8008072C4F80022294A9A604FF4A471FFF78D
:1020C800DFFD4FF4A4730122226293E74FF40072FC
:1020D80003FB0763C4F8002240F202229A604FF41F
:1020E8008273F0E76B68EA68C4F83425C4F83835B9
:1020F8004FF48053C4F80032342303FB076340F2E3
:1021080002229A600123236200214FF4827372E74E
:102118004FF48273082107226EE718F0040F1CBFE2
:102128004FF400738360342303FB0766B368C4F875
:102138000433DEE6D4F8241100293FF46EAF4FF4DF
:1021480092712046FFF79CFD25624FF4827365610A
:1021580062E700BF8C07002002029C010002040015
:10216800F0B587B004460F4615460021142201A891
:102178001E4601F06FF89DF830308DF80570002B81
:1021880014BF2022002201A9204602960495FFF7D9
:10219800A5FE07B0F0BDF0B587B004460F4615465A
:1021A800002112220DF106001E4601F053F801230A
:1021B800002201A920468DF804308DF8057002969A
:1021C8000495FFF78BFE07B0F0BD0000F0B585B0B1
:1021D80004AC04E90F000F4BD3E90045661C45F138
:1021E8000007C3E900674FF47A7200233046394686
:1021F80000F042FF13430AD10748084B0849C01AA8
:10220800C0080004324640F00300FEF70DFC012030
:1022180005B0F0BDF80700209033000068330000D7
:102228004A35000008B54FF400410020FEF736FAA1
:1022380008B1FEF753FDFEF76DF90B4800F0F4FA0C
:102248000A480B4B0B49C01AC008000440F00300B1
:10225800FEF7E6FBFEF77CFA0028FBD140BF20BF63
:1022680020BF00F053FBF5E7D521000090330000B4
:10227800683300003C35000010B4D0E90140A446A2
:102288005DF8044B604710B404688068A4465DF8A4
:10229800044B604737B501230D4601AA10210446B7
:1022A800FFF7EAFF58B99DF8043065F383038DF80A
:1022B800043001AA012310212046FFF7E4FF03B0F0
:1022C80030BD37B501230D4601AA10210446FFF79A
:1022D800D3FF58B99DF8043065F307138DF804301F
:1022E80001AA012310212046FFF7CDFF03B030BD1E
:1022F80037B501230D4601AA11210446FFF7BCFF9B
:1023080058B99DF8043065F343038DF8043001AAE9
:10231800012311212046FFF7B6FF03B030BD37B5C2
:1023280001230D4601AA11210446FFF7A5FF58B95C
:102338009DF8043065F307138DF8043001AA0123D2
:1023480011212046FFF79FFF03B030BD37B50123A9
:102358000D4601AA12210446FFF78EFF58B99DF8D1
:10236800043065F386138DF8043001AA0123122185
:102378002046FFF788FF03B030BD37B501230D466F
:1023880001AA5C210446FFF777FF58B99DF804308D
:1023980065F304138DF8043001AA01235C2120465B
:1023A800FFF771FF03B030BD13460A463E21FFF721
:1023B80063BF0A4601230F21FFF75EBF37B501232C
:1023C8000D4601AA12210446FFF756FF58B99DF899
:1023D800043065F300038DF8043001AA01231221AB
:1023E8002046FFF750FF03B030BD13B501230C465C
:1023F80001AA1221FFF740FF9DF80430C3F3000340
:10240800237002B010BD37B501230D4601AA102173
:102418000446FFF731FF58B99DF8043065F300030F
:102428008DF8043001AA012310212046FFF72BFF65
:1024380003B030BD37B501230C4601AA1721054664
:10244800FFF71AFF90B99DF80430220962F3C3031D
:1024580064F3461363F07F0360F382038DF804305E
:1024680001AA012317212846FFF70DFF03B030BD4D
:1024780030B585B00C46012303AA16210546FFF79F
:10248800FBFEC0BB9DF80C30220962F30513E2097C
:1024980062F386138DF80C3003AA0123162128460F
:1024A800FFF7F1FE38BB012302AA15212846FFF7E2
:1024B800E3FE00BB9DF8083064F301038DF8083093
:1024C80002AA012315212846FFF7DDFE98B901234A
:1024D80001AA13212846FFF7CFFE60B99DF8043002
:1024E800E40864F341038DF8043001AA01231321A1
:1024F8002846FFF7C8FE05B030BD30B589B0C1F336
:1025080000450191012303AA0D210446FFF7B4FEFB
:10251800002840F0B1809DF804209DF80C30C2F3EB
:10252800000161F30003C2F3400161F34103C2F308
:10253800800161F38203C2F3C00161F3C303C2F3F4
:10254800001161F30413C2F3401161F34513C2F3A0
:10255800801161F38613D20962F3C7138DF80C302A
:1025680003AA01230D212046FFF78DFE002840F025
:102578008380012304AA5E212046FFF77DFE002800
:102588007AD1012305AA5F212046FFF775FE0028AE
:1025980072D19DF805209DF81030C2F3000161F357
:1025A8000003C2F3400161F34103C2F3800161F308
:1025B8008203C2F3C00161F3C303C2F3001161F3E4
:1025C8000413C2F3401161F34513C2F3801161F3A0
:1025D8008613D20962F3C7138DF8103004AA0123B9
:1025E8005E212046FFF74FFE002845D1012306AAA9
:1025F80013212046FFF740FE00283DD19DF81830F2
:1026080065F304138DF8183006AA01231321204618
:10261800FFF739FE80BB012302AA1A212046FFF7E3
:102628002BFE48BB9DF8083065F3C7138DF80830BA
:1026380002AA01231A212046FFF725FEE0B901234B
:1026480007AA58212046FFF717FE9DF8053013F01A
:10265800FC0F9DF81C3004D19DF8142012F0FC02E8
:102668000CD043F080038DF81C3028B9012307AA49
:1026780058212046FFF707FE09B030BD62F3C713A3
:10268800F1E737B501230C466A4607210546FFF7EF
:10269800F3FD00BB9DF8003064F386138DF800301D
:1026A8006A46012307212846FFF7EDFD98B9012363
:1026B80001AA1A212846FFF7DFFD60B99DF804300A
:1026C800640864F386138DF8043001AA01231A21E3
:1026D8002846FFF7D8FD03B030BD37B501230D46B6
:1026E80001AA07210446FFF7C7FD58B99DF8043031
:1026F80065F3C7138DF8043001AA0123072120468A
:10270800FFF7C1FD03B030BD37B501230D4601AA5F
:1027180008210446FFF7B0FD58B99DF8043065F369
:1027280002038DF8043001AA012308212046FFF78F
:10273800AAFD03B030BD37B501230D4601AA082113
:102748000446FFF799FD58B99DF8043065F3C503B1
:102758008DF8043001AA012308212046FFF793FDD4
:1027680003B030BD37B501230D4601AA092104463F
:10277800FFF782FD58B99DF8043065F3C5038DF85D
:10278800043001AA012309212046FFF77CFD03B08C
:1027980030BD37B501230D4601AA0A210446FFF7CB
:1027A8006BFD58B99DF8043065F302038DF80430C9
:1027B80001AA01230A212046FFF765FD03B030BDB9
:1027C80037B501230D4601AA0A210446FFF754FD37
:1027D80058B99DF8043065F3C6038DF8043001AA92
:1027E80001230A212046FFF74EFD03B030BD00004B
:1027F80038B5841CE4B2054621460A48FFF761FD56
:1028080010B10020FEF76AFA21460648FFF787FD57
:1028180010B10020FEF762FA29460248BDE83840A8
:1028280000F09EB80008002037B5344B186000F05F
:102838009BF93348334B036002A90024324B01F85B
:10284800024D4360FFF7B5FD10B12046FEF746FA8A
:102858009DF806306A2B02D00020FEF73FFA0121CE
:102868002748FFF7ABFD10B10020FEF737FA244DDB
:102878000DF107012846FFF7B8FD10B10020FEF75B
:102888002DFA9DF80740002CF2D101211C48FFF7D2
:102898005DFD10B12046FEF721FA00211848FFF728
:1028A800F9FC10B10020FEF719FA00211448FFF7CF
:1028B800AAFD10B10020FEF711FA02211048FFF717
:1028C800B9FD10B10020FEF709FA06210C48FFF700
:1028D8000FFD10B10020FEF701FAA8210848FFF704
:1028E800C7FD10B10020FEF7F9F9054800F0A8F877
:1028F8000620FFF77DFF03B030BD00BF0C080020A5
:1029080000080020F12B0000B52B0000024B034803
:10291800196800F031B800BF0C080020000800203A
:102928000B4B0C480C49C01AC00800042DE900489C
:1029380040F00300FEF774F80849D1E900BC1BF128
:1029480001024CF10003C1E90023BDE8008800BF83
:10295800683300009033000065350000100800203F
:10296800023108B5C9B2FFF72BFF20B10020BDE83E
:102978000840FEF7B3B908BD2D4B2DE9F0410646D6
:102988000F462C48D3E900122B4BC01AC00800048C
:102998000A46C4B0294940F00300FEF745F8022270
:1029A8000021684600F056FC02236A463A21304668
:1029B800FFF762FC10B10020FEF790F9BDF8003077
:1029C8000622C3F30A03B3FBF2F30D2BADF8003074
:1029D8002BD9FC22002105A800F03CFCFC2205A90B
:1029E8003046FFF7E1FC10B10020FEF777F905AC9F
:1029F8000DF5887801AD23882B8063886B80A388C8
:102A0800AB80E388EB8023892B8163896B81227BF0
:102A1800637B43EA0223EB6095E80F00B847002880
:102A2800BDD01234A045E6D1B9E744B0BDE8F08185
:102A38001008002090330000683300007035000053
:102A48001FB50446FEF74AFF08B1FEF747F9444BA5
:102A58001A88ADF804209B78424A8DF8063001A9FF
:102A68001C20FEF771FF08B1FEF738F901211C2080
:102A7800FEF7E2FF0021032202A800F0EBFB9DF81D
:102A8800083043F020038DF8083002992046FFF7FC
:102A980034FD10B10020FEF721F900212046FFF790
:102AA800F0FD10B10020FEF719F906212046FFF7C6
:102AB80070FE10B10020FEF711F901212046FFF742
:102AC8000CFE10B10020FEF709F901212046FFF79E
:102AD8001BFE10B10020FEF701F901212046FFF787
:102AE8002AFE10B10020FEF7F9F801236A461921E1
:102AF8002046FFF7C1FB10B10020FEF7EFF89DF864
:102B0800003043F020038DF800306A460123192174
:102B18002046FFF7B8FB10B10020FEF7DFF80121CF
:102B28002046FFF72AFC10B10020FEF7D7F8032251
:102B3800002103A800F08EFB032303AA40212046AE
:102B4800FFF7A1FB10B10020FEF7C8F801212046CD
:102B5800FFF708FE10B10020FEF7C0F804B010BD62
:102B680062350000292900001FB50D4B0FCB6C46BC
:102B780084E80F001B221D23CDE900234FF0CD630D
:102B8800029300231A4621460648FEF70DFE08B1B7
:102B9800FEF7A4F80448FFF791F904B010BD00BF90
:102BA8008C3500009C350000A035000030B585B09C
:102BB800144604AA1D46012302F8011D0948009382
:102BC8006A21FFF7CDFA08B1FEF788F8EBB2224682
:102BD8006A210448FFF7DFFA08B1FEF77FF8002002
:102BE80005B030BDA0350000B0B51C4682B0083332
:102BF8001046DB086A46A2EBC30302AF9D46224695
:102C08008DF8081001460DF1090000F0FAFA02AD3E
:102C18000022631C0092DBB22A466A210448FFF7AF
:102C28009FFA08B1FEF75AF80020BD46B0BD00BFB4
:102C3800A03500000369C1688B429DBF8268D21825
:102C480002F1FF3203F1FF3394BF501A581A70474C
:102C58002DE9F041D0E902670446F61B4068964228
:102C680088461546384405D900F0CBFA3D44E5605E
:102C7800BDE8F0813246AD1B00F0C3FA2A4608EBE6
:102C88000601606800F0BDFAF1E72DE9F843C56870
:102C98000646894617464FF000083469B3687068DD
:102CA800A54228BFE418013C621B5C1BBC4228BF3C
:102CB8003C46944228BF144649462844224600F020
:102CC800A0FAB3682544AB4208BF00253F1BA044C7
:102CD800A144F560E1D14046BDE8F88310B5114C38
:102CE800114AA2610223C4E90433104BE361A264D0
:102CF8004FF400730E4A2362E264002310220D4948
:102D0800A362E01D6362E362A3656365E365226510
:102D180000F0D3FA0849204600F0CFFA2023A37127
:102D280010BD00BF18080020AC350000A008002026
:102D380090080020B5350000B9350000F8B5184CEA
:102D4800182300FB033503FB00402544C46A012C0B
:102D58000F46164611D003D3022C1BD000240AE0DC
:102D68002846FFF767FF864205D832463946284687
:102D7800FFF76EFF34462046F8BD2846FFF75AFF96
:102D88008642344628BF0446224639462846FFF77D
:102D98005FFFF0E72846BDE8F840FFF776BF00BFC1
:102DA80018080020FFF79ABF0C4B1B78062B10D190
:102DB8000B4B1B681A070CD10A4B186800F0F0037C
:102DC800302B08D000F0E000A0F1400358425841F1
:102DD8007047002070470120704700BFE00F00F0E7
:102DE800E40F00F0E80F00F0094B1B78062B0CD11C
:102DF800084B1B681A0708D1074B186800F0F00049
:102E0800A0F130035842584170470020704700BF76
:102E1800E00F00F0E40F00F0E80F00F008B5FFF74E
:102E2800C3FF28B17D4B7E4A1B68C3F3042313609C
:102E3800FFF7DAFF10B17B4B7B4A1A60FFF7B4FF4C
:102E480028B17A4B7A4A1B68C3F342331360FFF701
:102E5800CBFF20B1774AD36823F08073D360FFF7A4
:102E6800A3FF40B14FF080430022C3F80C21C3F800
:102E78001021C3F83825FFF7B7FF10B16E4B0322B6
:102E88001A60FFF7B1FF40B16C4B05221A600122AE
:102E98009A6700229A603F225A60694B1B78062B7A
:102EA80050D1684B1B6819074CD1674B1B6803F05E
:102EB800F003502B46D14FF08052644BD2F80414E3
:102EC800C3F82015D2F80814C3F82415D2F80C1446
:102ED800C3F82815D2F81014C3F82C15D2F8141416
:102EE800C3F83015D2F81814C3F83415D2F81C14E6
:102EF800C3F84015D2F82014C3F84415D2F82414A6
:102F0800C3F84815D2F82814C3F84C15D2F82C1475
:102F1800C3F85015D2F83014C3F85415D2F8341445
:102F2800C3F86015D2F83814C3F86415D2F83C1405
:102F3800C3F86815D2F84014C3F86C15D2F84424C5
:102F4800C3F87025FFF730FF28B1414B414A1B6891
:102F580003F04F031360FFF727FF48B14FF080439A
:102F6800D3F80024D20744BF6FF00102C3F800244D
:102F7800394B1B68062B08D1384B1B68062B01BF41
:102F8800374A136843F480631360364AD2F88830AE
:102F980043F47003C2F88830BFF34F8FBFF36F8FCD
:102FA8004FF01023D3F80022002A03DBD3F80432B1
:102FB800002B2FDA2C4B0122C3F80425D3F8002468
:102FC800002AFBD04FF010221521C2F80012D3F8C6
:102FD8000024002AFBD04FF010231522C3F8042246
:102FE800214B1A46D3F800140029FBD00021C3F85E
:102FF8000415D2F80034002BFBD0BFF34F8F1949CA
:103008001A4BCA6802F4E0621343CB60BFF34F8FD8
:1030180000BFFDE7164B174A1A6008BD24030010CD
:103028004035014074C007400DF0ADBA44020010AD
:103038003C050040F0ED00E0A005004010560040BF
:10304800E00F00F0E40F00F0E80F00F000C00040CF
:1030580058020010E40E0040300100103401001046
:103068003C17004000ED00E000E001400400FA05D4
:10307800080000200090D00353EA020C61D02DE92B
:10308800F04BB3FA83F51E0007BFB2FA82F502FAD5
:1030980005F403FA05F41646C5F120051EBF22FA09
:1030A80005F73C43203556EA044C4FEA144418BF50
:1030B8000134A3464FF00009C846904271EB030C57
:1030C80039D3094207BFB0FA80F700FA07F6B1FA18
:1030D80081F701FA07F6C7F120071EBF20FA07FC9F
:1030E80046EA0C062037B6FBFBFC7F1B103F07F0B7
:1030F8001F04C4F120060CFA04F42CFA06F644BFA7
:1031080034460026202FA4BF2646002454EA060C85
:1031180008BF012418EB040849EB0609A4FB027C4C
:10312800C01B06FB02CC04FB03CC71EB0C019042E4
:1031380071EB030CC5D20B46024649464046BDE832
:10314800F08BB2FBF3F200007F2805D8034B185C24
:10315800034B5B5C1840704700207047C035000087
:1031680040360000A0F16103192B98BF2038704742
:10317800A0F14103192B98BF203070477F2805D84C
:10318800034B185C034B5B5C18407047002070478A
:10319800C035000040360000A0F16103192B98BF2C
:1031A80020387047A0F14103192B98BF2030704791
:1031B8007F299ABF017001206FF02E0070475AB125
:1031C8000A787F2A0AD800B1026000211960596084
:1031D800501A18BF01207047002070476FF02E006A
:1031E8007047000008B5034B5B689B681B689847ED
:1031F80008BD00BF0C00002008B50921FFF7F2FF49
:1032080008BD844640EA010313F0030F18D1844631
:10321800202A0BD32DE9F007B1E8F807A0E8F80752
:10322800A2F12002202AF7D2BDE8F007042A07D32A
:1032380051F8043B40F8043BA2F10402042AF7D2F7
:10324800002A05D011F8013B00F8013B013AF9D1F9
:10325800604670478446002A2DD010F0030F04D032
:1032680000F8011B013A26D0F7E7C9B241EA01216B
:1032780041EA0141202A12D3A2F120022DE9F003EC
:103288000B460C460D460E460F4688468946A0E872
:10329800FA03203AFBD2BDE8F00320320BD0042A0F
:1032A80005D340F8041B043A05D0042AF9D200F8E3
:1032B800011B013AFBD160467047024610F0030F2C
:1032C80016D111F0030F13D12DE9F0004FF001379B
:1032D8004FF0803351F8044BA4EB070525EA0405A9
:1032E8001D4002D142F8044BF4E7A1F10401F0BCFF
:1032F80011F8013B02F8013B002BF9D1704700F1AE
:10330800010110F0030F11D010F8012B002A23D06F
:1033180010F0030F0AD010F8012B002A1CD010F06F
:10332800030F03D010F8012B002A15D02DE97000E7
:103338004FF001324FF0803350F8044BA4EB0205F4
:1033480025EA04051D4000D1F6E7A0F1040070BC91
:0E33580010F8012B002AFBD1A0EB01007047FA
:1033680016350000000000001D35000000000000B8
:103378002C3500000000000031350000000000007E
:10338800363500000000000001340000000003038F
:10339800C833000000000000D43300000000002003
:1033A800640000202C010020340100206C00002063
:0433B80018000000F9
:1033BC00000000000338FDD870470000DD0300005A
:1033CC0049040000D90300007274745F6C6F675F6E
:1033DC006261636B656E6400580500207F0000001D
:1033EC00D80500204261636B656E647320666C7552
:1033FC007368656400617070000000003B3400006D
:10340C0084340000433400008C34000094340000F9
:10341C009C340000A4340000AC340000B434000030
:10342C00202530327800202020007C002563001BF2
:10343C005B306D002573001B5B313B33316D002518
:10344C00734C6F67732064726F70706564202825ED
:10345C00642925730D0A003C25733E2025733A2000
:10346C000000000000000000D5340000BC34000057
:10347C00C4340000C93400001B5B313B33306D0099
:10348C001B5B313B33326D001B5B313B33336D00C7
:10349C001B5B313B33346D001B5B313B33356D00B3
:1034AC001B5B313B33366D001B5B313B33376D009F
:1034BC007761726E696E6700696E666F0064656233
:1034CC00756700466174616C206572726F7200538F
:1034DC00797374656D20726573657400000000006B
:1034EC00000000000338FDD87047303132333435DA
:1034FC00363738394142434445460000000000004D
:10350C00000000000338FDD870474750494F544520
:10351C000050525300000000BD1D0000CD1D0000E6
:10352C005457494D00554152540055415254450091
:10353C007374617274696E67206C6F6F70004920D0
:10354C00726563656976656420257520696E2074E3
:10355C006F74616C2100010006696E74657272757E
:10356C00707421006E6577206C6F6F702E20696E01
:10357C0074657272757074733A20257500000000C2
:10358C001F0000001F000000000098010600000052
:10359C0000000000003000400000000001000000AE
:1035AC005465726D696E616C0052545400534547FA
:1035BC004745520020202020202020202068282849
:1035CC0028282020202020202020202020202020DF
:1035DC002020202048101010101010101010101067
:1035EC001010101084848484848484848484101047
:1035FC001010101010818181818181010101010164
:10360C00010101010101010101010101010101108F
:10361C001010101010828282828282020202020238
:10362C000202020202020202020202020202021060
:10363C001010102000070320041702010857104037
:10364C0080000000F4370000B8360000CC370000D2
:10365C0053756E004D6F6E005475650057656400B0
:10366C0054687500467269005361740000000000D4
:10367C004A616E00466562004D61720041707200D5
:10368C004D6179004A756E004A756C004175670092
:10369C00536570004F6374004E6F76004465630091
:1036AC0000000000414D00504D000000F0370000BC
:1036BC00EC370000EC370000EC370000EC37000072
:1036CC00EC370000EC370000EC370000EC37000062
:1036DC00EC370000FFFFFFFFFFFFFFFFFFFFFFFFC7
:1036EC00FFFF00002C3700005C360000683700003C
:1036FC007C360000B036000010370000C0370000E8
:10370C001C370000256D2F25642F25790000000043
:10371C00256120256220256520255420255900008F
:10372C0053756E646179004D6F6E646179005475E8
:10373C006573646179005765646E657364617900C3
:10374C0054687572736461790046726964617900BA
:10375C005361747572646179000000004A616E7582
:10376C00617279004665627275617279004D6172A1
:10377C00636800417072696C004D6179004A756E26
:10378C0065004A756C7900417567757374005365F3
:10379C007074656D626572004F63746F6265720060
:1037AC004E6F76656D62657200446563656D62652A
:1037BC007200000025483A254D3A255300000000C0
:1037CC00513100006D31000079310000853100006D
:1037DC00A1310000AD310000B9310000C73100004B
:1037EC00000000002E00000043000000504F534921
:0437FC005800000071
:1038000000000000FF0000000090D00350360000D0
:103810005036000050360000503600005036000090
:04000003000003797D
:00000001FF
