:100000000000012079030000610300006303000089
:1000100065030000670300006903000000000000A2
:100020000000000000000000000000006B03000062
:100030006D030000000000006F030000710300006A
:100040007303000073030000B11D0000091E0000CF
:100050007303000073030000351C000073030000ED
:1000600073030000730300007303000073030000B8
:1000700073030000730300007303000073030000A8
:1000800073030000C50E000073030000730300003B
:10009000610F00007303000073030000730300008E
:1000A0007303000073030000730300007303000078
:1000B0007303000073030000000000000000000054
:1000C0007303000073030000730300007303000058
:1000D00073030000730300007303000000000000BE
:1000E0000000000000000000000000000000000010
:1000F0000000000000000000000000000000000000
:1001000000000000000000000000000000000000EF
:1001100000000000000000000000000000000000DF
:1001200000000000000000000000000000000000CF
:1001300000000000000000000000000000000000BF
:1001400000000000000000000000000000000000AF
:10015000000000000000000000000000000000009F
:10016000000000000000000000000000000000008F
:10017000000000000000000000000000000000007F
:10018000000000000000000000000000000000006F
:10019000000000000000000000000000000000005F
:1001A000000000000000000000000000000000004F
:1001B000000000000000000000000000000000003F
:1001C000000000000000000000000000000000002F
:1001D000000000000000000000000000000000001F
:1001E000000000000000000000000000000000000F
:1001F00000000000000000000000000000000000FF
:10020000364937480A1A02D0072291438D463549AC
:1002100035480A1A06D00722914381F30988022241
:1002200082F3148831483249324A00F045F83248A6
:100230003249334A00F040F832483349334A00F03B
:100240003BF833483349344A00F036F833483449F0
:10025000344A00F031F834483449354A00F02CF87B
:1002600034483549354A00F027F8354835490022E9
:1002700000F02DF834483549002200F028F83448C1
:100280003449091A082903DB0022026004300160A6
:10029000314A90471F482049884205D002680430FF
:1002A00003B4904703BCF7E700208646EC460020E5
:1002B00000212A4A9047FEE7884207D0521A05D00B
:1002C000037801300B700131013AF9D1704788424F
:1002D00002D002700130FAE77047000000000120F0
:1002E00000E0002000000120000001203C3C000054
:1002F0000000002034000020D8030000D8030000D4
:100300005E3700003C3C00000000002000000020A0
:10031000B4370000B4370000B4370000B437000031
:10032000B4370000B4370000B4370000B437000021
:100330003C3C0000703C00003400002034000020F1
:10034000340000203508002038080020380800203C
:100350003808002038280020A1030000692C000084
:10036000FEE7FEE7FEE7FEE7FEE7FEE7FEE7FEE765
:10037000FEE7FEE7704700BF1048804710484FF087
:100380000701884385460F4880470F48016841F4BC
:1003900070010160BFF34F8FBFF36F8FFFF730BF66
:1003A0000A480B490B4A884207D0521A05D00378F5
:1003B00001300B700131013AF9D17047750300002B
:1003C000000001203133000088ED00E0B437000068
:0803D0000000002000000020E5
:1003D800F0B595B01C46164608460D4601F005FADC
:1003E8001A9B0D93CDE9086400242346082205A929
:1003F80028460A948DF82C400C9401F014FA079BB7
:100408000293BDF81830ADF80C30BDF81A30ADF8CD
:100418000E309DF814308DF8114003F00302012AC4
:100428001DD1BDF81440059EC3F3C203C4F3831461
:100438008DF81030A20008230EA9284601F0F3F920
:10044800C6F3952608AB0093224602AB0EA93046A8
:1004580000F0CCFB284601F0CCF915B0F0BD022A1B
:10046800F8D1BDF81640C3F3C203A4098DF81030C3
:100478000827082C264628BF08263B4632460EA9E0
:10048800284601F0D0F9A41B08AB02AA31460EA8F1
:10049800374400F00FFC002CEBD1DBE7704700007D
:1004A80007B5044B0093044A4023FFF791FF03B0BC
:1004B8005DF804FB050500003500002030B50C4D43
:1004C8000FCD89B06C460FC495E80F0084E80F0083
:1004D80008A9062341F8203D0022064801F04AFAFF
:1004E80008B100F07BFC044B00221A7009B030BD43
:1004F800B4370000000000203400002038B50D4B50
:100508000D4D002018700D4804782D5DD2B21C46A0
:1005180065B1043002F010FA08B100F05FFC084B36
:100528001A7812B12378002BFBD038BD0C3002F0BA
:1005380007F8F1E7750000204C07002000000020B4
:100548003400002008B50848084A0378D35C33B162
:10055800043002F08DF9BDE80840FFF7AFBF0C305A
:1005680001F08AFFF7E700BF000000204C070020D9
:10057800FFF7A4BF08B5FFF7FBFF0421034800F00D
:10058800A3FA034B01225A7108BD00BF903700003F
:1005980014000020037813F0040216D003F00303BC
:1005A800012B03D0022B09D0012070470A6800886C
:1005B8000232C0F3831002440A60F5E70B684288F0
:1005C800023303EB92130B60EEE71046704700000E
:1005D8002DE9F04F484C87B00F460546861C002091
:1005E800019200F021FE23683B60D4E90123134403
:1005F800226801339B1A04F21C4704F5836A04F24B
:100608001448B34219D3019A0023002A6CD001225E
:1006180062F3010343F0040365F389132168A268B8
:100628000A4003320E44002044F82230266000F0CD
:10063800FDFD012007B0BDE8F08F0121384600F02C
:1006480017FE504600F02AFE404600F027FE0DF146
:1006580018096068D4F808B049F8100D00EA0B00D2
:10066800033004EB80004946FFF794FF029BB0B9C2
:100678000BEA030204EB8202D16803919A1C01334E
:1006880003EA0B0B04EB8B0C01F00303012B029222
:10069800DCF80CB020D0022B04D083460BE00BEA28
:1006A8000300DDE7BDF80E309B0903334FEA1B4B0F
:1006B80002EB93030293404600F0F3FD08B1029B5E
:1006C80063605946384600F0D3FDD4E9012313444A
:1006D800226801339B1A94E7BDF80C30C3F38313E7
:1006E8004FEA1B4B1344E5E7022262F3010343F090
:1006F800040365F39F5391E7480100200B4B0C4816
:10070800FF2210B59A600022C3F81824C3E900221A
:10071800C3F81424012283F8202401F01FF80446AA
:1007280010B9044801F08AF8204610BD480100209D
:10073800A0370000F437000030B50A4C71B10A4AFE
:100748000A49121BD20800239A4201D1002030BD69
:1007580031F82350854202D00133F5E7034654F8B7
:100768003300F4E7603700009037000000000020F5
:10077800094B013903EBC000032909D8DFE801F070
:100788000A020406042070470079704740797047D0
:10079800002070470220704760370000034BD3E900
:1007A8000030C31A58425841704700BF4801002022
:1007B8002DE9F04385B0FFF7F1FF0646002840F029
:1007C800F9807D4DC5F81804BFF34F8F6868AC6891
:1007D80004AF47F8100D2040033005EB8000394680
:1007E800FFF7D8FE009B18B1D5F81824002A5FD06F
:1007F80004EA0302991C013305EB8202234005EB4E
:100808008303D268DB68029302F00303022B019290
:10081800009162D1BDF8063068484FEA9318B8F1E4
:10082800500FC14628BF4FF0500969F38F1309F1E3
:100838000801ADF8063000F0A9FF0746002800F0CF
:10084800A48000F0D2FF01A900230822384600F056
:10085800DFFF009924EA01060136B600B14535D913
:100868005FFA89F97EB3F6B2A9EB06092140033194
:100878005FFA89F4B146524E05EB810108234A46D6
:10088800384600F0C5FF36B109F108032246314663
:10089800384600F0BDFF009B08F1030803EB9803FE
:1008A8000093D5F81834002B4BD1D5F810445BE0F1
:1008B8002A689A4204D86A60304605B0BDE8F083D9
:1008C80004EA030088E73E493446D7E7214003316C
:1008D80008234A4605EB8101DAE7012B55D1BDF81B
:1008E80004303648C3F38311062928BF062161F373
:1008F800891302318900ADF8043000F047FF07463C
:10090800002842D000F071FF0023082201A93846D0
:1009180000F07EFF0026BDF80420C2F38312B31C4A
:1009280096424FEA8303BCD200994A1C2140033106
:10093800009205EB81010422384600F069FF013678
:10094800E9E7384600F055FFFFF728FF80F001007F
:10095800C6B2B1E7E3685B7923B1236839461B68FF
:1009680020469847E3681C68002CF3D1384600F00D
:1009780040FF204600F058FCD5F818340BB9009B0E
:100988006B60002000F052FCDEE7D5F8104454B943
:100998000C4B0D480D49C01AC008000440F0020075
:1009A80000F06EF8D0E7236820469B689847E36814
:1009B8001C68ECE700267FE748010020A03700000C
:1009C800540100206037000088370000003800001C
:1009D8002DE9F74F284C80460F46924601A901227F
:1009E80018469B46D4F80890FFF7F2FD88B3019D9E
:1009F8000026A91C5E4506EB010234D100211F48E0
:100A080000F016FC80F310006A1C02EA090204EBED
:100A18008202000405EA0903033340EA1840D06063
:100A280014F8232068F3C50204F8232034F823209F
:100A380066F3891224F8232054F82320012167F350
:100A48009F2244F8232061F301026FF3820204F825
:100A5800232094F820341BB1FFF7AAFE0028FBD10D
:100A680003B0BDE8F08F09EA020204EB82025AF8EB
:100A78002630D3600136BDE7480100206405002018
:100A880000231A46FFF7A4BF13B502AC012344F8AC
:100A9800042D2246FFF79CFF02B010BD07B5CDE933
:100AA800002302236A46FFF793FF03B05DF804FBB7
:100AB8001FB5CDE90123069B039301AA0323FFF782
:100AC80087FF05B05DF804FB30B50F49D1F8102455
:100AD800002314463CB9C468237152B9C1F8100404
:100AE8002260184630BDE46825799D4206D0246806
:100AF800F0E7D268116821601060F2E701330A2B31
:100B0800E7D14FF0FF33ECE748010020094A38B538
:100B18000123D2F8104482F820341D4604B938BDA8
:100B2800E3685D71236820465B689847E3681C6842
:100B3800F4E700BF48010020037A052B10B50C46E6
:100B48000FD0437A23B1084A0849204600F003FC35
:100B58000749204600F0FFFB2046BDE8104000F0A2
:100B6800EFBB002AF8D0F3E7453800004A38000008
:100B78006A380000C38873B504460D4633B1144A79
:100B880000921449144A284600F0E5FB217A052909
:100B98001CD0637A4BB1A088FFF7EAFD0F4B1049D0
:100BA80053F82020284600F0D6FB227A0D4BA08867
:100BB80053F822600021FFF7BFFD0B490346324678
:100BC800284602B0BDE8704000F0C5BB02B070BD59
:100BD80045380000553800004D380000183800002E
:100BE8004A380000783800006D3800002DE9F043DD
:100BF80085B01F460C9D002306460C46904695F886
:100C08000C902B7329463846FFF7B4FFB8F1060F4E
:100C180009D8DFE808F00412181F283340003146CD
:100C2800284600F098FB002229463846FFF784FF43
:100C380085F80C9005B0BDE8F08322683146284657
:100C480000F089FBEFE7D4E900233146284600F09D
:100C580082FBE8E7A36800933146D4E900232846DD
:100C680000F079FBDFE7E3680193A368009331465E
:100C7800D4E90023284600F06EFBD4E723690293E9
:100C8800E3680193A36800933146D4E9002328461A
:100C980000F061FBC7E76369039323690293E36884
:100CA8000193A36800933146D4E90023284600F055
:100CB80052FBB8E708292DE9F84F80460E4617463B
:100CC8001C463AD8002593F80C901D731946104617
:100CD800FFF750FFDFF884A0DFF884B0AE422ED9CA
:100CE80018F805205946204600F035FB0135082D37
:100CF800F4D11849DFF86CB0204600F02CFB4FF017
:100D0800000A564520D918F80A507E2D03D82846DF
:100D180002F090FC00B92E252A465946204600F0DC
:100D28001AFB0AF1010ABAF1080FEAD10122214699
:100D38003846FFF701FF84F80C90BDE8F88F51465C
:100D4800204600F008FBD1E70349204600F003FBEA
:100D5800E7E700BF403800003E3800003C3800009C
:100D6800DE39000042380000044B1A5C012393402E
:100D78004FF0A042C2F80835704700BFD7380000CE
:100D880008B50020FFF7F0FF0120FFF7EDFF022074
:100D9800FFF7EAFF0320BDE80840FFF7E5BFC207F9
:100DA80008B501460CD54FF0A0430322C3F84427E9
:100DB800C3F84827C3F84C27C3F85027FFF7E0FFCC
:100DC8008B070AD54FF0A0430C22C3F83427C3F889
:100DD8003827C3F83C27C3F8402708BD1FB50021B2
:100DE800039001AA44F20100CDE9011100F004F8D2
:100DF80005B05DF804FB000010B572B6FFF786FE7B
:100E0800FFF7D6FC0028FBD1104B114C1149E41A0E
:100E1800E408240444F00100FFF732FE0E4B1B687F
:100E2800DB0700D500BE0D4944F00200FFF728FE9D
:100E3800BFF34F8F0A490B4BCA6802F4E0621343B1
:100E4800CB60BFF34F8F00BFFDE700BF60370000E6
:100E580088370000DB380000F0ED00E0E7380000DC
:100E680000ED00E00400FA05024B4FF43C6043F04B
:100E7800010318470039000038B50C4B0C4C4FF4EF
:100E88000032C3F8802001254FF48033C4F848337A
:100E9800C4F808336560FFF7E7FF064BA560002438
:100EA8001C60FFF7E1FF044B1C7038BD00E100E057
:100EB800001001402007002011070020F8B51F4B43
:100EC8001F491B680025C1F84051C1F84451C1F8B9
:100ED8004851C1F84C51C1F80051C1F804514BB305
:100EE800D1F8044517490968641A24F07F442F464D
:100EF8001A68A24209D8A41A15441A7CDE691AB1E4
:100F08001F74D3E905209047AEB90F4B0F4A1978E3
:100F180013788B4205D10133DBB2022B08BF0023C3
:100F2800137012780A4B43F822500A4B4FF4801280
:100F3800C3F80021F8BD3346DAE700BF24070020D4
:100F480000100140200700201C0700201D0700207A
:100F58001407002000E100E02DE9F74F9E4A9F4961
:100F6800137809789E4D99423CD00133DBB2022BAD
:100F780008BF002313709B4912789B4B0F6853F8E6
:100F880022003B1823F07F4300220B602B68164693
:100F98001446944613B942B12B6006E019688142A1
:100FA8000ED902B12B60091A19604FF001082B689D
:100FB800DFF83CA200930027BEB9DFF83CB260E03E
:100FC800401A0C44D968C3F800C0D3F81CE031B10A
:100FD8003A1922F07F42C3E90121DE611E4601224F
:100FE8007346D7E70026B046E1E73446F6697D4AFE
:100FF80063681268DFF804C2A068991A21F07F417B
:10100800614500F2A58001442160012222742A680A
:101018000023C4E90133E361002A40F0A2802C6078
:10102800CAE75A1C9BF80210D2B291428BF80020F2
:1010380004BF00228BF80020182202FB03B32A68A1
:1010480019799C68022974D003297ED0012918D106
:10105800217CB1B9DA6862601A69A2605A699B6931
:10106800A361624BE2601B78002BC0D06160BEE7D1
:101078009C4200F093809946DB69002BF8D100234D
:1010880023749BF800309BF801209A42C9D12B6841
:101098002FB9009A934202D1B8F1000F43D0002B28
:1010A80079D0D3F800A0524D4E4BD5F804751C6882
:1010B800DFF84C813E1B98F8003026F07F46033657
:1010C8009BB94FF48033C5F84433C5F80433494B12
:1010D8004FF400324FF00109C3F880211A60C5F8B7
:1010E8000090FFF7C1FE88F80090B2452CBF544429
:1010F800A41924F07F44C5F84045D5F80435DB1B16
:1011080023F07F43E41B033324F07F44A3420AD92E
:10111800D5F80435C5F84035FFF7A6FE354B4FF432
:101128000032C3F80021314B00221A7003B0BDE829
:10113800F08F13469146A0E71174D2690123002A63
:10114800FAD1002B9DD02A609BE700231946F6E7C9
:10115800D31A23F07F43834234BFC31A002323608A
:1011680053E721681368994213D8591A1160E2614C
:1011780055E7091AD8691A4638B1034618688842EB
:10118800F7D3401A1860184613462160E061DC6105
:1011980012E71346F2E7FFF76FFEC4E74C450DD19F
:1011A800D3692B6053B90F4801920121CAF808107E
:1011B80003600E4B1970FFF757FE019AE169236827
:1011C800C9F81C1011B1086803440B602B689A42D7
:1011D80018BF012753E700BF1C0700201D07002088
:1011E80024070020200700201407002010070020F3
:1011F8000010014000E100E004060020FEFF7F002F
:101208001107002072B6024A136801331360704751
:1012180028070020034A1368013B136003B962B62C
:10122800704700BF28070020FFF7ECBFFFF7F2BFA9
:1012380050E8002F0B4640E8003C9CF0000FF7D127
:101248001046704750E8003F43EA010240E8002C8E
:101258009CF0000FF6D11046704750E8002F02EAC4
:10126800010340E8003C9CF0000FF6D1104670479F
:1012780050E8003F03EB010240E8002C9CF0000F0F
:10128800F6D11046704750E8003FA3EB010240E852
:10129800002C9CF0000FF6D1104670470121FFF793
:1012A800D1BF0021FFF7D9BF10B590B1D0E9012314
:1012B80001689B1ADBB20A60013BDBB2FF2B0268B4
:1012C80002D10020107110BD11684C1C14600B7005
:1012D800F2E70E20F7E738B504460020FFF7A4FF31
:1012E800226863681168994213D9481E106011F882
:1012F800015CE368218A01FB0535A36811791B1A93
:10130800DBB2994200D213710020FFF78FFF284605
:1013180038BD0025F8E738B5054600200C46FFF72C
:1013280083FF2A681368591C1160E968641A298ABE
:10133800B4FBF1F41C700020BDE83840FFF776BF1D
:10134800826810B504462AB1436901680069984764
:101358000023A36010BD0EB403B5039929B102AAF6
:1013680004AB42F8043D00F073F802B05DF804EBFA
:1013780003B070470A2938B504460D4602D10D213D
:10138800FFF7F8FFA3682268591CA160D554D4E977
:1013980001329A4204D32046BDE83840FFF7D0BF57
:1013A80038BD00002DE9F84F9946DDE90A43174694
:1013B800824688460A460126BA420FD24E4538BFB1
:1013C8004E4613F0010B01D164B900240125B9F18F
:1013D800010F1AD909F1FF397D43F8E7B2FBF7F29B
:1013E8000136E9E79B070ED5B9F1000F0CBF302590
:1013F8002025A642EAD2013C29465046FFF7BAFF0B
:10140800002CF6D1E1E72025F3E7B8FBF5F39F427E
:10141800E2D9DFF83890B8FBF5F3504619F8031015
:1014280005FB1388FFF7A6FFB5FBF7F5002DF2D1F2
:10143800BBF1000F02D00CB1A64201D3BDE8F88F72
:1014480020215046013CFFF795FFF4E706390000DC
:101458002DE9F74F054690460E46002900F03A81DF
:1014680016F8011B002958D0252940F0D180002703
:1014780002E047F001071646324612F8013B2D2BD1
:10148800F7D0302B04D02B2B05D147F00407F2E717
:1014980047F00207EFE700242A2B06F101021BD1CF
:1014A800D8F80030191D1B68C8F800101C441646EF
:1014B80033782E2B1CD101364FF0000A314611F833
:1014C800012BA2F13000092814D80A2303FB0A23B0
:1014D800A3F1300A0E46F1E712F8013CA3F13001FE
:1014E8000929E5D80A2101FB0434303C1646D3E724
:1014F8004FF0000A324612F8011B01F0FB00682881
:101508001646F8D0692916D054D8582970D00ED864
:1015180025297DD03378002BA2D12B7B002B00F01E
:10152800D980284603B0BDE8F04FFFF709BF63290B
:1015380068D06429EED1D8F80020D2F80090111DA7
:1015480089EAE972C8F80010A2EBE9724FF0010BC2
:10155800092A61DCD34538BFD3462CB1B9F1000F55
:1015680001DB790700D5013CBA0702D5BAF1000FB3
:1015780004D0FB0702D4002C54D10024B9F1000F89
:1015880058DAC9F100092D212846FFF7F3FE07F0C4
:101598000302022A05D1BAF1000F02D1002C4DD165
:1015A8000024CDE9004753460A2249462846FFF75A
:1015B800F9FEAFE7732954D016D87029AAD1D8F804
:1015C80000301A1DC8F80020302128461C68FFF793
:1015D800D1FE78212846FFF7CDFE00220823CDE969
:1015E800003221461022E1E775292FD0782991D1C0
:1015F800D8F800100A1DC8F80020CDE90047534666
:1016080010222CE0D8F800301A1D1978C8F80020EC
:101618002846FFF7AFFE7DE70A230BF1010B92FB8B
:10162800F3F295E7A345A9D220212846013CFFF70C
:10163800A1FEA0E77807AAD52B21A5E7A345B0D23C
:1016480030212846013CFFF795FEA7E7D8F800109F
:10165800CDE900470A1DC8F8002053460A22096848
:10166800A4E7D8F800301A1DC8F80020F907D3F805
:10167800009012D54F46A7EB090B17F8011B41B98B
:10168800A345BFF447AF20212846013CFFF772FE6F
:10169800F6E72846FFF76EFEEDE7B9F1000F17D021
:1016A800484602F028F80746BC4200D954B909F167
:1016B800FF3919F8011F00293FF42CAF2846FFF71E
:1016C80059FEF6E720212846013CFFF753FEEBE7D9
:1016D8004F46E9E703B0BDE8F08F2DE9F047B0F8D1
:1016E80006904479D2F800A09DF8208009FB04F404
:1016F800043C06460AEB0300A0420F4688BFA4EB51
:10170800030A191DC2F800A0B1FBF9F509FB151170
:101718004DB9A9EB0104544528BF5446BAF1000F4E
:1017280004D1BDE8F0873668013DF1E704317B1943
:1017380070182246B8F1000F0ED001461846AAEBE1
:10174800040A01F07CFFD145254436684C464FF029
:10175800000128BF5446E1E71946F0E7FFF7A4BDAA
:10176800F8B546790146721E0546002393422D6856
:1017780003D30024A64202D8F8BD0133F6E70F6868
:101788002846FFF7C8FD01343946F3E72DE9F84349
:10179800068ACD1C0746FFF79EFD043E35440446E5
:1017A800B5FBF6F5F0B14FF48073EDB28380C680D7
:1017B800013D076081464FF00008A84512D238461F
:1017C800FFF789FD064648B163790133637108F173
:1017D8000108C9F8000007608146EEE72046FFF7D8
:1017E800BFFF34462046BDE8F88301210430FFF7E7
:1017F8003FBD10B5012104460430FFF744FD10F049
:10180800FF0F04D12046BDE81040FFF7A9BF10BD67
:101818001FB504AC44F8042D002200922246FFF7BD
:101828005CFF04B010BD1FB504AC44F8042D0122C0
:1018380000922246FFF751FF04B010BD83680022D2
:101848005A609A60C3E90422DA601A60704700009F
:101858007FB503788DF804304368029383688DF868
:101868000C30C368049303698DF81430054A064B9D
:1018780001A853F8213052F82110984707B05DF8B5
:1018880004FB00BF2C07002038070020F0B50646EF
:10189800944616F8047B194A42F827C0184A42F8B9
:1018A8002730184B0C460FCB85B06D4685E80F00E6
:1018B80023788DF8003063788DF80130A3788DF89F
:1018C8000230E3788DF8033023798DF80530637999
:1018D8008DF80630A3680293237B8DF80C30BCF199
:1018E800000F637B8DF80D30074A3B4608BF002286
:1018F8002946304600F0B0FA05B0F0BD38070020A0
:101908002C07002018390000591800001FB503786B
:101918008DF800304368019383688DF80830C368F8
:101928000393054A054B684653F8213052F82110B5
:10193800984705B05DF804FB4407002048070020DD
:101948001FB503788DF800304368019383688DF8DC
:101958000830C3680393054A054B684653F821309D
:1019680052F82110984705B05DF804FB44070020A1
:1019780048070020F0B5194B067891F81DE043F8A8
:101988002620174B94460A6943F82620154B03F87E
:1019980006E00C4607460FCC89B06D460FC594E8A3
:1019A8000F0085E80F000496BEF1000F0AD0BCF1C5
:1019B800000F0D4A694608BF0022381D00F096FE48
:1019C80009B0F0BDBCF1000F084A694608BF002203
:1019D80007F10C0000F096FCF2E700BF4807002072
:1019E800440700204C070020151900004919000081
:1019F80000F1804000F5C040002382B00360036816
:101A08000193019B02B07047800000F1A040D0F81C
:101A1800003723F44033C0F80037D0F8003743EAE2
:101A28000141C0F800177047054B4FF0FF320728F7
:101A380043F8202084BF1B1883F84820704700BF54
:101A48005007002010B5164C94F8583033BBFF21CE
:101A5800E2180133202B82F83010F9D10021C8B2E6
:101A6800FFF7E2FF01310C29F9D1042200210D48CA
:101A780001F00EFE0C4BC02283F8062340221A60A8
:101A88004FF4BE70FFF7B4FF084B4FF00042C3F8A5
:101A98000423012384F85830002010BD0820FCE7F7
:101AA80050070020A407002000E100E0006000408B
:101AB800F0B5394D2C18944694F93040002C68DA6A
:101AC8008E78C6F34006002E15BF0023082308278A
:101AD8000C27BB4201D10420F0BD55F82320013268
:101AE8004FEA830441D12F1845F823C087F83030D6
:101AF80016B9EA1882F848008A78560716D4D70724
:101B080035D5820002F1A042D2F8006726F002061D
:101B1800C2F80067214FC60800F0070C012202FA3C
:101B28000CF217F806C042EA0C02BA558A780E7809
:101B380012F0020224D004F1804303F5C0430002EE
:101B4800D3F8102522F4473222F44072C3F8102546
:101B58003604D3F8102500F4F85006F44036304324
:101B68001043C3F810050020B6E70133B1E74E78FB
:101B780000F5E0724FF0A047B60047F82260C9E7C9
:101B8800083B2B4493F8500040EA861683F85060CF
:101B9800E9E70820A0E700BF50070020A4070020BD
:101BA80038B5204C251895F93020072A18DD22442D
:101BB80092F848309B09032B0DD14FF0A043D3F87E
:101BC8001035C34013F0010F0CBF02210321BDE8FB
:101BD8003840FFF719BF012B14BF03210221F6E794
:101BE800D3B2072B1CD8930003F1804303F5C043FD
:101BF800D3F8100540F00100C3F8100502F14000C9
:101C0800800080B2FFF7F4FE51B195F9303054F8F6
:101C180023302BB1012303FA02F2034BC3F8042348
:101C280038BD00BF50070020006000402DE9FF4785
:101C38000024584A584E594D019401211368A2F5C1
:101C4800C040012B80B206D1D6F804330B4202D033
:101C5800FFF7CEFE0C430432AA424FEA4101EDD110
:101C68004F4B1B68012B0AD14FF4BE70FFF7C0FE23
:101C78004FF0A04344F00044D3F81035019314F01A
:101C8800FF0F1AD0474F00250126344210D0AB0071
:101C980003F1804303F5C043D3F81005D3F81015BA
:101CA80057F82530C0F30420C1F3014103B1984728
:101CB8000135082D4FEA4606E7D1002C66DA0022E6
:101CC8004FF0FF33CDE90223DFF8D8900127002633
:101CD80034464FF0A04809EB060393F95020531CF3
:101CE80045D0D2B222F0C005E90804A8084402F0A1
:101CF800070310F804CC07FA03F31CEA030F36D0E5
:101D080009EB050C92099CF930C059F82CA0BAF1DE
:101D1800000F0AD1032A2AD10DF1080E1EF801C0BE
:101D28004CEA030C0EF801C001E0032AF4D005F5D3
:101D3800E07110F80C0C58F821101842C1F3014159
:101D480005D0022913D1032A0BD1114604E0032937
:101D58000DD1032A05D102212846FFF755FE01348B
:101D6800E4B2BAF1000F02D011462846D047013636
:101D7800042EB0D154B14FF0A043019AD3F81035D6
:101D8800934203D00193029B0393A0E704B0BDE8FC
:101D9800F08700BF00610040006000402061004003
:101DA8007C61004050070020014B1B68184700BFAA
:101DB800AC07002038B50A4B98420D460CD10020DC
:101DC800FFF732FA074B1C7914B901221D601A710A
:101DD8000020FFF72BFA0CB9002038BD1120FCE7D2
:101DE80000200040AC070020034B984201BF034B82
:101DF80000221A601A71704700200040AC070020CA
:101E0800114BD3F8183182B0E3B1104B00221A609D
:101E18001B680193019B0E4BD97FFF2907D0987F40
:101E280001228A404FF0A04148B1C1F80C25002298
:101E38005A771A72D3E90021064802B01047C1F850
:101E48000825F4E702B07047003000401831004020
:101E5800B4070020BC0700202DE9F74F06796D4F25
:101E680001934FF0240A0AFB06FA07EB0A0B914686
:101E78009BF81C20009780460C46002A40F0C6803C
:101E8800056865492846FFF795FF002840F0C0809F
:101E9800009B227B43F80A90019BCBF8043094F80E
:101EA80000C04FF0A041012303FA0CF3012A94BFAC
:101EB800C1F80C35C1F808350CF5E0734FF0010E88
:101EC80041F823E06378FF2B1FBF0EFA03FEC1F829
:101ED8000CE503F5E07E4FF0030A18BF41F82EA089
:101EE800A17808BF4FF0FF33FF2917BF01F5E07E47
:101EF8004FF0FF374FF0A04A4FF0040B08BF01978F
:101F0800009F1CBF01914AF82EB04FF0240E0EFB23
:101F1800067E8EF82010E1788EF81F10FF2919D060
:101F280094F804A04FF0010B0BFA01FB4FF0A04E00
:101F3800BAF1000F61D0CEF80CB501F5E0714FF0A1
:101F4800030B4EF821B0DFF8CCE0242101FB06E1B9
:101F580081F81EA0C5F808C5C5F80C35019BC5F861
:101F68001035A368C5F82435637B003318BF0123F7
:101F7800022A45D0032A46D0012A01D143F00203A0
:101F8800C5F85435A379C5F8C035B9F1000F02D0AA
:101F98004023C5F804330723C5F80035B9F1000F0D
:101FA80020D0D8F8003062791B0B59B20029A8BF9D
:101FB80001F16044DBB2B8BF03F00F054FEA4212EB
:101FC800B4BF164C04F56144D2B2B4BF625584F86C
:101FD800002303F01F03012202FA03F34909104A00
:101FE80042F82130009A242303FB06260023737746
:101FF8000123337703B0BDE8F08FCEF808B59CE72E
:1020080043F00403BCE743F00603B9E70820F1E70F
:102018001120EFE7B4070020091E000014ED00E0CE
:1020280000E100E02DE9F3410579474E24236B4395
:102038001446F2180F46517F8046002940F08180EF
:10204800F35823B114F0140F04BF0123537797E812
:102058000F004FF0240C0CFB056C0CF10C0E8EE8F5
:102068000F009CF81F20FF2A08D09CF81E1001239F
:1020780093404FF0A042C1B1C2F80835396821B188
:1020880001F06043B3F1005F06D1BA6882B102F093
:102098006043B3F1005F0BD0242303FB05650023E5
:1020A8006B77102002B0BDE8F081C2F80C35E5E787
:1020B800D8F800307868C3F84415C3F84805F968BB
:1020C800C3F834250022C3F83815C3F81821D3F80B
:1020D80018210192019A14F0010218BF0122C3F8D5
:1020E800502514F0020218BF0122C3F84025220728
:1020F8005CBF01221A6124226A43B258B2B9D3F8EC
:102108001821002AFBD0242303FB0565EA7FFF2A58
:1021180007D0A87F012393404FF0A04218B1C2F81E
:102128000C350020BEE7C2F80835BBE714F0040000
:102138004FF0400202D0C3F80823F2E7C3F80423A3
:10214800B0E71120AEE700BFB407002000234350DA
:1021580082B043580193019B02B070470A4610B5FC
:102168004FF48E71FFF7F2FF136A9168C95C136A26
:1021780001331362C0F81C1510BD8B690A4610B5EF
:102188004FF4847123B9FFF7E1FFD0F8183510BD7B
:10219800FFF7DCFF536AD168D0F81805C854536AB2
:1021A80001335362F3E700001FB501238DF80030B7
:1021B800044BCDE90110D3E900126846904705B0F9
:1021C8005DF804FBD807002030B54C4AD2F8043338
:1021D80013F4007F85B015464FD0D2F82431002B78
:1021E8004BD04FF492711046FFF7B0FF4FF40173D4
:1021F800C2F80833424B93F8291009B901215160FC
:102208003E4902228DF80020D1F88024C1F88024AC
:1022180003929A690292DA6801920022C3E90622BF
:102228006846D3E9001290473448D0F81C315BB1B6
:1022380033490A6A4B699A420A464BD291F82830C8
:10224800002B47D1FFF78AFF2C4AD2F8443193B1CB
:102258004FF4A2711046FFF779FF294B93F8291024
:1022680009B1012111609A692AB100229A61586A5C
:10227800D968FFF799FF05B030BDD5F804335B077F
:10228800D2D5D5F80831002BCED01D4C1B4821469D
:10229800FFF773FF636AA2699A422346C4D1E269D1
:1022A800E1684AB12369E3600023606AA261E361DF
:1022B8006362FFF779FFB7E794F829200AB901228A
:1022C8006A600E4A4FF40170C2F8080300229A614E
:1022D800586AEEE74FF48E710848FFF737FF5169E7
:1022E8000029B1D00023029191688DF80030019146
:1022F80053616846D2E900139847A5E700200040DB
:10230800D80700202DE9F843564F047991462C222E
:1023180002FB0472064692F82A200D46002A40F075
:102328009A8051490068FFF745FD8046002840F033
:10233800958029683368481C0BD04FF0A0400122D3
:102348008A40C0F8082501F5E0724FF0030C40F808
:1023580022C06868421C1FBF00F5E0724FF0A04C15
:102368004FF0000E4CF822E0AA6995F814C0C3F8A3
:1023780024256A7DBCF1010F4CEA0202C3F86C25E2
:10238800C3F81405C3F80C151DD1AA68511C1FBF4A
:1023980002F5E0714FF0A0404FF0000C40F821C06A
:1023A800E968481C0BD04FF0A04C01208840CCF8BD
:1023B800080501F5E0704FF0030E4CF820E0C3F873
:1023C8000815C3F810252C236343FA18C2F80490A3
:1023D8002A69FA50B9F1000F2AD04FF48E7130688B
:1023E8002D7FFFF7B3FE30684FF4A271FFF7AEFE02
:1023F80032681E4BC2F80433120B51B20029A8BF31
:1024080001F160404FEA4513BABF194802F00F05C1
:1024180000F56140DBB2B4BF435580F8003302F0E9
:102428001F02012303FA02F24909124B43F8212043
:1024380033680422C3F800252C2303FB047300220D
:10244800C3E9062283F829205A61012283F82A2049
:102458004046BDE8F8834FF00808F9E74FF0110847
:10246800F6E700BFD8070020D12100008000020055
:1024780014ED00E000E100E0F8B5047900682D4DA6
:102488000023C0F800352C2303FB04535B6873B1A9
:10249800294BC0F80833020B53B201215B0902F043
:1024A8001F0201FA02F22033244941F82320D0F810
:1024B8000C65D0F81415D0F80835D0F810254FF071
:1024C800FF37BE42C0F8147518BF06F5E076C0F8AD
:1024D8000C75C0F80875C0F810751EBF4FF0A047FE
:1024E8004FF0020C47F826C04E1C1FBF4FF0A04605
:1024F80001F5E071022746F82170511C1FBF4FF00B
:10250800A04102F5E072022641F822605A1C1FBF62
:1025180003F5E0734FF0A042022142F82310FFF7C1
:1025280063FC2C2303FB0454002384F82A306360E3
:10253800F8BD00BFD80700208402020000E100E0D7
:102548002DE9F843224F06794FF02C0909FB067450
:1025580080466569002D37D16261A16025624FF41C
:102568008E71006884F82850FFF7F0FDD8F8000055
:10257800012383602146FFF7F1FD6368A1462BBB69
:10258800D8F80050226A63699A4212D3D8F800300A
:10259800D3F81C21002AFBD00122DA6000202C236A
:1025A80003FB067600237361BDE8F88394F82830AE
:1025B80043B9D5F81C31002BF8D049462846FFF717
:1025C800CDFDDFE70F20EAE71120EDE72846EBE72E
:1025D800D80700200023435082B043580193019B41
:1025E80002B070471FB501238DF80030044BCDE9C8
:1025F8000110D3E900126846904705B05DF804FB66
:10260800040800207FB5374AD2F82461002E48D04C
:1026180010464FF49271FFF7DDFF02238DF800306A
:10262800D2F88034C2F880340393D2F83C35029350
:102638002D4BDA6801920022C3E906226846D3E9E5
:1026480000129047274AD2F844317BB14FF4A27167
:102658001046FFF7BFFF244B996939B10021C3E940
:102668000611D968D2F83C05FFF7BCFF1D4AD2F81D
:102678002031A3B14FF490711046FFF7ABFF1A4B0E
:10268800596961B1D2F84C150291002299688DF808
:10269800002001915A616846D3E90012904704B0BE
:1026A80070BDD2F81031002BCCD04FF48871104691
:1026B800FFF790FF0C4BD2F83C0599698842C1D1CD
:1026C800DC69D96864B1D2F8005225F02005C2F857
:1026D80000521A699C61DA60DE61FFF783FFB1E797
:1026E8009C61FAE700200040040800202DE9F84327
:1026F8005A4F06799146242202FB0672044692F844
:1027080020200D46002A40F0A28055490068FFF7B6
:1027180051FB8046002840F09D8029682368481CAA
:102728000BD04FF0A04001228A40C0F8082501F5DF
:10273800E0724FF0030C40F822C06868421C1FBFCB
:1027480000F5E0724FF0A04C4FF0000E4CF822E07C
:10275800AA6995F814C0C3F824256A7DBCF1010F55
:102768004CEA0202C3F86C25C3F80C15C3F814052B
:102778001DD1AA68511C1FBF02F5E0714FF0A0409F
:102788004FF0000C40F821C0E968481C0BD04FF00E
:10279800A04C01208840CCF8080501F5E0704FF006
:1027A800030E4CF820E0C3F80815C3F810252423BD
:1027B8007343FA18C2F804902A69FA50B9F1000F65
:1027C80034D04FF4887120682D7FFFF703FF4FF452
:1027D80090712068FFF7FEFE4FF492712068FFF7B2
:1027E800F9FE20684FF4A271FFF7F4FE22681D4B32
:1027F800C2F80433120B51B20029A8BF01F160409E
:102808004FEA4513BABF184802F00F0500F56140BA
:10281800DBB2B4BF435580F8003302F01F02012336
:1028280003FA02F24909114B43F8212023680822D0
:10283800C3F80025242303FB06730022C3E90622FC
:102848005A61012283F820204046BDE8F8834FF002
:102858000808F9E74FF01108F6E700BF0408002060
:102868000D2600001003020014ED00E000E100E076
:10287800F8B5047900682D4D0023C0F800352423ED
:1028880003FB04535B6873B1294BC0F80833020B90
:1028980053B201215B0902F01F0201FA02F2203350
:1028A800244941F82320D0F80C65D0F81415D0F845
:1028B8000835D0F810254FF0FF37BE42C0F80C7528
:1028C80018BF06F5E076C0F81475C0F80875C0F8AA
:1028D80010751EBF4FF0A0474FF0020C47F826C0F6
:1028E8004E1C1FBF4FF0A04601F5E071022746F8C5
:1028F8002170511C1FBF4FF0A04102F5E072022663
:1029080041F822605A1C1FBF03F5E0734FF0A04244
:10291800022142F82310FFF767FA242303FB04542B
:10292800002384F820306360F8BD00BF040800204D
:102938001003020000E100E001F06043B3F1005F22
:102948002DE9F041074632D11C4B0679242505FBB9
:10295800063598466C6964BB6A61A96000684FF4E3
:102968009071FFF737FE4FF4AC713868FFF732FE0D
:102978003B686A69A968C3F84415C3F84825012269
:102988009A606A68BAB9D3F82011D3F8582149B9BE
:10299800002AF8D00F20242303FB06860023736146
:1029A800BDE8F081002A14BF0F200020F3E71020B3
:1029B800F6E71120F4E72046F2E700BF04080020FC
:1029C80008B50748074B0849C01AC008000440F07A
:1029D8000300FEF755F8054B01221A7008BD00BF29
:1029E800883700006037000057390000340800209D
:1029F8002DE9F0411F481C461F4BC01AC00886B07D
:102A080000040D4616460B4600AF22461B4940F00F
:102A18000300FEF743F8FDF7CBFE02460028FAD183
:102A280004F108036946DB08A1EBC3039D4607F1DF
:102A3800180365F07F0503F8115DBB600123FB6097
:102A4800E318DBB207F108010D48C7F810D0E846D3
:102A58007B61FFF7E7FA08B1FEF7C0F9224608F1F3
:102A68000101304600F0EBFD00201837BD46BDE8F7
:102A7800F08100BF8837000060370000D0390000BF
:102A8800C43900002DE9F0411D481C461D4BC01AF1
:102A9800C00884B000040D4616460B4600AF224617
:102AA800194940F00300FDF7F9FFFDF781FE804664
:102AB8000028FAD104F108036A46DB08A2EBC30335
:102AC8009D46684605F07F052246314600F8015BC1
:102AD800013400F0B4FDE4B2424639460B48C7F869
:102AE80000D0C7E90148C7F80C80FFF79BFA08B186
:102AF800FEF774F900201037BD46BDE8F08100BF2D
:102B08008837000060370000E4390000C43900004D
:102B18001FB50A4B0FCB6C4684E80F00084B009397
:102B28004FF00073029300231A4621460548FEF72A
:102B3800ADFE08B1FEF752F904B010BD44390000EB
:102B48001B1D1E1FC039000013B5174C174B2360FF
:102B580002A9174B6360002301F8023D204600F0EC
:102B6800B9F99DF806206A2A0ED01248124B13496B
:102B7800C01AC008000440F00300FDF785FFFDF708
:102B880017FE0028FBD1FEE70121204600F0A7F937
:102B98000DF10701204600F0B9F99DF80730002B28
:102BA800F6D102B010BD00BF280800208D2A000011
:102BB800F92900008837000060370000BB390000A1
:102BC80010B5114C0121204600F068F90521204676
:102BD80000F01FF90021204600F004F901212046E9
:102BE80000F0A2F90221204600F0B5F9052120469F
:102BF80000F03DF90621204600F022F92046A821E0
:102C0800BDE8104000F0C5B92808002013B503221C
:102C1800002101A800F03CFD9DF804300F4C43F062
:102C280020038DF804300199204600F0F7F90521BA
:102C3800204600F028FB0021204600F0B3FA0621C8
:102C4800204600F009FB0121204600F0D7FA0121B7
:102C5800204600F0EAFA02B010BD00BF28080020A4
:102C68002DE9F04F4C4E93B0002401203470FEF74C
:102C780096F84FF400412046FDF740FD08B1FEF7F5
:102C8800ADF8FDF777FC454CFFF742FF444B45494B
:102C9800E41AE408240444F003042046FDF7F0FE97
:102CA800FDF786FD0028FBD1FFF74EFFFFF788FFF1
:102CB800FEF7C8FE08B1FEF791F83B4B1A88ADF84D
:102CC8000C209B78394A8DF80E3003A91C20FEF79A
:102CD800EFFE08B1FEF782F801211C20FEF760FF25
:102CE800FFF794FF3249DFF8D480324FDFF8D090F5
:102CF8002046FDF7C5FEFDF75BFD05460028FAD125
:102D080040BF20BF20BF3378002BF4D04146204677
:102D1800FDF7B6FE2946012202A800F0B9FC0123FE
:102D280002AA3A21384600F04FF89DF80820DFF84B
:102D380094B049462046FDF7A7FE2946012202A87D
:102D480000F0A6FC012302AA3B21384600F03CF81B
:102D58009DF8082018492046FDF796FE29463C2292
:102D680003A800F095FC3C2203A9384600F0ADF812
:102D780003AD0DF1480AB5F90410B5F90230B5F9FB
:102D880000200091204659460635FDF791FE55452D
:102D9800F1D100233370AEE73408002088370000F3
:102DA800603700006239000054390000C92900006A
:102DB80077390000280800209E3900008D3900006E
:102DC80091390000AB39000010B4D0E90140A446A5
:102DD8005DF8044B604710B404688068A4465DF849
:102DE800044B604737B501230D4601AA102104465C
:102DF800FFF7EAFF58B99DF8043065F383038DF8AF
:102E0800043001AA012310212046FFF7E4FF03B094
:102E180030BD37B501230D4601AA10210446FFF73E
:102E2800D3FF58B99DF8043065F307138DF80430C3
:102E380001AA012310212046FFF7CDFF03B030BDC2
:102E480037B501230D4601AA11210446FFF7BCFF3F
:102E580058B99DF8043065F343038DF8043001AA8E
:102E6800012311212046FFF7B6FF03B030BD37B567
:102E780001230D4601AA11210446FFF7A5FF58B901
:102E88009DF8043065F307138DF8043001AA012377
:102E980011212046FFF79FFF03B030BD37B501234E
:102EA8000D4601AA12210446FFF78EFF58B99DF876
:102EB800043065F386138DF8043001AA012312212A
:102EC8002046FFF788FF03B030BD13460A463E216F
:102ED800FFF77ABF0A4601230F21FFF775BF37B501
:102EE80001230D4601AA12210446FFF76DFF58B9C8
:102EF8009DF8043065F300038DF8043001AA01231E
:102F080012212046FFF767FF03B030BD13B5012338
:102F18000C4601AA1221FFF757FF9DF80430C3F3AE
:102F28000003237002B010BD37B501230D4601AA76
:102F380010210446FFF748FF58B99DF8043065F39F
:102F480000038DF8043001AA012310212046FFF761
:102F580042FF03B030BD37B501230C4601AA172143
:102F68000546FFF731FF90B99DF80430220962F356
:102F7800C30364F3461363F07F0360F382038DF8A1
:102F8800043001AA012317212846FFF724FF03B0C4
:102F980030BD30B585B00C46012303AA162105467D
:102FA800FFF712FFC0BB9DF80C30220962F305132E
:102FB800E20962F386138DF80C3003AA0123162167
:102FC8002846FFF708FF38BB012302AA1521284627
:102FD800FFF7FAFE00BB9DF8083064F301038DF893
:102FE800083002AA012315212846FFF7F4FE98B9F4
:102FF800012301AA13212846FFF7E6FE60B99DF8D0
:103008000430E40864F341038DF8043001AA012375
:1030180013212846FFF7DFFE05B030BD30B589B073
:10302800C1F300450191012303AA0D210446FFF7CE
:10303800CBFE002840F0B1809DF804209DF80C30AC
:10304800C2F3000161F30003C2F3400161F34103DD
:10305800C2F3800161F38203C2F3C00161F3C303C9
:10306800C2F3001161F30413C2F3401161F3451375
:10307800C2F3801161F38613D20962F3C7138DF886
:103088000C3003AA01230D212046FFF7A4FE0028D7
:1030980040F08380012304AA5E212046FFF794FEB6
:1030A80000287AD1012305AA5F212046FFF78CFE6C
:1030B800002872D19DF805209DF81030C2F3000158
:1030C80061F30003C2F3400161F34103C2F38001DD
:1030D80061F38203C2F3C00161F3C303C2F30011B9
:1030E80061F30413C2F3401161F34513C2F3801175
:1030F80061F38613D20962F3C7138DF8103004AA5E
:1031080001235E212046FFF766FE002845D10123F2
:1031180006AA13212046FFF757FE00283DD19DF847
:10312800183065F304138DF8183006AA012313210B
:103138002046FFF750FE80BB012302AA1A21204631
:10314800FFF742FE48BB9DF8083065F3C7138DF8BA
:10315800083002AA01231A212046FFF73CFEE0B9F5
:10316800012307AA58212046FFF72EFE9DF80530B7
:1031780013F0FC0F9DF81C3004D19DF8142012F0B8
:10318800FC020CD043F080038DF81C3028B90123D1
:1031980007AA58212046FFF71EFE09B030BD62F38A
:1031A800C713F1E737B501230C466A4607210546E0
:1031B800FFF70AFE00BB9DF8003064F386138DF814
:1031C80000306A46012307212846FFF704FE98B914
:1031D800012301AA1A212846FFF7F6FD60B99DF8D8
:1031E8000430640864F386138DF8043001AA0123BF
:1031F8001A212846FFF7EFFD03B030BD37B501238C
:103208000D4601AA08210446FFF7DEFD58B99DF8CE
:10321800043065F302038DF8043001AA0123082164
:103228002046FFF7D8FD03B030BD37B501230D4662
:1032380001AA08210446FFF7C7FD58B99DF80430D4
:1032480065F3C5038DF8043001AA0123082120463F
:10325800FFF7C1FD03B030BD37B501230D4601AA04
:103268000A210446FFF7B0FD58B99DF8043065F30C
:1032780002038DF8043001AA01230A212046FFF732
:10328800AAFD03B030BD37B501230D4601AA0A21B6
:103298000446FFF799FD58B99DF8043065F3C60355
:1032A8008DF8043001AA01230A212046FFF793FD77
:1032B80003B030BD0C4B1B78062B10D10B4B1B6891
:1032C8001A070CD10A4B186800F0F003302B08D00D
:1032D80000F0E000A0F14003584258417047002038
:1032E80070470120704700BFE00F00F0E40F00F0C6
:1032F800E80F00F0094B1B78062B0CD1084B1B6814
:103308001A0708D1074B186800F0F000A0F1300345
:103318005842584170470020704700BFE00F00F046
:10332800E40F00F0E80F00F008B5FFF7C3FF28B17D
:103338007D4B7E4A1B68C3F304231360FFF7DAFF53
:1033480010B17B4B7B4A1A60FFF7B4FF28B17A4B68
:103358007A4A1B68C3F342331360FFF7CBFF20B1EF
:10336800774AD36823F08073D360FFF7A3FF40B197
:103378004FF080430022C3F80C21C3F81021C3F892
:103388003825FFF7B7FF10B16E4B03221A60FFF71D
:10339800B1FF40B16C4B05221A6001229A670022E6
:1033A8009A603F225A60694B1B78062B50D1684BB4
:1033B8001B6819074CD1674B1B6803F0F003502BAF
:1033C80046D14FF08052644BD2F80414C3F820154C
:1033D800D2F80814C3F82415D2F80C14C3F8281529
:1033E800D2F81014C3F82C15D2F81414C3F83015F9
:1033F800D2F81814C3F83415D2F81C14C3F84015C1
:10340800D2F82014C3F84415D2F82414C3F8481588
:10341800D2F82814C3F84C15D2F82C14C3F8501558
:10342800D2F83014C3F85415D2F83414C3F8601520
:10343800D2F83814C3F86415D2F83C14C3F86815E8
:10344800D2F84014C3F86C15D2F84424C3F8702598
:10345800FFF730FF28B1414B414A1B6803F04F0387
:103468001360FFF727FF48B14FF08043D3F80024DB
:10347800D20744BF6FF00102C3F80024394B1B6820
:10348800062B08D1384B1B68062B01BF374A136837
:1034980043F480631360364AD2F8883043F47003EB
:1034A800C2F88830BFF34F8FBFF36F8F4FF01023F0
:1034B800D3F80022002A03DBD3F80432002B2FDADA
:1034C8002C4B0122C3F80425D3F80024002AFBD092
:1034D8004FF010221521C2F80012D3F80024002A58
:1034E800FBD04FF010231522C3F80422214B1A46B3
:1034F800D3F800140029FBD00021C3F80415D2F832
:103508000034002BFBD0BFF34F8F19491A4BCA6800
:1035180002F4E0621343CB60BFF34F8F00BFFDE7B7
:10352800164B174A1A6008BD2403001040350140A5
:1035380074C007400DF0ADBA440200103C050040CD
:10354800F0ED00E0A005004010560040E00F00F04C
:10355800E40F00F0E80F00F000C00040580200102F
:10356800E40E004030010010340100103C17004008
:1035780000ED00E000E001400400FA051C00002016
:103588000090D0037F2805D8034B185C034B5B5C85
:103598001840704700207047FC3900007C3A000052
:1035A800A0F16103192B98BF20387047A0F141039F
:1035B800192B98BF203070477F2805D8034B185C1B
:1035C800034B5B5C1840704700207047FC390000D3
:1035D8007C3A0000A0F16103192B98BF203870478E
:1035E800A0F14103192B98BF203070477F299ABF5B
:1035F800017001206FF02E0070475AB10A787F2AB7
:103608000AD800B10260002119605960501A18BF29
:1036180001207047002070476FF02E0070470000AF
:1036280008B5034B5B689B681B68984708BD00BFDB
:103638002000002008B50921FFF7F2FF08BD8446E5
:1036480040EA010313F0030F18D18446202A0BD354
:103658002DE9F007B1E8F807A0E8F807A2F1200281
:10366800202AF7D2BDE8F007042A07D351F8043B13
:1036780040F8043BA2F10402042AF7D2002A05D03C
:1036880011F8013B00F8013B013AF9D16046704757
:103698008446002A2DD010F0030F04D000F8011B37
:1036A800013A26D0F7E7C9B241EA012141EA0141CE
:1036B800202A12D3A2F120022DE9F0030B460C4672
:1036C8000D460E460F4688468946A0E8FA03203A7A
:1036D800FBD2BDE8F00320320BD0042A05D340F812
:1036E800041B043A05D0042AF9D200F8011B013A58
:1036F800FBD16046704700F1010110F0030F11D0B3
:1037080010F8012B002A23D010F0030F0AD010F86C
:10371800012B002A1CD010F0030F03D010F8012B46
:10372800002A15D02DE970004FF001324FF0803398
:1037380050F8044BA4EB020525EA04051D4000D10E
:10374800F6E7A0F1040070BC10F8012B002AFBD1A9
:06375800A0EB0100704728
:1037600028390000000000002F3900000000000090
:10377000333900000000000038390000000000006C
:103780003D39000000000000113800000000030374
:10379000D437000000000000E037000014000020D3
:1037A0007800002040010020480100208000002017
:0437B00018000000FD
:1037B400FFFFFFFFFFFFFFFFFFFFFFFFFFFFFFFF15
:1037C40000000000000000000000D6010601000017
:1037D400A90400004D050000A50400007561727481
:1037E4005F6C6F675F6261636B656E64000000000D
:1037F4006C0500207F000000EC0500204261636B33
:10380400656E647320666C757368656400617070BE
:1038140000000000453800008C3800004D380000DE
:10382400943800009C380000A4380000AC38000034
:10383400B4380000BC380000202020007C00256340
:10384400001B5B306D002573001B5B313B33316D16
:103854000025734C6F67732064726F707065642009
:103864002825642925730D0A003C25733E20257301
:103874003A20000000000000E1380000C4380000D5
:10388400CC380000D13800001B5B313B33306D0075
:103894001B5B313B33326D001B5B313B33336D00BB
:1038A4001B5B313B33346D001B5B313B33356D00A7
:1038B4001B5B313B33366D001B5B313B33376D0093
:1038C4007761726E696E6700696E666F0064656227
:1038D40075670011121314466174616C206572726D
:1038E4006F720053797374656D207265736574002B
:1038F4000000000000000000000000000338FDD8B4
:1039040070473031323334353637383941424344E5
:1039140045460000FFFFFFFF0006FF0000000040D7
:10392400000000004750494F544500505253005383
:1039340050494D00554152540055415254450000E0
:10394400FFFFFFFF06FF0000000000400000000032
:10395400010006696E7465727275707421005350AB
:1039640049206578616D706C65207374617274654B
:10397400642E0077616974696E6720666F722069CE
:103984006E74657272757074007774660066696629
:103994006F312069733A202578006669666F32209A
:1039A40069733A20257800446174613A25642C20B7
:1039B40025642C202564007269700000000000005A
:1039C4000030004000000000010000007370692016
:1039D40072656164202575206F6E20253032780071
:1039E400737069207772697465202575206F6E2065
:1039F40025303278000000002020202020202020C4
:103A0400206828282828202020202020202020204A
:103A140020202020202020204810101010101010EA
:103A240010101010101010108484848484848484F2
:103A34008484101010101010108181818181810103
:103A44000101010101010101010101010101010162
:103A540001010110101010101082828282828202F1
:103A64000202020202020202020202020202020232
:103A74000202021010101020000703200417020194
:103A84000857104080000000303C0000F43A000069
:103A9400083C000053756E004D6F6E005475650050
:103AA4005765640054687500467269005361740078
:103AB400000000004A616E00466562004D617200BC
:103AC400417072004D6179004A756E004A756C0050
:103AD40041756700536570004F6374004E6F760044
:103AE4004465630000000000414D00504D0000009B
:103AF4002C3C0000283C0000283C0000283C00002E
:103B0400283C0000283C0000283C0000283C000021
:103B1400283C0000283C0000FFFFFFFFFFFFFFFFE1
:103B2400FFFFFFFFFFFF0000683B0000983A000022
:103B3400A43B0000B83A0000EC3A00004C3B000003
:103B4400FC3B0000583B0000256D2F25642F257990
:103B540000000000256120256220256520255420D1
:103B64002559000053756E646179004D6F6E646170
:103B7400790054756573646179005765646E657383
:103B8400646179005468757273646179004672697E
:103B94006461790053617475726461790000000096
:103BA4004A616E75617279004665627275617279F7
:103BB400004D6172636800417072696C004D6179F7
:103BC400004A756E65004A756C79004175677573B6
:103BD400740053657074656D626572004F63746F31
:103BE400626572004E6F76656D626572004465634E
:103BF400656D62657200000025483A254D3A2553EB
:103C0400000000008D350000A9350000B535000026
:103C1400C1350000DD350000E9350000F535000050
:103C240003360000000000002E00000043000000E6
:083C3400504F534958000000F5
:103C3C0000000000002000400000000000200040B8
:103C4C000000000000000000FF0000000090D00306
:103C5C008C3A00008C3A00008C3A00008C3A000040
:043C6C008C3A00008E
:04000003000003797D
:00000001FF
