:100000000000012079030000610300006303000089
:1000100065030000670300006903000000000000A2
:100020000000000000000000000000006B03000062
:100030006D030000000000006F030000710300006A
:100040007303000073030000991D0000F11D000000
:1000500073030000730300001D1C00007303000005
:1000600073030000730300007303000073030000B8
:1000700073030000730300007303000073030000A8
:1000800073030000AD0E0000730300007303000053
:10009000490F0000730300007303000073030000A6
:1000A0007303000073030000730300007303000078
:1000B0007303000073030000000000000000000054
:1000C0007303000073030000730300007303000058
:1000D00073030000730300007303000000000000BE
:1000E0000000000000000000000000000000000010
:1000F0000000000000000000000000000000000000
:1001000000000000000000000000000000000000EF
:1001100000000000000000000000000000000000DF
:1001200000000000000000000000000000000000CF
:1001300000000000000000000000000000000000BF
:1001400000000000000000000000000000000000AF
:10015000000000000000000000000000000000009F
:10016000000000000000000000000000000000008F
:10017000000000000000000000000000000000007F
:10018000000000000000000000000000000000006F
:10019000000000000000000000000000000000005F
:1001A000000000000000000000000000000000004F
:1001B000000000000000000000000000000000003F
:1001C000000000000000000000000000000000002F
:1001D000000000000000000000000000000000001F
:1001E000000000000000000000000000000000000F
:1001F00000000000000000000000000000000000FF
:10020000364937480A1A02D0072291438D463549AC
:1002100035480A1A06D00722914381F30988022241
:1002200082F3148831483249324A00F045F83248A6
:100230003249334A00F040F832483349334A00F03B
:100240003BF833483349344A00F036F833483449F0
:10025000344A00F031F834483449354A00F02CF87B
:1002600034483549354A00F027F8354835490022E9
:1002700000F02DF834483549002200F028F83448C1
:100280003449091A082903DB0022026004300160A6
:10029000314A90471F482049884205D002680430FF
:1002A00003B4904703BCF7E700208646EC460020E5
:1002B00000212A4A9047FEE7884207D0521A05D00B
:1002C000037801300B700131013AF9D1704788424F
:1002D00002D002700130FAE77047000000000120F0
:1002E00000E000200000012000000120184C000068
:1002F0000000002034000020D8030000D8030000D4
:10030000F2460000184C0000000000200000002011
:1003100048470000484700004847000048470000A1
:100320004847000048470000484700004847000091
:10033000184C00004C4C0000340000203400002019
:1003400034000020500800205008002050080020F1
:100350005008002050280020A1030000CD2B0000F1
:10036000FEE7FEE7FEE7FEE7FEE7FEE7FEE7FEE765
:10037000FEE7FEE7704700BF1048804710484FF087
:100380000701884385460F4880470F48016841F4BC
:1003900070010160BFF34F8FBFF36F8FFFF730BF66
:1003A0000A480B490B4A884207D0521A05D00378F5
:1003B00001300B700131013AF9D17047750300002B
:1003C00000000120C542000088ED00E04847000021
:0803D0000000002000000020E5
:1003D800F0B595B01C46164608460D4601F0F9F9E9
:1003E8001A9B0D93CDE9086400242346082205A929
:1003F80028460A948DF82C400C9401F008FA079BC3
:100408000293BDF81830ADF80C30BDF81A30ADF8CD
:100418000E309DF814308DF8114003F00302012AC4
:100428001DD1BDF81440059EC3F3C203C4F3831461
:100438008DF81030A20008230EA9284601F0E7F92C
:10044800C6F3952608AB0093224602AB0EA93046A8
:1004580000F0C0FB284601F0C0F915B0F0BD022A33
:10046800F8D1BDF81640C3F3C203A4098DF81030C3
:100478000827082C264628BF08263B4632460EA9E0
:10048800284601F0C4F9A41B08AB02AA31460EA8FD
:10049800374400F003FC002CEBD1DBE77047000089
:1004A80007B5044B0093044A4023FFF791FF03B0BC
:1004B8005DF804FB050500003500002030B50C4D43
:1004C8000FCD89B06C460FC495E80F0084E80F0083
:1004D80008A9062341F8203D0022064801F03EFA0B
:1004E80008B100F06FFC044B00221A7009B030BD4F
:1004F80048470000000000203400002038B50D4BAC
:100508000D4D002018700D4804782D5DD2B21C46A0
:1005180065B1043002F004FA08B100F053FC084B4E
:100528001A7812B12378002BFBD038BD0C3001F0BB
:10053800FBFFF1E7750000204C07002000000020B9
:100548003400002008B50848084A0378D35C33B162
:10055800043002F081F9BDE80840FFF7AFBF0C3066
:1005680001F07EFFF7E700BF000000204C070020E5
:10057800FFF7A4BF08B5FFF7FBFF0421034800F00D
:1005880097FA034B01225A7108BD00BF24470000A7
:1005980014000020037813F0040216D003F00303BC
:1005A800012B03D0022B09D0012070470A6800886C
:1005B8000232C0F3831002440A60F5E70B684288F0
:1005C800023303EB92130B60EEE71046704700000E
:1005D8002DE9F04F484C87B00F460546861C002091
:1005E800019200F015FE23683B60D4E9012313440F
:1005F800226801339B1A04F21C4704F5836A04F24B
:100608001448B34219D3019A0023002A6CD001225E
:1006180062F3010343F0040365F389132168A268B8
:100628000A4003320E44002044F82230266000F0CD
:10063800F1FD012007B0BDE8F08F0121384600F038
:100648000BFE504600F01EFE404600F01BFE0DF16A
:1006580018096068D4F808B049F8100D00EA0B00D2
:10066800033004EB80004946FFF794FF029BB0B9C2
:100678000BEA030204EB8202D16803919A1C01334E
:1006880003EA0B0B04EB8B0C01F00303012B029222
:10069800DCF80CB020D0022B04D083460BE00BEA28
:1006A8000300DDE7BDF80E309B0903334FEA1B4B0F
:1006B80002EB93030293404600F0E7FD08B1029B6A
:1006C80063605946384600F0C7FDD4E90123134456
:1006D800226801339B1A94E7BDF80C30C3F38313E7
:1006E8004FEA1B4B1344E5E7022262F3010343F090
:1006F800040365F39F5391E7480100200B4B0C4816
:10070800FF2210B59A600022C3F81824C3E900221A
:10071800C3F81424012283F8202401F013F80446B6
:1007280010B9044801F07EF8204610BD48010020A9
:10073800344700008847000030B50A4C71B10A4AB6
:100748000A49121BD20800239A4201D1002030BD69
:1007580031F82350854202D00133F5E7034654F8B7
:100768003300F4E7F44600002447000000000020AE
:10077800094B013903EBC000032909D8DFE801F070
:100788000A020406042070470079704740797047D0
:100798000020704702207047F4460000034BD3E95D
:1007A8000030C31A58425841704700BF4801002022
:1007B8002DE9F04385B0FFF7F1FF0646002840F029
:1007C800F9807D4DC5F81804BFF34F8F6868AC6891
:1007D80004AF47F8100D2040033005EB8000394680
:1007E800FFF7D8FE009B18B1D5F81824002A5FD06F
:1007F80004EA0302991C013305EB8202234005EB4E
:100808008303D268DB68029302F00303022B019290
:10081800009162D1BDF8063068484FEA9318B8F1E4
:10082800500FC14628BF4FF0500969F38F1309F1E3
:100838000801ADF8063000F09DFF0746002800F0DB
:10084800A48000F0C6FF01A900230822384600F062
:10085800D3FF009924EA01060136B600B14535D91F
:100868005FFA89F97EB3F6B2A9EB06092140033194
:100878005FFA89F4B146524E05EB810108234A46D6
:10088800384600F0B9FF36B109F10803224631466F
:10089800384600F0B1FF009B08F1030803EB98030A
:1008A8000093D5F81834002B4BD1D5F810445BE0F1
:1008B8002A689A4204D86A60304605B0BDE8F083D9
:1008C80004EA030088E73E493446D7E7214003316C
:1008D80008234A4605EB8101DAE7012B55D1BDF81B
:1008E80004303648C3F38311062928BF062161F373
:1008F800891302318900ADF8043000F03BFF074648
:10090800002842D000F065FF0023082201A93846DC
:1009180000F072FF0026BDF80420C2F38312B31C56
:1009280096424FEA8303BCD200994A1C2140033106
:10093800009205EB81010422384600F05DFF013684
:10094800E9E7384600F049FFFFF728FF80F001008B
:10095800C6B2B1E7E3685B7923B1236839461B68FF
:1009680020469847E3681C68002CF3D1384600F00D
:1009780034FF204600F04CFCD5F818340BB9009B26
:100988006B60002000F046FCDEE7D5F8104454B94F
:100998000C4B0D480D49C01AC008000440F0020075
:1009A80000F06EF8D0E7236820469B689847E36814
:1009B8001C68ECE700267FE7480100203447000068
:1009C80054010020F44600001C4700009447000032
:1009D8002DE9F74F284C80460F46924601A901227F
:1009E80018469B46D4F80890FFF7F2FD88B3019D9E
:1009F8000026A91C5E4506EB010234D100211F48E0
:100A080000F00AFC80F310006A1C02EA090204EBF9
:100A18008202000405EA0903033340EA1840D06063
:100A280014F8232068F3C50204F8232034F823209F
:100A380066F3891224F8232054F82320012167F350
:100A48009F2244F8232061F301026FF3820204F825
:100A5800232094F820341BB1FFF7AAFE0028FBD10D
:100A680003B0BDE8F08F09EA020204EB82025AF8EB
:100A78002630D3600136BDE7480100206405002018
:100A880000231A46FFF7A4BF13B502AC012344F8AC
:100A9800042D2246FFF79CFF02B010BD07B5CDE933
:100AA800002302236A46FFF793FF03B05DF804FBB7
:100AB80030B50F49D1F81024002314463CB9C46856
:100AC800237152B9C1F810042260184630BDE46899
:100AD80025799D4206D02468F0E7D2681168216024
:100AE8001060F2E701330A2BE7D14FF0FF33ECE750
:100AF80048010020094A38B50123D2F8104482F889
:100B080020341D4604B938BDE3685D71236820466A
:100B18005B689847E3681C68F4E700BF4801002059
:100B2800037A052B10B50C460FD0437A23B1084A37
:100B38000849204600F003FC0749204600F0FFFB67
:100B48002046BDE8104000F0EFBB002AF8D0F3E7DC
:100B5800DF470000E447000004480000C38873B57D
:100B680004460D4633B1144A00921449144A2846E3
:100B780000F0E5FB217A05291CD0637A4BB1A088E7
:100B8800FFF7F6FD0F4B104953F82020284600F0D8
:100B9800D6FB227A0D4BA08853F822600021FFF77C
:100BA800CBFD0B4903463246284602B0BDE87040EB
:100BB80000F0C5BB02B070BDDF470000EF47000082
:100BC800E7470000AC470000E44700001448000075
:100BD800074800002DE9F04385B01F460C9D00230F
:100BE80006460C46904695F80C902B7329463846D5
:100BF800FFF7B4FFB8F1060F09D8DFE808F00412D0
:100C0800181F283340003146284600F098FB002280
:100C180029463846FFF784FF85F80C9005B0BDE8F3
:100C2800F08322683146284600F089FBEFE7D4E9D3
:100C380000233146284600F082FBE8E7A3680093CA
:100C48003146D4E90023284600F079FBDFE7E36862
:100C58000193A36800933146D4E90023284600F0A5
:100C68006EFBD4E723690293E3680193A3680093BA
:100C78003146D4E90023284600F061FBC7E76369E1
:100C8800039323690293E3680193A36800933146B1
:100C9800D4E90023284600F052FBB8E708292DE9DB
:100CA800F84F80460E4617461C463AD8002593F85A
:100CB8000C901D7319461046FFF750FFDFF884A00B
:100CC800DFF884B0AE422ED918F8052059462046E0
:100CD80000F035FB0135082DF4D11849DFF86CB068
:100CE800204600F02CFB4FF0000A564520D918F892
:100CF8000A507E2D03D8284603F066FC00B92E253D
:100D08002A465946204600F01AFB0AF1010ABAF1B0
:100D1800080FEAD1012221463846FFF701FF84F87F
:100D28000C90BDE8F88F5146204600F008FBD1E74B
:100D38000349204600F003FBE7E700BFDA4700005D
:100D4800D8470000D6470000D0470000DC47000025
:100D5800044B1A5C012393404FF0A042C2F80835B7
:100D6800704700BF7348000008B50020FFF7F0FF88
:100D78000120FFF7EDFF0220FFF7EAFF0320BDE89F
:100D88000840FFF7E5BFC20708B501460CD54FF08C
:100D9800A0430322C3F84427C3F84827C3F84C27C5
:100DA800C3F85027FFF7E0FF8B070AD54FF0A043A1
:100DB8000C22C3F83427C3F83827C3F83C27C3F8F4
:100DC800402708BD1FB50021039001AA44F2010085
:100DD800CDE9011100F004F805B05DF804FB00004E
:100DE80010B572B6FFF786FEFFF7E2FC0028FBD1CC
:100DF800104B114C1149E41AE408240444F0010092
:100E0800FFF73EFE0E4B1B68DB0700D500BE0D4901
:100E180044F00200FFF734FEBFF34F8F0A490B4B33
:100E2800CA6802F4E0621343CB60BFF34F8F00BF80
:100E3800FDE700BFF44600001C47000077480000AB
:100E4800F0ED00E08348000000ED00E00400FA0542
:100E5800024B4FF43C6043F00103184790480000F0
:100E680038B50C4B0C4C4FF40032C3F880200125E8
:100E78004FF48033C4F84833C4F808336560FFF78B
:100E8800E7FF064BA56000241C60FFF7E1FF044B59
:100E98001C7038BD00E100E0001001402007002070
:100EA80011070020F8B51F4B1F491B680025C1F822
:100EB8004051C1F84451C1F84851C1F84C51C1F8EA
:100EC8000051C1F804514BB3D1F8044517490968DA
:100ED800641A24F07F442F461A68A24209D8A41A3B
:100EE80015441A7CDE691AB11F74D3E905209047AE
:100EF800AEB90F4B0F4A197813788B4205D10133DD
:100F0800DBB2022B08BF0023137012780A4B43F898
:100F180022500A4B4FF48012C3F80021F8BD334623
:100F2800DAE700BF24070020001001402007002056
:100F38001C0700201D0700201407002000E100E026
:100F48002DE9F74F9E4A9F49137809789E4D99429B
:100F58003CD00133DBB2022B08BF002313709B493E
:100F680012789B4B0F6853F822003B1823F07F43FD
:100F780000220B602B6816461446944613B942B1FA
:100F88002B6006E0196881420ED902B12B60091A5C
:100F980019604FF001082B68DFF83CA20093002786
:100FA800BEB9DFF83CB260E0401A0C44D968C3F817
:100FB80000C0D3F81CE031B13A1922F07F42C3E9EE
:100FC8000121DE611E4601227346D7E70026B0469E
:100FD800E1E73446F6697D4A63681268DFF804C2BF
:100FE800A068991A21F07F41614500F2A58001446B
:100FF8002160012222742A680023C4E90133E361D5
:10100800002A40F0A2802C60CAE75A1C9BF8021004
:10101800D2B291428BF8002004BF00228BF8002046
:10102800182202FB03B32A6819799C68022974D034
:1010380003297ED0012918D1217CB1B9DA68626010
:101048001A69A2605A699B69A361624BE2601B78C6
:10105800002BC0D06160BEE79C4200F093809946A7
:10106800DB69002BF8D1002323749BF800309BF830
:1010780001209A42C9D12B682FB9009A934202D114
:10108800B8F1000F43D0002B79D0D3F800A0524D0F
:101098004E4BD5F804751C68DFF84C813E1B98F858
:1010A800003026F07F4603369BB94FF48033C5F8ED
:1010B8004433C5F80433494B4FF400324FF001096B
:1010C800C3F880211A60C5F80090FFF7C1FE88F8C0
:1010D8000090B2452CBF5444A41924F07F44C5F8AD
:1010E8004045D5F80435DB1B23F07F43E41B03336D
:1010F80024F07F44A3420AD9D5F80435C5F8403511
:10110800FFF7A6FE354B4FF40032C3F80021314BF0
:1011180000221A7003B0BDE8F08F13469146A0E78D
:101128001174D2690123002AFAD1002B9DD02A60BC
:101138009BE700231946F6E7D31A23F07F4383423F
:1011480034BFC31A0023236053E721681368994208
:1011580013D8591A1160E26155E7091AD8691A4675
:1011680038B1034618688842F7D3401A1860184601
:1011780013462160E061DC6112E71346F2E7FFF7EE
:101188006FFEC4E74C450DD1D3692B6053B90F48A6
:1011980001920121CAF8081003600E4B1970FFF77D
:1011A80057FE019AE1692368C9F81C1011B1086853
:1011B80003440B602B689A4218BF012753E700BF0E
:1011C8001C0700201D0700202407002020070020FE
:1011D80014070020100700200010014000E100E083
:1011E80004060020FEFF7F001107002072B6024AA5
:1011F800136801331360704728070020034A1368F7
:10120800013B136003B962B6704700BF280700208E
:10121800FFF7ECBFFFF7F2BF50E8002F0B4640E89E
:10122800003C9CF0000FF7D11046704750E8003F93
:1012380043EA010240E8002C9CF0000FF6D110466A
:10124800704750E8002F02EA010340E8003C9CF098
:10125800000FF6D11046704750E8003F03EB01023B
:1012680040E8002C9CF0000FF6D11046704750E87B
:10127800003FA3EB010240E8002C9CF0000FF6D1E0
:10128800104670470121FFF7D1BF0021FFF7D9BFF2
:1012980010B590B1D0E9012301689B1ADBB20A604E
:1012A800013BDBB2FF2B026802D10020107110BD98
:1012B80011684C1C14600B70F2E70E20F7E738B584
:1012C80004460020FFF7A4FF22686368116899426A
:1012D80013D9481E106011F8015CE368218A01FBEC
:1012E8000535A36811791B1ADBB2994200D2137134
:1012F8000020FFF78FFF284638BD0025F8E738B5EE
:10130800054600200C46FFF783FF2A681368591C1E
:101318001160E968641A298AB4FBF1F41C70002092
:10132800BDE83840FFF776BF826810B504462AB199
:1013380043690168006998470023A36010BD0EB493
:1013480003B5039929B102AA04AB42F8043D00F0A1
:1013580073F802B05DF804EB03B070470A2938B59A
:1013680004460D4602D10D21FFF7F8FFA368226855
:10137800591CA160D554D4E901329A4204D32046BD
:10138800BDE83840FFF7D0BF38BD00002DE9F84F61
:101398009946DDE90A431746824688460A460126E9
:1013A800BA420FD24E4538BF4E4613F0010B01D159
:1013B80064B900240125B9F1010F1AD909F1FF39DF
:1013C8007D43F8E7B2FBF7F20136E9E79B070ED554
:1013D800B9F1000F0CBF30252025A642EAD2013C06
:1013E80029465046FFF7BAFF002CF6D1E1E7202541
:1013F800F3E7B8FBF5F39F42E2D9DFF83890B8FB82
:10140800F5F3504619F8031005FB1388FFF7A6FFFC
:10141800B5FBF7F5002DF2D1BBF1000F02D00CB1EE
:10142800A64201D3BDE8F88F20215046013CFFF7C2
:1014380095FFF4E7964800002DE9F74F05469046DA
:101448000E46002900F03A8116F8011B002958D0F1
:10145800252940F0D180002702E047F00107164611
:10146800324612F8013B2D2BF7D0302B04D02B2B12
:1014780005D147F00407F2E747F00207EFE7002439
:101488002A2B06F101021BD1D8F80030191D1B6860
:10149800C8F800101C44164633782E2B1CD1013690
:1014A8004FF0000A314611F8012BA2F1300009284B
:1014B80014D80A2303FB0A23A3F1300A0E46F1E7E6
:1014C80012F8013CA3F130010929E5D80A2101FBF2
:1014D8000434303C1646D3E74FF0000A324612F87F
:1014E800011B01F0FB0068281646F8D0692916D0C0
:1014F80054D8582970D00ED825297DD03378002BA0
:10150800A2D12B7B002B00F0D980284603B0BDE880
:10151800F04FFFF709BF632968D06429EED1D8F8E6
:101528000020D2F80090111D89EAE972C8F800106D
:10153800A2EBE9724FF0010B092A61DCD34538BFF1
:10154800D3462CB1B9F1000F01DB790700D5013C76
:10155800BA0702D5BAF1000F04D0FB0702D4002C59
:1015680054D10024B9F1000F58DAC9F100092D212E
:101578002846FFF7F3FE07F00302022A05D1BAF165
:10158800000F02D1002C4DD10024CDE9004753466D
:101598000A2249462846FFF7F9FEAFE7732954D0D7
:1015A80016D87029AAD1D8F800301A1DC8F800201A
:1015B800302128461C68FFF7D1FE78212846FFF71E
:1015C800CDFE00220823CDE9003221461022E1E7B2
:1015D80075292FD0782991D1D8F800100A1DC8F89C
:1015E8000020CDE90047534610222CE0D8F80030FF
:1015F8001A1D1978C8F800202846FFF7AFFE7DE7C6
:101608000A230BF1010B92FBF3F295E7A345A9D24C
:1016180020212846013CFFF7A1FEA0E77807AAD5BC
:101628002B21A5E7A345B0D230212846013CFFF77E
:1016380095FEA7E7D8F80010CDE900470A1DC8F8BD
:10164800002053460A220968A4E7D8F800301A1D7A
:10165800C8F80020F907D3F8009012D54F46A7EB39
:10166800090B17F8011B41B9A345BFF447AF202167
:101678002846013CFFF772FEF6E72846FFF76EFEA4
:10168800EDE7B9F1000F17D0484602F0FEFF074614
:10169800BC4200D954B909F1FF3919F8011F0029D2
:1016A8003FF42CAF2846FFF759FEF6E720212846DD
:1016B800013CFFF753FEEBE74F46E9E703B0BDE80F
:1016C800F08F2DE9F047B0F806904479D2F800A0E1
:1016D8009DF8208009FB04F4043C06460AEB03004D
:1016E800A0420F4688BFA4EB030A191DC2F800A048
:1016F800B1FBF9F509FB15114DB9A9EB01045445E6
:1017080028BF5446BAF1000F04D1BDE8F087366807
:10171800013DF1E704317B1970182246B8F1000F3A
:101728000ED001461846AAEB040A02F052FFD14532
:10173800254436684C464FF0000128BF5446E1E77F
:101748001946F0E7FFF7A4BDF8B546790146721EC1
:101758000546002393422D6803D30024A64202D8ED
:10176800F8BD0133F6E70F682846FFF7C8FD0134D6
:101778003946F3E72DE9F843068ACD1C0746FFF7FB
:101788009EFD043E35440446B5FBF6F5F0B14FF432
:101798008073EDB28380C680013D076081464FF0BB
:1017A8000008A84512D23846FFF789FD064648B119
:1017B80063790133637108F10108C9F80000076013
:1017C8008146EEE72046FFF7BFFF34462046BDE8D6
:1017D800F88301210430FFF73FBD10B5012104460D
:1017E8000430FFF744FD10F0FF0F04D12046BDE898
:1017F8001040FFF7A9BF10BD1FB504AC44F8042D75
:10180800002200922246FFF75CFF04B010BD1FB50E
:1018180004AC44F8042D012200922246FFF751FF40
:1018280004B010BD836800225A609A60C3E904229C
:10183800DA601A60704700007FB503788DF80430CD
:101848004368029383688DF80C30C3680493036976
:101858008DF81430054A064B01A853F8213052F888
:101868002110984707B05DF804FB00BF2C07002043
:1018780038070020F0B50646944616F8047B194A46
:1018880042F827C0184A42F82730184B0C460FCBAD
:1018980085B06D4685E80F0023788DF800306378B1
:1018A8008DF80130A3788DF80230E3788DF8033095
:1018B80023798DF8053063798DF80630A368029393
:1018C800237B8DF80C30BCF1000F637B8DF80D3055
:1018D800074A3B4608BF00222946304600F0B0FAC6
:1018E80005B0F0BD380700202C070020A8480000EC
:1018F800411800001FB503788DF800304368019344
:1019080083688DF80830C3680393054A054B684619
:1019180053F8213052F82110984705B05DF804FBC0
:1019280044070020480700201FB503788DF80030D1
:101938004368019383688DF80830C3680393054AA8
:10194800054B684653F8213052F82110984705B0E6
:101958005DF804FB4407002048070020F0B5194B48
:10196800067891F81DE043F82620174B94460A693B
:1019780043F82620154B03F806E00C4607460FCC23
:1019880089B06D460FC594E80F0085E80F000496EE
:10199800BEF1000F0AD0BCF1000F0D4A694608BF1E
:1019A8000022381D00F096FE09B0F0BDBCF1000F12
:1019B800084A694608BF002207F10C0000F096FCAF
:1019C800F2E700BF48070020440700204C0700202A
:1019D800FD1800003119000000F1804000F5C040FA
:1019E800002382B0036003680193019B02B0704733
:1019F800800000F1A040D0F8003723F44033C0F84D
:101A08000037D0F8003743EA0141C0F800177047A3
:101A1800054B4FF0FF32072843F8202084BF1B18DE
:101A280083F84820704700BF5007002010B5164CB7
:101A380094F8583033BBFF21E2180133202B82F889
:101A48003010F9D10021C8B2FFF7E2FF01310C29AB
:101A5800F9D1042200210D4802F0E4FD0C4BC0220C
:101A680083F8062340221A604FF4BE70FFF7B4FFD4
:101A7800084B4FF00042C3F80423012384F8583080
:101A8800002010BD0820FCE750070020A407002014
:101A980000E100E000600040F0B5394D2C18944694
:101AA80094F93040002C68DA8E78C6F34006002E90
:101AB80015BF0023082308270C27BB4201D10420A7
:101AC800F0BD55F8232001324FEA830441D12F1885
:101AD80045F823C087F8303016B9EA1882F848006C
:101AE8008A78560716D4D70735D5820002F1A04266
:101AF800D2F8006726F00206C2F80067214FC60830
:101B080000F0070C012202FA0CF217F806C042EAAC
:101B18000C02BA558A780E7812F0020224D004F129
:101B2800804303F5C0430002D3F8102522F447325E
:101B380022F44072C3F810253604D3F8102500F4B7
:101B4800F85006F4403630431043C3F8100500201F
:101B5800B6E70133B1E74E7800F5E0724FF0A047E1
:101B6800B60047F82260C9E7083B2B4493F85000B9
:101B780040EA861683F85060E9E70820A0E700BF2E
:101B880050070020A407002038B5204C251895F9E7
:101B98003020072A18DD224492F848309B09032B8D
:101BA8000DD14FF0A043D3F81035C34013F0010F07
:101BB8000CBF02210321BDE83840FFF719BF012BF4
:101BC80014BF03210221F6E7D3B2072B1CD89300D8
:101BD80003F1804303F5C043D3F8100540F001003A
:101BE800C3F8100502F14000800080B2FFF7F4FE50
:101BF80051B195F9303054F823302BB1012303FA51
:101C080002F2034BC3F8042338BD00BF500700207D
:101C1800006000402DE9FF470024584A584E594DAE
:101C2800019401211368A2F5C040012B80B206D1AE
:101C3800D6F804330B4202D0FFF7CEFE0C43043231
:101C4800AA424FEA4101EDD14F4B1B68012B0AD143
:101C58004FF4BE70FFF7C0FE4FF0A04344F00044BD
:101C6800D3F81035019314F0FF0F1AD0474F002511
:101C78000126344210D0AB0003F1804303F5C04382
:101C8800D3F81005D3F8101557F82530C0F3042001
:101C9800C1F3014103B198470135082D4FEA4606C3
:101CA800E7D1002C66DA00224FF0FF33CDE902239A
:101CB800DFF8D8900127002634464FF0A04809EBFA
:101CC800060393F95020531C45D0D2B222F0C00528
:101CD800E90804A8084402F0070310F804CC07FA3E
:101CE80003F31CEA030F36D009EB050C92099CF9A3
:101CF80030C059F82CA0BAF1000F0AD1032A2AD112
:101D08000DF1080E1EF801C04CEA030C0EF801C0D4
:101D180001E0032AF4D005F5E07110F80C0C58F82E
:101D280021101842C1F3014105D0022913D1032A19
:101D38000BD1114604E003290DD1032A05D1022154
:101D48002846FFF755FE0134E4B2BAF1000F02D07D
:101D580011462846D0470136042EB0D154B14FF071
:101D6800A043019AD3F81035934203D00193029B04
:101D78000393A0E704B0BDE8F08700BF006100400E
:101D880000600040206100407C6100405007002056
:101D9800014B1B68184700BFAC07002038B50A4B39
:101DA80098420D460CD10020FFF732FA074B1C79F8
:101DB80014B901221D601A710020FFF72BFA0CB923
:101DC800002038BD1120FCE700200040AC070020AF
:101DD800034B984201BF034B00221A601A717047E7
:101DE80000200040AC070020114BD3F8183182B016
:101DF800E3B1104B00221A601B680193019B0E4B44
:101E0800D97FFF2907D0987F01228A404FF0A0414F
:101E180048B1C1F80C2500225A771A72D3E900217B
:101E2800064802B01047C1F80825F4E702B0704729
:101E38000030004018310040B4070020BC070020E3
:101E48002DE9F74F06796D4F01934FF0240A0AFBED
:101E580006FA07EB0A0B91469BF81C200097804670
:101E68000C46002A40F0C680056865492846FFF7F9
:101E780095FF002840F0C080009B227B43F80A9021
:101E8800019BCBF8043094F800C04FF0A041012327
:101E980003FA0CF3012A94BFC1F80C35C1F80835D0
:101EA8000CF5E0734FF0010E41F823E06378FF2B47
:101EB8001FBF0EFA03FEC1F80CE503F5E07E4FF0F4
:101EC800030A18BF41F82EA0A17808BF4FF0FF33CE
:101ED800FF2917BF01F5E07E4FF0FF374FF0A04A0A
:101EE8004FF0040B08BF0197009F1CBF01914AF8EF
:101EF8002EB04FF0240E0EFB067E8EF82010E178EF
:101F08008EF81F10FF2919D094F804A04FF0010B88
:101F18000BFA01FB4FF0A04EBAF1000F61D0CEF8DA
:101F28000CB501F5E0714FF0030B4EF821B0DFF866
:101F3800CCE0242101FB06E181F81EA0C5F808C504
:101F4800C5F80C35019BC5F81035A368C5F82435CC
:101F5800637B003318BF0123022A45D0032A46D0E9
:101F6800012A01D143F00203C5F85435A379C5F815
:101F7800C035B9F1000F02D04023C5F80433072358
:101F8800C5F80035B9F1000F20D0D8F800306279D3
:101F98001B0B59B20029A8BF01F16044DBB2B8BFDE
:101FA80003F00F054FEA4212B4BF164C04F5614422
:101FB800D2B2B4BF625584F8002303F01F03012294
:101FC80002FA03F34909104A42F82130009A2423FF
:101FD80003FB0626002373770123337703B0BDE89C
:101FE800F08FCEF808B59CE743F00403BCE743F054
:101FF8000603B9E70820F1E71120EFE7B40700204E
:10200800F11D000014ED00E000E100E02DE9F341CE
:102018000579474E24236B431446F2180F46517F27
:102028008046002940F08180F35823B114F0140F42
:1020380004BF0123537797E80F004FF0240C0CFBE3
:10204800056C0CF10C0E8EE80F009CF81F20FF2A7F
:1020580008D09CF81E10012393404FF0A042C1B154
:10206800C2F80835396821B101F06043B3F1005F67
:1020780006D1BA6882B102F06043B3F1005F0BD0B9
:10208800242303FB056500236B77102002B0BDE80D
:10209800F081C2F80C35E5E7D8F800307868C3F865
:1020A8004415C3F84805F968C3F834250022C3F875
:1020B8003815C3F81821D3F818210192019A14F0A1
:1020C800010218BF0122C3F8502514F0020218BFFC
:1020D8000122C3F8402522075CBF01221A6124228D
:1020E8006A43B258B2B9D3F81821002AFBD0242386
:1020F80003FB0565EA7FFF2A07D0A87F01239340E9
:102108004FF0A04218B1C2F80C350020BEE7C2F863
:102118000835BBE714F004004FF0400202D0C3F8C2
:102128000823F2E7C3F80423B0E71120AEE700BFA5
:10213800B40700200023435082B043580193019B09
:1021480002B070470A4610B54FF48E71FFF7F2FFE0
:10215800136A9168C95C136A01331362C0F81C15CD
:1021680010BD8B690A4610B54FF4847123B9FFF787
:10217800E1FFD0F8183510BDFFF7DCFF536AD168CE
:10218800D0F81805C854536A01335362F3E70000C6
:102198001FB501238DF80030044BCDE90110D3E9B8
:1021A80000126846904705B05DF804FBD807002088
:1021B80030B54C4AD2F8043313F4007F85B0154685
:1021C8004FD0D2F82431002B4BD04FF492711046E7
:1021D800FFF7B0FF4FF40173C2F80833424B93F88E
:1021E800291009B9012151603E4902228DF80020C9
:1021F800D1F88024C1F8802403929A690292DA689F
:1022080001920022C3E906226846D3E900129047EA
:102218003448D0F81C315BB133490A6A4B699A4299
:102228000A464BD291F82830002B47D1FFF78AFF96
:102238002C4AD2F8443193B14FF4A2711046FFF7FB
:1022480079FF294B93F8291009B1012111609A6986
:102258002AB100229A61586AD968FFF799FF05B038
:1022680030BDD5F804335B07D2D5D5F80831002B3B
:10227800CED01D4C1B482146FFF773FF636AA26945
:102288009A422346C4D1E269E1684AB12369E3600E
:102298000023606AA261E3616362FFF779FFB7E731
:1022A80094F829200AB901226A600E4A4FF4017095
:1022B800C2F8080300229A61586AEEE74FF48E715B
:1022C8000848FFF737FF51690029B1D00023029170
:1022D80091688DF80030019153616846D2E9001386
:1022E8009847A5E700200040D80700202DE9F843CB
:1022F800564F047991462C2202FB0472064692F846
:102308002A200D46002A40F09A8051490068FFF7BC
:1023180045FD8046002840F0958029683368481CB0
:102328000BD04FF0A04001228A40C0F8082501F5E3
:10233800E0724FF0030C40F822C06868421C1FBFCF
:1023480000F5E0724FF0A04C4FF0000E4CF822E080
:10235800AA6995F814C0C3F824256A7DBCF1010F59
:102368004CEA0202C3F86C25C3F81405C3F80C152F
:102378001DD1AA68511C1FBF02F5E0714FF0A040A3
:102388004FF0000C40F821C0E968481C0BD04FF012
:10239800A04C01208840CCF8080501F5E0704FF00A
:1023A800030E4CF820E0C3F80815C3F810252C23B9
:1023B8006343FA18C2F804902A69FA50B9F1000F79
:1023C8002AD04FF48E7130682D7FFFF7B3FE306846
:1023D8004FF4A271FFF7AEFE32681E4BC2F8043309
:1023E800120B51B20029A8BF01F160404FEA451312
:1023F800BABF194802F00F0500F56140DBB2B4BF5F
:10240800435580F8003302F01F02012303FA02F259
:102418004909124B43F8212033680422C3F80025E8
:102428002C2303FB04730022C3E9062283F8292026
:102438005A61012283F82A204046BDE8F8834FF00C
:102448000808F9E74FF01108F6E700BFD8070020A1
:10245800B92100008000020014ED00E000E100E076
:10246800F8B5047900682D4D0023C0F800352C23F9
:1024780003FB04535B6873B1294BC0F80833020BA4
:1024880053B201215B0902F01F0201FA02F2203364
:10249800244941F82320D0F80C65D0F81415D0F859
:1024A8000835D0F810254FF0FF37BE42C0F8147534
:1024B80018BF06F5E076C0F80C75C0F80875C0F8C6
:1024C80010751EBF4FF0A0474FF0020C47F826C00A
:1024D8004E1C1FBF4FF0A04601F5E071022746F8D9
:1024E8002170511C1FBF4FF0A04102F5E072022677
:1024F80041F822605A1C1FBF03F5E0734FF0A04259
:10250800022142F82310FFF763FC2C2303FB045439
:10251800002384F82A306360F8BD00BFD807002084
:102528008402020000E100E02DE9F843224F067919
:102538004FF02C0909FB067480466569002D37D1D8
:102548006261A16025624FF48E71006884F828509A
:10255800FFF7F0FDD8F80000012383602146FFF75C
:10256800F1FD6368A1462BBBD8F80050226A636965
:102578009A4212D3D8F80030D3F81C21002AFBD095
:102588000122DA6000202C2303FB06760023736106
:10259800BDE8F88394F8283043B9D5F81C31002BEE
:1025A800F8D049462846FFF7CDFDDFE70F20EAE7D8
:1025B8001120EDE72846EBE7D80700200023435019
:1025C80082B043580193019B02B070471FB50123A5
:1025D8008DF80030044BCDE90110D3E900126846AC
:1025E800904705B05DF804FB040800207FB5374A22
:1025F800D2F82461002E48D010464FF49271FFF7AC
:10260800DDFF02238DF80030D2F88034C2F8803420
:102618000393D2F83C3502932D4BDA6801920022DD
:10262800C3E906226846D3E900129047274AD2F840
:1026380044317BB14FF4A2711046FFF7BFFF244B22
:10264800996939B10021C3E90611D968D2F83C0566
:10265800FFF7BCFF1D4AD2F82031A3B14FF49071A7
:102668001046FFF7ABFF1A4B596961B1D2F84C1508
:102678000291002299688DF8002001915A616846FC
:10268800D3E90012904704B070BDD2F81031002B86
:10269800CCD04FF488711046FFF790FF0C4BD2F85E
:1026A8003C0599698842C1D1DC69D96864B1D2F81E
:1026B800005225F02005C2F800521A699C61DA60C0
:1026C800DE61FFF783FFB1E79C61FAE70020004075
:1026D800040800202DE9F8435A4F06799146242230
:1026E80002FB0672044692F820200D46002A40F0AC
:1026F800A28055490068FFF751FB8046002840F04A
:102708009D8029682368481C0BD04FF0A040012207
:102718008A40C0F8082501F5E0724FF0030C40F834
:1027280022C06868421C1FBF00F5E0724FF0A04C41
:102738004FF0000E4CF822E0AA6995F814C0C3F8CF
:1027480024256A7DBCF1010F4CEA0202C3F86C250E
:10275800C3F80C15C3F814051DD1AA68511C1FBF76
:1027680002F5E0714FF0A0404FF0000C40F821C096
:10277800E968481C0BD04FF0A04C01208840CCF8E9
:10278800080501F5E0704FF0030E4CF820E0C3F89F
:102798000815C3F8102524237343FA18C2F80490C7
:1027A8002A69FA50B9F1000F34D04FF488712068C3
:1027B8002D7FFFF703FF4FF490712068FFF7FEFEAF
:1027C8004FF492712068FFF7F9FE20684FF4A27168
:1027D800FFF7F4FE22681D4BC2F80433120B51B206
:1027E8000029A8BF01F160404FEA4513BABF184855
:1027F80002F00F0500F56140DBB2B4BF435580F825
:10280800003302F01F02012303FA02F24909114BB7
:1028180043F8212023680822C3F80025242303FB5A
:1028280006730022C3E906225A61012283F8202098
:102838004046BDE8F8834FF00808F9E74FF0110863
:10284800F6E700BF04080020F52500001003020089
:1028580014ED00E000E100E0F8B5047900682D4DC2
:102868000023C0F80035242303FB04535B6873B1CD
:10287800294BC0F80833020B53B201215B0902F05F
:102888001F0201FA02F22033244941F82320D0F82C
:102898000C65D0F81415D0F80835D0F810254FF08D
:1028A800FF37BE42C0F80C7518BF06F5E076C0F8D1
:1028B8001475C0F80875C0F810751EBF4FF0A04712
:1028C8004FF0020C47F826C04E1C1FBF4FF0A04621
:1028D80001F5E071022746F82170511C1FBF4FF027
:1028E800A04102F5E072022641F822605A1C1FBF7F
:1028F80003F5E0734FF0A042022142F82310FFF7DE
:1029080067FA242303FB0454002384F8203063600F
:10291800F8BD00BF040800201003020000E100E039
:1029280001F06043B3F1005F2DE9F041074632D171
:102938001C4B0679242505FB063598466C6964BB53
:102948006A61A96000684FF49071FFF737FE4FF491
:10295800AC713868FFF732FE3B686A69A968C3F84A
:102968004415C3F8482501229A606A68BAB9D3F8B1
:102978002011D3F8582149B9002AF8D00F20242370
:1029880003FB068600237361BDE8F081002A14BFAB
:102998000F200020F3E71020F6E71120F4E7204687
:1029A800F2E700BF040800200448054B0549C01A97
:1029B800C008000440F00300FEF762B81C4700009E
:1029C800F4460000F6480000F0B587B000AF1C469A
:1029D80007F11803154603F8111D04F108026946AA
:1029E800D208BB600123A1EBC202FB60E318954645
:1029F800DBB2002207F108010948C7F810D06E467B
:102A08007B61FFF703FB08B1FEF7DCF92246711C76
:102A1800284601F0DEFD00201C37BD46F0BD00BF92
:102A2800BC49000038B5044638B1044D45F00105ED
:102A38004FF47A40A847013CFAD138BDF04800006D
:102A48002DE9F043541E87B0DFF840900E46E51894
:102A580001AF4FF00208AC4203D1002007B0BDE837
:102A6800F08314F8013F8DF80460002202A948465B
:102A78008DF80530CDE90278CDE90422FFF7C6FAD2
:102A88000028E8D0FEF79EF9E5E700BFBC49000042
:102A98001FB5094B0FCB6C4684E80F00074B00931A
:102AA8004FF00043029300231A4621460448FEF7DC
:102AB800E1FE04B010BD00BFD44800001B1D1E1F5E
:102AC800B849000010B50A4C28222046002101F020
:102AD800A9FD002363700123A370064BE361064B35
:102AE8002362064B63622046BDE8104000F0A6BB97
:102AF80028080020D1290000492A00002D2A0000BA
:102B08000348044B4360044BC36000F04FBC00BF54
:102B180028080020110B0302150B00021FB5022222
:102B28000021684601F07EFD9DF8003003F0F003B7
:102B380043F009036FF304138DF80030BDF800303B
:102B48000A226FF34813002101A8ADF8003001F004
:102B580069FD01238DF80430BDF80030ADF806306A
:102B68000B238DF805309DF80C30054943F001031F
:102B780001A88DF80C3000F0E7FC05B05DF804FB07
:102B88002808002013B5FEF751FF08B1FEF71AF91F
:102B98000A4B1A88ADF804209B78094A8DF806304C
:102BA80001A91C20FEF778FF044618B901211C2052
:102BB800FEF7EAFF204602B010BD00BFE44800005F
:102BC800B12900002DE9F04F0120ADF2E47DFEF7B8
:102BD800DAF84FF400410020FDF790FD08B1FEF748
:102BE800F1F8FDF7C7FC614C614B6249E41AE4084F
:102BF800240444F003042046FDF742FFFFF748FF92
:102C080008B1FEF7DFF8FFF75DFF10B10020FEF70F
:102C1800D9F8FFF775FF10B10020FEF7D3F8564931
:102C2800992001F00BFA10B10020FEF7CBF8FFF75E
:102C380075FF10B10020FEF7C5F8FFF7A3FF08B134
:102C4800FEF7C0F802AE4D494B4D2046FDF718FF80
:102C580018220021304601F0E5FCF8AF4FF48063FC
:102C68002A460121C220AE613760B38001F0A9F97C
:102C780010B10020FEF7A6F8DFF81881DFF818A1D8
:102C88004FF4806941462046FDF7FAFE4FF4806212
:102C98000021384601F0C6FCAB692046A3F8049031
:102CA8004FF480625146FDF7EFFE334801F04DF9CD
:102CB80010B10020FEF786F8AB6931499A88DFF831
:102CC800DCB02046FDF7E0FE0026AB699988B2B279
:102CD80091423ED850234FF47072002108A88DF815
:102CE800033001F09FFC244A0DF1030108A801F00C
:102CF800C5F910B10020FEF765F89DF803202149B9
:102D08002046FDF7C1FEAB691F491A692046FDF749
:102D1800BBFEAB691D491A7D2046FDF7B5FEFDF7E0
:102D280047FD06460028FAD120BF134A01A9022010
:102D380001F05CFA10B13046FEF744F89DF8053012
:102D48009B0604D412492046FDF79AFE20BF40BFD7
:102D580098E7B2B21B6859469B5C2046FDF79EFE79
:102D6800FDF726FD0028FBD10136AEE71C47000021
:102D7800F446000003490000280800201849000014
:102D88004B4900007F4900008E490000A44900001B
:102D9800B2490000264900002B490000664900009E
:102DA80048B1C3693BB1036A2BB1406AB0FA80F0FD
:102DB8004009404270474FF0FF30704730B5136804
:102DC8004A1C92B29C5C5A5C42EA042202808C1C27
:102DD800CA1C92B2A4B29D5C1A5D42EA05224280E6
:102DE8004A1D043192B289B29A5C5B5C43EA0223C1
:102DF800838030BD70B58C2B15460C46049A49D09B
:102E080015D8602B6AD004D8202B19D0402B68D055
:102E180070BD842B65D0882B01D0802BF8D1126827
:102E2800218893888E1D9E4226D92380F0E79C2B0B
:102E380041D008D8942B51D0982B0AD0902BE7D1A9
:102E480023880833F1E7C02B24D0E02B33D0A02B04
:102E5800DED112682188938801F10E069E42E4D8DB
:102E68002B78083103EB430300EB830089B2FFF7AB
:102E7800A5FF23880E3308E02B7803EB430300EB10
:102E88008300FFF79BFF2388063323802B780133C9
:102E98002B70BDE712682188938801F10C069E42C9
:102EA800C3D82B7803EB430300EB8300FFF786FFBF
:102EB80023880C33E9E712682188938801F1140606
:102EC8009E42B2D82B78083103EB430300EB830012
:102ED80089B2FFF773FF23881433D6E723880E33AC
:102EE800A3E723880633A0E7028810B58C88931CD3
:102EF800A34207DA0B68995C802903D113445B78F5
:102F080003B9048010BD0388928819449142CCBF4C
:102F180002800180704702888B88F0B5D41C9C42DF
:102F280001D90380F0BD0D68AE18AA5C7378B77834
:102F38001B0243EA074313430B610480F2E703884B
:102F48008A88934237BF0A680280D35C0B753EBFFC
:102F5800038801330380704738B51C4683B1DD69A7
:102F680075B19B78012B08BF40F0800013460A46D4
:102F780001466078A847002818BF6FF0010038BDE7
:102F88004FF0FF30FBE72DE9F843074689469046A6
:102F98001C46002B31D01D6A7DB39B78012B237A08
:102FA80008BF00F07F07112B02D0237C152B21D1FD
:102FB80043464A4639466078A847636A0546012071
:102FC8009847002D18BF6FF001052846BDE8F88323
:102FD800256A607801234A44A847636A05460120A8
:102FE80098473346DAB2B9184245C9B203F1010627
:102FF800EED3E6E700231D46F4E74FF0FF35E4E79C
:1030080037B5002305460C46ADF804308DF8063078
:1030180003220B46552001A9FFF79EFFE0B9174A86
:103028006B789DF80600D35C9DF80420D94349B21B
:103038000A400140287803281DD8DFE800F0030281
:103048000F151A438DF804208DF806102346032225
:1030580001A95520FFF797FF03B030BD0B438DF84A
:1030680006308DF80420F1E71A430B438DF804204D
:103078008DF80630EAE76FF00300EDE7C849000075
:1030880073B502AC002304F8013D06460D460B4615
:10309800012221465620FFF75FFFD8B97378124AFC
:1030A800D15C9DF80720080122EA0102C0B222EA99
:1030B80000033278032A14D8DFE802F010020F0E5A
:1030C80040EA03018DF807102B46012221465620BD
:1030D800FFF759FF02B070BD01430B438DF807306D
:1030E800F2E76FF00300F5E7C8490000F7B502AC56
:1030F800002304F8013D05460E460B4601222146F1
:103108005320FFF729FF002852D195F800C0AA786C
:103118009DF80730BCF1010F02F00107C2F340002F
:10312800C2F38001C2F3C00244D123F0080343EA8A
:10313800C70323F0040343EA800323F0020343EAAE
:10314800410323F0010313438DF80730012233466E
:1031580021465320FFF717FF50BB8DF80700334671
:10316800012221465420FFF7F7FE08BB29789DF875
:103178000730AA780129C2F300120BBF23F010030D
:1031880023F0200343EA021343EA42138DF8073081
:103198009DF807306A8823F00F03C2F343121343E4
:1031A8008DF807300122334621465420FFF7EBFE05
:1031B80003B0F0BD03F07F0343EAC71323F04003D5
:1031C80043EA801323F0200343EA411323F010035A
:1031D80043EA0213B8E7000037B5B6238DF8073085
:1031E800044618B3436A0BB3034601220DF10701E5
:1031F8007E20FFF7C8FE636A05460120984745B957
:10320800A278012A08D00B4A0B4B6260C4E902235A
:103218002361284603B030BD23460DF107017F2006
:10322800FFF79AFE0028EED00546F2E74FF0FF358B
:10323800EFE700BF100803021408000273B5054643
:10324800FFF7AEFD0446C8B9AA78012A0DD00023BD
:103258002B700426013E16F0FF061AD02B78D12BCE
:103268000FD1DCB16FF0020408E02B460DF1070125
:103278007F20FFF771FE0028E9D00446204602B0FF
:1032880070BD2B46012229460020FFF765FE044643
:10329800E0E7002CE6D12B78D12BE3D1FF23EB70AC
:1032A8002846FFF799FFE8E737B50446002878D0A5
:1032B800436A002B75D00279A2F11001002302297C
:1032C8008DF8063002D96FF0030553E0017A914278
:1032D80036D08DF80730012203460DF10601402053
:1032E800FFF73AFE0546002844D122799DF80630BA
:1032F800122A42D163F07F038DF80630012223465B
:103308000DF106014020FFF73EFE054690BB23461F
:1033180002220DF107015820FFF735FE054648BB8C
:1033280023460122211D7E20FFF72DFE237A102B34
:10333800054602D1636A0520984723792372CDB9DF
:10334800237BA3F11402012A01D9172BBBD1227CBC
:103358009A4229D02346012204F10C017E20FFF76E
:1033680012FE237C142B054613D1636A512098471B
:10337800237B2374284603B030BD1A06D0D503F04A
:103388007F038DF80630012223460DF10601402007
:10339800C2E7172BECD1237B152BE9D1636A0A20EE
:1033A800E5E74FF0FF35E5E70025E3E737B50446E5
:1033B800002800F0C680436A002B00F0C28002ADEE
:1033C800002325F8043D0222034629464020FFF742
:1033D800C3FD20B962790F2A03D96FF0030003B047
:1033E80030BD637A934208D09DF8043002F00F0292
:1033F80023F00F0313438DF80430E379022BECD844
:10340800E27A9A4218BF9DF80430A2791CBF23F0D3
:1034180070038DF804300C2ADFD8A37A934208D0C1
:103428009DF8053002F00F0223F00F0313438DF8C7
:1034380005302346012229464020FFF7A4FD002835
:10344800CDD163796372E379E372012223460DF1EA
:1034580005014120FFF797FD0028C0D1A279A2728B
:10346800ADF804002346022229464220FFF774FDE6
:103478000028B4D1627B0D2AAFD8637C934208D070
:103488009DF8043002F00F0223F00F0313438DF868
:103498000430E27B022AA0D89DF8043023F03003E0
:1034A80043EA0213A27B8DF80430042A95D8A37C42
:1034B800934208D09DF8053002F0070223F0070375
:1034C80013438DF805302346012229464220FFF791
:1034D8005AFD002883D1637B6374E37BE374012284
:1034E80023460DF105014320FFF74DFD00287FF429
:1034F80076AFA37BA3742046FFF7D6FE00287FF49F
:103508006EAF8DF804002346012229460220FFF7FA
:1035180023FD9DF80430C3F34303012B08D0022B8D
:1035280009D0032B0AD0072B08BF6FF0080056E715
:103538006FF0050053E76FF0060050E76FF00700E3
:103548004DE74FF0FF304AE74378F7B505460C469C
:103558000D2B00F2F384DFE813F00E00A4006302E1
:10356800CE01CE01D60232030A0491032601890452
:10357800B804D304ED040846FFF712FC002840F015
:10358800E08402AE0B4606F8040D012231465020B5
:10359800FFF7E2FC014600287AD12A799DF8043029
:1035A800D00777D5C2F3400703F0FC03C2F38000CD
:1035B8003B4343EA4003C2F3C00223F0040343EA57
:1035C80082038DF80430E1702346012231465020F1
:1035D800FFF7D9FC00285BD121462846FFF786FD76
:1035E800002855D18DF80400234601223146622077
:1035F800FFF7B2FC00284BD19DF804309A070AD592
:1036080023F002038DF8043001222346314662205C
:10361800FFF7B9FCE0BB21462846FFF7F1FCB8BB31
:103628008DF804002346012231465920FFF794FC07
:1036380070BB9DF804302A7903F07F03C2F380122F
:1036480043EAC2138DF8043001222346314659203B
:10365800FFF799FCE0B98DF80300ADF804002346A4
:1036680001220DF103015F20FFF776FC80B99DF878
:10367800033003F0FC038DF803308DF804306B79C8
:103688008DF805300222234631465F20FFF77BFC88
:1036980003B0F0BD23F007038DF80430FF23E37077
:1036A80092E70846FFF77CFB002840F04A8402AE08
:1036B8000B4606F8040D012231465020FFF74CFC5A
:1036C8000028E5D19DF804302A7903F0F80397061D
:1036D80045BF43F007038DF804308DF8043001230B
:1036E80058BFFF23E3700122234631465020FFF7DD
:1036F8004AFC0028CCD121462846FFF7F7FC0028D1
:10370800C6D121462846FFF77BFC0028C0D18DF89A
:1037180004002346012231465920FFF71DFC0028EA
:10372800B6D19DF804302A7903F07F03C2F3001262
:1037380043EAC2138DF8043001222346314659204A
:10374800FFF721FC0028A3D16B798DF80430012202
:10375800234631466020FFF716FC002898D12346FF
:10376800012231466220FFF7F7FB002890D12A7921
:103778009DF80430C2F3010123F00C0343EA8103EE
:1037880023F03003C2F3810143EA0113C2F340126C
:1037980023F0020343EA42038DF804300122234652
:1037A8003146622072E70846FFF7FAFA002840F02F
:1037B800C88302AE0B4606F8040D0122314652209A
:1037C800FFF7CAFB00287FF463AF2A79D00741BF0F
:1037D8009DF8043023F0010343F001038DF8043011
:1037E800910741BF9DF8043023F0020343F0020320
:1037F8008DF80430530741BF9DF8043023F00403CB
:1038080043F004038DF80430012223463146522048
:10381800FFF7B9FB00287FF43BAF21462846FFF7A6
:1038280065FC00287FF434AF21462846FFF7E8FB03
:1038380000287FF42DAF8DF804002346012231467D
:103848005920FFF789FB00287FF422AF9DF8043048
:103858006A7903F07F03C2F3800243EAC2138DF84A
:1038680004300122234631465920FFF78CFB0028FB
:103878007FF40EAF8DF80300ADF804002346012253
:103888000DF103015F20FFF767FB00287FF400AF0D
:103898009DF80330AA8803F00303C2F3C50243EA84
:1038A80082038DF80330012223460DF103015F20C6
:1038B800FFF769FB00287FF4EBAE234601220DF1E8
:1038C80003016220FFF748FB00287FF4E1AE9DF872
:1038D80003306A7923F00103C2F3400213438DF8E1
:1038E80003308DF80530AB798DF804300222234679
:1038F80031466120CAE60846FFF752FA002840F030
:10390800208302AE0B4606F8040D012231465020F2
:10391800FFF722FB00287FF4BBAE69789DF80430DE
:103928006A7904290CBF23F0200323F01003C2F3A3
:10393800C0020CBF43EA421343EA02138DF8043075
:103948000122234631465020FFF71DFB00287FF453
:103958009FAE21462846FFF7C9FB00287FF498AEA2
:1039680021462846FFF7C2FB00287FF491AE214686
:103978002846FFF745FB00287FF48AAE8DF804003F
:103988002346012231465820FFF7E6FA00287FF443
:103998007FAE9DF804306A7923F00803C2F38002F1
:1039A80043EAC2038DF804300122234631465820E9
:1039B800FFF7E9FA00287FF46BAEADF80400234660
:1039C800022231466320FFF7C7FA00287FF460AE71
:1039D8006A789DF80430032A01BFAA8803F0F80327
:1039E800C2F3C21213432A7903F0BF03C2F3401192
:1039F80043EA811303F07F03C2F3801143EAC11342
:103A08008DF804309DF80530C2F3040203F0E0039A
:103A180013438DF80530022223463146632035E6EC
:103A28000846FFF7BDF9002840F08B8202AE0B462E
:103A380006F8040D012231465220FFF78DFA0028BE
:103A48007FF426AE9DF804302A7923F00803C2F3E8
:103A5800000243EAC2038DF80430012223463146AE
:103A68005220FFF790FA00287FF412AE214628462C
:103A7800FFF73CFB00287FF40BAE21462846FFF7F2
:103A8800BFFA00287FF404AE2B79ADF8040013F0D8
:103A9800C00304D140F21533ADF8043004E0402BE4
:103AA80007D12D238DF804302346022231467A208F
:103AB800ECE5802B02D140F21D73EDE7C02BF3D16A
:103AC8002346022231467A20FFF746FA0028EBD136
:103AD8009DF804302A7923F01803C2F3410143EA20
:103AE800C103C2F3C20223F0070313438DF8043065
:103AF8006A799DF80530C2F3020223F007031343E5
:103B08008DF80530D0E70846FFF74AF9002840F05D
:103B1800188202AE0B4606F8040D012231465020E9
:103B2800FFF71AFA00287FF4B3AD9DF80430AA799C
:103B380023F04003C2F3000243EA82138DF80430F5
:103B48000122234631465020FFF71DFA00287FF452
:103B58009FAD21462846FFF7C9FA00287FF498ADA3
:103B680021462846FFF74CFA00287FF491ADADF8BE
:103B780004002346022231466520FFF7EDF90028AC
:103B88007FF486AD2A79C2F38101C2F3010343EAC7
:103B9800810302F0F00213436A798DF80430C2F30E
:103BA8008011C2F3050343EA811302F08002134334
:103BB8008DF80530022223463146652066E5084621
:103BC800FFF7EEF8002840F0BC8102AE0B4606F87D
:103BD800040D012231465020FFF7BEF900287FF47A
:103BE80057AD9DF804306A7903F07F03C2F3C00231
:103BF80043EAC2138DF8043001222346314650208F
:103C0800FFF7C1F900287FF443AD21462846FFF7A6
:103C18006DFA00287FF43CAD21462846FFF7F0F9FD
:103C280000287FF435ADADF8040023460222314662
:103C38006720FFF791F900287FF42AAD9DF804303A
:103C48002A7903F0C003C2F3050213438DF8043048
:103C58006A799DF80530C2F3410203F0CF0343EAC5
:103C68000213AA8803F0F803C2F3821213438DF8F3
:103C78000530022223463146672007E50846FFF74C
:103C88008FF8002840F05D8102AE0B4606F8040D5F
:103C9800012231465120FFF75FF900287FF4F8AC84
:103CA8009DF80430AA7923F00803C2F3001243EA0E
:103CB800C2038DF804300122234631465120FFF714
:103CC80062F900287FF4E4AC21462846FFF70EFA93
:103CD80000287FF4DDAC21462846FFF791F900283B
:103CE8007FF4D6AC8DF804002346012231465820D3
:103CF800FFF732F900287FF4CBAC9DF80430AA799D
:103D080003F07F03C2F3C00243EAC2138DF8043004
:103D18000122234631465820FFF735F900287FF461
:103D2800B7AC02A9ADF80400234601F8020D012240
:103D38005C20FFF711F900287FF4AAAC9DF8063043
:103D4800AA7903F0F803C2F301010B43C2F380021E
:103D580043EA82038DF806306B798DF805302B79AC
:103D68008DF804300322234631465A208EE4084653
:103D7800FFF716F8002840F0E48002AE0B4606F87C
:103D8800040D012231465120FFF7E6F800287FF4A0
:103D98007FAC2A799DF80430C2F3000003F0FC03DD
:103DA800C2F34001034343EA4103C2F3800223F014
:103DB800040343EA82038DF8043001222346314686
:103DC8005120FFF7E0F800287FF462AC214628462E
:103DD800FFF78CF900287FF45BAC21462846FFF7F3
:103DE8000FF900287FF454AC8DF804002346012213
:103DF80031465820FFF7B0F800287FF449AC9DF809
:103E080004302A7903F07F03C2F3401243EAC21355
:103E18008DF804300122234631465820FFF7B3F8C5
:103E280000287FF435ACADF804008DF80600234671
:103E3800012231465C20FFF78FF800287FF428AC78
:103E48009DF804302A7903F03F03C2F3C10243EA24
:103E580082138DF80430AB798DF805306B798DF8C5
:103E680006300322234631465C200FE40846FEF75D
:103E780097FF002865D102AE0B4606F8040D012213
:103E880031465120FFF768F800287FF401AC9DF80F
:103E9800043023F0100343F010038DF8043001229E
:103EA800234631465120FFF76EF800287FF4F0AB27
:103EB80021462846FFF71AF900287FF4E9AB214686
:103EC8002846FFF7DDF8FFF7E3BB002939D04B6A36
:103ED800BBB302AE002306F8043D01220B46512075
:103EE8003146FFF739F800287FF4D2AB9DF804304B
:103EF8002A7A23F02003C2F3000243EA4213CCE7F4
:103F0800F9B14B6AEBB102AE002306F8043D012279
:103F18000B4651203146FFF71FF800287FF4B8AB55
:103F28009DF804302A7A23F04003C2F3400243EAA2
:103F38008213B2E7FFF7DAF8FFF7AABB0020FFF712
:103F4800A7BB4FF0FF30FFF7A3BB37B504460028E7
:103F580034D083691A68002A30D000225A819A81A5
:103F6800DA811A611A7501A9034602222220FEF796
:103F7800F3FF9DF805209DF80430E8B902F0070228
:103F880043EA0223A269918898B2814288BF90804F
:103F98009079022805D119338B429EBF9388193333
:103FA8009380A378E5696078012B08BFA4219388E2
:103FB800126818BF2421A84703B030BD4FF0FF3066
:103FC800FAE773B5002304460E468DF80730154608
:103FD8008AB313460DF1070101224720FEF7BCFF03
:103FE80038BB14F0FE0408D09DF80730012E0CBF32
:103FF8001C4323EA04048DF807402B4601220DF1E7
:1040080007014720FEF7BFFF98B92B4601220DF1A3
:1040180007014720FEF7A0FF58B99DF80730AA69A5
:1040280003F01001D17123F01F0103F00203117294
:10403800937102B070BD4FF0FF30FAE737B5002337
:1040480005468DF807300C46A9B10B4601220DF143
:1040580007014520FEF780FF58B99DF80730012277
:104068001D430DF10701234645208DF80750FEF743
:104078008AFF03B030BD4FF0FF30FAE72DE9FF416A
:104088000D4600210646ADF80C108DF80A101446AE
:10409800002A00F0A88092691368002B00F0A38022
:1040A800D3799089002B43D19188127AADF80C000E
:1040B800802A16D12A7802EB42025300994228BF7F
:1040C80019460F4604F11808BDF80C30BB4220D33E
:1040D8009DF80A202A70A2699381002004B0BDE8E7
:1040E800F081C02A04D12A7802EB42029300E5E766
:1040F800A02A05D12A78C2EBC202520093B2DDE7AA
:10410800E02A03D12A7802EB8202EFE7ADF80C101F
:10411800D4E7A16903A8FEF7E7FEA3690DF10A0237
:104128001B7ACDF8008003A93046FEF763FECBE783
:104138008DF80B10ADF80E0004F11807A269BDF850
:104148000E109088814215D213685B5C03F0FC0363
:104158000131882BADF80E102BD01DD8482B3DD03F
:1041680010D8402B34D0442B2CD02A789DF80B3013
:104178009A42E3D19DF80B302B70A369BDF80E204D
:104188009A81AAE7802B2BD0842BEED106210DF142
:104198000E00FEF7B8FEE8E7942B04D005D88C2B68
:1041A80007D0902BE1D10821F1E7982B01D09C2B67
:1041B800DBD100970DF10B020DF10E013046FEF731
:1041C80019FED2E711460DF10E00FEF7A4FECCE76A
:1041D80011460DF10E00FEF7B2FEC6E70121D6E743
:1041E800ADF80E00C1E74FF0FF3077E70F2870B544
:1041F80004460E46154606D113461C200422BDE887
:104208007040FEF7A9BE10F0010004D013461C2030
:104218000122FEF7A1FEA10705D501222B46B11800
:104228001D20FEF799FE620705D52B460122B11C19
:104238001E20FEF791FE230704D52B460122F11C10
:104248001F20DCE770BD00000C4B1B78062B10D13B
:104258000B4B1B681A070CD10A4B186800F0F003C7
:10426800302B08D000F0E000A0F14003584258413C
:104278007047002070470120704700BFE00F00F032
:10428800E40F00F0E80F00F0094B1B78062B0CD167
:10429800084B1B681A0708D1074B186800F0F00094
:1042A800A0F130035842584170470020704700BFC2
:1042B800E00F00F0E40F00F0E80F00F008B5FFF79A
:1042C800C3FF28B17D4B7E4A1B68C3F304231360E8
:1042D800FFF7DAFF10B17B4B7B4A1A60FFF7B4FF98
:1042E80028B17A4B7A4A1B68C3F342331360FFF74D
:1042F800CBFF20B1774AD36823F08073D360FFF7F0
:10430800A3FF40B14FF080430022C3F80C21C3F84B
:104318001021C3F83825FFF7B7FF10B16E4B032201
:104328001A60FFF7B1FF40B16C4B05221A600122F9
:104338009A6700229A603F225A60694B1B78062BC5
:1043480050D1684B1B6819074CD1674B1B6803F0A9
:10435800F003502B46D14FF08052644BD2F804142E
:10436800C3F82015D2F80814C3F82415D2F80C1491
:10437800C3F82815D2F81014C3F82C15D2F8141461
:10438800C3F83015D2F81814C3F83415D2F81C1431
:10439800C3F84015D2F82014C3F84415D2F82414F1
:1043A800C3F84815D2F82814C3F84C15D2F82C14C1
:1043B800C3F85015D2F83014C3F85415D2F8341491
:1043C800C3F86015D2F83814C3F86415D2F83C1451
:1043D800C3F86815D2F84014C3F86C15D2F8442411
:1043E800C3F87025FFF730FF28B1414B414A1B68DD
:1043F80003F04F031360FFF727FF48B14FF08043E6
:10440800D3F80024D20744BF6FF00102C3F8002498
:10441800394B1B68062B08D1384B1B68062B01BF8C
:10442800374A136843F480631360364AD2F88830F9
:1044380043F47003C2F88830BFF34F8FBFF36F8F18
:104448004FF01023D3F80022002A03DBD3F80432FC
:10445800002B2FDA2C4B0122C3F80425D3F80024B3
:10446800002AFBD04FF010221521C2F80012D3F811
:104478000024002AFBD04FF010231522C3F8042291
:10448800214B1A46D3F800140029FBD00021C3F8A9
:104498000415D2F80034002BFBD0BFF34F8F194915
:1044A8001A4BCA6802F4E0621343CB60BFF34F8F24
:1044B80000BFFDE7164B174A1A6008BD2403001019
:1044C8004035014074C007400DF0ADBA44020010F9
:1044D8003C050040F0ED00E0A0050040105600400B
:1044E800E00F00F0E40F00F0E80F00F000C000401B
:1044F80058020010E40E0040300100103401001092
:104508003C17004000ED00E000E001400400FA051F
:104518001C0000200090D0037F2805D8034B185CAE
:10452800034B5B5C1840704700207047D849000077
:10453800584A0000A0F16103192B98BF2038704732
:10454800A0F14103192B98BF203070477F2805D868
:10455800034B185C034B5B5C1840704700207047A6
:10456800D8490000584A0000A0F16103192B98BFF0
:1045780020387047A0F14103192B98BF20307047AD
:104588007F299ABF017001206FF02E0070475AB141
:104598000A787F2A0AD800B10260002119605960A0
:1045A800501A18BF01207047002070476FF02E0086
:1045B8007047000008B5034B5B689B681B68984709
:1045C80008BD00BF2000002008B50921FFF7F2FF51
:1045D80008BD844640EA010313F0030F18D184464E
:1045E800202A0BD32DE9F007B1E8F807A0E8F8076F
:1045F800A2F12002202AF7D2BDE8F007042A07D347
:1046080051F8043B40F8043BA2F10402042AF7D213
:10461800002A05D011F8013B00F8013B013AF9D115
:10462800604670478446002A2DD010F0030F04D04E
:1046380000F8011B013A26D0F7E7C9B241EA012187
:1046480041EA0141202A12D3A2F120022DE9F00308
:104658000B460C460D460E460F4688468946A0E88E
:10466800FA03203AFBD2BDE8F00320320BD0042A2B
:1046780005D340F8041B043A05D0042AF9D200F8FF
:10468800011B013AFBD16046704700F1010110F0AF
:10469800030F11D010F8012B002A23D010F0030FBC
:1046A8000AD010F8012B002A1CD010F0030F03D0F9
:1046B80010F8012B002A15D02DE970004FF00132B7
:1046C8004FF0803350F8044BA4EB020525EA0405AB
:1046D8001D4000D1F6E7A0F1040070BC10F8012BD2
:0A46E800002AFBD1A0EB010070478F
:1046F400B848000000000000BF48000000000000AF
:10470400C348000000000000C8480000000000008A
:10471400CD48000000000000A5470000000003038E
:1047240068470000000000007447000014000020E7
:104734007800002040010020480100208000002073
:044744001800000059
:10474800FFFFFFFFFFFFFFFFFFFFFFFFFFFFFFFF71
:1047580000000000000000000000D6010601000073
:10476800A90400004D050000A504000075617274DD
:104778005F6C6F675F6261636B656E640000000069
:104788006C0500207F000000EC0500204261636B8F
:10479800656E647320666C7573686564006170701B
:1047A80000000000DF47000028480000E74700003D
:1047B80030480000384800004048000048480000E1
:1047C800504800005848000020253032780020204A
:1047D80020007C002563001B5B306D002573001BE7
:1047E8005B313B33316D0025734C6F677320647206
:1047F8006F70706564202825642925730D0A003CB4
:1048080025733E2025733A200000000000000000B8
:104818007D48000060480000684800006D480000BE
:104828001B5B313B33306D001B5B313B33326D001A
:104838001B5B313B33336D001B5B313B33346D0005
:104848001B5B313B33356D001B5B313B33366D00F1
:104858001B5B313B33376D007761726E696E6700A1
:10486800696E666F006465627567001112131446FD
:104878006174616C206572726F720053797374652C
:104888006D207265736574000338FDD87047303148
:1048980032333435363738394142434445460000CF
:1048A800FFFFFFFF0006FF000000004000000000BF
:1048B8004750494F544500505253005350494D00FA
:1048C800554152540055415254450000FFFFFFFF27
:1048D80006FF000000000040000000000200060083
:1048E80000000000000000000338FDD87047576141
:1048F8006B657570204576656E7400535049206568
:1049080078616D706C6520737461727465642E00D3
:10491800496E69742066696E6973686564005265DA
:1049280061640055534552205245515545535445ED
:1049380044204649464F204C454E475448203A208B
:10494800257500415641494C41424C45204649464F
:104958004F204C454E475448203A2025750046497B
:10496800464F204441544120494E4445585B2575E3
:104978005D203D202578004759524F20444154413D
:10498800203A2025750053454E534F522054494D27
:10499800452044415441203A20257500534B495045
:1049A800504544203A2025752E00536C65657000EB
:1049B800000000000030004000000000010000007E
:1049C80004040110204080020108080204000000CD
:1049D8002020202020202020206828282828202067
:1049E80020202020202020202020202020202020BF
:1049F8004810101010101010101010101010101077
:104A08008484848484848484848410101010101016
:104A1800108181818181810101010101010101016F
:104A28000101010101010101010101101010101023
:104A38001082828282828202020202020202020240
:104A480002020202020202020202021010101020E8
:104A580000070320041702010857104080000000D7
:104A68000C4C0000D04A0000E44B000053756E0067
:104A78004D6F6E0054756500576564005468750085
:104A88004672690053617400000000004A616E00BC
:104A9800466562004D617200417072004D61790097
:104AA8004A756E004A756C00417567005365700061
:104AB8004F6374004E6F7600446563000000000089
:104AC800414D00504D000000084C0000044C00000F
:104AD800044C0000044C0000044C0000044C00008E
:104AE800044C0000044C0000044C0000044C00007E
:104AF800FFFFFFFFFFFFFFFFFFFFFFFFFFFF0000BC
:104B0800444B0000744A0000804B0000944A0000A7
:104B1800C84A0000284B0000D84B0000344B000066
:104B2800256D2F25642F257900000000256120259B
:104B380062202565202554202559000053756E6490
:104B48006179004D6F6E64617900547565736461B5
:104B580079005765646E657364617900546875728D
:104B68007364617900467269646179005361747590
:104B780072646179000000004A616E7561727900A3
:104B88004665627275617279004D617263680041B1
:104B98007072696C004D6179004A756E65004A75DE
:104BA8006C79004175677573740053657074656D31
:104BB800626572004F63746F626572004E6F76654E
:104BC8006D62657200446563656D62657200000020
:104BD80025483A254D3A255300000000214500009C
:104BE8003D4500004945000055450000714500005D
:104BF8007D45000089450000974500000000000041
:104C08002E00000043000000504F53495800000098
:104C180000000000002000400000000000200040CC
:104C28000000000000000000FF0000000090D0031A
:104C3800684A0000684A0000684A0000684A0000A4
:044C4800684A0000B6
:04000003000003797D
:00000001FF
