:020000022000DC
:1060000000000120756302005D6302005F6302000F
:106010006163020063630200656302000000000028
:1060200000000000000000000000000067630200A4
:1060300069630200000000006B6302006D630200F0
:10604000099802006F6302004D9C0200599C0200F7
:106050006F6302006F630200D19A02006F63020057
:106060006F6302006F6302006F6302006F630200E0
:106070006F6302006F6302006F6302006F630200D0
:106080006F630200157102006F6302006F6302000C
:10609000B17102006F63020041EE02006F63020003
:1060A0006F6302006F6302006F6302006F630200A0
:1060B0006F6302006F630200000000000000000038
:1060C0006F6302006F6302006F6302006F63020080
:1060D0006F6302006F6302006F6302000000000044
:1060E00000000000000000000000000000000000B0
:1060F00000000000000000000000000000000000A0
:10610000000000000000000000000000000000008F
:10611000000000000000000000000000000000007F
:10612000000000000000000000000000000000006F
:10613000000000000000000000000000000000005F
:10614000000000000000000000000000000000004F
:10615000000000000000000000000000000000003F
:10616000000000000000000000000000000000002F
:10617000000000000000000000000000000000001F
:10618000000000000000000000000000000000000F
:1061900000000000000000000000000000000000FF
:1061A00000000000000000000000000000000000EF
:1061B00000000000000000000000000000000000DF
:1061C00000000000000000000000000000000000CF
:1061D00000000000000000000000000000000000BF
:1061E00000000000000000000000000000000000AF
:1061F000000000000000000000000000000000009F
:10620000354936480A1A02D0072291438D4634494F
:1062100034480A1A06D00722914381F309880222E2
:1062200082F3148830483149314A00F044F831484B
:106230003149324A00F03FF831483249324A00F0E1
:106240003AF832483249334A00F035F83248334997
:10625000334A00F030F833483349344A00F02BF821
:1062600033483449344A00F026F83448344900228F
:1062700000F02CF833483449002200F027F8334866
:106280003349091A082902DB002202604160314AC1
:1062900090471F481F49884205D00268043003B464
:1062A000904703BCF7E700208646EC46002000211B
:1062B000294A9047FEE7884207D0521A05D0037852
:1062C00001300B700131013AF9D17047884202D098
:1062D00002700130FAE770470000012000E0002062
:1062E0000000012000000120281C030034220020AF
:1062F00070220020D4630200D4630200F2F5020091
:10630000281C030034220020342200206CF70200F5
:106310006CF702006CF702006CF702006CF70200E9
:106320006CF702006CF702006CF70200281C0300F7
:10633000641C0300702200207022002070220020C4
:10634000CC350020CC350020CC350020CC350020C9
:10635000CC5500209D63020035A50200FEE7FEE754
:10636000FEE7FEE7FEE7FEE7FEE7FEE7FEE7FEE705
:10637000704700BF1048804710484FF0070188431E
:1063800085460F4880470F48016841F4700101605D
:10639000BFF34F8FBFF36F8FFFF732BF0A480B4930
:1063A0000B4A884207D0521A05D0037801300B708F
:1063B0000131013AF9D170477163020000000120F8
:1063C0000593020088ED00E058F70200202200202B
:0463D0003422002053
:1063D4007047000007B5044B0093044A402300F0C3
:1063E40032F803B05DF804FBF5630200712200206B
:1063F4002DE9F84389461446B2B10F4B0F4E0325DD
:10640400002743F00108224609EB0701002004F0AD
:106414002BFB0744241A48B933782BB14FF47A4044
:10642400C047013D02D13570BDE8F88301233370C4
:10643400002CE8D1F8E700BF70F7020070220020BA
:10644400704704F045BBF0B595B01C4616460846A7
:106454000D4602F06BFE1A9B0D93CDE908640024EF
:106464002346082205A928460A948DF82C400C944A
:1064740002F07AFE079B0293BDF81830ADF80C3099
:10648400BDF81A30ADF80E309DF814308DF8114077
:1064940003F00302012A1DD1BDF81440059EC3F385
:1064A400C203C4F383148DF81030A20008230EA98C
:1064B400284602F059FEC6F3952608AB00932246FF
:1064C40002AB0EA9304600F077FB284602F032FEFC
:1064D40015B0F0BD022AF8D1BDF81640C3F3C203CB
:1064E400A4098DF810300827082C264628BF082652
:1064F4003B4632460EA9284602F036FEA41B08ABE2
:1065040002AA31460EA8374400F0BAFB002CEBD1A6
:10651400DBE7000008B5FFF794FF0421034800F00F
:10652400B9FA034B01225A7108BD00BF48F70200B3
:1065340034220020037813F0040216D003F003037E
:10654400012B03D0022B09D0012070470A68008870
:106554000232C0F3831002440A60F5E70B684288F4
:10656400023303EB92130B60EEE710467047000012
:106574002DE9F04F89B00546861C08A8484C0192C5
:1065840000230F4600F8113D00F0FCFF23683B6038
:10659400D4E901231344226801339B1A04F21C47F3
:1065A40004F5836A04F21448B3421AD3019A00230F
:1065B400002A6DD0012262F3010343F0040365F362
:1065C40089132168A2689DF80F000A4003320E4423
:1065D40044F82230266000F0F9FF012009B0BDE83C
:1065E400F08F0121384602F01BF8504602F031F8D2
:1065F400404602F02EF80DF120096068D4F808B086
:1066040049F8100D00EA0B00033004EB8000494602
:10661400FFF790FF049BB0B90BEA030204EB82027C
:10662400D16805919A1C013303EA0B0B04EB8B0C24
:1066340001F00303012B0492DCF80CB020D0022BF0
:1066440004D083460BE00BEA0300DDE7BDF8163007
:106654009B0903334FEA1B4B02EB9303049340461D
:1066640001F0FAFF08B1049B63605946384601F013
:10667400D7FFD4E901231344226801339B1A93E71B
:10668400BDF81430C3F383134FEA1B4B1344E5E7FF
:10669400022262F3010343F0040365F39F5390E77E
:1066A400842300200B4B0C48FF2210B59A60002273
:1066B400C3F81824C3E90022C3F8142483F820245F
:1066C40002F0EDFC044610B9044802F097FD2046A0
:1066D40010BD00BF842300207CF6020094F7020062
:1066E40030B50A4C71B10A4A0A49121BD208002378
:1066F4009A4201D1002030BD31F82350854202D0A6
:106704000133F5E7034654F83300F4E790F602004A
:1067140048F7020034220020094B013903EBC00082
:10672400032909D8DFE801F00A02040604207047AF
:106734000079704740797047002070470220704705
:1067440090F60200034BD3E90030C31A5842584173
:10675400704700BF842300202DE9F04387B0FFF782
:10676400F1FF0646002840F0FC807F4DC5F8180470
:10677400BFF34F8F6868AC6806AF47F8100D204030
:10678400033005EB80003946FFF7D4FE029B18B1B5
:10679400D5F81824002A5FD004EA0302991C0133B7
:1067A40005EB8202234005EB8303D268DB68049384
:1067B40002F00303022B0392029162D1BDF80E3062
:1067C4006A484FEA9318B8F1500FC14628BF4FF0FA
:1067D400500969F38F1309F10801ADF80E3002F086
:1067E40076FC0746002800F0A78002F09FFC03A96E
:1067F40000230822384602F0ACFC029924EA010680
:106804000136B600B14535D95FFA89F97EB3F6B2DF
:10681400A9EB0609214003315FFA89F4B146544ECD
:1068240005EB810108234A46384602F092FC36B152
:1068340009F1080322463146384602F08AFC029BDD
:1068440008F1030803EB98030293D5F81834002BDE
:106854004BD1D5F810445BE02A689A4204D86A60A8
:10686400304607B0BDE8F08304EA030088E74049F6
:106874003446D7E72140033108234A4605EB81011A
:10688400DAE7012B58D1BDF80C303848C3F3831133
:10689400062928BF062161F3891302318900ADF866
:1068A4000C3002F014FC0746002845D002F03EFCF0
:1068B4000023082203A9384602F04BFC0026BDF849
:1068C4000C20C2F38312B31C96424FEA8303BCD25A
:1068D40002994A1C21400331029205EB81010422F2
:1068E400384602F036FC0136E9E7384602F022FC6D
:1068F400FFF728FF80F00100C6B2B1E7E3685B79D7
:1069040023B1236839461B6820469847E3681C680E
:10691400002CF3D1384602F00DFC06A800F8114D06
:1069240000F030FED5F818340BB9029B6B609DF86B
:10693400070000F04BFEDBE7D5F8104454B90D4BCB
:106944000D480E49C01AC008000440F0020000F0CF
:106954006FF8CDE7236820469B689847E3681C6876
:10696400ECE700267CE700BF842300207CF60200CD
:106974009023002090F60200C0F60200A0F7020067
:106984002DE9F74F284C80460F46924601A9012273
:1069940018469B46D4F80890FFF7EAFD88B3019D9A
:1069A4000026A91C5E4506EB010234D100211F48D4
:1069B40001F0F5FD80F310006A1C02EA090204EB01
:1069C4008202000405EA0903033340EA1840D06058
:1069D40014F8232068F3C50204F8232034F8232094
:1069E40066F3891224F8232054F82320012167F345
:1069F4009F2244F8232061F301026FF3820204F81A
:106A0400232094F820341BB1FFF7A6FE0028FBD105
:106A140003B0BDE8F08F09EA020204EB82025AF8DF
:106A24002630D3600136BDE784230020A027002050
:106A340000231A46FFF7A4BF13B502AC012344F8A0
:106A4400042D2246FFF79CFF02B010BD07B5CDE927
:106A5400002302236A46FFF793FF03B05DF804FBAB
:106A64001FB5CDE90123069B039301AA0323FFF776
:106A740087FF05B05DF804FB1FB5CDE90023069B35
:106A84000293079B03936A460423FFF779FF05B03B
:106A94005DF804FB30B50F49D1F8102400231446E7
:106AA4003CB9C468237152B9C1F810042260184675
:106AB40030BDE46825799D4206D02468F0E7D268A9
:106AC400116821601060F2E701330A2BE7D14FF01F
:106AD400FF33ECE784230020094A38B50123D2F8B8
:106AE400104482F820341D4604B938BDE3685D7152
:106AF400236820465B689847E3681C68F4E700BF96
:106B040084230020037A052B10B50C460FD0437A5A
:106B140023B1084A0849204601F0FFFD07492046F1
:106B240001F0FBFD2046BDE8104001F0EBBD002A5A
:106B3400F8D0F3E7EBF70200EF0F03000DF80200C3
:106B4400C38873B504460D4633B1144A0092144900
:106B5400144A284601F0E1FD217A05291CD0637A04
:106B64004BB1A088FFF7D8FD0F4B104953F82020F4
:106B7400284601F0D2FD227A0D4BA08853F82260FA
:106B84000021FFF7ADFD0B4903463246284602B00B
:106B9400BDE8704001F0C1BD02B070BDEBF702006A
:106BA400F8F70200F0F70200B8F70200EF0F030055
:106BB4001CF8020010F802002DE9F04385B01F46CE
:106BC4000C9D002306460C46904695F80C902B73BA
:106BD40029463846FFF7B4FFB8F1060F09D8DFE8B5
:106BE40008F00412181F283340003146284601F0EB
:106BF40094FD002229463846FFF784FF85F80C905F
:106C040005B0BDE8F08322683146284601F085FDD1
:106C1400EFE7D4E900233146284601F07EFDE8E79A
:106C2400A36800933146D4E90023284601F075FD9A
:106C3400DFE7E3680193A36800933146D4E90023B6
:106C4400284601F06AFDD4E723690293E3680193BF
:106C5400A36800933146D4E90023284601F05DFD82
:106C6400C7E76369039323690293E3680193A36805
:106C740000933146D4E90023284601F04EFDB8E7DD
:106C840008292DE9F84F80460E4617461C463AD887
:106C9400002593F80C901D7319461046FFF750FF1A
:106CA400DFF884A0DFF884B0AE422ED918F80520AE
:106CB4005946204601F031FD0135082DF4D118491B
:106CC400DFF86CB0204601F028FD4FF0000A56456D
:106CD40020D918F80A507E2D03D8284608F09EFBC8
:106CE40000B92E252A465946204601F016FD0AF120
:106CF400010ABAF1080FEAD1012221463846FFF70A
:106D040001FF84F80C90BDE8F88F5146204601F04D
:106D140004FDD1E70349204601F0FFFCE7E700BF8B
:106D2400E6F70200E4F70200E2F70200DCF70200F3
:106D3400E8F702002DE9F04F3B4F89B000263B4BAA
:106D44001B78F5B2AB4202D809B0BDE8F08F384BDE
:106D5400196811F835000124A0F12002C0F12003C4
:106D640004FA02F924FA03F349EA0309D7E90023F0
:106D740004FA00F8CDE9042302EA080203EA09034D
:106D8400134301EBC50B4CD0DDE9042322EA0802CE
:106D940023EA0903C7E90023079102F08DFE07994E
:106DA400844611F83500A0F12002C0F1200324FA32
:106DB40003F304FA02F21A4304FA00F300931D4B9E
:106DC4000192DDE90045D3E9002314401D40224629
:106DD4002B465FFA8CF40025CDE90445049CA0F110
:106DE4002005AC400394049CC0F1200124FA01F175
:106DF400039C0C430499039481400291DDE902450C
:106E0400AB4208BFA2420CD19BF801104B1E594261
:106E14005941A1EB0C02DBF804305142514103B15A
:106E2400984701368BE700BF7028002040280020D7
:106E340078280020682800202DE9F84F06462448C9
:106E440000F090FB002841D10123A6F12001C6F1F6
:106E5400200203FA01FB23FA02F203FA06FA1D4B9D
:106E6400D3E900014BEA020B00EA0A0801EA0B0924
:106E740058EA09021F4623D1304602F01DFE164B84
:106E8400B8B1D3E9000140EA0A0441EA0B05C3E9B9
:106E94000045D7E900234BEA0305104B0C48196859
:106EA4004AEA0204C7E900450022BDE8F84F00F0B1
:106EB40015BBD3E9000120EA0A0421EA0B05E6E741
:106EC40020EA0A0421EA0B05C3E90045BDE8F88F6E
:106ED400482800207028002068280020442800202A
:106EE400042A2DE9F34105460C4616463AD902F028
:106EF4001BFDD8B11C4B1D491D601D4BDFF8848060
:106F04001C701C4B00221E600023C1E900231A4997
:106F1400C1E90023013CE4B200260327FF2C0CD175
:106F2400164A1748002100F0C7FA03E002F0C6FC35
:106F34000028DFD002B0BDE8F08123B205EBC30224
:106F440001A992788DF8052015F833008DF80660B4
:106F540042468DF8047002F0F1FC013CE4B20028D2
:106F6400DCD0E7E70720E5E7782800206828002040
:106F7400402800204428002070280020396D020099
:106F84007CF802003D6E020070B5084D084E0024E6
:106F94002B789C4201D3002070BD3368012113F883
:106FA400340002F043FD0134F2E700BF4028002022
:106FB400782800201FB50021039001AA44F20100A3
:106FC400CDE9011100F004F805B05DF804FB000000
:106FD40010B572B6FFF780FDFFF7BEFB0028FBD1AA
:106FE400104B114C1149E41AE408240444F0010044
:106FF400FFF71EFD0E4B1B68DB0700D500BE0D49D5
:1070040044F00200FFF714FDBFF34F8F0A490B4B06
:10701400CA6802F4E0621343CB60BFF34F8F00BF32
:10702400FDE700BF90F60200C0F6020080F80200FF
:10703400F0ED00E08CF8020000ED00E00400FA0539
:10704400094A537891780133DBB2994208BF00238F
:10705400117899421FBF03705078182303FB002056
:1070640014BF0430002070477C28002073B5054607
:1070740002A8002400F8014D0E4600F083FA0DF139
:107084000600FFF7DDFF90B106700A4B9DF806205D
:1070940045605A709DF8070000F098FA24B9064B31
:1070A4004FF48012C3F80021204602B070BD0424BE
:1070B400F0E700BF7C28002000E100E0024B4FF421
:1070C4003C6043F001031847A0F8020038B50C4BAC
:1070D4000C4C4FF40032C3F8802001254FF4803368
:1070E400C4F84833C4F808336560FFF7E7FF064B7C
:1070F400A56000241C60FFF7E1FF044B1C7038BD41
:1071040000E100E0001001409829002089290020B6
:10711400F8B51F4B1F491B680025C1F84051C1F841
:107124004451C1F84851C1F84C51C1F80051C1F85B
:1071340004514BB3D1F8044517490968641A24F083
:107144007F442F461A68A24209D8A41A15441A7C0F
:10715400DE691AB11F74D3E905209047AEB90F4B0D
:107164000F4A197813788B4205D10133DBB2022B15
:1071740008BF0023137012780A4B43F822500A4BBD
:107184004FF48012C3F80021F8BD3346DAE700BF9C
:107194009C290020001001409829002094290020F7
:1071A400952900208C29002000E100E02DE9F74F0B
:1071B4009E4A9F49137809789E4D99423CD00133E9
:1071C400DBB2022B08BF002313709B4912789B4B40
:1071D4000F6853F822003B1823F07F4300220B6012
:1071E4002B6816461446944613B942B12B6006E048
:1071F400196881420ED902B12B60091A19604FF047
:1072040001082B68DFF83CA200930027BEB9DFF821
:107214003CB260E0401A0C44D968C3F800C0D3F80B
:107224001CE031B13A1922F07F42C3E90121DE6149
:107234001E4601227346D7E70026B046E1E73446EE
:10724400F6697D4A63681268DFF804C2A068991A77
:1072540021F07F41614500F2A580014421600122B3
:1072640022742A680023C4E90133E361002A40F050
:10727400A2802C60CAE75A1C9BF80210D2B2914239
:107284008BF8002004BF00228BF80020182202FB98
:1072940003B32A6819799C68022974D003297ED023
:1072A400012918D1217CB1B9DA6862601A69A26037
:1072B4005A699B69A361624BE2601B78002BC0D0C2
:1072C4006160BEE79C4200F093809946DB69002B25
:1072D400F8D1002323749BF800309BF801209A42D4
:1072E400C9D12B682FB9009A934202D1B8F1000F8B
:1072F40043D0002B79D0D3F800A0524D4E4BD5F893
:1073040004751C68DFF84C813E1B98F8003026F0A9
:107314007F4603369BB94FF48033C5F84433C5F830
:107324000433494B4FF400324FF00109C3F8802174
:107334001A60C5F80090FFF7C1FE88F80090B245C6
:107344002CBF5444A41924F07F44C5F84045D5F813
:107354000435DB1B23F07F43E41B033324F07F4419
:10736400A3420AD9D5F80435C5F84035FFF7A6FE7F
:10737400354B4FF40032C3F80021314B00221A7010
:1073840003B0BDE8F08F13469146A0E71174D269AB
:107394000123002AFAD1002B9DD02A609BE7002309
:1073A4001946F6E7D31A23F07F43834234BFC31A46
:1073B4000023236053E721681368994213D8591AAC
:1073C4001160E26155E7091AD8691A4638B10346D3
:1073D40018688842F7D3401A18601846134621608B
:1073E400E061DC6112E71346F2E7FFF76FFEC4E7E2
:1073F4004C450DD1D3692B6053B90F48019201213B
:10740400CAF8081003600E4B1970FFF757FE019A73
:10741400E1692368C9F81C1011B1086803440B60C2
:107424002B689A4218BF012753E700BF9429002014
:10743400952900209C290020982900208C290020CF
:10744400882900200010014000E100E07C28002091
:10745400FEFF7F008929002008B5FFF737FE104B97
:1074640000200B2218809A700E4B18600E4B187077
:107474000E4B18700E4B4FF48012C021C3F88021BC
:1074840083F814131A6002F18042A2F56F22C2F845
:10749400080583F81113074BD2F804251A6008BDB8
:1074A4007C2800209C290020942900209529002074
:1074B40000E100E098290020074B9B784BB132B1E2
:1074C40028B10368187C20B959745A6170470720A1
:1074D40070470820704700BF7C2800202DE9F7433F
:1074E4001D4FBB7805460E4690469BB390B30429C6
:1074F4002ED9436973B3437C02A80024012B00F8FE
:10750400014D0CBF8946A14600F03CF80DF1060080
:10751400FFF796FDD0B101230370104B4560D3F8FB
:107524000435C0E90498C0E902369DF806307B7042
:107534009DF8070000F04AF824B9094B4FF4801273
:10754400C3F80021204603B0BDE8F0830424EFE72C
:107554000724F7E70824F5E77C2800200010014001
:1075640000E100E0064A92783AB130B1426922B1B2
:10757400002202740221FFF779BD0820704700BF82
:107584007C28002070B5EFF3108672B60C4A94681C
:1075940001239CB993600B4B0B4DD3F88010294009
:1075A4001160C3F88050D3F8841051604FF0FF325B
:1075B400C3F88420047006B962B670BD0370FAE79C
:1075C400A029002000E100E0FC06FFBD084B9A68FA
:1075D40010B55AB150B9EFF3108172B6054A1C6860
:1075E40014605C685460986001B962B610BD00BF55
:1075F400A029002000E100E070B5064E05460024F5
:1076040056F824300BB1284698470134042CF7D19E
:1076140070BD00BFB8290020033080B240F2FD33B2
:10762400984230B51FD8124B1A783AB91C895D8933
:107634002C440444A4B2B4F5806F0AD31A7DA2B9D1
:107644009A8BDC8B2244024492B2B2F5806F0CD246
:1076540001220A801446142202FB04335A8910447E
:107664005881002030BD0920FCE70720FAE700BF5D
:10767400EC2900200B4A0C4B5188142000FB0131EB
:10768400CB6833B90420496810700122074801F01F
:10769400D1BA05230649137002238B8001220023EB
:1076A4000968F3E7D0290020EC29002020220020DB
:1076B400B42A002007B5002305490093054A096848
:1076C4000548082301F020FA03B05DF804FB00BF6D
:1076D400B42A0020B4F802002022002007B50023B9
:1076E400009301460823034A034801F00DFA03B04E
:1076F4005DF804FBACF802002022002013B500233F
:107704000C46009301460423074A084801F0FCF99B
:1077140038B9074B142202FB04340123237402B04A
:1077240010BD0E20FBE700BFA8F8020020220020B5
:10773400EC29002037B50A480A4B42689C8819682E
:1077440053880325033305709BB2002000909B00EF
:1077540001EB8401044801F0D7F903B030BD00BF48
:10776400D0290020B42A00202022002010B5014690
:10777400044800F048FE1C220446002107F0B2FE33
:10778400204610BDA02A00204388033300EB830366
:10779400994209D382884FF6FF739A4206D0008833
:1077A400B0FA80F04009704702207047012070470A
:1077B4002DE9F8430223DFF860800B800D4617465D
:1077C40000F5805600F108044FF00109B4420FD2CD
:1077D400236801330CD031462046FFF7D5FF48B16A
:1077E4000FB187F8009002280BD14FF480632B80EF
:1077F400BDE8F883A368D8F80020934201D9C8F8FB
:1078040000302B886288033313442B80638803334E
:1078140004EB8304DAE700BFE4290020144A1423AC
:1078240003FB002070B50B6844680D4604F58056D0
:107834009BB15C88033403EB8404B4420BD2236809
:10784400013308D031462046FFF79EFF012809D0B6
:1078540005D30228F1D1002003E00834EDE72C60C1
:10786400012070BD6388033304EB8304E5E700BFA4
:10787400EC290020436873B505460C466BB3254AD2
:10788400D1688B4229D31269934226D813F003029C
:1078940023D121490089098988421ED12868996821
:1078A40088421AD11D494868834203D900F58050A3
:1078B40083420ED38A6993420DD902F580529342D2
:1078C40009D2012323800020B0FA80F0400902B0DD
:1078D40070BD1346F6E70A20F6E7002323801E4610
:1078E4002388012B01D90020F1E7019601A9208802
:1078F400FFF794FF18B9238801332380F0E7019B35
:107904002A6899689142F1D16B60034B1B892B81E2
:10791400DDE700BF20220020D0290020EC29002030
:107924002DE9F8431C461E4B1B7806460F461546A8
:10793400002B30D0002A30D07CB3DFF86C804FF0BD
:107944001409A388012B01D90A201AE009FB03F3C7
:1079540018F80330BBB1A3880133A380F1E723688F
:107964001EB19988328891420DD11FB119883A8885
:10797400914208D19A68C5E900230A4B1B892B81DF
:107984000020BDE8F8832146A088FFF747FF0028C0
:10799400E5D12060DFE70220F3E70520F1E700BF2F
:1079A400C8290020D0290020EC29002008B5074B65
:1079B400191D5888FFF732FF18B1BDE80840FFF7DA
:1079C400B9BEBDE80840FFF755BE00BFD02900206E
:1079D4002DE9F04FA04FDFF8A49289B00646B846CF
:1079E4003B6823B949469D4800F047FD3860D8F804
:1079F400005029784B1E052B00F21281DFE813F0AA
:107A0400060076007600060106015D0126B1944B5E
:107A140000225A60012424E02B79032B1DD8DFE8CF
:107A240003F01502424D8F490B78022B084631D0E2
:107A34000B7D022B4FF001032ED114225343C218A5
:107A44000020C8545068FFF749FE03E001232B715E
:107A5400FFF730FE002800F0D380814B00225A60EB
:107A64000E241422002103A807F03CFD41F61D5307
:107A74009C4208BF0024D8F8003004941A78023AD3
:107A8400042A00F2D381DFE812F0B401C001E3015B
:107A9400EB01F2010023D0E7714A13700023536015
:107AA40041F61D54DDE770497048002302222B7112
:107AB4008A800122096801F0BDF8CBE76A4C0026F0
:107AC4002E712068674DFFF709FE694BD4F800C09A
:107AD4005A8814235343EA18EE5451682160A1884C
:107AE400C2F804C011810222A280B3E7B5F814A041
:107AF400AA7DDFF870B1AEB1022AEB8806D9142151
:107B040001FB0AB1DA1C088902440A81142202FB2F
:107B14000ABAC3F57F43BAF80A20FD331344AAF81E
:107B24000A3077E7142303FB0AB318895C6804EB73
:107B34008004062A05D8DFE802F0264C34421C589B
:107B440066000F24AA7DEB88022A06D9142101FBC2
:107B54000AB1DA1C088902440A81142202FB0ABA17
:107B6400C3F57F43BAF80A20FD331344AAF80A3058
:107B740077E74048404900234360AB690360FFF75F
:107B840079FE00285AD00223AB7500230093042306
:107B9400EA182146354800F0B7FF002830D00E24FB
:107BA400D0E72B69002B0CBF01230323AB75002303
:107BB400009305F10C02042304F10801EAE7012310
:107BC400AB750022EB8800929B002A6904F10C013A
:107BD400E0E7032914BF06230523AB7500230093B4
:107BE400042305F10802E118D4E70623AB75224B00
:107BF4001988204B5868FFF781FD04460028A1D15D
:107C040009B0BDE8F08F41F61D549BE7002E7FF4C8
:107C140001AF2B79012B33D004D3022B3FF440AFB7
:107C24000F241EE702232B710DF10A01EB68039365
:107C340003A8CDE90466FFF71DFE08B90A2410E77E
:107C44000498BDF80A108388EB8003882B81FFF722
:107C540055FD044627E000BFE8290020A02A0020A3
:107C6400C8290020EC290020B42A0020202200206A
:107C7400D0290020AC290020C02A0020E0290020BF
:107C8400DFF808A203AA53463146A81DFFF748FEB1
:107C9400044660B9BAF804100498FFF72FFD0446AF
:107CA4000A2C3FF4FDAE002C7FF4DBAEA8E70822DB
:107CB4003146504607F016FCF2E7002E7FF4AAAED8
:107CC4006D4B1A7BB2B11E731A78013A062AA7D8F3
:107CD40001A151F822F000BF837D0200A97D0200BA
:107CE400C77D0200CD7D0200257C0200D37D020009
:107CF400E97D02001A78072AE6D801A151F822F09A
:107D0400257D0200CD7C0200CD7C02004B7D02006B
:107D14005F7D02007F7D02007F7D0200477D0200BF
:107D24001A89564901321A8100225A801A730A7834
:107D3400B2FA82F252099A720A7DB2FA82F25209B6
:107D4400DA72012207E04E4958688A884088033273
:107D540002448A8002221A70B6E7484C5A8848497D
:107D6400142505FB02420868546850608888108115
:107D740002228A800C600622EDE70722EBE79A7A5A
:107D840032B9DA7A8AB900221A705A805A6087E6C0
:107D94003A4900229A72CA68002AF2D1097C002961
:107DA400EFD05A80FFF702FE53E70022DA72334A1B
:107DB400116A0029E7D192F82420002AE3D0012295
:107DC400EFE7FFF7B7FC44E7FFF754FC41E706226F
:107DD4001A702A4A5B88142101FB03235868FFF7B1
:107DE4007DFC36E707221A7000225A60FFF762FC16
:107DF4002FE701228DF80C201A89ADF818209A88F3
:107E0400DB68ADF81A20059310E002228DF80C20EF
:107E14001A89ADF818209A88ADF81A20DA689B7D83
:107E240005929A1F534253418DF81C3003A8FFF763
:107E3400E3FB002649461348C8F8006000F048FBFD
:107E44000121114800F0F7FB00287FF4C9ADD7E603
:107E540003228DF80C20DA88ADF818201A89CFE7B0
:107E64000422DB888DF80C20ADF81830DEE70523FA
:107E74008DF80C30DAE700BFD0290020EC2900206F
:107E8400B42A0020A02A0020B02A0020C42A0020FE
:107E94004068FFF79DBD000008B50121044800F0CB
:107EA400B4FB18B9BDE80840FFF792BD08BD00BF98
:107EB400B02A00202DE9F3419846354B1B7806463D
:107EC4000D46002B5BD000295BD009884FF6FF7369
:107ED400994258D06B88002B55D06B689B0754D1BE
:107EE4004AB92F890DF102013846FFF795FB30B1ED
:107EF40002B0BDE8F08113885788ADF8023001A8BC
:107F0400FFF734FC044658B9BDF80230214A142165
:107F140001FB032358890338C01B58810820E7E775
:107F240000238375BDF8023083826B68036180F897
:107F340000800121184800F073FB2B882381B8F1DD
:107F4400030F6B88A38004BF0423A3754FF00005BF
:107F540008BF3368E06008BFA361E780658101A9B9
:107F64000E4800F07AFA36B1E36833600C4B756062
:107F74001B89B5723381FFF78FFF0020B8E7022019
:107F8400B6E70520B4E70420B2E70320B0E700BF5A
:107F9400C8290020EC290020E4290020A02A002080
:107FA400D029002008B5084B1A68042A09D019689A
:107FB400064A42F821000121184600F031FB002056
:107FC40008BD0C20FCE700BFBC2A0020B829002013
:107FD4002DE9F04F89B01422002103A807F082FA9A
:107FE4007D4A137803F0FF01009190463BB103A84A
:107FF400FFF702FB0026304609B0BDE8F08F101DE4
:1080040000F024FB05460028F4D140F6F8734FF045
:1080140080521B68DFF8ECA15C1C04BF6F4B1B682B
:1080240011695269581C08BF02FB01F3CAF81030E9
:108034000022A3F540536A49CAF80C30504600F0B8
:108044002FFD06460028D6D11C238C22654966489C
:1080540000F0A4F93746B3464FF003093446CDF88F
:1080640004A0019BD9680BEB010002465BF80110E8
:10807400002835D05D4B994232D141685C4B99421E
:1080840015D0013399422BD1009BDFF870A1002B4E
:1080940059D100225749CAF80000FFF789FBBAF802
:1080A4000420022A14BF0822042217433AE052494A
:1080B4004FF0140C0CFB04FC01EB0C024FF0000E0F
:1080C40001F80CE050600CF110020CF1080C0A44A9
:1080D4006144FFF76DFB47F002070134A4B221E0CD
:1080E40000F5805C1168013167D104329445F9D1FF
:1080F400424A116829B9022101231060918000933A
:108104000EE0142262433C4B4FF0020E991803F820
:1081140002E03B4A486054800134A1F808E0A4B26C
:1081240047F001070BF5805BBBF5405F99D1B9F1CE
:10813400010F88BF3D46EDB2022D02D0062D12D0AC
:10814400DDB90B2657E72C4B1422624399184FF0E4
:10815400020C03F802C00134DAF800204A60A1F8E6
:1081640008C0A4B295E7012388F8003003A80023CF
:10817400C8F80430FFF740FA3DE702A8FFF7F6FA23
:10818400C8B10123013D03700A2D09D8DFE805F0C9
:1081940006080608070807080F110F0000230371DB
:1081A40002A9114800F059F9FFF776FE23E70323EB
:1081B400F5E70223F3E708261DE70F49142262437B
:1081C40001EB020C09F1FF39CCF8040003201FFA7B
:1081D40089F9885481E700BFC829002014100010D1
:1081E400A8FA0200142A0020A02A0020DEC0ADDE76
:1081F400FE011EF1B82A0020EC290020B42A002038
:10820400D02900202022002073B50D460446C8B1B1
:10821400C1B10DF10601FFF72DFBA8B10B4BBDF861
:1082240006006668142202FB003001210C3000F0C5
:10823400F7F963682E600C336B600123A37200208E
:1082440002B070BD0520FBE70A20F9E7EC29002005
:1082540013B50446A8B10DF10601FFF70BFB90B16D
:108264000B4ABDF80630142101FB0323DA6862B11E
:10827400A27A52B1DA680020013ADA60A07202B040
:1082840010BD0520FBE70A20F9E70620F7E700BF49
:10829400EC29002002230022FFF70CBE18B10323AF
:1082A4000022FFF707BE052070470000104B1B7823
:1082B40013B50446ABB14FF6FF73984213D001A82F
:1082C400FFF754FA88B10523037001230371C480B6
:1082D40001A9084800F0C1F8FFF7DEFD002002B054
:1082E40010BD0220FBE70420F9E70820F7E700BFF0
:1082F400C8290020A02A00200E4B1B7807B5A3B183
:1083040001A8FFF733FA90B10623037001A90A48C4
:1083140000F0A3F8094B1A780AB101221A73FFF787
:10832400BBFD002003B05DF804FB0220FAE708203F
:10833400F8E700BFC8290020A02A0020D029002087
:1083440007B5ADF8060002A820F8041D01460DF19A
:108354000600FFF7E5FA03B05DF804FB13B502ACC1
:10836400134624F8020D0A4600202146FFF7D8FAE6
:1083740002B010BD13B502AC134624F8020D0A4630
:1083840020460021FFF7CCFA02B010BD20B119B18C
:1083940003680B60002070470520704710B561B179
:1083A400B2FBF3F403FB1424A4B244B9C0E90014EF
:1083B40084608281C381204610BD0E20FCE7092021
:1083C400FAE782B050E8022FC188B2EB324F4FF087
:1083D400000317BF92B241EA014142EA014104E0BD
:1083E4004268B2EB324F08BF012340E80212002A70
:1083F400E8D18DF807309DF80730002B0CBF112011
:10840400002002B0704737B550E8013F9DB2C489DF
:1084140025448489A54228BF2D1B0489A54202BF97
:10842400BFF32F8F002207E0C5EA030540E801549B
:10843400002CE9D14FF001028DF803200193019B38
:108444009DF803200B6002F0FF0322B10B88006843
:10845400184403B030BD1846FBE70A884B889A429B
:1084640009D150E8012FC2EA024240E80123002B5F
:10847400F7D1012070470020704737B550E8023F1C
:108484001FFAA3F5C488A54202BFBFF32F8F0022B1
:108494000DE0C48925448489A54228BF2D1BC3EA65
:1084A400054540E80254002CE8D14FF001028DF854
:1084B40003200193019B9DF803200B6002F0FF034E
:1084C40022B14B880068184403B030BD1846FBE75E
:1084D4000A884B889A4209D150E8022FC2EA224204
:1084E40040E80223002BF7D1012070470020704799
:1084F40001F01F024B090121914000EB830000F0C1
:1085040063B84B0910B501F01F040121A14000EB31
:10851400830000F04EF8E04000F0010010BD01F0CF
:108524001F0301229A404B0900EB8300D14300F062
:1085340061B84B0901F01F0150F82300C84000F056
:10854400010070472DE9F0474E1E760980460F461C
:108554000136002558F8254008EB850AE44394FACF
:10856400A4F4B4FA84F44FEA4519202C06D1013559
:10857400AE42EFD83C462046BDE8F0874C44A742C3
:10858400F5D921464046FFF7BCFF0028F3D0DAF8BE
:108594000040E44394FAA4F4B4FA84F4E5E750E820
:1085A400002F0B4640E8003C9CF0000FF7D110462A
:1085B400704750E8002F42EA010340E8003C9CF079
:1085C400000FF6D11046704750E8003F43EA01021D
:1085D40040E8002C9CF0000FF6D11046704750E89C
:1085E400002F02EA010340E8003C9CF0000FF6D1A2
:1085F4001046704750E8003F03EA010240E8002CAF
:108604009CF0000FF6D11046704750E8002F02EBA3
:10861400010340E8003C9CF0000FF6D1104670477F
:1086240050E8003F03EB010240E8002C9CF0000FEF
:10863400F6D11046704750E8003FA3EB010240E832
:10864400002C9CF0000FF6D1104670470121FFF773
:10865400B0BF0121FFF7B8BF0021FFF7C0BF10B5BD
:1086640090B1D0E9012301689B1ADBB20A60013B97
:10867400DBB2FF2B026802D10020107110BD11681B
:108684004C1C14600B70F2E70E20F7E737B5054673
:1086940002A8002400F8014DFEF774FF2A686B68F5
:1086A400116899420ED9481E106011F8014CEB680C
:1086B400298A01FB0434AB6811791B1ADBB2994295
:1086C40038BF13719DF80700FEF780FF204603B002
:1086D40030BD37B5054602A8002300F8013D0C461D
:1086E400FEF750FF2A681368591C1160E968641A80
:1086F400298AB4FBF1F41C709DF80700FEF766FFAD
:1087040003B030BD826810B504462AB143690168DC
:10871400006998470023A36010BD0EB403B5039904
:1087240029B102AA04AB42F8043D00F073F802B088
:108734005DF804EB03B070470A2938B504460D46CA
:1087440002D10D21FFF7F8FFA3682268591CA1602C
:10875400D554D4E901329A4204D32046BDE83840C6
:10876400FFF7D0BF38BD00002DE9F84F9946DDE989
:108774000A431746824688460A460126BA420FD261
:108784004E4538BF4E4613F0010B01D164B90024A5
:108794000125B9F1010F1AD909F1FF397D43F8E731
:1087A400B2FBF7F20136E9E79B070ED5B9F1000FEA
:1087B4000CBF30252025A642EAD2013C294650466A
:1087C400FFF7BAFF002CF6D1E1E72025F3E7B8FB69
:1087D400F5F39F42E2D9DFF83890B8FBF5F3504641
:1087E40019F8031005FB1388FFF7A6FFB5FBF7F58F
:1087F400002DF2D1BBF1000F02D00CB1A64201D37F
:10880400BDE8F88F20215046013CFFF795FFF4E7BF
:10881400BCF802002DE9F74F054690460E460029A4
:1088240000F03A8116F8011B002958D0252940F0A0
:10883400D180002702E047F001071646324612F8BD
:10884400013B2D2BF7D0302B04D02B2B05D147F037
:108854000407F2E747F00207EFE700242A2B06F1AA
:1088640001021BD1D8F80030191D1B68C8F800108C
:108874001C44164633782E2B1CD101364FF0000AC7
:10888400314611F8012BA2F13000092814D80A232B
:1088940003FB0A23A3F1300A0E46F1E712F8013C68
:1088A400A3F130010929E5D80A2101FB0434303C45
:1088B4001646D3E74FF0000A324612F8011B01F0C6
:1088C400FB0068281646F8D0692916D054D85829D0
:1088D40070D00ED825297DD03378002BA2D12B7BE4
:1088E400002B00F0D980284603B0BDE8F04FFFF715
:1088F40009BF632968D06429EED1D8F80020D2F8E2
:108904000090111D89EAE972C8F80010A2EBE9721F
:108914004FF0010B092A61DCD34538BFD3462CB193
:10892400B9F1000F01DB790700D5013CBA0702D584
:10893400BAF1000F04D0FB0702D4002C54D1002458
:10894400B9F1000F58DAC9F100092D212846FFF7C3
:10895400F3FE07F00302022A05D1BAF1000F02D197
:10896400002C4DD10024CDE9004753460A22494644
:108974002846FFF7F9FEAFE7732954D016D87029BB
:10898400AAD1D8F800301A1DC8F800203021284692
:108994001C68FFF7D1FE78212846FFF7CDFE0022A0
:1089A4000823CDE9003221461022E1E775292FD0B2
:1089B400782991D1D8F800100A1DC8F80020CDE913
:1089C4000047534610222CE0D8F800301A1D1978BD
:1089D400C8F800202846FFF7AFFE7DE70A230BF115
:1089E400010B92FBF3F295E7A345A9D22021284677
:1089F400013CFFF7A1FEA0E77807AAD52B21A5E744
:108A0400A345B0D230212846013CFFF795FEA7E7E5
:108A1400D8F80010CDE900470A1DC8F800205346D5
:108A24000A220968A4E7D8F800301A1DC8F8002003
:108A3400F907D3F8009012D54F46A7EB090B17F8A6
:108A4400011B41B9A345BFF447AF20212846013C8F
:108A5400FFF772FEF6E72846FFF76EFEEDE7B9F181
:108A6400000F17D0484606F092FD0746BC4200D9D5
:108A740054B909F1FF3919F8011F00293FF42CAF4B
:108A84002846FFF759FEF6E720212846013CFFF768
:108A940053FEEBE74F46E9E703B0BDE8F08F000073
:108AA40007B50B4688B9124B1248134AC01A0E2355
:108AB400C0080093114B0004114940F00100FDF778
:108AC400CFFF0E2003B05DF804FB4BB9084B0948F7
:108AD4000C4AC01AC0080E2300930004074BEBE7AE
:108AE40003601B68114603B05DF804EB184700BF30
:108AF40090F60200D8F6020079F90200CCF80200E0
:108B04007EF90200F5F902002DE9F34188B93D4BE5
:108B14003D483E4AC01AC0080E243D4B0094000450
:108B24003C4940F00100FDF79BFF204602B0BDE840
:108B3400F0814AB9334B3448374AC01AC0080E246E
:108B440000040094324BEBE7D0F800C0BCF1000FF6
:108B540009D12C4B2C48314AC01AC00808240004FF
:108B640000942B4BDCE74BB9264B27482C4AC01A00
:108B7400C008092400040094254BD1E74768D7F8BE
:108B84000480B3FBF8F708FB17374FB11D4B1E48A1
:108B9400244AC01AC0080924000400941C4BBFE7EF
:108BA4008F0709D0174B18481F4AC01AC008102451
:108BB40000040094164BB3E712F0030F09D0114BD5
:108BC40011481A4AC01AC008102400040094104B1B
:108BD400A6E7C768B9420BD34C1E05691C44AC42D6
:108BE40006D8DCF80C40A44602B0BDE8F04160476A
:108BF400044B05480E4AC01AC0081024000400940F
:108C0400034B8DE790F60200D8F6020079F90200D2
:108C1400DEF802007EF90200FBF90200EFF902001F
:108C2400AEF9020001FA02002BFA020043FA020034
:108C340066FA0200F7B580B92A4B2B482B4AC01AB2
:108C4400C0080E242A4B009400042A4940F0010075
:108C5400FDF706FF204603B0F0BDD0F800C0BCF11C
:108C6400000F09D11F4B2048234AC01AC00808240A
:108C7400000400941E4BE8E74AB91A4B1A481F4AED
:108C8400C01AC008092400040094194BDDE74768A2
:108C9400D7F800E00EF1FF370F4209D0114B12480C
:108CA400174AC01AC008102400040094104BCCE7E3
:108CB400C768B9420CD34C1E05690EFB0244AC4292
:108CC40006D8DCF81040A44603B0BDE8F040604785
:108CD400044B05480B4AC01AC00810240004009431
:108CE400034BB2E790F60200D8F6020079F90200CD
:108CF400F1F802007EF90200EFF90200AEF9020079
:108D040004F902002AF9020029DF704728DF7047BE
:108D140070B503689D6886B004460E466DB1142292
:108D24000021684606F0DEFBA368059323790196CB
:108D34002BB1012B0DD06846A84706B070BD0123A6
:108D44008DF8003023690293E36803936369049305
:108D5400F1E702238DF80030E3681B030293F5E783
:108D64000846704700207047024B187A003018BF3D
:108D740001207047682B0020034B187A0122B0FAB7
:108D840080F05A7440097047682B002008B51046DB
:108D94001A4606F07EFB002008BD000008B5142228
:108DA4000021044806F09EFB0348FFF70AFB00205D
:108DB40008BD00BF682B0020582B002010B5094CBB
:108DC400094B43602046FFF741FC40B906F01CF80C
:108DD4001C2320748C2205490548FFF7DFFA002084
:108DE40010BD00BF682B00209CFA0200CC2A002092
:108DF400582B002070B5244D244E2B7A2C463BB9B9
:108E040023492448FFF739FB306008B9686070BD16
:108E14000223237233681A7972B1012A24D01846C6
:108E24000321FFF775FF0023237263601849194873
:108E3400BDE87040FFF74CBBD3E90520121AB2F528
:108E4400805F28BF4FF48052D3E903159208012AAA
:108E5400014438BF01222844FFF756FF50B11128BE
:108E6400DDD101232372D2E7D3E903021044FFF7D3
:108E74004DFFF3E7237C002BC9D10146BDE87040C8
:108E8400022000F009B800BF682B0020802B0020CE
:108E94007C2B0020582B002038B5831E012B45D88D
:108EA400234C237A002B41D0022B09D1032830D044
:108EB400204B1B680022E2601A793AB1012A22D0C1
:108EC400637C7BBBBDE83840FFF794BFD3E9051250
:108ED4008D1AB5F5805F94BF521902F580529A61DC
:108EE4009142EDD102284FF0000308BF19462372C6
:108EF400104B18BF0D211868FFF70AFF0E490F48E1
:108F0400FFF7E6FADCE71A6901321A615B699A42F3
:108F1400E7E7E3680133082B01D8E360D0E70023D7
:108F2400E360DFE7BDE8384005F05EBF38BD00BF51
:108F3400682B0020802B00207C2B0020582B002045
:108F440000F0FD03012B08D1044B00225A74421E89
:108F5400504250411874FFF74DBF7047682B0020F2
:108F640010B5064C201DFFF771FB28B9637C1BB9B3
:108F7400BDE81040FFF73EBF10BD00BF682B0020C6
:108F84002DE9F34180460D460F4801A916461F46B8
:108F9400FFF739FA0446A8B11C22002106F0A2FA10
:108FA4002D0B0123237101A9C4F80080A760E5609B
:108FB40066610548FFF751FAFFF7D2FF002002B0BF
:108FC400BDE8F0810420FAE7582B00202DE9F7438F
:108FD40081468846104801A917461E46FFF713FA32
:108FE4000446B0B11C22002106F07CFA00250A9B3D
:108FF400A36001A92571C4F80090C4E903786661EF
:109004000548FFF72AFAFFF7ABFF284603B0BDE88F
:10901400F0830420FAE700BF582B00202DE9F04725
:10902400B0F806904479D2F800A09DF8208009FB9E
:1090340004F4043C06460AEB0300A0420F4688BF32
:10904400A4EB030A191DC2F800A0B1FBF9F509FB52
:1090540015114DB9A9EB0104544528BF5446BAF182
:10906400000F04D1BDE8F0873668013DF1E7043113
:109074007B1970182246B8F1000F0ED0014618462D
:10908400AAEB040A06F005FAD145254436684C4695
:109094004FF0000128BF5446E1E71946F0E7FFF717
:1090A400DEBAF8B546790146721E0546002393429E
:1090B4002D6803D30024A64202D8F8BD0133F6E795
:1090C4000F682846FFF705FB01343946F3E72DE91D
:1090D400F843068ACD1C0746FFF7D8FA043E354408
:1090E4000446B5FBF6F5F0B14FF48073EDB283801E
:1090F400C680013D076081464FF00008A84512D2A2
:109104003846FFF7C3FA064648B163790133637101
:1091140008F10108C9F8000007608146EEE720461F
:10912400FFF7BFFF34462046BDE8F8830121043031
:10913400FFF776BA10B5012104460430FFF77BFA35
:1091440010F0FF0F04D12046BDE81040FFF7A9BF7F
:1091540010BD1FB504AC44F8042D00220092224631
:10916400FFF75CFF04B010BD1FB504AC44F8042D38
:10917400012200922246FFF751FF04B010BD41DFE7
:1091840070470000064B10B500241C70054B1C6092
:10919400BFF35F8F0449054800F039F8204610BD3D
:1091A4008C2B0020902B0020C8FA0200842B002076
:1091B40007B502A8002300F8013DFEF7E3F9F1EE3C
:1091C400103A23F09F03E1EE103ABFF35F8F0A4B8E
:1091D4004022C3F884219DF80700FEF7F7F905F053
:1091E40013FE20B1FFF7CBFF03B05DF804FB20BFF3
:1091F40040BF20BFF8E700BF00E100E08368002221
:109204005A609A60C3E90422DA601A6070470B68F6
:109214004A684360934208BF0023016008BF43606B
:109224007047436843B10268916852680B449342A3
:10923400436004BF00234360704700000D4930B50C
:10924400A1F594720225914201D800200EE08B1AF8
:10925400DB1093FBF5F302EBC30452F83330834283
:1092640005D802D204F10802EDE7606830BD21465A
:10927400E9E700BF18FC020008B5FFF7DFFF024B67
:10928400002808BF184608BDDDFA02000C4B1B7805
:10929400062B10D10B4B1B681A070CD10A4B18680C
:1092A40000F0F003302B08D000F0E000A0F1400300
:1092B400584258417047002070470120704700BF52
:1092C400E00F00F0E40F00F0E80F00F0094B1B780A
:1092D400062B0CD1084B1B681A0708D1074B1868DA
:1092E40000F0F000A0F130035842584170470020CC
:1092F400704700BFE00F00F0E40F00F0E80F00F04B
:1093040008B5FFF7C3FF28B17D4B7E4A1B68C3F342
:1093140004231360FFF7DAFF10B17B4B7B4A1A601A
:10932400FFF7B4FF28B17A4B7A4A1B68C3F3423380
:109334001360FFF7CBFF20B1774AD36823F0807323
:10934400D360FFF7A3FF40B14FF080430022C3F87E
:109354000C21C3F81021C3F83825FFF7B7FF10B16B
:109364006E4B03221A60FFF7B1FF40B16C4B05222C
:109374001A6001229A6700229A603F225A60694B60
:109384001B78062B50D1684B1B6819074CD1674BCF
:109394001B6803F0F003502B46D14FF08052644B0E
:1093A400D2F80414C3F82015D2F80814C3F824150D
:1093B400D2F80C14C3F82815D2F81014C3F82C15DD
:1093C400D2F81414C3F83015D2F81814C3F83415AD
:1093D400D2F81C14C3F84015D2F82014C3F844156D
:1093E400D2F82414C3F84815D2F82814C3F84C153D
:1093F400D2F82C14C3F85015D2F83014C3F854150D
:10940400D2F83414C3F86015D2F83814C3F86415CC
:10941400D2F83C14C3F86815D2F84014C3F86C159C
:10942400D2F84424C3F87025FFF730FF28B1414B2C
:10943400414A1B6803F04F031360FFF727FF48B14D
:109444004FF08043D3F80024D20744BF6FF00102E9
:10945400C3F80024394B1B68062B08D1384B1B6812
:10946400062B01BF374A136843F480631360364AFE
:10947400D2F8883043F47003C2F88830BFF34F8FBA
:10948400BFF36F8F4FF01023D3F80022002A03DBC1
:10949400D3F80432002B2FDA2C4B0122C3F8042515
:1094A400D3F80024002AFBD04FF010221521C2F873
:1094B4000012D3F80024002AFBD04FF01023152209
:1094C400C3F80422214B1A46D3F800140029FBD018
:1094D4000021C3F80415D2F80034002BFBD0BFF3ED
:1094E4004F8F19491A4BCA6802F4E0621343CB60E8
:1094F400BFF34F8F00BFFDE7164B174A1A6008BD34
:10950400240300104035014074C007400DF0ADBA8B
:10951400440200103C050040F0ED00E0A0050040CE
:1095240010560040E00F00F0E40F00F0E80F00F0E8
:1095340000C0004058020010E40E0040300100104A
:10954400340100103C17004000ED00E000E0014051
:109554000400FA053C2200200090D003054A4FF095
:10956400A043105CD3F8043523FA00F0C04300F0A4
:1095740001007047D6FF0200044B1A5C012393409C
:109584004FF0A042C2F80C35704700BFD6FF02006E
:10959400044B1A5C012393404FF0A042C2F80835F3
:1095A400704700BFD6FF020008B50020FFF7F0FFA8
:1095B4000120FFF7EDFF0220FFF7EAFF0320BDE8DB
:1095C4000840FFF7E5BF08B50020FFF7D5FF0120ED
:1095D400FFF7D2FF0220FFF7CFFF0320BDE80840CA
:1095E400FFF7CABF074A4FF0A041105CD1F8043519
:1095F4000122824022EA03001340C1F80805C1F8A1
:109604000C357047D6FF0200054A4FF0A043105CAA
:10961400D3F8103523FA00F0C04300F0010070477E
:10962400D2FF02000D2809D00E2809D00F2809D036
:1096340010280CBF03204FF0FF3070470020704704
:109644000120704702207047014B185C704700BF2F
:10965400D2FF0200C20708B501460CD54FF0A04363
:109664000322C3F84427C3F84827C3F84C27C3F898
:109674005027FFF799FF8B070AD54FF0A0430C2220
:10968400C3F83427C3F83827C3F83C27C3F8402766
:1096940008BD000038B5084C04F10803054600284D
:1096A40018BF1C4623682BB11A6822605B682846E1
:1096B4009847F7E738BD00BF9C2B002020B9054B25
:1096C40001225A70FFF7E6BF012802D1014A9070C7
:1096D400F8E77047942B002020B9034B01225A70FD
:1096E400FFF7D8BF704700BF942B002038B50B4C50
:1096F400237883B90A486360A3602361E36000F0C0
:1097040055F8054605F080FB08B900F05DF8012323
:109714002370284638BD8525FBE700BF942B002025
:10972400C196020037B502A80023094C00F8013D98
:10973400FDF728FFE368013BE360E56815B900F035
:1097440055F8A5709DF80700FDF740FF03B030BD44
:10975400942B0020012813B509D003D303281BD070
:1097640002B010BD0F4B0122C3F88020F8E702A815
:1097740000230D4C00F8013DFDF704FF23780BB9DD
:10978400FFF7B4FFE3689DF807000133E3600123AA
:10979400A370FDF71BFFE3E700F016F8FFF7C2FF25
:1097A400DEE700BF00E100E0942B0020054A1379B6
:1097B4002BB901211060117153711846704785202F
:1097C400704700BFA82B0020074B1A68D2075FBF61
:1097D400C02283F8002301221A604FF08043012243
:1097E400C3F81825704700BF00E100E0044B0122D4
:1097F4001A604FF08042D2F81834DB03FBD4704770
:109804000C000040154B07B51A687AB100221A60A3
:109814001B680093009B4FF080430122C3F8082388
:109824000F4B587910B95A711B6898470D4B1A6839
:1098340082B100221A601B680193019B4FF08043A0
:109844000222C3F80823064B1B68012003B05DF80D
:1098540004EB184703B05DF804FB00BF00010040AF
:10986400A82B00200401004000F1804000F5C04016
:10987400002382B0036003680193019B02B0704728
:10988400800000F1A040D0F8003723F44033C0F842
:109894000037D0F8003743EA0141C0F80017704799
:1098A400054B4FF0FF32072843F8202084BF1B18D4
:1098B40083F84820704700BFB02B002010B5164C29
:1098C40094F8583033BBFF21E2180133202B82F87F
:1098D4003010F9D10021C8B2FFF7E2FF01310C29A1
:1098E400F9D1042200210D4805F0FCFD0C4BC022E7
:1098F40083F8062340221A604FF4BE70FFF7B4FFCA
:10990400084B4FF00042C3F80423012384F8583075
:10991400002010BD0820FCE7B02B0020042C002000
:1099240000E100E000600040034B93F85800003071
:1099340018BF0120704700BFB02B0020F0B5394D8F
:109944002C18944694F93040002C68DA8E78C6F3CB
:109954004006002E15BF0023082308270C27BB420E
:1099640001D10420F0BD55F8232001324FEA8304CD
:1099740041D12F1845F823C087F8303016B9EA18BA
:1099840082F848008A78560716D4D70735D582005E
:1099940002F1A042D2F8006726F00206C2F800677E
:1099A400214FC60800F0070C012202FA0CF217F846
:1099B40006C042EA0C02BA558A780E7812F0020206
:1099C40024D004F1804303F5C0430002D3F81025EA
:1099D40022F4473222F44072C3F810253604D3F837
:1099E400102500F4F85006F4403630431043C3F811
:1099F40010050020B6E70133B1E74E7800F5E072B8
:109A04004FF0A047B60047F82260C9E7083B2B4453
:109A140093F8500040EA861683F85060E9E708207E
:109A2400A0E700BFB02B0020042C002038B5204C48
:109A3400251895F93020072A18DD224492F8483079
:109A44009B09032B0DD14FF0A043D3F81035C3402D
:109A540013F0010F0CBF02210321BDE83840FFF7CA
:109A64000FBF012B14BF03210221F6E7D3B2072B4A
:109A74001CD8930003F1804303F5C043D3F81005C9
:109A840040F00100C3F8100502F14000800080B2EC
:109A9400FFF7EAFE51B195F9303054F823302BB179
:109AA400012303FA02F2034BC3F8042338BD00BFB9
:109AB400B02B0020006000404FF0A043D3F81035D5
:109AC40023FA00F000F00100704700002DE9FF4781
:109AD4000024584A584E594D019401211368A2F5A7
:109AE400C040012B80B206D1D6F804330B4202D019
:109AF400FFF7BAFE0C430432AA424FEA4101EDD10A
:109B04004F4B1B68012B0AD14FF4BE70FFF7ACFE1C
:109B14004FF0A04344F00044D3F81035019314F0FF
:109B2400FF0F1AD0474F00250126344210D0AB0056
:109B340003F1804303F5C043D3F81005D3F810159F
:109B440057F82530C0F30420C1F3014103B198470D
:109B54000135082D4FEA4606E7D1002C66DA0022CB
:109B64004FF0FF33CDE90223DFF8D8900127002618
:109B740034464FF0A04809EB060393F95020531CD8
:109B840045D0D2B222F0C005E90804A8084402F086
:109B9400070310F804CC07FA03F31CEA030F36D0CA
:109BA40009EB050C92099CF930C059F82CA0BAF1C4
:109BB400000F0AD1032A2AD10DF1080E1EF801C0A4
:109BC4004CEA030C0EF801C001E0032AF4D005F5B9
:109BD400E07110F80C0C58F821101842C1F301413F
:109BE40005D0022913D1032A0BD1114604E003291D
:109BF4000DD1032A05D102212846FFF741FE013485
:109C0400E4B2BAF1000F02D011462846D04701361B
:109C1400042EB0D154B14FF0A043019AD3F81035BB
:109C2400934203D00193029B0393A0E704B0BDE8E1
:109C3400F08700BF006100400060004020610040E8
:109C44007C610040B02B0020014B1B68184700BF0B
:109C54000C2C0020114BD3F8183182B0E3B1104B17
:109C640000221A601B680193019B0E4BD97FFF29C8
:109C740007D0987F01228A404FF0A04148B1C1F833
:109C84000C2500225A771A72D3E90021064802B043
:109C94001047C1F80825F4E702B0704700300040CF
:109CA40018310040142C00201C2C00200220FFF747
:109CB40099BC00002DE9F04781460D46FFF7B2FC40
:109CC4000328044604D8012D04D024D3022D2FD018
:109CD400BDE8F087194D47003A18A918AE5C4A78D8
:109CE40052B1DFF86880164842464FF40041FDF750
:109CF400F5FB08B988F800903B192B449A78114B6E
:109D04001A55002EE4D0104B1B68002BE0D03046CF
:109D1400BDE8F04718470A48FDF724FC074B04EB5D
:109D2400440213449E78074B1B5DB342D0D1E8E74D
:109D3400024B00EB40041C446678E2E79C2C0020B4
:109D44005C2C0020B52C0020B02C0020382C0020E6
:109D540002210078FFF7AEBF08B5094B1B7853B159
:109D64000020FFF715FC0120FFF712FC0320BDE8DB
:109D74000840FFF70DBCBDE80840FFF715BC00BF65
:109D8400392C0020F8B57B4C237805461BB1002301
:109D94002370FFF7E1FF172D00F28880DFE805F05C
:109DA4000C17174354657680888D888D959A9A9AF6
:109DB4009A9AC4C9D1D9E4E4FFF7CEFF6E48FDF7FF
:109DC400D1FB6E4B002204461A702046F8BD0020D9
:109DD400FFF7C4FBF8B10020FFF7DAFB022D0CBF3C
:109DE4004FF4E1614FF47A61644B1D704FF400400D
:109DF4004FF4FA740025E0FB01454FF47A72002316
:109E04002046294605F04AFA002201465A48BDE890
:109E1400F840FDF763BBFFF7AFFB022D0CBFC82171
:109E24004FF4C871E0E70020FFF798FB40B1002031
:109E3400FFF7AEFB4FF44871504B03221A70D5E77D
:109E4400FFF79AFBC821F7E70020FFF787FB38B13B
:109E54000020FFF79DFB4FF47A61484B0422EDE7A5
:109E6400FFF78AFB4FF4C871F7E70020FFF776FB92
:109E740048B10020FFF78CFB404B05221A7041F6D5
:109E84009A110022C2E7FFF777FBF5E70020FFF7FE
:109E9400A9FB3A4B06221A70002240F6CD41B5E7E1
:109EA4000020FFF769FB354B07221A7000248CE76A
:109EB40001202070FFF796FBEEE701202070FFF7EA
:109EC40091FB00224FF48041A0E7FFF77CFB2B4B72
:109ED4000C22EAE72A482B4EFDF744FBD5F1110585
:109EE40004461CD0D8B9012D13D0C8235D434FF4C8
:109EF40000474FF4FA7000214FF47A720023C7FB35
:109F0400050105F0CBF9224601461D48FDF7E6FAA6
:109F140004460220FFF730FB0123337055E702208B
:109F2400FFF736FB0023F8E7FFF716FF134B122267
:109F3400BBE7FFF711FF0020FFF71EFB0F4B1322B7
:109F4400B3E7FFF709FF0120FFF716FB0B4B1422C1
:109F5400ABE7FFF701FF0020FFF70EFB0120FFF73F
:109F64000BFB064B1522A0E7FFF72DFB034B1D70DF
:109F74009CE700BFAC2C00207C2C0020B42C0020DB
:109F84003C2C0020392C0020044B1B68DB0703D534
:109F9400034B1878FFF7F6BE704700BFA82C0020CB
:109FA400B42C0020032801D8FFF72EBB00207047F3
:109FB400044B1B6813F0010301D0FFF7E3BE1846FE
:109FC400704700BFA82C002038B51C4B18601C4BF0
:109FD40010F00204054619601AD01A4B1A480E22D2
:109FE4001A700F22DA7010229A7111225A72042107
:109FF40040F26662FCF774FF044648B9FCF7C4FFFC
:10A00400044628B90146114A1148FDF755FA044699
:10A01400EB0711D50120FFF71DFB6CB921460D4A52
:10A024000D48FDF749FA044630B90C4A0C480121A1
:10A03400BDE83840FDF740BA204638BDA82C0020C2
:10A04400B02C00209C2C002004000300559D02002D
:10A05400280003008D9F02002C000300B19C020025
:10A0640024000300032812D8012A0BD1012908D1A6
:10A0740000F10E02D2B200EB40000C4B1A54002047
:10A08400704700220129F6D009D3022901D0072004
:10A094007047064B00EB400018444270EFE7034B57
:10A0A40000EB400018448270E9E700BF9C2C0020BC
:10A0B400032808B512D8FFF7C7FA800000F1A040C2
:10A0C400D0F8003723F44033C0F80037D0F8003715
:10A0D40043F44033C0F80037002008BD0620FCE7F5
:10A0E40008B5012202210020FFF7BCFF08B10728B0
:10A0F40010D1072202210120FFF7B4FF08B107287D
:10A1040008D100210A220846FFF7ACFF10B1072846
:10A1140008BF002008BD00000388102B10B502D032
:10A12400112B1ED010BD1A4C2168B1B9012208466A
:10A13400FFF798FF08B1072824D107220221012044
:10A14400FFF790FF08B107281CD104220221002048
:10A15400FFF788FF08B1072814D12368013323606F
:10A16400E0E70B4A1368013B1360002BDAD1FFF7D9
:10A17400B7FF0028D6D0074B1B68002BD2D0BDE810
:10A1840010401847034B1B68002BE6D09847E4E7C0
:10A19400C02C0020BC2C002008B50020FFF788FF4D
:10A1A40008B1062806D10120FFF782FF10B1062866
:10A1B40008BF002008BD00000D4B10B518600C4608
:10A1C40029B10120FFF7EEFE40B102232370094BB1
:10A1D4001B6853B9BDE81040FFF782BFFFF7E2FEEA
:10A1E40008B10B23F2E72070F1E7002010BD00BF97
:10A1F400BC2C0020C02C002076DF70477ADF70472B
:10A204007CDF70478FDF704733DF704710B5084B32
:10A21400084904460848C01AC008000440F0030076
:10A22400FCF706FC2046BDE81040FCF7C3BE00BFA7
:10A2340090F60200FA000300C0F6020010B5084BC5
:10A24400084904460848C01AC008000440F0030046
:10A25400FCF7EEFB2046BDE81040FCF7ABBE00BFA8
:10A2640090F60200BF000300C0F6020038B50F4BA1
:10A274000F4C1049E41AE4082404054644F003048E
:10A284002046FCF7D5FB2B787BB90B4B3B21188878
:10A29400FFF7B2FF094905462046FCF7C9FB25B183
:10A2A4002846BDE83840FCF785BE38BD90F602006C
:10A2B400C0F6020022010300402200203501030001
:10A2C40008B50020FFF774FE08B1FCF773FEFFF732
:10A2D40063FF08B1FCF76EFEFFF796FF18B1BDE807
:10A2E4000840FCF767BE08BD73B5394B394C3A4991
:10A2F400E41AE4082404054644F003042046FCF769
:10A3040097FB2B88122B14D005D8102B30D0112B8F
:10A3140029D002B070BD3B2B54D0562B52D0212BE8
:10A32400F7D102A9002321F8043DA888FFF76AFFAA
:10A3340043E0688904F0CEFE0022284B04F0F8FEC6
:10A3440004F0DFFE0646288904F0C4FE0022234BF5
:10A3540004F0EEFE04F0D5FE3346024620492046C2
:10A36400FCF774FBD5E71F492046FCF761FBD0E7F7
:10A37400688A04F0AFFE0022184B04F0D9FE04F002
:10A38400C0FE0646288A04F0A5FE0022134B04F002
:10A39400CFFE04F0B6FE3346024613492046FCF7CE
:10A3A40055FB0720FFF704FE08B1FCF703FE0F4B33
:10A3B400A9880F48198002F0CBFA0028A9D0FCF72D
:10A3C400F9FDA6E71321A888FFF716FFF5E700BFFC
:10A3D40090F60200C0F602003D0003000000F43FC6
:10A3E4004D000300800003008E0003004022002083
:10A3F400402F002010B5164B164904461648C01AC3
:10A40400C008000440F00300FCF712FB072C13D033
:10A414000A2C0DD0042C19D1104B13211888FFF7E6
:10A42400EBFE30F0080311D0BDE81040FCF7C2BDCC
:10A43400BDE81040FFF744BF084B1A884FF6FF737E
:10A444009A4203D1064800F090FFEAE710BD00BF2E
:10A4540090F60200AD000300C0F602004022002086
:10A46400C42C002008B598B1032815D10B4B0C4817
:10A474000C49C01AC008000440F00300FCF7D8FAE5
:10A484000220FFF795FD38B1BDE80840FCF792BD06
:10A49400BDE80840FFF714BF08BD00BF90F60200F6
:10A4A400C0F602001001030008B580B10B4B0C4844
:10A4B4000C49C01AC008000440F00300FCF7B8FAC5
:10A4C40003F00AF940B1BDE80840FCF773BD03216D
:10A4D400054800F006FEF5E708BD00BF90F602004F
:10A4E400C0F6020030000300C42C00200D4B0E49BE
:10A4F40010B504460D48C01AC008000440F003001B
:10A50400FCF796FA204603F027FD204603F04AFBA9
:10A5140023780C2B04D10020BDE81040FFF7C4BF02
:10A5240010BD00BF90F602006C010300C0F60200EB
:10A5340000B54FF40041ADB00020FCF7B3F808B10A
:10A54400FCF738FDFBF7E6FFFCF786FF08B1FCF7E4
:10A5540031FD83490320FFF737FD08B1FCF72AFDDD
:10A5640001A90020FFF728FE08B1FCF723FD9DF8A0
:10A574000450A81E45424541FEF704FE08B1FCF70D
:10A5840019FD04F0C5FB08B1FCF714FD002301A973
:10A594000120019304F082FC08B1FCF70BFD01A833
:10A5A40004F02EFD08B1FCF705FD2CAC112304F8D2
:10A5B400B03D6C4804F0EBFF6A4982B22046FFF7D5
:10A5C4001FFE08B1FCF7F6FC0021082201A804F0E4
:10A5D40089FF6549654B01A8CDE90113FFF70EFE1C
:10A5E40008B1FCF7E7FC0021614802F09FF808B1CC
:10A5F400FCF7E0FC5F4B60480093214602F096F9BB
:10A6040008B1FCF7D7FC042200210DEB020004F092
:10A6140069FF41F2111301A95848ADF8063000F062
:10A62400C9F808B1FCF7C6FCAC22002101A804F06B
:10A6340059FF062202238DF8072000228DF80430EA
:10A64400ADF8142001234E4A8DF8063006928DF899
:10A6540080304FF4967240F6B833CDE9232301A934
:10A66400484B49482A9300F0BDFC08B1FCF7A2FC12
:10A674000121454800F0B3FC1C22002101A804F08C
:10A6840031FF00234FF42032CDE90132ADF812300E
:10A694004FF470228DF814303C4B0392069303223E
:10A6A4003B4B8DF8102001A8079300F07FFF08B101
:10A6B400FCF780FC02F01EFF08B1FCF77BFC0522CE
:10A6C400002101A804F00EFF9DF8043043F00103BB
:10A6D400032203F0F10362F306136FF3C7138DF83B
:10A6E400043007238DF8053010238DF806309DF8CB
:10A6F400073013438DF807309DF8083001A8134341
:10A704008DF8083002F090FF08B1FCF753FC2148A3
:10A7140002F072FF08B1FCF74DFC1F4B1F4C20499F
:10A72400204EE41AE408240444F003042046FCF711
:10A734007FF92846FFF7B8FE1B4DFCF70DF80028FB
:10A74400FBD1FEF735FDD5F80425314652092046E4
:10A75400FCF772F9FCF700F80028FBD1EDE700BF25
:10A76400F9A30200D90003000600800C0100FFFFDA
:10A774001C2F002011A20200402F0020302F0020A7
:10A78400C42C002069A40200C42C002071A2020081
:10A7940041A20200F1A4020090F60200C0F60200F9
:10A7A400E0000300F309030000B00040A8DF704795
:10A7B40062DF7047F0B5034687B00E4648B341B335
:10A7C4004FF6FF724281144A02AC02F1100C274684
:10A7D40010685168254603C5083262452C46F7D1F6
:10A7E40003F10C013846FFF7E3FF80B91A7B8DF8BB
:10A7F400062006A94FF4844221F8142D01201A469C
:10A80400FFF7D4FF18B93146184600F04FF807B0E7
:10A81400F0BD0E20FBE700BF7B01030038B5044602
:10A824000D4649B140B10388112B06D0502B07D0F7
:10A83400102B01D183886B8138BD4FF6FF73FAE783
:10A84400C2884B889A4209D11248134B1349C01A43
:10A85400C008000440F00300FCF7EAF8E288EB8843
:10A864009A42E9D1238A022BE6D104F1120001F0C5
:10A8740013F8084B084A9B1ADB081B0443F0030334
:10A8840028B107491846BDE83840FCF7D1B8054956
:10A89400F8E700BFC0F6020090F602008B01030047
:10A8A4009201030090010300AADF70472DE9F041F3
:10A8B40090B006460D461C22002109A804F012FEA1
:10A8C4009DF8243000240DF1080803F0E50343F05B
:10A8D400120301AF2146032240468DF824300A9426
:10A8E400CDE90C44CDE90E7404F0FCFDAB788DF891
:10A8F4000830EB788DF809309DF80A30012565F3AE
:10A90400420303F0E70364F300038DF80A30337B5A
:10A914008DF80E30214644F20123142204A8ADF828
:10A924000C3004F0DFFD03AB214603223846CDE9A9
:10A9340004380695ADF81C5004F0D4FD11238DF8AD
:10A9440004309DF80630308865F342038DF80630F4
:10A9540004AAB31C09A9FFF7A7FF10B0BDE8F08152
:10A964000369C1688B429DBF8268D21802F1FF322D
:10A9740003F1FF3394BF501A581A70472DE9F04180
:10A98400D0E902670446F61B40689642884615469D
:10A99400384405D904F07DFD3D44E560BDE8F0810F
:10A9A4003246AD1B04F075FD2A4608EB06016068CB
:10A9B40004F06FFDF1E72DE9F843C56806468946C2
:10A9C40017464FF000083469B3687068A54228BF81
:10A9D400E418013C621B5C1BBC4228BF3C46944209
:10A9E40028BF144649462844224604F052FDB36861
:10A9F4002544AB4208BF00253F1BA044A144F56099
:10AA0400E1D14046BDE8F88310B5114C114AA2616A
:10AA14000223C4E90433104BE361A2644FF40073CE
:10AA24000E4A2362E264002310220D49A362E01D52
:10AA34006362E362A3656365E365226504F085FDF3
:10AA44000849204604F081FD2023A37110BD00BFF6
:10AA54004C2F00209F010300D42F0020C42F00207E
:10AA6400A8010300AC010300F8B5184C182300FB3F
:10AA7400033503FB00402544C46A012C0F461646E7
:10AA840011D003D3022C1BD000240AE02846FFF780
:10AA940067FF864205D8324639462846FFF76EFFDF
:10AAA40034462046F8BD2846FFF75AFF864234460E
:10AAB40028BF0446224639462846FFF75FFFF0E7E1
:10AAC4002846BDE8F840FFF776BF00BF4C2F0020B2
:10AAD400FFF79ABF6DDF704779DF70477DDF7047FE
:10AAE40064DF70472DE9F74F0C9CBDF834B027881C
:10AAF400002580468A4691462E46B8F80020B24288
:10AB04000BDC35B12288013AD21B92B2FF2A39D824
:10AB1400DA55002003B0BDE8F08FD8F8042052F8CD
:10AB24002600019000220DF1030101A8FFF7D8FFD0
:10AB34000028EFD19DF803204A4521D12288002D19
:10AB440014BF0020022002EB09010144594519DC1D
:10AB54003DB9013292B2228003F802A02288013268
:10AB6400228022880DF103011A4401A8FFF7B8FFDF
:10AB74000028CFD121889DF803200A442280012592
:10AB84000136BAE70C20C5E72DE9F341089CBDF86E
:10AB940024501746CDE9004502220646FFF7A2FFDE
:10ABA40048B9102239463046CDE9084502B0BDE81F
:10ABB400F041FFF797BF02B0BDE8F0812DE9F04FF7
:10ABC40000231688138090F82D3085B007460D4673
:10ABD400144653B3082E01D80C2026E102A8FFF72F
:10ABE40079FF002840F0218113880822CA54238861
:10ABF40001339BB21B222380CA542088013080B2C7
:10AC0400208006220DF10901284404F042FC238827
:10AC14009DF8082006339BB212F0FE0218BF0122F1
:10AC24002380EA54238801332380BB78FBB1238833
:10AC34000433B342D0D802A8FFF74EFF002840F0F7
:10AC4400F48023880322EA54238801339BB2192217
:10AC54002380EA542388BDF8082001339BB2E91805
:10AC64002380EA54120A4A70238802332380FA7834
:10AC74009AB12388D91CB142AED80221E954238861
:10AC840001339BB201212380E95423880B449BB2F6
:10AC94002380EA5423880B4423807A68AAB123884A
:10ACA400D91CB14298D8022192F90020E954238892
:10ACB40001339BB20A212380E954238801339BB2D8
:10ACC4002380EA542388013323803B89002B40F0FE
:10ACD400A0803B8A5BB1CDE900462B4607220321C5
:10ACE40007F11000FFF750FF002840F09E803B8BD7
:10ACF4005BB1CDE900462B461522142107F118005B
:10AD0400FFF742FF002840F090803A6A002A40F0A2
:10AD14008F80D7F82480B8F1000F30D0B8F8043011
:10AD24002188981C8A1C0244B2423FF655AFFE2883
:10AD34003FF652AF03336B54238801339BB2FF2297
:10AD44002380EA54238801339BB22380B8F800207F
:10AD5400EA54E918120A4A702088023080B220802E
:10AD6400B8F804205AB1D8F8081000296AD0284449
:10AD740004F08FFB2388B8F804201344238097F849
:10AD84002C30002B40F09980387800284DD03B8837
:10AD9400012B57D021888A1CB2423FF61DAF0128EF
:10ADA40005D17B7802330B449E42FFF415AF023E7B
:10ADB400761A04A9B6B221F8086DA818FFF78EFE1A
:10ADC40098BB3978BDF80820022900F0BB807B7855
:10ADD400934202D3B24240F2B380012940F0B480DE
:10ADE4009BB29E42C0F0B080ADF808300821BDF897
:10ADF4000830FE2B3FF6F0AE22880133AB54228894
:10AE0400013292B22280A954228813442380002064
:10AE14000BE0CDE900462B460622022107F108008B
:10AE2400FFF7B2FE00283FF454AF05B0BDE8F08F41
:10AE3400B4F800C00CF10603B3423FF6CDAE11885E
:10AE4400052901D80720F0E76FF4486E01EB0E03E3
:10AE54009BB24FF27D3E7345F4D95388052BF1D94B
:10AE64006FF44860181880B27045EBD94FF6FF7044
:10AE7400814203D0834201D09942E3D8052305F8E7
:10AE84000C30238801339BB212212380E954238898
:10AE940001339BB223801188E954E818090A4170F0
:10AEA400238802339BB223805288EA54E918120A99
:10AEB4004A702388023323802BE7BB6A002BC1D05E
:10AEC4004FF000094FF00C0A4FF0160B97F82C3096
:10AED4005FFA89F293427FF657AFB96A0AFB02F22E
:10AEE40001EB0208B8F80430981CFE283FF674AE53
:10AEF400208803332B54238801339BB2238005F825
:10AF040003B0238801339BB223808A5AEA54E91898
:10AF1400120A4A702088023080B22080B8F80420D7
:10AF24005AB1D8F8081000298CD0284404F0B1FA9A
:10AF34002388B8F804201344238009F10109C5E7E4
:10AF4400092154E7B242FBD9ADF808604EE770B569
:10AF5400C0B14AB116880024B44203D305196D78F0
:10AF64009D4208D0A14201D800200BE0055D0135C7
:10AF74002C44A4B2F0E7A142F6D9A31C1380005DCF
:10AF8400013880B270BD37B502AC002324F8023D0D
:10AF9400134622460546FFF7DAFF10B1BDF8060056
:10AFA400284403B030BD72DF704773DF704774DF2D
:10AFB400704738B5012204460D46B0F83812D0F86F
:10AFC4003402FFF7E0FF00B1057004F13C0204F520
:10AFD4000D7104F15400BDE83840FFF7E4BF80F878
:10AFE40030107047F8B504460F46002975D0002884
:10AFF40073D091F87A301BB191F89830002B6ED150
:10B00400D7F8A030042B6AD0D7F89C30042B66D034
:10B0140007F178060FCE4FF0000C251D84F802C00E
:10B024000FC50FCE0FC596E8070085E8070084F822
:10B0340030C0D7F8A4306363D7F8A830A3634FF6C1
:10B04400FF7504F50D73C4F84432A4F8485207227E
:10B05400614604F24A2004F045FA23780BB984F8D7
:10B06400545094F8243004F15501C4F8341283B3D5
:10B07400EE23A4F8383204F50E723846FFF79EFD2D
:10B0840030BB94F8243004F24311C4F83C1213B3D7
:10B09400EE23A4F8403204F5107207F13C00FFF7E8
:10B0A4008DFDA8B9A269A4F848200123626920642F
:10B0B40084F850006264014684F8513084F83C30CE
:10B0C40004F13C0204F15400FFF76DFF00B9237052
:10B0D400F8BD1F23CDE71F23DBE70E20F8E7072089
:10B0E400F6E7F8B5077804460D46002F00F0058111
:10B0F40000F24A26A17007220021304604F0F2F93A
:10B10400E38813B1A378012B04D0E3794BB1A3787E
:10B11400022B06D1636BA3B1012284F851220820CB
:10B124009847334604F5147113F8012F12B9994264
:10B13400FAD117466B1E032B53D8DFE803F0050B37
:10B144000F1284F85132ECE7A3791BB194F8243040
:10B1540003B95FB9E3790BB1002F44D1237A002BF3
:10B1640043D1637A002B0CBF00250425636BA570C3
:10B17400002B3CD0033D012D39D86279002A36D00A
:10B1840094F85222002A32D184F85422012284F8FD
:10B1940053220720984704F13C0518220021284631
:10B1A40004F0A0F9E36A94F824200121581E88428F
:10B1B40088BF0B4684F83C1084F8513032B1884281
:10B1C40096BFA36A84F8521084F85230A178002301
:10B1D40084F8503004291BD8DFE801F0770D2235BC
:10B1E40059000025C2E70225C0E70325BEE7002376
:10B1F40084F85332CFE7C4F84432C4E9106302231D
:10B20400012284F83C30802384F83120A4F84830AB
:10B21400A378002B5CD1636B002B6AD1002067E01C
:10B22400022384F8313062B1072384F83C30236967
:10B23400A4F848300023C4F84432E3682664636405
:10B24400E6E70323F1E763696364A369A4F848307C
:10B2540012B1062384F83C306379B3B194F85232C6
:10B264009BB994F8543283B1022384F850300421FA
:10B274002046FFF79EFE0028CAD1052384F831300A
:10B2840004F50D73C4F84432C2E70323F6E7E36917
:10B294006364236AA4F8483012B1062384F83C306E
:10B2A400637983B194F852326BB994F8543253B140
:10B2B400022384F8503004212046FFF77AFE002848
:10B2C400A6D10623DAE70423D8E784F831309FE7D0
:10B2D4002A46D4F8441204F15400FFF764FE38B946
:10B2E40094F8301094F85400FFF75FFE002892D0D1
:10B2F400F8BD94F83100984790E70820F8E70388F0
:10B30400112B10B50C460AD0262B1FD0102B05D1BB
:10B31400C37B012B02D18388A1F8483210BD0022DF
:10B32400838881F85222B1F848229A42F6D10B79E7
:10B33400002BF3D101212046FFF7D3FE0028EDD0E6
:10B34400A36B002BEAD0BDE810401847037A013BF9
:10B35400012BE3D889780523013191FBF3F303EB47
:10B364008303C91AC9B2E6E7704738B5044690F8B2
:10B374005400FFF71CFE012384F85232002384F8A2
:10B38400543284F8503006212046FFF712FE054659
:10B3940038B9A1782046FFF7A4FE10B1A36B03B11E
:10B3A4009847284638BD75DF704776DF70477ADFE7
:10B3B40070477BDF70470000034B1A8882420CBF42
:10B3C40018460020704700BFF0310020024B9B69F3
:10B3D40003B11847704700BFD431002037B585B298
:10B3E4002846FFF7E9FF034670B1164C017A227B29
:10B3F40091420BD200F10A012846FFF7D4FFE8B1CD
:10B40400112801D0FFF7E2FF03B030BD237C0022F6
:10B41400027243B13B212846FFF7C7FF30F008030F
:10B4240001D0FFF7D3FF6369002BEDD000228DF824
:10B434000420ADF8065001A89847E5E71A7A0132CE
:10B444001A72E1E7D431002013B50B46497A0F4C48
:10B45400024669B9D4E901101C7A002C18BF0146D0
:10B464005868FCF73BF808B1FFF7B0FF02B010BD15
:10B47400002119726369002BF8D00121ADF8060090
:10B484008DF8041001A89847F0E700BFD4310020DC
:10B494008388B3F5FA7F28BF6FF4F97230B528BFFB
:10B4A4009C1805884A8838BF002495420CD84088E7
:10B4B400904209D38A88A24206D303F2F310904241
:10B4C40034BF0020012030BD0020FCE70388112B8D
:10B4D40070B5014648D002D8102B1ED070BD122B77
:10B4E40052D0502BFAD12F4BC288DB899A42F5D126
:10B4F400038A022BF2D186883046FFF75DFF0546AA
:10B504000028EBD001F1120000F0C6F930BB6868E6
:10B51400FCF728F80028E1D009E0C37B012BDDD13A
:10B524004FF6FF70FFF748FF054620B90420BDE839
:10B534007040FFF74BBF1C4A8E88068000230372BD
:10B544001368C5F80A300A30536843601031FFF7B6
:10B554009FFF144B6872DB89002BBFD1294630460C
:10B56400BDE87040FFF770BF8088FFF725FF0446F1
:10B574000028B3D04068FBF7F5FF08B1FFF726FFBA
:10B584004FF6FF732380A9E786883046FFF714FF40
:10B5940005460028A2D008310A30FFF779FF687207
:10B5A400DCE700BFD431002004320020F8B50646A1
:10B5B40050B305460FCD154F3C460FC495E8070020
:10B5C40084E807003068124B3B60B8B1FFF7EFFE28
:10B5D400C8B931680A681A604A685A600D480E4A48
:10B5E4004FF6FF7303800D4B40F8043F0021FBF737
:10B5F40063FF002814BF0320002004E01846FFF76F
:10B60400D8FE0028EAD0F8BD0E20FCE7D431002093
:10B6140004320020F0310020E1B302000C3200209B
:10B62400F7B5174601900E4691B1019C6CB1002507
:10B634002C46294601A8FCF77CFF18B13946A8B26C
:10B64400B04701340135142DF3D1204603B0F0BDC9
:10B654000C46FAE773B50191019C06466CB10025CE
:10B664002C46294601A8FCF764FF18B106EB4403F5
:10B6740001349D800135142DF3D13046346002B07D
:10B6840070BD00002DE9F04303888488112B8DB030
:10B69400064640D01A2B43D0102B16D1294DAB6847
:10B6A4000CA8DB4340F8303D55F8041FFCF7A2FF1B
:10B6B400009901A8FFF7CEFF0027019B9F4207D303
:10B6C400132C18D90420FBF775FC0DB0BDE8F083EA
:10B6D40001AB03EB47034FF00008B3F8049005EB0C
:10B6E4000800494608F10408FCF719FFB8F1740F83
:10B6F400F5D10137E1E721461348FCF7F9FE21466D
:10B704001248FCF7F5FEF37B012BDED010482146EE
:10B71400FCF7EEFED9E70C482146FCF700FFD4E71E
:10B72400057A0C482D09012D214606D9FCF7E0FEC7
:10B73400022D21460848F0D0EAE7FCF7F0FE214646
:10B744000548EAE72C320020343200203032002051
:10B75400383200203C3200204032002013280146B9
:10B7640002D80248FCF7E5BE0020704730320020C2
:10B7740010B50446FFF7F2FF38B121460348FCF741
:10B78400D8FE002814BF0220012010BD383200204A
:10B7940010B50446FFF7E2FF38B121460348FCF731
:10B7A400C8FE002814BF0220012010BD343200203E
:10B7B40010B50446FFF7D2FF28B121460248BDE880
:10B7C4001040FCF7B6BE10BD3C32002010B5044654
:10B7D400FFF7C4FF28B121460248BDE81040FCF73A
:10B7E400A8BE10BD4032002008B518210248FCF75D
:10B7F400A9FEC0B208BD00BF2C32002070B50A4DAE
:10B80400064628460C46FCF794FE58B13046FFF72E
:10B81400A5FF38B1A01D314605EB8000BDE870409E
:10B82400FCF787BE002070BD2C320020F8B50D4C0B
:10B83400054620460E461746FCF77BFE80B1284697
:10B84400FFF78CFF60B1B01D04EB800029461FB1E7
:10B85400BDE8F840FCF74CBEBDE8F840FCF75FBE1D
:10B86400F8BD00BF2C320020F8B50A4C05460E4640
:10B87400014620461746FCF75CFE48B1043504EB4C
:10B8840085043A46A0683146BDE8F840FFF7C8BED3
:10B89400F8BD00BF2C320020007800F00100704792
:10B8A400A0DF7047A1DF7047ADDF7047B3DF70479B
:10B8B40010B50446408800F08FFDA0802046BDE806
:10B8C400104001F011BE30B587B005460C46182271
:10B8D4000021684603F006FE072368468DF8003011
:10B8E400ADF802500294FFF7E3FF07B030BD00004B
:10B8F40070B586B0054618220021684603F0F2FDB3
:10B904004FF6FF739D42ADF8025029D0284600F04F
:10B9140051FC0B2804462CD014D818B32046FDF74C
:10B92400ABFC1B4E1B4B1C49F61AF60836040246A8
:10B934002B4646F00100FBF789F821462846FFF71D
:10B94400C2FF05E0112805D043F202039842E5D175
:10B95400002200E00122114B28461978FFF766FF08
:10B9640006B070BD0E238DF800306846FFF7A0FFC7
:10B97400EEE70F238DF800300548064B0849C01A3E
:10B98400C00800042A4640F00200FBF755F8ECE733
:10B9940000F7020090F60200CF030300AB32002050
:10B9A4004F030300FFF7A4BF024B0349187800229A
:10B9B400FFF75ABFAD320020C1B902002DE9F043B0
:10B9C400464D89B029780446FFF718FFA846074674
:10B9D40000287BD1204600F051FC0828054632D0CF
:10B9E40016D808B306285AD02846FDF745FC3C4E25
:10B9F4003C4B3D49F61AF60836040246234646F007
:10BA04000100FBF723F829462046FFF75CFF09E015
:10BA140043F20203984205D043F20143984258D0BE
:10BA24001128E1D1012345E03946182202A803F088
:10BA340059FD102302A88DF80830ADF80A400127FB
:10BA4400FFF736FFEEE701A8FFF730FF01253B467D
:10BA540002260DF10609BDF80420AA421FD902AA44
:10BA640029462046CDE90269FFF71EFFB8B9BDF8A3
:10BA74000620013533B942F60523D21A5342534105
:10BA8400ADB2E8E742F602118A42F9D10DF10202A1
:10BA94000392A9B202AA2046FFF706FF30B120465E
:10BAA40000F09AFC00F016FC002303E0BDF802202D
:10BAB400002AF4D01A460D4B20461978FFF7B6FE3B
:10BAC4003A4698F800102046FFF7B0FE09B0BDE8EA
