:020000022000DC
:1060000000000120756302005D6302005F6302000F
:106010006163020063630200656302000000000028
:1060200000000000000000000000000067630200A4
:1060300069630200000000006B6302006D630200F0
:10604000699A02006F630200B19E0200199F02006C
:106050006F6302006F6302002D9D02006F630200F8
:106060006F6302006F6302006F6302006F630200E0
:106070006F6302006F6302006F6302006F630200D0
:106080006F630200FD7102006F6302006F63020024
:10609000997202006F63020039FB02006F63020015
:1060A0006F6302006F6302006F6302006F630200A0
:1060B0006F6302006F630200000000000000000038
:1060C0006F6302006F6302006F6302006F63020080
:1060D0006F6302006F6302006F6302000000000044
:1060E00000000000000000000000000000000000B0
:1060F00000000000000000000000000000000000A0
:10610000000000000000000000000000000000008F
:10611000000000000000000000000000000000007F
:10612000000000000000000000000000000000006F
:10613000000000000000000000000000000000005F
:10614000000000000000000000000000000000004F
:10615000000000000000000000000000000000003F
:10616000000000000000000000000000000000002F
:10617000000000000000000000000000000000001F
:10618000000000000000000000000000000000000F
:1061900000000000000000000000000000000000FF
:1061A00000000000000000000000000000000000EF
:1061B00000000000000000000000000000000000DF
:1061C00000000000000000000000000000000000CF
:1061D00000000000000000000000000000000000BF
:1061E00000000000000000000000000000000000AF
:1061F000000000000000000000000000000000009F
:10620000354936480A1A02D0072291438D4634494F
:1062100034480A1A06D00722914381F309880222E2
:1062200082F3148830483149314A00F044F831484B
:106230003149324A00F03FF831483249324A00F0E1
:106240003AF832483249334A00F035F83248334997
:10625000334A00F030F833483349344A00F02BF821
:1062600033483449344A00F026F83448344900228F
:1062700000F02CF833483449002200F027F8334866
:106280003349091A082902DB002202604160314AC1
:1062900090471F481F49884205D00268043003B464
:1062A000904703BCF7E700208646EC46002000211B
:1062B000294A9047FEE7884207D0521A05D0037852
:1062C00001300B700131013AF9D17047884202D098
:1062D00002700130FAE770470000012000E0002062
:1062E0000000012000000120B02B03002C22002020
:1062F00088220020D4630200D46302005805030002
:10630000B02B03002C2200202C220020D8060300F2
:10631000D8060300D8060300D8060300D8060300F9
:10632000D8060300D8060300D8060300B02B0300EC
:106330000C2C0300882200208822002088220020C4
:1063400088360020883600208836002088360020D5
:10635000885600209D63020041B40200FEE7FEE77C
:10636000FEE7FEE7FEE7FEE7FEE7FEE7FEE7FEE705
:10637000704700BF1048804710484FF0070188431E
:1063800085460F4880470F48016841F4700101605D
:10639000BFF34F8FBFF36F8FFFF732BF0A480B4930
:1063A0000B4A884207D0521A05D0037801300B708F
:1063B0000131013AF9D170477163020000000120F8
:1063C000E193020088ED00E0C406030018220020DB
:0463D0002C2200205B
:1063D4007047000007B5044B0093044A402300F0C3
:1063E40032F803B05DF804FBF56302008922002053
:1063F4002DE9F84389461446B2B10F4B0F4E0325DD
:10640400002743F00108224609EB0701002005F0AC
:10641400BBF90744241A48B933782BB14FF47A40B6
:10642400C047013D02D13570BDE8F88301233370C4
:10643400002CE8D1F8E700BFE00603008822002022
:10644400704705F0D5B9F0B595B008460D46164627
:106454001C4602F0DBFE1A9A0D920023082205A9BD
:1064640028460A938DF82C300C93CDE9086402F089
:10647400EAFE079B0293069B039301238DF81130D8
:106484009DF8143003F00302012A1DD1BDF8144015
:10649400059EC3F3C203C4F383148DF81030A20025
:1064A40008230EA9284602F0CEFEC6F3952608ABB3
:1064B4000093224602AB0EA9304600F0FDFB2846AD
:1064C40002F0A8FE15B0F0BD022AF8D1BDF81640BE
:1064D400C3F3C203A4098DF810300827082C2646FC
:1064E40028BF08263B4632460EA9284602F0ABFEDA
:1064F400A41B08AB02AA31460EA8374400F040FCA6
:10650400002CEBD1DBE70000014B01221A7070472D
:106514000A2300207047000070B50E4D06460FCDCB
:1065240088B06C460FC495E80F00002E84E80F0075
:106534004FF00603084A0948009308BF0022694641
:1065440003F028FA08B100F0A9FD054B1E7008B04D
:1065540070BD00BFF40603000D6502002C2200206C
:10656400C922002007B5044B0093044A4023FFF7D7
:106574006AFF03B05DF804FB85650200CA220020AF
:1065840038B50D4B0D4D002018700D4804782D5D65
:10659400D2B21C4665B1043004F056FA08B100F0DA
:1065A4007DFD084B1A7812B12378002BFBD038BD3F
:1065B4000C3004F04DF8F1E70A230020202C0020D1
:1065C4002C220020C922002008B50848084A037874
:1065D400D35C3BB1043004F0D3F90020BDE808409B
:1065E400FFF79ABF0C3003F0CFFFF6E72C22002010
:1065F400202C00200120FFF78FBF000038B50A4D82
:10660400FFF71FFF0421284600F0C4FA074B0124BA
:106614005C71FFF7EFFF042105F1100000F0BAFAF6
:10662400034B5C7138BD00BFA40603004022002068
:1066340048220020037813F0040216D003F0030369
:10664400012B03D0022B09D0012070470A6800886F
:106654000232C0F3831002440A60F5E70B684288F3
:10666400023303EB92130B60EEE710467047000011
:106674002DE9F04F87B000230446851C0DF1070077
:106684000F4690468DF8073000F0F6FF454806683F
:106694003E60D0E90132134401339B1B824600F271
:1066A4001C4600F5836900F21447AB421BD3002259
:1066B400B8F1000F70D0052363F3070264F3891265
:1066C400DAF80010DAF808309DF807000B400333BD
:1066D4000D444AF82320CAF8005000F0F1FF0120CD
:1066E40007B0BDE8F08F0121304602F010F84846AB
:1066F40002F026F8384602F023F8DAF80400DAF853
:1067040008B0029000EA0B0003300AEB800002A9F3
:10671400FFF790FF029B50BB0BEA03020AEB8202D5
:1067240003F1020CD2680392013303EA0B0B0AEB68
:106734008B0B02F00302012ACDF808C0DBF80C1021
:1067440022D0022A16D08346384601F0FCFF10B14D
:10675400029BCAF804305946304601F0D8FFDAE902
:1067640001231344DAF8002001339B1A9DE70BEA56
:106774000300C9E7BDF80E309B0903334FEA114B00
:106784000CEB93030293DFE7BDF80C30C3F38313E0
:106794004FEA114B6344F5E7062363F3070264F3FE
:1067A4009F528DE7DC2300200B4B0C48FF2210B5D1
:1067B4009A600022C3F81824C3E90022C3F8142401
:1067C40083F8202402F0DBFC044610B9044802F0EC
:1067D40083FD204610BD00BFDC230020D805030044
:1067E4004407030030B50A4C71B10A4A0A49121B26
:1067F400D20800239A4201D1002030BD31F8235041
:10680400854202D00133F5E7034654F83300F4E738
:10681400EC050300A40603002C220020094B0139D7
:1068240003EBC000032909D8DFE801F00A020406DB
:106834000420704700797047407970470020704702
:1068440002207047EC050300034BD3E90030C31A60
:1068540058425841704700BFDC2300202DE9F04323
:1068640087B0FFF7F1FF0646002840F0FB807E4D1D
:10687400C5F81804BFF34F8F6868AC6802902040D5
:10688400033005EB800002A9FFF7D4FE029B18B188
:10689400D5F81824002A5FD004EA0302991C0133B6
:1068A40005EB8202234005EB8303D268DB68049383
:1068B40002F00303022B0392029162D1BDF80E3061
:1068C4006A484FEA9318B8F1500FC14628BF4FF0F9
:1068D400500969F38F1309F10801ADF80E3002F085
:1068E40066FC0746002800F0A88002F08FFC03A98C
:1068F40000230822384602F09CFC029924EA01068F
:106904000136B600B14535D95FFA89F97EB3F6B2DE
:10691400A9EB0609214003315FFA89F4B146544ECC
:1069240005EB810108234A46384602F082FC36B161
:1069340009F1080322463146384602F07AFC029BEC
:1069440008F1030803EB98030293D5F81834002BDD
:106954004BD1D5F810445BE02A689A4204D86A60A7
:10696400304607B0BDE8F08304EA030088E74049F5
:106974003446D7E72140033108234A4605EB810119
:10698400DAE7012B59D1BDF80C303848C3F3831131
:10699400062928BF062161F3891302318900ADF865
:1069A4000C3002F004FC0746002846D002F02EFC0E
:1069B4000023082203A9384602F03BFC0026BDF858
:1069C4000C20C2F38312B300964203F10803BCD235
:1069D40002994A1C21400331029205EB81010422F1
:1069E400384602F026FC0136E9E7384602F012FC8C
:1069F400FFF72AFF80F00100C6B2B1E7E3685B79D4
:106A040023B1236839461B6820469847E3681C680D
:106A1400002CF3D1384602F0FDFB0DF107008DF890
:106A2400074000F029FED5F818340BB9029B6B60BF
:106A34009DF8070000F044FEDAE7D5F8104454B995
:106A44000C4B0D480D49C01AC008000440F0020068
:106A540000F06EF8CCE7236820469B689847E3680B
:106A64001C68ECE700267BE7DC230020D805030044
:106A7400E8230020EC0503001C0603005007030074
:106A84002DE9F74F284C80460F46924601A9012272
:106A940018469B46D4F80890FFF7EAFD80B3019DA1
:106AA4000026A91C5E4506EB010233D100211F48D4
:106AB40001F0ECFD80F310006A1C02EA090204EB09
:106AC4008202000405EA0903033340EA1840D06057
:106AD40014F8232068F3C50204F8232034F8232093
:106AE40066F3891224F8232054F8232067F39F22A5
:106AF40044F8232002F0F80242F0010204F82320B3
:106B040094F820341BB1FFF7A9FE0028FBD103B091
:106B1400BDE8F08F09EA020204EB82025AF826303B
:106B2400D3600136BEE700BFDC230020F827002035
:106B340000231A46FFF7A4BF07B50123019201AA57
:106B4400FFF79EFF03B05DF804FB07B5CDE9002312
:106B540002236A46FFF794FF03B05DF804FB1FB5F8
:106B6400CDE90123069B039301AA0323FFF788FFC2
:106B740005B05DF804FB1FB5CDE90023069B029325
:106B8400079B03936A460423FFF77AFF05B05DF879
:106B940004FB000030B50F49D1F81024002314463B
:106BA4003CB9C468237152B9C1F810042260184674
:106BB40030BDE46825799D4206D02468F0E7D268A8
:106BC400116821601060F2E701330A2BE7D14FF01E
:106BD400FF33ECE7DC230020094A38B50123D2F85F
:106BE400104482F820341D4604B938BDE3685D7151
:106BF400236820465B689847E3681C68F4E700BF95
:106C0400DC230020037A052B10B50C460FD0437A01
:106C140023B1084A0849204601F0F8FD07492046F7
:106C240001F0F4FD2046BDE8104001F0E4BD002A67
:106C3400F8D0F3E79B070300771F0300BD070300A9
:106C4400C38873B504460D4633B1144A00921449FF
:106C5400144A284601F0DAFD217A05291CD0637A0A
:106C64004BB1A088FFF7DAFD0F4B104953F82020F1
:106C7400284601F0CBFD227A0D4BA08853F8226000
:106C84000021FFF7AFFD0B4903463246284602B008
:106C9400BDE8704001F0BABD02B070BD9B070300AF
:106CA400A8070300A007030068070300771F030079
:106CB400CC070300C00703002DE9F04385B01F464D
:106CC4000C9D002306460C46904695F80C902B73B9
:106CD40029463846FFF7B4FFB8F1060F09D8DFE8B4
:106CE40008F00412181F283340003146284601F0EA
:106CF4008DFD002229463846FFF784FF85F80C9065
:106D040005B0BDE8F08322683146284601F07EFDD7
:106D1400EFE7D4E900233146284601F077FDE8E7A0
:106D2400A36800933146D4E90023284601F06EFDA0
:106D3400DFE7E3680193A36800933146D4E90023B5
:106D4400284601F063FDD4E723690293E3680193C5
:106D5400A36800933146D4E90023284601F056FD88
:106D6400C7E76369039323690293E3680193A36804
:106D740000933146D4E90023284601F047FDB8E7E3
:106D840008292DE9F84F80460E4617461C463AD886
:106D9400002593F80C901D7319461046FFF750FF19
:106DA400DFF884A0DFF884B0AE422ED918F80520AD
:106DB4005946204601F02AFD0135082DF4D1184921
:106DC400DFF86CB0204601F021FD4FF0000A564573
:106DD40020D918F80A507E2D03D8284609F0CCFA99
:106DE40000B92E252A465946204601F00FFD0AF126
:106DF400010ABAF1080FEAD1012221463846FFF709
:106E040001FF84F80C90BDE8F88F5146204601F04C
:106E1400FDFCD1E70349204601F0F8FCE7E700BF99
:106E24009607030094070300920703008C070300EE
:106E3400980703002DE9F04F394E87B04FF0000951
:106E4400384B1B785FFA89F5AB4202D807B0BDE82E
:106E5400F08F354BD3F800A01AF835000124D6E999
:106E6400001EA0F12002C0F1200304FA02F224FA69
:106E740003F3134304FA00FC009301EA0C030293A6
:106E8400009B0EEA03030393DDE9022313430AEB99
:106E9400C50B41D0009B21EA0C012EEA0303C6E98D
:106EA400001302F037FF1AF835502049A5F12002EB
:106EB400C5F1200304FA02F224FA03F31343D1E9DF
:106EC40000C2AC40134004EA0C0105930024C3B291
:106ED400CDE90034009A0491C5F12003A5F1200105
:106EE40022FA03F302FA01F848EA03081346AB4016
:106EF4001F46DDE90434444508BFBB420CD1DBF82E
:106F040004304BB19BF801104A1E51425141081AFA
:106F1400414241412846984709F1010990E700BFE1
:106F2400C828002098280020D0280020C02800204D
:106F34002DE9F0418046204800F08EFBD0BB0125AE
:106F4400A8F12004C8F1200325FA03F305FA04F498
:106F54001C431A4BD3E9001205FA08F501EA0506A9
:106F640002EA040756EA07001E461DD1404602F015
:106F7400D1FE134BD3E9001288B129432243C3E95C
:106F84000012D6E900231C430E4B0B481968154325
:106F9400C6E900540022BDE8F04100F017BB21EA25
:106FA400050122EA0402EAE721EA050522EA0404CB
:106FB400C3E90054BDE8F081A0280020C8280020BF
:106FC400C02800209C280020042A2DE9F34105460E
:106FD4000C4616463AD902F0D9FDD8B11C4B1D49CE
:106FE4001D601D4BDFF884801C701C4B00221E604A
:106FF4000023C1E900231A49C1E90023013CE4B29A
:1070040000260327FF2C0CD1164A1748002100F054
:10701400CBFA03E002F082FD0028DFD002B0BDE825
:10702400F08123B205EBC30201A992788DF8052003
:1070340015F833008DF8066042468DF8047002F0AE
:10704400AFFD013CE4B20028DCD0E7E70720E5E728
:10705400D0280020C0280020982800209C28002048
:10706400C8280020396E02002C080300356F020086
:1070740070B5084D084E00242B789C4201D30020A3
:1070840070BD3368012113F8340002F0FDFD0134B2
:10709400F2E700BF98280020D02800201FB5002167
:1070A400039001AA44F20100CDE9011100F004F8B3
:1070B40005B05DF804FB000010B572B6FFF78CFD57
:1070C400FFF7CCFB0028FBD1104B114C1149E41AFB
:1070D400E408240444F00100FFF72AFD0E4B1B686A
:1070E400DB0700D500BE0D4944F00200FFF720FD88
:1070F400BFF34F8F0A490B4BCA6802F4E062134393
:10710400CB60BFF34F8F00BFFDE700BFEC0503006A
:107114001C06030030080300F0ED00E03C08030007
:1071240000ED00E00400FA05094A53789178013330
:10713400DBB2994208BF0023117899421FBF037044
:107144005078182303FB002014BF0430002070473C
:10715400D428002073B5054600240DF107000E461F
:107164008DF8074000F088FA0DF10600FFF7DCFF08
:1071740090B10670094B9DF8062045605A709DF841
:10718400070000F09DFA24B9054B4FF48012C3F8B0
:107194000021204602B070BD0424F0E7D42800206A
:1071A40000E100E0024B4FF43C6043F00103184758
:1071B4005008030038B50C4B0C4C4FF40032C3F8A4
:1071C400802001254FF48033C4F84833C4F80833D1
:1071D4006560FFF7E7FF064BA56000241C60FFF71E
:1071E400E1FF044B1C7038BD00E100E000100140D9
:1071F400F0290020E1290020F8B51F4B1F491B6826
:107204000025C1F84051C1F84451C1F84851C1F8B2
:107214004C51C1F80051C1F804514BB3D1F80445A5
:1072240017490968641A24F07F442F461A68A24259
:1072340009D8A41A15441A7CDE691AB11F74D3E95B
:1072440005209047AEB90F4A0F4B11781B788B423B
:1072540005D10133DBB2022B08BF0023137012786F
:107264000A4B43F822500A4B4FF48012C3F8002112
:10727400F8BD3346DAE700BFF429002000100140CE
:10728400F0290020ED290020EC290020E429002029
:1072940000E100E02DE9F04FA04AA14913780978F4
:1072A400A04D994285B03CD00133DBB2022B08BF1C
:1072B400002313709C4912789C4B0F6853F82200EA
:1072C4003B1823F07F4300220B602B6816461446BC
:1072D400944613B942B12B6006E0196881420ED975
:1072E40002B12B60091A19604FF001082B68DFF80E
:1072F40044A201930027BEB9DFF840B266E0401A09
:107304000C44D968C3F800C0D3F81CE031B13A1971
:1073140022F07F42C3E90121DE611E460122734649
:10732400D7E70026B046E1E73446F6697E4A63684B
:107334001268DFF80CC2A068991A21F07F416145F8
:1073440000F2A58001442160012222742A680023EE
:10735400C4E90133E361002A40F0A2802C60CAE74B
:107364005A1C9BF80210D2B291428BF8002004BF41
:1073740000228BF80020182202FB03B31A799C68C0
:10738400022A1CD0032A12D0012A1FD1207CE8B97A
:10739400D3E90312A2605A69E2609A69644BA2615C
:1073A4001B78002B0CBF0B4603466360BEE700222C
:1073B4002B681146002B66D142B12B6006E0296888
:1073C4000A468946002A59D1002323749BF80030C9
:1073D4009BF801209A42C3D12B682FB9019A9A4293
:1073E40002D1B8F1000F43D0002B73D0D3F800A022
:1073F400504D4D4BD5F804751C68DFF848813E1B91
:1074040098F8003026F07F4603369BB94FF480335A
:10741400C5F84433C5F80433474B4FF400324FF0FA
:107424000109C3F880211A60C5F80090FFF7BAFE7D
:1074340088F80090B2452CBF5444A41924F07F442A
:10744400C5F84045D5F80435DB1B23F07F43E41B26
:10745400033324F07F44A3420AD9D5F80435C5F890
:107464004035FFF79FFE344B4FF40032C3F8002140
:107474002F4B00221A7005B0BDE8F08F94422CD037
:107484009146D2699EE719740122DB6992E7D31A07
:1074940023F07F43834234BFC31A0023236053E79E
:1074A40021681368994213D8591A1160E26155E7AB
:1074B400091AD8691A4638B1034618688842F7D3BE
:1074C400401A1860184613462160E061DC6112E737
:1074D4001346F2E7FFF76EFECAE74C4511D1CB69BC
:1074E4002B6073B9DFF840E00120CDE90212CAF83D
:1074F4000800CEF800300E4B1870FFF753FEDDE99C
:1075040002121368D269C9F81C2012B1106803442E
:1075140013602B68994218BF012755E7EC29002016
:10752400ED290020F4290020F0290020E42900207E
:10753400E02900200010014000E100E0D4280020F0
:10754400FEFF7F00E129002008B5FFF733FE104B52
:1075540000200B2218809A700E4B18600E4B187086
:107564000E4B18700E4B4FF48012C021C3F88021CB
:1075740083F814131A6002F18042A2F56F22C2F854
:10758400080583F81113074BD2F804251A6008BDC7
:10759400D4280020F4290020EC290020ED29002023
:1075A40000E100E0F0290020074B9B784BB132B199
:1075B40028B10368187C20B959745A6170470720B0
:1075C40070470820704700BFD42800202DE9F743F6
:1075D4001E4FBB7805460E469046A3B398B30429C4
:1075E4002FD943697BB3437C0024012B0DF10700A1
:1075F4000CBF8946A1468DF8074000F03DF80DF117
:107604000600FFF791FDD0B101230370104B4560D4
:10761400D3F80435C0E90498C0E902369DF8063071
:107624007B709DF8070000F04BF824B9094B4FF428
:107634008012C3F80021204603B0BDE8F08304247F
:10764400EFE70724F7E70824F5E700BFD428002074
:107654000010014000E100E0064A92783AB130B1EE
:10766400426922B1002202740221FFF773BD08208F
:10767400704700BFD428002070B5EFF3108672B6AF
:107684000C4A946801239CB993600B4B0B4DD3F8BF
:10769400801029401160C3F88050D3F884105160E1
:1076A4004FF0FF32C3F88420047006B962B670BD8F
:1076B4000370FAE7F829002000E100E0FC06FFBDB2
:1076C400084B9A6810B55AB150B9EFF3108172B6ED
:1076D400054A1C6814605C685460986001B962B61D
:1076E40010BD00BFF829002000E100E070B5064D90
:1076F4000646002455F8043B0BB130469847013444
:10770400042CF7D170BD00BF102A0020033080B2D2
:1077140040F2FD33984230B51FD8124B1A783AB96B
:107724001C895D892C440444A4B2B4F5806F0AD347
:107734001A7DA2B99A8BDC8B2244024492B2B2F530
:10774400806F0CD201220A801446142202FB0433F7
:107754005A8910445881002030BD0920FCE70720D5
:10776400FAE700BF442A00200B4A0C4B518814202E
:1077740000FB0131CB6833B9042049681070012241
:10778400074801F0C7BA05230649137002238B800A
:10779400012200230968F3E7282A0020442A002054
:1077A400182200200C2B002007B500230549009364
:1077B400054A09680548082301F016FA03B05DF884
:1077C40004FB00BF0C2B00206408030018220020D7
:1077D40007B50023009301460823034A034801F038
:1077E40003FA03B05DF804FB5C08030018220020D0
:1077F40013B500230C46009301460423074A0848A6
:1078040001F0F2F938B9074B142202FB04340123C6
:10781400237402B010BD0E20FBE700BF580803001C
:1078240018220020442A002037B50A480A4B42682F
:107834009C88196853880325033305709BB2002084
:1078440000909B0001EB8401044801F0CDF903B0E2
:1078540030BD00BF282A00200C2B00201822002055
:1078640010B50146044800F045FE1C2204460021E0
:1078740008F0EBFD204610BDF82A002068B102682C
:10788400084B9A4209D14068074B984207D001330C
:1078940098420CBF0120032070470320704700204A
:1078A400704700BFDEC0ADDEFE011EF14388033326
:1078B40000EB8303994209D382884FF6FF739A42FF
:1078C40006D00088B0FA80F0400970470220704763
:1078D400012070472DE9F8430223DFF860800B8014
:1078E4000D46174600F5805600F108044FF00109D3
:1078F400B4420FD2236801330CD031462046FFF73F
:10790400D5FF48B10FB187F8009002280BD14FF48E
:1079140080632B80BDE8F883A368D8F800209342E5
:1079240001D9C8F800302B886288033313442B80B4
:107934006388033304EB8304DAE700BF3C2A0020A6
:10794400154A142303FB002070B50B6844680D46E8
:1079540004F58056ABB15C88033403EB8404B44271
:107964000DD2236801330AD031462046FFF79EFF2B
:1079740001280BD010F0FF0F05D00228EFD1002012
:1079840003E00834EBE72C60012070BD6388033307
:1079940004EB8304E3E700BF442A0020436873B583
:1079A40004460D466BB3244AD1688B4229D312692D
:1079B400934226D813F0030223D120490089098970
:1079C40088421ED12068996888421AD11C494868A7
:1079D400834203D900F5805083420ED38A699342CF
:1079E4000DD902F58052934209D201232B80002045
:1079F400B0FA80F0400902B070BD1346F6E70A20E1
:107A0400F6E700232B801E46019601A92888FFF77C
:107A140097FF30B92B8801339BB2012B2B80F3D90C
:107A2400E9E7019B226899689142EED16360034BB8
:107A34001B892381DFE700BF18220020282A0020A9
:107A4400442A00202DE9F8431C461C4B1B780646AB
:107A54000F4615466BB372B36CB3DFF868804FF012
:107A64001409A388012B01D90A2020E009FB03F3A0
:107A740018F803302BB92146A088FFF761FF20B91D
:107A84002060A3880133A380EBE723681EB19988A3
:107A940032889142EFD11FB119883A889142EAD1D4
:107AA4009A68C5E90023064B1B892B810020BDE899
:107AB400F8830220FBE70520F9E700BF202A002015
:107AC400282A0020442A002008B5074B191D58888D
:107AD400FFF736FF18B1BDE80840FFF7A5BEBDE8C3
:107AE4000840FFF741BE00BF282A00202DE9F04FCF
:107AF400A04FDFF8A49289B00646B8463B6823B984
:107B040049469D4800F030FD3860D8F80050297887
:107B14004B1E052B00F2FA80DFE813F006005E002E
:107B24005E00EE00EE005C0126B1944B00225A6028
:107B34000124ECE02B79032B1DD8DFE803F01502B8
:107B44002A358F490B78022B084619D00B7D022B5E
:107B54004FF0010316D114225343C2180020C85415
:107B64005068FFF735FE03E001232B71FFF71CFE7D
:107B7400002800F0BC80814B00225A600E24C6E02D
:107B84000023E8E77D4A13700023536041F61D5437
:107B9400BDE07C497C48002302222B718A800122AB
:107BA400096801F0B7F8E3E7764C00262E712068E7
:107BB400734DFFF70DFE754BD4F800C05A8814239B
:107BC4005343EA18EE5451682160A188C2F804C0F6
:107BD40011810222A280CBE7B5F814A0AA7DDFF8B8
:107BE400A0B1AEB1022AEB8806D9142101FB0AB177
:107BF400DA1C088902440A81142202FB0ABAC3F57A
:107C04007F43BAF80A20FD331344AAF80A308FE7F9
:107C1400142303FB0AB318895C6804EB8004062A66
:107C240068D8DFE802F0274D35431D59040041F6BA
:107C34001D54AA7DEB88022A06D9142101FB0AB13E
:107C4400DA1C088902440A81142202FB0ABAC3F529
:107C54007F43BAF80A20FD331344AAF80A3056E0E9
:107C64004B484C4900234360AB690360FFF796FE21
:107C7400002871D00223AB75002300930423EA1873
:107C84002146414800F0B0FF002830D00E24D0E750
:107C94002B69002B14BF03230123AB75002300932E
:107CA40005F10C02042304F10801EAE70123AB7592
:107CB4000022EB8800929B002A6904F10C01E0E7A2
:107CC40003290CBF05230623AB750023009304236B
:107CD40005F10802E118D4E70623AB752D4B19888A
:107CE4002B4B5868FFF784FD04460028A1D109B046
:107CF400BDE8F08F0F249CE7002E7FF419AF2B7999
:107D0400012B4BD0E3B1022B3FF440AF0F241422DC
:107D1400002103A808F099FB41F61D539C4208BFBB
:107D24000024D8F8003004941A78023A042A00F2A5
:107D34000581DFE812F0E600F20015011D012401BF
:107D440002232B710DF10A01EB68039303A8CDE91B
:107D54000466FFF723FE08B90A24D8E70498BDF89F
:107D64000A108388EB8003882B81FFF741FD0446CA
:107D740027E000BF402A0020F82A0020202A002003
:107D8400442A00200C2B002018220020282A00203E
:107D9400042A0020182B0020382A0020DFF8FCA138
:107DA40003AA53463146A81DFFF74CFE044658B9B2
:107DB400BAF804100498FFF71BFD04460A2C3FF49C
:107DC400E5AE002CA3D192E708223146504608F0D4
:107DD4003CFBF3E7002E7FF4ABAE6B4B1A7BAAB1EE
:107DE4001E731A78013A062A90D801A151F822F09C
:107DF4009B7E0200C17E0200DF7E0200E57E02005F
:107E0400117D0200EB7E0200FD7E02001A78072A33
:107E1400E7D801A151F822F03D7E0200E77D02007F
:107E2400E77D0200637E0200777E0200977E0200F7
:107E3400977E02005F7E02001A89544901321A813A
:107E440000225A801A730A78B2FA82F252099A729C
:107E54000A7DB2FA82F25209DA72012207E04C4931
:107E640058688A884088033202448A8002221A7041
:107E7400B7E7464C5A884649142505FB0242086870
:107E8400546850608888108102228A800C6006221F
:107E9400EDE70722EBE79A7A32B9DA7A8AB9002257
:107EA4001A705A805A6071E6384900229A72CA6878
:107EB400002AF2D1097C0029EFD05A80FFF704FE92
:107EC40055E70022DA72314A116A0029E7D192F8A3
:107ED4002420002AE3D00122EFE7FFF7A5FC46E7C0
:107EE400FFF742FC43E7294A5B88142101FB032383
:107EF4005868FFF76DFC3AE700225A60FFF754FC1C
:107F040035E701228DF80C201A89ADF818209A88DB
:107F1400DB68ADF81A20059310E002228DF80C20DE
:107F24001A89ADF818209A88ADF81A20DA689B7D72
:107F340005929A1F534253418DF81C3003A8FFF752
:107F4400D5FB002649461348C8F8006000F037FB0B
:107F54000121114800F0E6FB00287FF4CFADC6E60E
:107F640003228DF80C20DA88ADF818201A89CFE79F
:107F74000422DB888DF80C20ADF81830DEE70523E9
:107F84008DF80C30DAE700BF282A0020442A0020AC
:107F94000C2B0020F82A0020082B00201C2B00208A
:107FA4004068FFF7A3BD000008B50121044800F0B4
:107FB400A3FB18B9BDE80840FFF798BD08BD00BF92
:107FC400082B00202DE9F3419846354B1B780646D3
:107FD4000D46002B5BD000295BD009884FF6FF7358
:107FE400994258D06B88002B55D06B689B0754D1AD
:107FF4004AB92F890DF102013846FFF787FB30B1EA
:1080040002B0BDE8F08113885788ADF8023001A8AA
:10801400FFF726FC044658B9BDF80230214A142162
:1080240001FB032358890338C01B58810820E7E764
:1080340000238375BDF8023083826B68036180F886
:1080440000800121184800F062FB2B882381B8F1DD
:10805400030F6B88A38004BF0423A3754FF00005AE
:1080640008BF3368E06008BFA361E780658101A9A8
:108074000E4800F069FA36B1E36833600C4B756062
:108084001B89B5723381FFF78FFF0020B8E7022008
:10809400B6E70520B4E70420B2E70320B0E700BF49
:1080A400202A0020442A00203C2A0020F82A00200C
:1080B400282A002008B5084B1A68042A09D0196830
:1080C400064A42F821000121184600F020FB002056
:1080D40008BD0C20FCE700BF142B0020102A002050
:1080E4002DE9F04F14228BB000210DEB020008F0B3
:1080F400ACF9764A137803F0FF01CDE901123BB1E4
:1081040005A8FFF7F3FA002738460BB0BDE8F08F57
:10811400029B181D00F011FB0028F4D140F6F873FF
:108124004FF080521B685C1C08BF694B694C08BF48
:108134001B6811695269581C08BF02FB01F32361D3
:108144000022A3F540536449E360204600F018FD83
:10815400039407460028D7D11C238C225F4960482A
:10816400DFF88891DFF8888100F08FF93D46BA4640
:108174004FF0030B3C46039BDE68564430463146C1
:10818400FFF77CFB01284DD042B2002A36D00328E9
:1081940022D106F580520868013040F08A8004310B
:1081A4008A42F8D1D9F800203AB902220123C9F849
:1081B4000060A9F8042001930CE014226243022019
:1081C40008EB020108F80200464A4E60548001346C
:1081D4000881A4B245F001050AF5805ABAF5405F5A
:1081E400C9D1BBF1010F98BF0025EDB2022D03D018
:1081F400062D35D0002D3CD10B2785E71421614392
:1082040008EB010008F8012001F110020831466072
:10821400424441443046FFF75DFB45F0020501341A
:10822400A4B2D9E7019B63B11422624308EB0201B3
:10823400022008F802000134D9F800204A600881BD
:10824400A4B200222849C9F800603046FFF742FB77
:10825400B9F80420022A0CBF042208221543BBE704
:10826400029A0123137005A800235360FFF73EFA16
:108274004AE704A8FFF7F4FAC8B10123013D0370EB
:108284000A2D09D8DFE805F00608060807080708DC
:108294000F110F000023037104A9114800F054F9D1
:1082A400FFF782FE30E70323F5E70223F3E708270D
:1082B4002AE70BF1FF321FFA82FB1422624308EB18
:1082C40002014E60032108F80210A8E7202A0020CA
:1082D4001410001018220020580A03006C2A0020F1
:1082E400F82A0020282A0020102B00200C2B002024
:1082F400442A002073B50D460446C8B1C1B10DF13E
:108304000601FFF74BFBA8B10B4BBDF806006668EE
:10831400142202FB003001210C3000F0F8F96368EC
:108324002E600C336B600123A372002002B070BD79
:108334000520FBE70A20F9E7442A002013B5044688
:10834400A8B10DF10601FFF729FB90B10B4ABDF866
:108354000630142101FB0323DA6862B1A27A52B118
:10836400DA680020013ADA60A07202B010BD05207C
:10837400FBE70A20F9E70620F7E700BF442A0020BC
:1083840002230022FFF71EBE18B103230022FFF7C9
:1083940019BE052070470000104B1B7813B5044626
:1083A400ABB14FF6FF73984213D001A8FFF758FA08
:1083B40088B10523037001230371C48001A908480F
:1083C40000F0C2F8FFF7F0FD002002B010BD02205B
:1083D400FBE70420F9E70820F7E700BF202A002084
:1083E400F82A00200E4B1B7807B5A3B101A8FFF7AC
:1083F40037FA90B10623037001A90A4800F0A4F8E3
:10840400094B1A780AB101221A73FFF7CDFD002037
:1084140003B05DF804FB0220FAE70820F8E700BF88
:10842400202A0020F82A0020282A002007B5ADF8C9
:108434000600ADF804100DF1060001A9FFF702FBD8
:1084440003B05DF804FB07B51346ADF806000A4611
:1084540000200DF10601FFF7F5FA03B05DF804FB07
:1084640007B51346ADF806000A460DF106000021D3
:10847400FFF7E8FA03B05DF804FB20B119B1036813
:108484000B60002070470520704710B561B1B2FB46
:10849400F3F403FB1424A4B244B9C0E900148460C7
:1084A4008281C381204610BD0E20FCE70920FAE733
:1084B40082B050E8022FC188B2EB324F4FF0000374
:1084C40017BF92B241EA014142EA014104E0426825
:1084D400B2EB324F08BF012340E80212002AE8D170
:1084E4008DF807309DF80730002B0CBF11200020B9
:1084F40002B0704737B550E8013F9DB2C4892544A6
:108504008489A54228BF2D1B0489A54202BFBFF35D
:108514002F8F002207E0C5EA030540E80154002C30
:10852400E9D14FF001028DF803200193019B9DF8DE
:1085340003200B6002F0FF0322B10B88006818448B
:1085440003B030BD1846FBE70A884B889A4209D12C
:1085540050E8012FC2EA024240E80123002BF7D180
:10856400012070470020704737B550E8023F1FFADA
:10857400A3F5C488A54202BFBFF32F8F00220DE0EC
:10858400C48925448489A54228BF2D1BC3EA054517
:1085940040E80254002CE8D14FF001028DF803208A
:1085A4000193019B9DF803200B6002F0FF0322B1AD
:1085B4004B880068184403B030BD1846FBE70A88AE
:1085C4004B889A4209D150E8022FC2EA224240E87D
:1085D4000223002BF7D1012070470020704701F0DF
:1085E4001F024B090121914000EB830000F063B8A6
:1085F4004B0910B501F01F040121A14000EB8300D9
:1086040000F04EF8E04000F0010010BD01F01F033F
:1086140001229A404B0900EB8300D14300F061B87A
:108624004B0901F01F0150F82300C84000F001007D
:1086340070472DE9F0474E1E760980460F460136F5
:10864400002558F8254008EB8509E44394FAA4F47E
:10865400B4FA84F44FEA451A202C06D10135AE420F
:10866400EFD83C462046BDE8F0875444A742F5D9EC
:1086740021464046FFF7BCFF0028F3D0D9F800405C
:10868400E44394FAA4F4B4FA84F4E5E750E8002F40
:108694000B4640E8003C9CF0000FF7D110467047B1
:1086A40050E8002F42EA010340E8003C9CF0000F30
:1086B400F6D11046704750E8003F43EA010240E813
:1086C400002C9CF0000FF6D11046704750E8002FA4
:1086D40002EA010340E8003C9CF0000FF6D110468A
:1086E400704750E8003F03EA010240E8002C9CF088
:1086F400000FF6D11046704750E8002F02EB01033B
:1087040040E8003C9CF0000FF6D11046704750E85A
:10871400003F03EB010240E8002C9CF0000FF6D16F
:108724001046704750E8003FA3EB010240E8002CDC
:108734009CF0000FF6D1104670470121FFF7B0BF3F
:108744000121FFF7B8BF0021FFF7C0BF10B590B1FA
:10875400D0E9012301689B1ADBB20A60013BDBB25A
:10876400FF2B026802D10020107110BD11684C1C4F
:1087740014600B70F2E70E20F7E737B505460024C6
:108784000DF107008DF80740FEF776FF2A686B6845
:10879400116899420ED9481E106011F8014CEB681B
:1087A400298A01FB0434AB6811791B1ADBB29942A4
:1087B40038BF13719DF80700FEF782FF204603B00F
:1087C40030BD37B5054600230DF107000C468DF882
:1087D4000730FEF751FF2A681368591C1160E968D5
:1087E400641A298AB4FBF1F41C709DF80700FEF7A3
:1087F40067FF03B030BD826810B504462AB14369EF
:108804000168006998470023A36010BD0EB403B546
:10881400039921B104AB01AA019300F075F802B0E9
:108824005DF804EB03B070470A2938B504460D46D9
:1088340002D10D21FFF7F8FFA3682268591CA1603B
:10884400D554D4E901329A4204D32046BDE83840D5
:10885400FFF7D1BF38BD00002DE9F84F9946DDE997
:108864000A431746824688460A460126BA420FD270
:108874004E4538BF4E4613F0010B01D164B90024B4
:108884000125B9F1010F1AD909F1FF397D43F8E740
:10889400B2FBF7F20136E9E79B070ED5B9F1000FF9
:1088A4000CBF30252025A642EAD2013C2946504679
:1088B400FFF7BAFF002CF6D1E1E72025F3E7B8FB78
:1088C400F5F39F42E2D9DFF83C90B8FBF5F350464C
:1088D40019F8031005FB1388FFF7A6FFB5FBF7F3A0
:1088E400BD4207D2BBF1000F02D00CB1A64203D3A4
:1088F400BDE8F88F1D46E8E720215046013CFFF70C
:1089040093FFF2E76C0803002DE9F74F054617467D
:108914008846002900F0318118F8011B49B92B7BE6
:10892400002B00F02A81284603B0BDE8F04FFFF782
:1089340062BF252940F0C080002698F800302D2B16
:10894400424608F1010823D0302B24D02B2B25D00C
:1089540000242A2B02F1010123D13B681A1D1B6854
:108964003A601C440A4613782E2B26D101324FF06C
:10897400000A104610F8011BA1F1300CBCF1090FDC
:108984001DD80A2303FB0A13A3F1300A0246F0E7B9
:1089940046F00106D1E746F00206CEE746F00406AB
:1089A400CBE711F8013CA3F130000928DBD80A22F7
:1089B40002FB0434303C0A46CBE74FF0000A12F8BD
:1089C400011B01F0FB0068289046F8D069290ED0FD
:1089D4004AD8582964D006D825296DD098F8003093
:1089E400002B99D19BE7632962D06429F6D13A68B8
:1089F400D2F80090111D89EAE9723960A2EBE9729C
:108A04004FF0010B092A5BDCD34538BFD3462CB1A8
:108A1400B9F1000F01DB710700D5013CB20702D5A3
:108A2400BAF1000F04D0F30702D4002C4ED1002475
:108A3400B9F1000F52DAC9F100092D212846FFF7D8
:108A4400F3FE06F00302022A05D1BAF1000F02D1A7
:108A5400002C47D10024CDE9004653460A2249465A
:108A64002846FFF7F9FEB9E773294CD014D87029CA
:108A7400B4D13B681A1D3A60302128461C68FFF7C0
:108A8400D3FE78212846FFF7CFFE00220823CDE944
:108A9400003221461022E3E775292BD078299DD195
:108AA40039680A1D3A60CDE900465346102228E091
:108AB4003B681A1D19783A602846FFF7B5FE8DE722
:108AC4000A230BF1010BB2FBF3F29BE7A345AFD2F0
:108AD40020212846013CFFF7A7FEA6E77007B0D582
:108AE4002B21ABE7A345B6D230212846013CFFF742
:108AF4009BFEADE73968CDE900460A1D3A6053464E
:108B04000A220968ACE73B681A1D3A60F107D3F8FA
:108B1400009020D4B9F1000F25D0484607F0EAFCB4
:108B24000646B44200D9C4B909F1FF3920E0284609
:108B34000136FFF779FE19F806100029F7D1A6428D
:108B4400BFF44CAF002C3FF449AF20212846013C30
:108B5400FFF76AFEF3E70026EDE720212846013CF3
:108B6400FFF762FEDDE74E46DBE72846FFF75CFED3
:108B740019F8011F0029F8D130E703B0BDE8F08FE0
:108B840007B50B4688B9124B1248134AC01A0E2374
:108B9400C0080093114B0004114940F00100FDF797
:108BA400DEFF0E2003B05DF804FB4BB9084B094807
:108BB4000C4AC01AC0080E2300930004074BEBE7CD
:108BC40003601B68114603B05DF804EB184700BF4F
:108BD400EC05030034060300290903007C080300A4
:108BE4002E090300A50903002DE9F34188B93D4B83
:108BF4003D483E4AC01AC0080E243D4B0094000470
:108C04003C4940F00100FDF7AAFF204602B0BDE850
:108C1400F0814AB9334B3448374AC01AC0080E248D
:108C240000040094324BEBE7D0F800C0BCF1000F15
:108C340009D12C4B2C48314AC01AC008082400041E
:108C440000942B4BDCE74BB9264B27482C4AC01A1F
:108C5400C008092400040094254BD1E74768D7F8DD
:108C64000480B3FBF8F708FB17374FB11D4B1E48C0
:108C7400244AC01AC0080924000400941C4BBFE70E
:108C84008F0709D0174B18481F4AC01AC008102470
:108C940000040094164BB3E712F0030F09D0114BF4
:108CA40011481A4AC01AC008102400040094104B3A
:108CB400A6E7C768B9420BD34C1E05691C44AC42F5
:108CC40006D8DCF80C40A44602B0BDE8F041604789
:108CD400044B05480E4AC01AC0081024000400942E
:108CE400034B8DE7EC050300340603002909030058
:108CF4008E0803002E090300AB0903009F0903003B
:108D04005E090300B1090300DB090300F309030052
:108D1400160A0300F7B580B92A4B2B482B4AC01A10
:108D2400C0080E242A4B009400042A4940F0010094
:108D3400FDF715FF204603B0F0BDD0F800C0BCF12C
:108D4400000F09D11F4B2048234AC01AC008082429
:108D5400000400941E4BE8E74AB91A4B1A481F4A0C
:108D6400C01AC008092400040094194BDDE74768C1
:108D7400D7F800E00EF1FF370F4209D0114B12482B
:108D8400174AC01AC008102400040094104BCCE702
:108D9400C768B9420CD34C1E05690EFB0244AC42B1
:108DA40006D8DCF81040A44603B0BDE8F0406047A4
:108DB400044B05480B4AC01AC00810240004009450
:108DC400034BB2E7EC050300340603002909030052
:108DD400A10803002E0903009F0903005E09030094
:108DE400B4080300DA08030029DF704728DF70475E
:108DF40070B503689D6886B004460E466DB11422B2
:108E04000021684607F021FBA368059323790196A6
:108E14002BB1012B0DD06846A84706B070BD0123C5
:108E24008DF8003023690293E36803936369049324
:108E3400F1E702238DF80030E3681B030293F5E7A2
:108E44000846704700207047024B187A003018BF5C
:108E540001207047C02B0020034B187A0122B0FA7E
:108E640080F05A7440097047C02B002008B51046A2
:108E74001A4607F0C1FA002008BD000008B5142204
:108E84000021044807F0E1FA0348FFF711FB002032
:108E940008BD00BFC02B0020B02B002010B5094C2A
:108EA400094B43602046FFF748FC40B906F028FE12
:108EB4001C2320748C2205490548FFF7E6FA00209C
:108EC40010BD00BFC02B00204C0A0300242B00203F
:108ED400B02B002070B5244D244E2B7A2C463BB980
:108EE40023492448FFF740FB306008B9686070BD2F
:108EF4000223237233681A7972B1012A24D01846E6
:108F04000321FFF775FF0023237263601849194892
:108F1400BDE87040FFF753BBD3E90520121AB2F540
:108F2400805F28BF4FF48052D3E903159208012AC9
:108F3400014438BF01222844FFF756FF50B11128DD
:108F4400DDD101232372D2E7D3E903021044FFF7F2
:108F54004DFFF3E7237C002BC9D10146BDE87040E7
:108F6400022000F009B800BFC02B0020D82B00203D
:108F7400D42B0020B02B002038B5831E012B45D8FC
:108F8400234C237A002B41D0022B09D1032830D063
:108F9400204B1B680022E2601A793AB1012A22D0E0
:108FA400637C7BBBBDE83840FFF794BFD3E905126F
:108FB4008D1AB5F5805F94BF521902F580529A61FB
:108FC4009142EDD102284FF0000308BF19462372E5
:108FD400104B18BF0D211868FFF70AFF0E490F4800
:108FE400FFF7EDFADCE71A6901321A615B699A420C
:108FF400E7E7E3680133082B01D8E360D0E70023F7
:10900400E360DFE7BDE8384006F06ABD38BD00BF65
:10901400C02B0020D82B0020D42B0020B02B002004
:1090240000F0FD03012B08D1044B00225A74421EA8
:10903400504250411874FFF74DBF7047C02B0020B9
:1090440010B5064C201DFFF778FB28B9637C1BB9CB
:10905400BDE81040FFF73EBF10BD00BFC02B00208D
:109064002DE9F34180460D460F4801A916461F46D7
:10907400FFF740FA0446A8B11C22002107F0E5F9E5
:109084002D0B0123237101A9C4F80080A760E560BA
:1090940066610548FFF758FAFFF7D2FF002002B0D7
:1090A400BDE8F0810420FAE7B02B00202DE9F74356
:1090B40081468846104801A917461E46FFF71AFA4A
:1090C4000446B0B11C22002107F0BFF900250A9B19
:1090D400A36001A92571C4F80090C4E9037866610E
:1090E4000548FFF731FAFFF7ABFF284603B0BDE8A8
:1090F400F0830420FAE700BFB02B00202DE9F047ED
:10910400B0F806904479D2F800A09DF8208009FBBD
:1091140004F4043C06460AEB0300A0420F4688BF51
:10912400A4EB030A191DC2F800A0B1FBF9F509FB71
:1091340015114DB9A9EB0104544528BF5446BAF1A1
:10914400000F04D1BDE8F0873668013DF1E7043132
:109154007B1970182246B8F1000F0ED0014618464C
:10916400AAEB040A07F048F9D145254436684C4671
:109174004FF0000128BF5446E1E71946F0E7FFF736
:10918400E5BAF8B546790146721E054600239342B6
:109194002D6803D30024A64202D8F8BD0133F6E7B4
:1091A4000F682846FFF70DFB01343946F3E72DE934
:1091B400F843068ACD1C0746FFF7DFFA043E354420
:1091C4000446B5FBF6F5F0B14FF48073EDB283803D
:1091D400C680013D076081464FF00008A84512D2C1
:1091E4003846FFF7CAFA064648B16379013363711A
:1091F40008F10108C9F8000007608146EEE720463F
:10920400FFF7BFFF34462046BDE8F8830121043050
:10921400FFF77DBA10B5012104460430FFF782FA46
:1092240010F0FF0F04D12046BDE81040FFF7A9BF9E
:1092340010BD1FB503920022009203AAFFF75EFF40
:1092440005B05DF804FB1FB503920122009203AA46
:10925400FFF754FF05B05DF804FB41DF70470000E1
:10926400064B10B500241C70054B1C60BFF35F8FC8
:109274000449054800F039F8204610BDE42B0020CD
:10928400E82B0020780A0300DC2B002007B500231C
:109294000DF107008DF80730FEF7EEF9F1EE103A04
:1092A40023F09F03E1EE103ABFF35F8F094B402296
:1092B400C3F884219DF80700FEF702FA06F020FCAB
:1092C40020B1FFF7CAFF03B05DF804FB20BF40BF25
:1092D40020BFF8E700E100E0836800225A609A604A
:1092E400C3E90422DA601A6070470B684A68436075
:1092F400934208BF0023016008BF4360704743687E
:1093040043B10268916852680B449342436004BFBE
:10931400002343607047000010B50D49A1F5947215
:10932400914201D800200FE08B1ADB1003EBD373BA
:109334005B1002EBC30452F83330834205D802D2E7
:1093440004F10802ECE7606810BD2146E8E700BFBD
:10935400C80B030008B5FFF7DFFF024B002808BF66
:10936400184608BD8D0A03000C4B1B78062B10D140
:109374000B4B1B681A070CD10A4B186800F0F0035A
:10938400302B08D000F0E000A0F1400358425841CF
:109394007047002070470120704700BFE00F00F0C5
:1093A400E40F00F0E80F00F0094B1B78062B0CD1FA
:1093B400084B1B681A0708D1074B186800F0F00027
:1093C400A0F130035842584170470020704700BF55
:1093D400E00F00F0E40F00F0E80F00F008B5FFF72D
:1093E400C3FF28B17D4B7E4A1B68C3F3042313607B
:1093F400FFF7DAFF10B17B4B7B4A1A60FFF7B4FF2B
:1094040028B17A4B7A4A1B68C3F342331360FFF7DF
:10941400CBFF20B1774AD36823F08073D360FFF782
:10942400A3FF40B14FF080430022C3F80C21C3F8DE
:109434001021C3F83825FFF7B7FF10B16E4B032294
:109444001A60FFF7B1FF40B16C4B05221A6001228C
:109454009A6700229A603F225A60694B1B78062B58
:1094640050D1684B1B6819074CD1674B1B6803F03C
:10947400F003502B46D14FF08052644BD2F80414C1
:10948400C3F82015D2F80814C3F82415D2F80C1424
:10949400C3F82815D2F81014C3F82C15D2F81414F4
:1094A400C3F83015D2F81814C3F83415D2F81C14C4
:1094B400C3F84015D2F82014C3F84415D2F8241484
:1094C400C3F84815D2F82814C3F84C15D2F82C1454
:1094D400C3F85015D2F83014C3F85415D2F8341424
:1094E400C3F86015D2F83814C3F86415D2F83C14E4
:1094F400C3F86815D2F84014C3F86C15D2F84424A4
:10950400C3F87025FFF730FF28B1414B414A1B686F
:1095140003F04F031360FFF727FF48B14FF0804378
:10952400D3F80024D20744BF6FF00102C3F800242B
:10953400394B1B68062B08D1384B1B68062B01BF1F
:10954400374A136843F480631360364AD2F888308C
:1095540043F47003C2F88830BFF34F8FBFF36F8FAB
:109564004FF01023D3F80022002A03DBD3F804328F
:10957400002B2FDA2C4B0122C3F80425D3F8002446
:10958400002AFBD04FF010221521C2F80012D3F8A4
:109594000024002AFBD04FF010231522C3F8042224
:1095A400214B1A46D3F800140029FBD00021C3F83C
:1095B4000415D2F80034002BFBD0BFF34F8F1949A8
:1095C4001A4BCA6802F4E0621343CB60BFF34F8FB7
:1095D40000BFFDE7164B174A1A6008BD24030010AC
:1095E4004035014074C007400DF0ADBA440200108C
:1095F4003C050040F0ED00E0A0050040105600409E
:10960400E00F00F0E40F00F0E80F00F000C00040AD
:1096140058020010E40E0040300100103401001024
:109624003C17004000ED00E000E001400400FA05B2
:10963400502200200090D003054A4FF0A043105C54
:10964400D3F8043523FA00F0C04300F0010070475A
:10965400860F0300044B1A5C012393404FF0A04291
:10966400C2F80C35704700BF860F0300044B1A5C28
:10967400012393404FF0A042C2F80835704700BF61
:10968400860F030008B50020FFF7F0FF0120FFF765
:10969400EDFF0220FFF7EAFF0320BDE80840FFF7D3
:1096A400E5BF08B50020FFF7D5FF0120FFF7D2FF83
:1096B4000220FFF7CFFF0320BDE80840FFF7CABF31
:1096C400074A4FF0A041105CD1F8043501228240D2
:1096D40022EA03001340C1F80805C1F80C357047AD
:1096E400860F0300054A4FF0A043105CD3F81035F1
:1096F40023FA00F0C04300F001007047820F03001A
:109704000D2809D00E2809D00F2809D010280CBF25
:1097140003204FF0FF30704700207047012070474E
:1097240002207047014B185C704700BF820F030092
:10973400C20708B501460CD54FF0A0430322C3F875
:109744004427C3F84827C3F84C27C3F85027FFF72A
:1097540099FF8B070AD54FF0A0430C22C3F8342796
:10976400C3F83827C3F83C27C3F8402708BD0000D6
:1097740038B5074C051E04F1080318BF1C462368BE
:109784002BB11A6822605B6828469847F7E738BD12
:10979400F42B002020B9054B01225A70FFF7E8BFD3
:1097A400012802D1014A9070F8E77047EC2B0020A1
:1097B40020B9034B01225A70FFF7DABF704700BF8C
:1097C400EC2B002038B50B4C237883B90A4863602E
:1097D400A3602361E36000F01BF9054606F090F9ED
:1097E40008B900F021F901232370284638BD8525E6
:1097F400FBE700BFEC2B00209997020037B50B4C18
:1098040000230DF107008DF80730FDF735FFE368FD
:10981400013BE360E56815B900F018F9A5709DF8FF
:109824000700FDF74DFF03B030BD00BFEC2B002057
:10983400012813B509D018B103281CD002B010BDFB
:109844000F4B0122C3F88020F8E70E4C00230DF1E2
:1098540007008DF80730FDF70FFF23780BB9FFF7EA
:10986400B1FFE3689DF807000133E3600123A370AF
:10987400FDF726FFE2E700F0D7F8FFF7BFFFDDE7CB
:1098840000E100E0EC2B00207FB503788DF8043074
:109894004368029383688DF80C30C36804930369AA
:1098A4008DF81430054A064B01A853F8213052F8BC
:1098B4002110984707B05DF804FB00BF002C00207E
:1098C4000C2C0020F0B50646944616F8047B134A87
:1098D40042F827C0124A42F82730124B0D460FCBEC
:1098E40085B06C4684E80F002B6800932B798DF8C3
:1098F40005306B798DF80630AB680293BCF1000F2C
:10990400AB89ADF80C30084A3B4608BF002221461B
:10991400304600F02BFB05B0F0BD00BF0C2C00203E
:10992400002C0020900F03008D9802001FB50378CF
:109934008DF800304368019383688DF80830C3685C
:109944000393054A054B684653F8213052F8211019
:10995400984705B05DF804FB182C00201C2C00204F
:109964001FB503788DF800304368019383688DF840
:109974000830C3680393054A054B684653F8213001
:1099840052F82110984705B05DF804FB182C00200C
:109994001C2C0020F0B5194B067891F81DE043F813
:1099A4002620174B94460A6943F82620154B03F8E2
:1099B40006E00C4607460FCC89B06D460FC594E807
:1099C4000F0085E80F000496BEF1000F0AD0BCF129
:1099D400000F0D4A694608BF0022381D00F00EFF33
:1099E40009B0F0BDBCF1000F084A694608BF002267
:1099F40007F10C0000F00EFDF2E700BF1C2C002064
:109A0400182C0020202C00203199020065990200B6
:109A1400044A137923B901211060918018467047D4
:109A240085207047242C0020074B1A68D2075FBF9B
:109A3400C02283F8002301221A604FF080430122E0
:109A4400C3F81825704700BF00E100E0044B012271
:109A54001A604FF08042D2F81834DB03FBD470470D
:109A64000C000040154B07B51A687AB100221A6041
:109A74001B680093009B4FF080430122C3F8082326
:109A84000F4B587910B95A711B6898470D4B1A68D7
:109A940082B100221A601B680193019B4FF080433E
:109AA4000222C3F80823064B1B68012003B05DF8AB
:109AB40004EB184703B05DF804FB00BF000100404D
:109AC400242C00200401004000F1804000F5C04037
:109AD400002382B0036003680193019B02B07047C6
:109AE400800000F1A040D0F8003723F44033C0F8E0
:109AF4000037D0F8003743EA0141C0F80017704737
:109B0400054B4FF0FF32072843F8202084BF1B1871
:109B140083F84820704700BF2C2C002010B5174C48
:109B240094F8583043BB04F130032021FF2201395B
:109B340011F0FF0103F8012BF9D1C8B2FFF7E0FFE0
:109B440001310C29F9D1042200210D4806F07DFCD5
:109B54000C4BC02283F8062340221A604FF4BE70D7
:109B6400FFF7B2FF084B4FF00042C3F80423012370
:109B740084F85830002010BD0820FCE72C2C00206D
:109B8400802C002000E100E000600040034B93F8CB
:109B94005800003018BF0120704700BF2C2C002053
:109BA400F0B5374B1C1894F93040002C1C4664DA8D
:109BB4008D78C5F34005002D0BBF082300230C2628
:109BC4000826B34201D10420F0BD54F823700137B4
:109BD4003FD1261844F8232086F8303015B9E2180E
:109BE40082F848008A78550713D4D60733D5820003
:109BF40002F1A042D2F8005725F00205C2F800573E
:109C0400204EC50800F007070122BA40775D3A43A9
:109C140072558A780D7812F0020225D09B0003F168
:109C2400804303F5C0430202D3F8101521F44731F1
:109C340021F44071C3F810152D04D3F8101502F463
:109C4400F85205F440352A430A43C3F8102500208E
:109C5400BAE70133B5E74D7800F5E0724FF0A0465E
:109C6400AD0046F82250CBE7083B234493F850104C
:109C740041EA851583F85050E9E70820A4E700BFBE
:109C84002C2C0020802C002038B5204C251895F968
:109C94003020072A18DD224492F848309B09032B10
:109CA4000DD14FF0A043D3F81035C34013F0010F8A
:109CB4000CBF02210321BDE83840FFF711BF012B7F
:109CC40014BF03210221F6E7D3B2072B1CD893005B
:109CD40003F1804303F5C043D3F8100540F00100BD
:109CE400C3F8100502F14000800080B2FFF7ECFEDB
:109CF40051B195F9303054F823302BB1012303FAD4
:109D040002F2034BC3F8042338BD00BF2C2C0020FF
:109D1400006000404FF0A043D3F8103523FA00F060
:109D240000F00100704700002DE9F04F85B00024D9
:109D34005A4D01944FF48072012102F1804303F5DE
:109D4400C04390B21B68012B06D1D5F804330B42F3
:109D540002D0FFF7B9FE0C430432B2F5907F4FEA0C
:109D64004101EAD14E4B1B68012B0AD14FF4BE705E
:109D7400FFF7AAFE4FF0A04344F00044D3F8103597
:109D8400019314F0FF0F1AD0464F002501263442E8
:109D940010D0AB0003F1804303F5C043D3F81005A2
:109DA400D3F8101557F8253023B1C1F30141C0F39E
:109DB400042098470135082D4FEA4606E7D1002CC8
:109DC40064DA00224FF0FF33CDE90223354D012739
:109DD4004FF0000A344E54464FF0A04816F9012BB8
:109DE400531C46D0D2B222F0C0094FEAD90104A8CC
:109DF400084402F0070310F804CC07FA03F31CEA42
:109E0400030F36D005EB090C92099CF930C055F8C4
:109E14002CB0BBF1000F0AD1032A2AD10DF1080E90
:109E24001EF801C04CEA030C0EF801C001E0032A3D
:109E3400F4D009F5E07110F80C0C58F82110184210
:109E4400C1F3014105D0022913D1032A0BD11146D4
:109E540004E003290DD1032A05D102214846FFF766
:109E64003FFE0134E4B2BBF1000F02D01146484674
:109E7400D8470AF1010ABAF1040FAFD134B14FF057
:109E8400A043019AD3F81035934202D105B0BDE83E
:109E9400F08F0193029B03939AE700BF0060004098
:109EA4007C6100402C2C00207C2C0020014B1B6882
:109EB400184700BF882C00200E4B984237B50D463A
:109EC40002D0002003B030BD00230DF107008DF84F
:109ED4000730FDF7D1FB084B1C7914B901221D6032
:109EE4001A719DF80700FDF7EBFB002CE9D0112057
:109EF400E8E700BF00200040882C0020034B984274
:109F040001BF034B00221A601A7170470020004001
:109F1400882C0020114BD3F8183182B0E3B1104BD8
:109F240000221A601B680193019B0E4BD97FFF2905
:109F340007D0987F01228A404FF0A04148B1C1F870
:109F44000C2500225A771A72D3E90021064802B080
:109F54001047C1F80825F4E702B07047003000400C
:109F640018310040902C0020982C00202DE9F74F48
:109F740006796C4F00934FF0240A0AFB06FA07EBAC
:109F84000A0B91469BF81C20019780460C46002A38
:109F940040F0C480056864492846FFF78DFF002817
:109FA40040F0BE80019B227B43F80A90009BCBF8D3
:109FB400043094F800C04FF0A041012303FA0CF3DD
:109FC400012A94BFC1F80C35C1F808350CF5E073CB
:109FD4004FF0010E41F823E06378FF2B1FBF0EFA08
:109FE40003FEC1F80CE503F5E07E4FF0030A18BF49
:109FF40041F82EA0A17808BF4FF0FF33FF2917BF07
:10A0040001F5E07E4FF0FF374FF0A04A4FF0040B0C
:10A0140008BF0097019F1CBF00914AF82EB04FF073
:10A02400240E0EFB0677DFF8FCE087F82010E178B9
:10A03400F977FF2917D094F804A04FF0010B0BFA1D
:10A0440001FB4FF0A047BAF1000F5ED0C7F80CB582
:10A0540001F5E0714FF0030B47F821B0242101FB17
:10A0640006E181F81EA0C5F808C5C5F80C35009BAB
:10A07400C5F81035A368C5F82435637B003318BFD1
:10A084000123022A44D0032A45D0012A01D143F0F6
:10A094000203C5F85435A379C5F8C035B9F1000FEA
:10A0A40002D04023C5F804330723C5F80035B9F1BD
:10A0B400000F20D0D8F8003062791B0B59B2002968
:10A0C400A8BF01F16044DBB2B8BF03F00F054FEA4B
:10A0D4004212B4BF154C04F56144D2B2B4BF625508
:10A0E40084F8002303F01F03012202FA03F3490951
:10A0F4000F4A42F82130242303FB06E6002373773A
:10A104000123337703B0BDE8F08FC7F808B59FE7A4
:10A1140043F00403BDE743F00603BAE70820F1E780
:10A124001120EFE7902C0020199F020014ED00E0AD
:10A1340000E100E02DE9F3410579474E24236B4308
:10A144001446F2180F46517F8046002940F0818062
:10A15400F35823B114F0140F04BF0123537797E885
:10A164000F004FF0240C0CFB056C0CF10C0E8EE868
:10A174000F009CF81F20FF2A08D09CF81E10012312
:10A1840093404FF0A042C1B1C2F80835396821B1FB
:10A1940001F06043B3F1005F06D1BA6882B102F006
:10A1A4006043B3F1005F0BD0242303FB0565002358
:10A1B4006B77102002B0BDE8F081C2F80C35E5E7FA
:10A1C400D8F800307868C3F84415C3F84805F9682E
:10A1D400C3F834250022C3F83815C3F81821D3F87E
:10A1E40018210192019A14F0010218BF0122C3F848
:10A1F400502514F0020218BF0122C3F8402522079B
:10A204005CBF01221A6124226A43B258B2B9D3F85E
:10A214001821002AFBD0242303FB0565EA7FFF2ACB
:10A2240007D0A87F012393404FF0A04218B1C2F891
:10A234000C350020BEE7C2F80835BBE714F0040073
:10A244004FF0400202D0C3F80823F2E7C3F8042316
:10A25400B0E71120AEE700BF902C0020002343504C
:10A2640082B043580193019B02B070470A4610B56F
:10A274004FF48E71FFF7F2FF136A9168C95C136A99
:10A2840001331362C0F81C1510BD8B690A4610B562
:10A294004FF4847123B9FFF7E1FFD0F8183510BDEE
:10A2A400FFF7DCFF536AD168D0F81805C854536A25
:10A2B40001335362F3E700001FB501238DF800302A
:10A2C400044BCDE90110D3E900126846904705B06C
:10A2D4005DF804FBB42C002030B54C4AD2F80433AA
:10A2E40013F4007F85B015464FD0D2F82431002BEB
:10A2F4004BD04FF492711046FFF7B0FF4FF4017347
:10A30400C2F80833424B93F8291009B9012151606E
:10A314003E4902228DF80020D1F88024C1F880241F
:10A3240003929A690292DA6801920022C3E9062232
:10A334006846D3E9001290473448D0F81C315BB129
:10A3440033490A6A4B699A420A464BD291F828303B
:10A35400002B47D1FFF78AFF2C4AD2F8443193B13E
:10A364004FF4A2711046FFF779FF294B93F8291097
:10A3740009B1012111609A692AB100229A61586ACF
:10A38400D968FFF799FF05B030BDD5F804335B07F2
:10A39400D2D5D5F80831002BCED01D4C1B48214610
:10A3A400FFF773FF636AA2699A422346C4D1E26944
:10A3B400E1684AB12369E3600023606AA261E36152
:10A3C4006362FFF779FFB7E794F829200AB90122FD
:10A3D4006A600E4A4FF40170C2F8080300229A61C1
:10A3E400586AEEE74FF48E710848FFF737FF51695A
:10A3F4000029B1D00023029191688DF800300191B9
:10A4040053616846D2E900139847A5E7002000404D
:10A41400B42C00202DE9F843564F047991462C22A0
:10A4240002FB0472064692F82A200D46002A40F0E8
:10A434009A8051490068FFF73FFD8046002840F0AC
:10A44400958029683368481C0BD04FF0A040012246
:10A454008A40C0F8082501F5E0724FF0030C40F87B
:10A4640022C06868421C1FBF00F5E0724FF0A04C88
:10A474004FF0000E4CF822E0AA6995F814C0C3F816
:10A4840024256A7DBCF1010F4CEA0202C3F86C2555
:10A49400C3F81405C3F80C151DD1AA68511C1FBFBD
:10A4A40002F5E0714FF0A0404FF0000C40F821C0DD
:10A4B400E968481C0BD04FF0A04C01208840CCF830
:10A4C400080501F5E0704FF0030E4CF820E0C3F8E6
:10A4D4000815C3F810252C236343FA18C2F8049016
:10A4E4002A69FA50B9F1000F2AD04FF48E713068FE
:10A4F4002D7FFFF7B3FE30684FF4A271FFF7AEFE75
:10A5040032681E4BC2F80433120B51B20029A8BFA3
:10A5140001F160404FEA4513BABF194802F00F0534
:10A5240000F56140DBB2B4BF435580F8003302F05C
:10A534001F02012303FA02F24909124B43F82120B6
:10A5440033680422C3F800252C2303FB0473002280
:10A55400C3E9062283F829205A61012283F82A20BC
:10A564004046BDE8F8834FF00808F9E74FF01108BA
:10A57400F6E700BFB42C0020DDA202008000020038
:10A5840014ED00E000E100E0F8B5047900682D4D19
:10A594000023C0F800352C2303FB04535B6873B11C
:10A5A400294BC0F80833020B53B201215B0902F0B6
:10A5B4001F0201FA02F22033244941F82320D0F883
:10A5C4000C65D0F81415D0F80835D0F810254FF0E4
:10A5D400FF37BE42C0F8147518BF06F5E076C0F820
:10A5E4000C75C0F80875C0F810751EBF4FF0A04771
:10A5F4004FF0020C47F826C04E1C1FBF4FF0A04678
:10A6040001F5E071022746F82170511C1FBF4FF07D
:10A61400A04102F5E072022641F822605A1C1FBFD5
:10A6240003F5E0734FF0A042022142F82310FFF734
:10A6340065FC2C2303FB0454002384F82A30636054
:10A64400F8BD00BFB42C00208402020000E100E049
:10A654002DE9F843224F06794FF02C0909FB0674C3
:10A6640080466569002D37D16261A16025624FF48F
:10A674008E71006884F82850FFF7F0FDD8F80000C8
:10A68400012383602146FFF7F1FD6368A1462BBBDC
:10A69400D8F80050226A63699A4212D3D8F800307D
:10A6A400D3F81C21002AFBD00122DA6000202C23DD
:10A6B40003FB067600237361BDE8F88394F8283021
:10A6C40043B9D5F81C31002BF8D049462846FFF78A
:10A6D400CDFDDFE70F20EAE71120EDE72846EBE7A1
:10A6E400B42C00200023435082B043580193019BB3
:10A6F40002B070471FB501238DF80030044BCDE93B
:10A704000110D3E900126846904705B05DF804FBD8
:10A71400E02C00207FB5374AD2F82461002E48D0BF
:10A7240010464FF49271FFF7DDFF02238DF80030DD
:10A73400D2F88034C2F880340393D2F83C350293C3
:10A744002D4BDA6801920022C3E906226846D3E958
:10A7540000129047274AD2F844317BB14FF4A271DA
:10A764001046FFF7BFFF244B996939B10021C3E9B3
:10A774000611D968D2F83C05FFF7BCFF1D4AD2F890
:10A784002031A3B14FF490711046FFF7ABFF1A4B81
:10A79400596961B1D2F84C150291002299688DF87B
:10A7A400002001915A616846D3E90012904704B031
:10A7B40070BDD2F81031002BCCD04FF48871104604
:10A7C400FFF790FF0C4BD2F83C0599698842C1D140
:10A7D400DC69D96864B1D2F8005225F02005C2F8CA
:10A7E40000521A699C61DA60DE61FFF783FFB1E70A
:10A7F4009C61FAE700200040E02C00202DE9F8439A
:10A804005A4F06799146242202FB0672044692F8B6
:10A8140020200D46002A40F0A28055490068FFF729
:10A824004BFB8046002840F09D8029682368481C23
:10A834000BD04FF0A04001228A40C0F8082501F552
:10A84400E0724FF0030C40F822C06868421C1FBF3E
:10A8540000F5E0724FF0A04C4FF0000E4CF822E0EF
:10A86400AA6995F814C0C3F824256A7DBCF1010FC8
:10A874004CEA0202C3F86C25C3F80C15C3F814059E
:10A884001DD1AA68511C1FBF02F5E0714FF0A04012
:10A894004FF0000C40F821C0E968481C0BD04FF081
:10A8A400A04C01208840CCF8080501F5E0704FF079
:10A8B400030E4CF820E0C3F80815C3F81025242330
:10A8C4007343FA18C2F804902A69FA50B9F1000FD8
:10A8D40034D04FF4887120682D7FFFF703FF4FF4C5
:10A8E40090712068FFF7FEFE4FF492712068FFF725
:10A8F400F9FE20684FF4A271FFF7F4FE22681D4BA5
:10A90400C2F80433120B51B20029A8BF01F1604010
:10A914004FEA4513BABF184802F00F0500F561402D
:10A92400DBB2B4BF435580F8003302F01F020123A9
:10A9340003FA02F24909114B43F821202368082243
:10A94400C3F80025242303FB06730022C3E906226F
:10A954005A61012283F820204046BDE8F8834FF075
:10A964000808F9E74FF01108F6E700BFE02C0020D3
:10A9740019A702001003020014ED00E000E100E05A
:10A98400F8B5047900682D4D0023C0F80035242360
:10A9940003FB04535B6873B1294BC0F80833020B03
:10A9A40053B201215B0902F01F0201FA02F22033C3
:10A9B400244941F82320D0F80C65D0F81415D0F8B8
:10A9C4000835D0F810254FF0FF37BE42C0F80C759B
:10A9D40018BF06F5E076C0F81475C0F80875C0F81D
:10A9E40010751EBF4FF0A0474FF0020C47F826C069
:10A9F4004E1C1FBF4FF0A04601F5E071022746F838
:10AA04002170511C1FBF4FF0A04102F5E0720226D5
:10AA140041F822605A1C1FBF03F5E0734FF0A042B7
:10AA2400022142F82310FFF769FA242303FB04549C
:10AA3400002384F820306360F8BD00BFE02C0020C0
:10AA44001003020000E100E001F06043B3F1005F95
:10AA54002DE9F041074632D11C4B0679242505FB2C
:10AA6400063598466C6964BB6A61A96000684FF456
:10AA74009071FFF737FE4FF4AC713868FFF732FE80
:10AA84003B686A69A968C3F84415C3F848250122DC
:10AA94009A606A68BAB9D3F82011D3F8582149B931
:10AAA400002AF8D00F20242303FB068600237361B9
:10AAB400BDE8F081002A14BF0F200020F3E7102026
:10AAC400F6E71120F4E72046F2E700BFE02C00206F
:10AAD4000220FEF7F5BD00002DE9F04781460D4642
:10AAE400FEF70EFE0328044604D8012D04D025B336
:10AAF400022D2FD0BDE8F087194D47003A18A91848
:10AB0400AE5C4A7852B1DFF86880164842464FF48A
:10AB14000041FCF75BFD08B988F800903B192B4411
:10AB24009A78114B1A55002EE4D0104B1B68002B59
:10AB3400E0D03046BDE8F04718470A48FCF78CFDE2
:10AB4400074B04EB440213449E78074B1B5DB3424E
:10AB5400D0D1E8E7024B00EB40041C446678E2E7FE
:10AB6400682D0020282D0020812D00207C2D002020
:10AB7400042D002002210078FFF7AEBF08B5094B71
:10AB84001B7853B10020FEF771FD0120FEF76EFD26
:10AB94000320BDE80840FEF769BDBDE80840FEF7A4
:10ABA40071BD00BF052D0020F8B57B4C2378054608
:10ABB4001BB100232370FFF7E1FF172D00F28880FB
:10ABC400DFE805F00C17174354657680888D888D6F
:10ABD400959A9A9A9A9AC4C9D1D9E4E4FFF7CEFF18
:10ABE4006E48FCF739FD6E4B002204461A7020466D
:10ABF400F8BD0020FEF720FDF8B10020FEF736FD79
:10AC0400022D0CBF4FF4E1614FF47A61644B1D7067
:10AC14004FF400404FF4FA740025E0FB01454FF473
:10AC24007A7200232046294605F0E7FA00220146FD
:10AC34005A48BDE8F840FCF7C9BCFEF70BFD022DED
:10AC44000CBFC8214FF4C871E0E70020FEF7F4FC04
:10AC540040B10020FEF70AFD4FF44871504B032227
:10AC64001A70D5E7FEF7F6FCC821F7E70020FEF7D7
:10AC7400E3FC38B10020FEF7F9FC4FF47A61484B4D
:10AC84000422EDE7FEF7E6FC4FF4C871F7E7002075
:10AC9400FEF7D2FC48B10020FEF7E8FC404B052249
:10ACA4001A7041F69A110022C2E7FEF7D3FCF5E7C9
:10ACB4000020FEF705FD3A4B06221A70002240F6EA
:10ACC400CD41B5E70020FEF7C5FC354B07221A70CD
:10ACD40000248CE701202070FEF7F2FCEEE701204F
:10ACE4002070FEF7EDFC00224FF48041A0E7FEF750
:10ACF400D8FC2B4B0C22EAE72A482B4EFCF7ACFC81
:10AD0400D5F1110504461CD0D8B9012D13D0C823A0
:10AD14005D434FF400474FF4FA7000214FF47A7208
:10AD24000023C7FB050105F068FA224601461D48C9
:10AD3400FCF74CFC04460220FEF78CFC0123337024
:10AD440055E70220FEF792FC0023F8E7FFF716FF11
:10AD5400134B1222BBE7FFF711FF0020FEF77AFC2A
:10AD64000F4B1322B3E7FFF709FF0120FEF772FC34
:10AD74000B4B1422ABE7FFF701FF0020FEF76AFC40
:10AD84000120FEF767FC064B1522A0E7FEF789FCBD
:10AD9400034B1D709CE700BF782D0020482D002038
:10ADA400802D0020082D0020052D0020044B1B6859
:10ADB400DB0703D5034B1878FFF7F6BE704700BFD7
:10ADC400742D0020802D0020032801D8FEF78ABCB2
:10ADD40000207047044B1B6813F0010301D0FFF7F8
:10ADE400E3BE1846704700BF742D002038B51C4BD5
:10ADF40018601C4B10F00204054619601AD01A4B57
:10AE04001A480E221A700F22DA7010229A71112237
:10AE14005A72042140F26662FCF7D6F8044648B937
:10AE2400FCF726F9044628B90146114A1148FCF7F3
:10AE3400BBFB0446EB0711D50120FEF779FC6CB986
:10AE440021460D4A0D48FCF7AFFB044630B90C4AC5
:10AE54000C480121BDE83840FCF7A6BB204638BDAC
:10AE6400742D00207C2D0020682D0020C40F0300C9
:10AE740079AB0200E80F0300B1AD0200EC0F030050
:10AE8400D5AA0200E40F0300032813D8012A0BD12A
:10AE9400012908D100F10E02D2B200EB40000C4BA4
:10AEA4001A540020704700220129F6D04BB24BB14E
:10AEB400022901D007207047054B00EB40001844DD
:10AEC4004270EEE7024900EB400008448270E8E774
:10AED400682D0020032808B512D8FEF723FC800053
:10AEE40000F1A040D0F8003723F44033C0F8003715
:10AEF400D0F8003743F44033C0F80037002008BDD1
:10AF04000620FCE708B5012202210020FFF7BCFF60
:10AF140008B1072810D1072202210120FFF7B4FF4E
:10AF240008B1072808D100210A220846FFF7ACFF20
:10AF340010B1072808BF002008BD00000388102BAB
:10AF440010B502D0112B1ED010BD1A4C2168B1B916
:10AF540001220846FFF798FF08B1072824D10722E9
:10AF640002210120FFF790FF08B107281CD1042219
:10AF740002210020FFF788FF08B1072814D12368B5
:10AF840001332360E0E70B4A1368013B1360002B95
:10AF9400DAD1FFF7B7FF0028D6D0074B1B68002B88
:10AFA400D2D0BDE810401847034B1B68002BE6D0F5
:10AFB4009847E4E78C2D0020882D002008B5002058
:10AFC400FFF788FF08B1062806D10120FFF782FFAA
:10AFD40010B1062808BF002008BD00000D4B10B5B5
:10AFE40018600C4629B10120FFF7EEFE40B10223A0
:10AFF4002370094B1B6853B9BDE81040FFF782BFAB
:10B00400FFF7E2FE08B10B23F2E72070F1E700201E
:10B0140010BD00BF882D00208C2D002076DF7047E6
:10B024007ADF70477CDF70478FDF704733DF70470C
:10B03400FCF734B808B50020FFF7CCFE08B1FCF7E4
:10B044002DF8FFF7BBFF08B1FCF728F8FFF7EEFF78
:10B0540018B1BDE80840FCF721B808BD0388212BCE
:10B0640013B5044635D005D8102B17D0112B0AD0B0
:10B0740002B010BD3B2B01D0562BF9D11321A0886F
:10B08400FFF7CCFF20E0174B17481849C01AC00837
:10B09400000440F00300FBF74BFDE9E7114B1248B5
:10B0A4001349C01AC008000440F00300FBF740FD38
:10B0B4000720FFF78FFE08B1FBF7F0FF0D4BA188C7
:10B0C4000D48198002F0C6FA0028D1D0FBF7E6FF3C
:10B0D400CEE7002301A98088ADF80430FFF7A4FF70
:10B0E400F2E700BFEC0503001C0603000010030098
:10B0F4000E10030058220020FC2F002008B503780E
:10B104004BB9054B3B211888FFF788FF18B1BDE800
:10B114000840FBF7C3BF08BD58220020072808B524
:10B1240013D00A280DD0042819D10D4B13211888E7
:10B13400FFF774FF30F0080311D0BDE80840FBF7B7
:10B14400ADBFBDE80840FFF775BF054B1A884FF641
:10B15400FF739A4203D1034800F098FFEAE708BD61
:10B1640058220020902D002008B598B1032815D14D
:10B174000B4B0C480C49C01AC008000440F00300F3
:10B18400FBF7D6FC0220FFF725FE38B1BDE80840E6
:10B19400FBF784BFBDE80840FFF74CBF08BD00BF04
:10B1A400EC0503001C0603005D10030008B5032131
:10B1B400044800F028FE18B1BDE80840FBF76EBF54
:10B1C40008BD00BF902D002010B5044603F042FDD9
:10B1D400204603F065FB23780C2B03D1BDE8104017
:10B1E400FFF7E4BF10BD0000F0B51D46174C184B27
:10B1F400E41AE4082404174644F0030487B00E4616
:10B204002A4614492046FBF797FC3B7812493246FC
:10B214002046FBF79AFC01AB0293EDB20123002216
:10B2240002A90E488DF80460CDE903370595FEF7B1
:10B2340081FF08B1FBF732FF20463B7808493246CC
:10B24400FBF783FC002007B0F0BD00BF1C06030021
:10B25400EC050300D4100300DD100300C810030044
:10B26400F210030038B5044638B1044D45F0010529
:10B274004FF47A40A847013CFAD138BD20100300AE
:10B28400FBF70CBF2DE9F04F1E461E4C1E4BDFF89A
:10B294008490DFF884B0E41AE408240444F003043E
:10B2A40087B015460F46324618492046FBF744FC42
:10B2B40005EB06080DF1040AA84508D120463246DC
:10B2C4001349FBF739FC002007B0BDE8F08F15F8EF
:10B2D400013B8DF805303A46494620468DF8047006
:10B2E400FBF733FC0022022302A95846CDF808A03C
:10B2F400CDE903320592FEF71DFF0028DCD0FBF7F1
:10B30400CDFED9E71C060300EC050300061103007B
:10B3140016110300E5100300C81003001FB50A4B03
:10B324000FCB6C4684E80F00084B00934FF000737A
:10B33400029300231A4621460548FEF7C3FA08B1D2
:10B34400FBF7ACFE04B010BDF00F03001C1D1E1F64
:10B35400C410030070B58AB001238DF80230174B76
:10B364000793174B08930646164B09930024684627
:10B374008DF8014004F0BCFD134A144B9B1ADB0802
:10B384001B0443F00303024698B118461049FBF727
:10B39400D3FB2046FBF782FE6C460FCC35460FC527
:10B3A4000FCC0FC594E8030085E8030030460AB0CB
:10B3B40070BD08491846FBF7BBFBEDE7EDB1020091
:10B3C40089B2020069B20200EC0503001C06030006
:10B3D4009B100300B410030084B008B50DF1080CF1
:10B3E4008CE80F000F4B039360460F4B059304F05A
:10B3F40037FE0E4A0E4B9B1ADB081B0443F0030373
:10B40400024650B118460B49FBF796FB0020FBF7A8
:10B4140045FEBDE8084004B0704707491846FBF7ED
:10B4240087FBF6E7110C0302150D0002EC0503007F
:10B434001C0603006F1003008A10030080B54FF44C
:10B444000041B2B00020FBF7AFF908B1FBF726FECC
:10B45400FBF7D4F8FCF778F808B1FBF71FFE78493E
:10B464000320FFF7C3FC08B1FBF718FE07AC214625
:10B474000020FFF7B3FD08B1FBF710FE9DF81C6038
:10B48400FFF74CFFFDF7ECFE08B1FBF707FE04F0F5
:10B49400B9FA08B1FBF702FE002321460120079305
:10B4A40004F078FB08B1FBF7F9FD204604F022FC18
:10B4B40008B1FBF7F3FD112362488DF8183005F04D
:10B4C40019F8604982B206A8FFF7ACFD08B1FBF792
:10B4D400E5FD00210822204604F0B7FF5A494FF049
:10B4E400C8732046CDE90713FFF79AFD08B1FBF7AF
:10B4F400D5FD0021554801F0A5FF08B1FBF7CEFDAD
:10B50400AC220021204604F0A0FF02238DF81C3059
:10B5140040F201634E4AADF81E300123ADF82C30E1
:10B524000C928DF898304FF4967244F25063CDE942
:10B5340029232146474B4848309300F0E5FB08B1E6
:10B54400FBF7ACFD0121444800F0DBFB434B4448CE
:10B554000793214602F06CF808B1FBF79FFD1C220B
:10B564000021204604F071FF00234FF42032CDE97E
:10B574000732ADF82A304FF470228DF82C30394B55
:10B5840009920C930322384B8DF8282020460D9302
:10B5940000F098FE08B1FBF781FD02F029FE08B126
:10B5A400FBF77CFD05220021204604F04EFF079B9B
:10B5B40003F07C422D4B134307939DF8203023F076
:10B5C400030343F0030320468DF8203002F0AAFE63
:10B5D40008B1FBF763FD264802F08CFE08B1FBF7C7
:10B5E4005DFD20460BAFFFF7B5FE0FCF6D460FC5CF
:10B5F40097E8030085E8030094E80F00FFF7ECFEEA
:10B604001C4C1D4B1D49E41AE408240444F00304B3
:10B614002046FBF78DFA022E0FD119492046FBF77D
:10B6240087FA02F0D7FE08B1FBF738FDFBF716F9ED
:10B634000028FBD1FDF72AFEF8E7FFF7B7FDF5E791
:10B6440021B10200261003005000A000E82F0020C2
:10B65400542200206DB10200902D002035B002006C
:10B66400FC2F002001B1020085B202003107100353
:10B67400CDB102001C060300EC05030036100300E4
:10B68400501003000369C1688B429DBF8268D218C1
:10B6940002F1FF3203F1FF3394BF501A581A704776
:10B6A4002DE9F041D0E9027405463E1B40689642FC
:10B6B40020448846144404D904F09EFEEC60BDE89E
:10B6C400F0813246E41B04F097FE224608EB0601A3
:10B6D4006868F1E72DE9F843C568064689461746C8
:10B6E4004FF000083469B3687068A54228BFE418B5
:10B6F400013C621B5C1BBC4228BF3C46944228BFF1
:10B70400144649462844224604F076FEB36825448C
:10B71400AB4208BF00253F1BA044A144F560E1D122
:10B724004046BDE8F883000010B5114C114AA261EF
:10B734000223C4E90433104BE361A2644FF40073A1
:10B744000E4A2362E264002310220D49A362E01D25
:10B754006362E362A3656365E365226504F0A8FEA2
:10B764000849204604F0A4FE2023A37110BD00BFA5
:10B774000830002025110300903000208030002084
:10B784002E11030032110300F8B5184C182300FBE6
:10B79400033503FB00402544C46A012C0F461646BA
:10B7A40011D024B1022C1BD000242046F8BD284619
:10B7B400FFF768FFB042F8D3324639462846FFF710
:10B7C4006FFF3446F1E72846FFF75CFF86423446B4
:10B7D40028BF0446224639462846FFF761FFE4E7BE
:10B7E4002846BDE8F840FFF775BF00BF08300020C9
:10B7F400FFF79ABF6DDF704779DF70477DDF7047D1
:10B8040064DF70472DE9F74F0C9CBDF834B02788EE
:10B81400002580468A4691462E46B8F80020B2425A
:10B824000BDC35B12288013AD21B92B2FF2A39D8F7
:10B83400DA55002003B0BDE8F08FD8F8042052F8A0
:10B844002600019000220DF1030101A8FFF7D8FFA3
:10B854000028EFD19DF803204A4521D12288002DEC
:10B8640014BF0020022002EB09010144594519DCF0
:10B874003DB9013292B2228003F802A0228801323B
:10B88400228022880DF103011A4401A8FFF7B8FFB2
:10B894000028CFD121889DF803200A442280012565
:10B8A4000136BAE70C20C5E72DE9F341089CBDF841
:10B8B40024501746CDE9004502220646FFF7A2FFB1
:10B8C40048B9102239463046CDE9084502B0BDE8F2
:10B8D400F041FFF797BF02B0BDE8F0812DE9F04FCA
:10B8E40000231688138090F82D3085B007460D4646
:10B8F400144653B3082E01D80C2028E102A8FFF700
:10B9040079FF002840F0238113880822CA54238831
:10B9140001339BB21B222380CA542088013080B299
:10B92400208006220DF10901284404F065FD2388D6
:10B934009DF8082006339BB212F0FE0218BF0122C4
:10B944002380EA54238801332380BB78FBB1238806
:10B954000433B342D0D802A8FFF74EFF002840F0CA
:10B96400F68023880322EA54238801339BB21922E8
:10B974002380EA542388BDF8082001339BB2E918D8
:10B984002380EA54120A4A70238802332380FA7807
:10B994009AB12388D91CB142AED80221E954238834
:10B9A40001339BB201212380E95423880B449BB2C9
:10B9B4002380EA5423880B4423807A68AAB123881D
:10B9C400D91CB14298D8022192F90020E954238865
:10B9D40001339BB20A212380E954238801339BB2AB
:10B9E4002380EA542388013323803B89002B40F0D1
:10B9F400A2803B8A5BB1CDE900462B460722032196
:10BA040007F11000FFF750FF002840F0A0803B8BA7
:10BA14005BB1CDE900462B461522142107F118002D
:10BA2400FFF742FF002840F092803A6A002A40F073
:10BA34009180D7F82480B8F1000F30D0B8F80430E2
:10BA44002188981C8A1C0244B2423FF655AFFE2856
:10BA54003FF652AF03336B54238801339BB2FF226A
:10BA64002380EA54238801339BB22380B8F8002052
:10BA7400EA54E918120A4A702088023080B2208001
:10BA8400B8F804205AB1D8F8081000296CD028441A
:10BA940004F0B2FC2388B8F804201344238097F8F8
:10BAA4002C30002B40F09B80387800284FD03B8806
:10BAB400012B59D0228802F1020CB4453FF61CAF89
:10BAC400012805D17B78023313449E42FFF414AF5E
