:1000000000000120750300005D0300005F03000095
:1000100061030000630300006503000000000000AE
:100020000000000000000000000000006703000066
:1000300069030000000000006B0300006D03000076
:100040006F0300006F030000B51B0000111C0000CF
:100050006F0300006F030000311A00006F030000FF
:100060006F0300006F0300006F0300006F030000C8
:100070006F0300006F0300006F0300006F030000B8
:100080006F0300009D0E00006F0300006F0300006F
:10009000390F00006F0300006F0300006F030000C2
:1000A0006F0300006F0300006F0300006F03000088
:1000B0006F0300006F03000000000000000000005C
:1000C0006F0300006F0300006F0300006F03000068
:1000D0006F0300006F0300006F03000000000000CA
:1000E0000000000000000000000000000000000010
:1000F0000000000000000000000000000000000000
:1001000000000000000000000000000000000000EF
:1001100000000000000000000000000000000000DF
:1001200000000000000000000000000000000000CF
:1001300000000000000000000000000000000000BF
:1001400000000000000000000000000000000000AF
:10015000000000000000000000000000000000009F
:10016000000000000000000000000000000000008F
:10017000000000000000000000000000000000007F
:10018000000000000000000000000000000000006F
:10019000000000000000000000000000000000005F
:1001A000000000000000000000000000000000004F
:1001B000000000000000000000000000000000003F
:1001C000000000000000000000000000000000002F
:1001D000000000000000000000000000000000001F
:1001E000000000000000000000000000000000000F
:1001F00000000000000000000000000000000000FF
:10020000354936480A1A02D0072291438D463449AF
:1002100034480A1A06D00722914381F30988022242
:1002200082F3148830483149314A00F044F83148AB
:100230003149324A00F03FF831483249324A00F041
:100240003AF832483249334A00F035F832483349F7
:10025000334A00F030F833483349344A00F02BF881
:1002600033483449344A00F026F8344834490022EF
:1002700000F02CF833483449002200F027F83348C6
:100280003349091A082902DB002202604160314A21
:1002900090471F481F49884205D00268043003B4C4
:1002A000904703BCF7E700208646EC46002000217B
:1002B000294A9047FEE7884207D0521A05D00378B2
:1002C00001300B700131013AF9D17047884202D0F8
:1002D00002700130FAE770470000012000E00020C2
:1002E0000000012000000120783A000000000020FA
:1002F00034000020D4030000D40300008830000044
:10030000783A00000000002000000020DC300000EF
:10031000DC300000DC300000DC300000DC300000AD
:10032000DC300000DC300000DC300000783A0000F7
:10033000AC3A0000340000203400002034000020DB
:10034000280800202808002028080020280800206D
:10035000282800209D030000612A0000FEE7FEE738
:10036000FEE7FEE7FEE7FEE7FEE7FEE7FEE7FEE765
:10037000704700BF1048804710484FF0070188437E
:1003800085460F4880470F48016841F470010160BD
:10039000BFF34F8FBFF36F8FFFF732BF0A480B4990
:1003A0000B4A884207D0521A05D0037801300B70EF
:1003B0000131013AF9D170477103000000000120BA
:1003C000C12C000088ED00E0DC30000000000020BF
:0403D0000000002009
:1003D400F0B595B01C46164608460D4601F0EEF9F8
:1003E4001A9B0D93CDE9086400242346082205A92D
:1003F40028460A948DF82C400C9401F0FCF9079BD4
:100404000293069B03939DF814308DF8114003F07A
:100414000302012A1DD1BDF81440059EC3F3C20393
:10042400C4F383148DF81030A20008230EA92846C3
:1004340001F0E1F9C6F3952608AB0093224602AB1E
:100444000EA9304600F0C0FB284601F0BBF915B0F8
:10045400F0BD022AF8D1BDF81640C3F3C203A409C3
:100464008DF810300827082C264628BF08263B465E
:1004740032460EA9284601F0BEF9A41B08AB02AA15
:1004840031460EA8374400F003FC002CEBD1DBE727
:100494007047000007B5044B0093044A4023FFF75C
:1004A40097FF03B05DF804FBF5040000350000205D
:1004B40030B50C4D0FCD89B06C460FC495E80F00D4
:1004C40084E80F000623002269460748009301F0E0
:1004D40053FA08B100F070FC044B00221A7009B002
:1004E40030BD00BFDC3000000000002034000020DC
:1004F40038B50D4B0D4D002018700D4804782D5D56
:10050400D2B21C4665B1043002F06EF908B100F0B5
:1005140053FC084B1A7812B12378002BFBD038BD5A
:100524000C3001F065FFF1E7750000204C07002056
:10053400000000203400002008B50848084A037869
:10054400D35C33B1043002F0EBF8BDE80840FFF7A8
:10055400AFBF0C3001F0E8FEF7E700BF0000002059
:100564004C070020FFF7A4BF08B5FFF7FBFF0421E9
:10057400034800F097FA034B01225A7108BD00BFEB
:10058400B830000014000020037813F0040216D0E1
:1005940003F00303012B03D0022B09D00120704781
:1005A4000A6800880232C0F3831002440A60F5E747
:1005B4000B684288023303EB92130B60EEE710469C
:1005C400704700002DE9F04F044685B0851C0020DB
:1005D4000F46904600F01AFE454806683E60D0E992
:1005E4000132134401339B1B824600F21C4600F582
:1005F400836900F21447AB421AD30022B8F1000F0A
:100604006FD0052363F3070264F38912DAF800104C
:10061400DAF808300B4003330D444AF82320002055
:10062400CAF8005000F0F4FD012005B0BDE8F08FD9
:100634000121304600F00EFE484600F021FE384607
:1006440000F01EFEDAF80400DAF808B0009000EAC0
:100654000B0003300AEB80006946FFF795FF009B0F
:1006640050BB0BEA03020AEB820203F1020CD268CC
:100674000192013303EA0B0B0AEB8B0B02F003022A
:10068400012ACDF800C0DBF80C1022D0022A16D0C3
:100694008346384600F0F7FD10B1009BCAF80430D9
:1006A4005946304600F0D6FDDAE901231344DAF85E
:1006B400002001339B1A9EE70BEA0300C9E7BDF84B
:1006C40006309B0903334FEA114B0CEB9303009361
:1006D400DFE7BDF80430C3F383134FEA114B6344DF
:1006E400F5E7062363F3070264F39F528EE700BF26
:1006F400480100200B4B0C48FF2210B59A600022E1
:10070400C3F81824C3E90022C3F81424012283F88F
:10071400202401F00CF8044610B9044801F075F8DF
:10072400204610BD48010020C83000001C310000E4
:1007340030B50A4C71B10A4A0A49121BD208002387
:100744009A4201D1002030BD31F82350854202D0B5
:100754000133F5E7034654F83300F4E7883000002A
:10076400B830000000000020094B013903EBC00041
:10077400032909D8DFE801F00A02040604207047BF
:100784000079704740797047002070470220704715
:1007940088300000034BD3E90030C31A5842584153
:1007A400704700BF480100202DE9F04385B0FFF7F2
:1007B400F1FF0646002840F0F7807C4DC5F8180488
:1007C400BFF34F8F6868AC6800902040033005EB9E
:1007D40080006946FFF7D8FE009B18B1D5F81824AD
:1007E400002A5FD004EA0302991C013305EB82025C
:1007F400234005EB8303D268DB68029302F0030312
:10080400022B0192009162D1BDF8063068484FEA8C
:100814009318B8F1500FC14628BF4FF0500969F33F
:100824008F1309F10801ADF8063000F098FF074670
:10083400002800F0A48000F0C1FF01A900230822D1
:10084400384600F0CEFF009924EA01060136B600CE
:10085400B14535D95FFA89F97EB3F6B2A9EB060939
:10086400214003315FFA89F4B146524E05EB810110
:1008740008234A46384600F0B4FF36B109F10803AC
:1008840022463146384600F0ACFF009B08F10308CD
:1008940003EB98030093D5F81834002B4BD1D5F80B
:1008A40010445BE02A689A4204D86A60304605B076
:1008B400BDE8F08304EA030088E73E493446D7E7FD
:1008C4002140033108234A4605EB8101DAE7012B75
:1008D40055D1BDF804303648C3F38311062928BF27
:1008E400062161F3891302318900ADF8043000F068
:1008F40036FF0746002842D000F060FF002308229C
:1009040001A9384600F06DFF0026BDF80420C2F3AB
:100914008312B300964203F10803BCD200994A1C27
:1009240021400331009205EB81010422384600F096
:1009340058FF0136E9E7384600F044FFFFF72AFF85
:1009440080F00100C6B2B1E7E3685B7923B12368A4
:1009540039461B6820469847E3681C68002CF3D18D
:10096400384600F02FFF204600F050FCD5F818342C
:100974000BB9009B6B60002000F04AFCDEE7D5F861
:10098400104454B90C4B0D480D49C01AC00800045A
:1009940040F0020000F06EF8D0E7236820469B6820
:1009A4009847E3681C68ECE700267FE748010020CD
:1009B400C83000005401002088300000B03000002E
:1009C400283100002DE9F74F284C80460F46924607
:1009D40001A9012218469B46D4F80890FFF7F2FDBE
:1009E40080B3019D0026A91C5E4506EB010233D1AC
:1009F40000211F4800F00EFC80F310006A1C02EA7C
:100A0400090204EB8202000405EA0903033340EA05
:100A14001840D06014F8232068F3C50204F823209A
:100A240034F8232066F3891224F8232054F8232071
:100A340067F39F2244F8232002F0F80242F00102F7
:100A440004F8232094F820341BB1FFF7ADFE0028EE
:100A5400FBD103B0BDE8F08F09EA020204EB820285
:100A64005AF82630D3600136BEE700BF48010020A3
:100A74006405002000231A46FFF7A4BF07B501232D
:100A8400019201AAFFF79EFF03B05DF804FB07B5CE
:100A9400CDE9002302236A46FFF794FF03B05DF813
:100AA40004FB000030B50F49D1F81024002314468C
:100AB4003CB9C468237152B9C1F8100422601846C5
:100AC40030BDE46825799D4206D02468F0E7D268F9
:100AD400116821601060F2E701330A2BE7D14FF06F
:100AE400FF33ECE748010020094A38B50123D2F866
:100AF400104482F820341D4604B938BDE3685D71A2
:100B0400236820465B689847E3681C68F4E700BFE5
:100B140048010020037A052B10B50C460FD0437A08
:100B240023B1084A0849204600F007FC074920463B
:100B340000F003FC2046BDE8104000F0F3BB002A9F
:100B4400F8D0F3E7733100007831000098310000E9
:100B5400C38873B504460D4633B1144A0092144950
:100B6400144A284600F0E9FB217A05291CD0637A4F
:100B74004BB1A088FFF7F8FD0F4B104953F8202024
:100B8400284600F0DAFB227A0D4BA08853F8226045
:100B94000021FFF7CDFD0B4903463246284602B03B
:100BA400BDE8704000F0C9BB02B070BD73310000F5
:100BB400833100007B3100004031000078310000B7
:100BC400A83100009B3100002DE9F04385B01F4699
:100BD4000C9D002306460C46904695F80C902B730A
:100BE40029463846FFF7B4FFB8F1060F09D8DFE805
:100BF40008F00412181F283340003146284600F03C
:100C04009CFB002229463846FFF784FF85F80C90A8
:100C140005B0BDE8F08322683146284600F08DFB1C
:100C2400EFE7D4E900233146284600F086FBE8E7E5
:100C3400A36800933146D4E90023284600F07DFBE5
:100C4400DFE7E3680193A36800933146D4E9002306
:100C5400284600F072FBD4E723690293E36801930A
:100C6400A36800933146D4E90023284600F065FBCD
:100C7400C7E76369039323690293E3680193A36855
:100C840000933146D4E90023284600F056FBB8E728
:100C940008292DE9F84F80460E4617461C463AD8D7
:100CA400002593F80C901D7319461046FFF750FF6A
:100CB400DFF884A0DFF884B0AE422ED918F80520FE
:100CC4005946204600F039FB0135082DF4D1184966
:100CD400DFF86CB0204600F030FB4FF0000A5645B8
:100CE40020D918F80A507E2D03D8284602F06CF952
:100CF40000B92E252A465946204600F01EFB0AF16B
:100D0400010ABAF1080FEAD1012221463846FFF759
:100D140001FF84F80C90BDE8F88F5146204600F09E
:100D24000CFBD1E70349204600F007FBE7E700BFCF
:100D34006E3100006C3100006A3100006431000043
:100D440070310000044B1A5C012393404FF0A04221
:100D5400C2F80835704700BF0732000008B500200C
:100D6400FFF7F0FF0120FFF7EDFF0220FFF7EAFF96
:100D74000320BDE80840FFF7E5BFC20708B50146F8
:100D84000CD54FF0A0430322C3F84427C3F84827E7
:100D9400C3F84C27C3F85027FFF7E0FF8B070AD5A9
:100DA4004FF0A0430C22C3F83427C3F83827C3F804
:100DB4003C27C3F8402708BD1FB50021039001AAB2
:100DC40044F20100CDE9011100F004F805B05DF82A
:100DD40004FB000010B572B6FFF786FEFFF7E4FCD3
:100DE4000028FBD1104B114C1149E41AE4082404E7
:100DF40044F00100FFF73EFE0E4B1B68DB0700D5F5
:100E040000BE0D4944F00200FFF734FEBFF34F8FDC
:100E14000A490B4BCA6802F4E0621343CB60BFF388
:100E24004F8F00BFFDE700BF88300000B0300000E6
:100E34000B320000F0ED00E01732000000ED00E09E
:100E44000400FA05024B4FF43C6043F001031847D9
:100E54003032000038B50C4B0C4C4FF40032C3F860
:100E6400802001254FF48033C4F84833C4F8083394
:100E74006560FFF7E7FF064BA56000241C60FFF7E1
:100E8400E1FF044B1C7038BD00E100E0001001409C
:100E94002007002011070020F8B51F4B1F491B68CD
:100EA4000025C1F84051C1F84451C1F84851C1F876
:100EB4004C51C1F80051C1F804514BB3D1F8044569
:100EC40017490968641A24F07F442F461A68A2421D
:100ED40009D8A41A15441A7CDE691AB11F74D3E91F
:100EE40005209047AEB90F4A0F4B11781B788B42FF
:100EF40005D10133DBB2022B08BF00231370127833
:100F04000A4B43F822500A4B4FF48012C3F80021D5
:100F1400F8BD3346DAE700BF240700200010014083
:100F2400200700201D0700201C07002014070020B4
:100F340000E100E02DE9F04FA04AA14913780978B7
:100F4400A04D994285B03CD00133DBB2022B08BFDF
:100F5400002313709C4912789C4B0F6853F82200AD
:100F64003B1823F07F4300220B602B68164614467F
:100F7400944613B942B12B6006E0196881420ED938
:100F840002B12B60091A19604FF001082B68DFF8D1
:100F940044A201930027BEB9DFF840B266E0401ACC
:100FA4000C44D968C3F800C0D3F81CE031B13A1935
:100FB40022F07F42C3E90121DE611E46012273460D
:100FC400D7E70026B046E1E73446F6697E4A63680F
:100FD4001268DFF80CC2A068991A21F07F416145BC
:100FE40000F2A58001442160012222742A680023B2
:100FF400C4E90133E361002A40F0A2802C60CAE70F
:101004005A1C9BF80210D2B291428BF8002004BF04
:1010140000228BF80020182202FB03B31A799C6883
:10102400022A1CD0032A12D0012A1FD1207CE8B93D
:10103400D3E90312A2605A69E2609A69644BA2611F
:101044001B78002B0CBF0B4603466360BEE70022EF
:101054002B681146002B66D142B12B6006E029684B
:101064000A468946002A59D1002323749BF800308C
:101074009BF801209A42C3D12B682FB9019A9A4256
:1010840002D1B8F1000F43D0002B73D0D3F800A0E5
:10109400504D4D4BD5F804751C68DFF848813E1B54
:1010A40098F8003026F07F4603369BB94FF480331E
:1010B400C5F84433C5F80433474B4FF400324FF0BE
:1010C4000109C3F880211A60C5F80090FFF7BAFE41
:1010D40088F80090B2452CBF5444A41924F07F44EE
:1010E400C5F84045D5F80435DB1B23F07F43E41BEA
:1010F400033324F07F44A3420AD9D5F80435C5F854
:101104004035FFF79FFE344B4FF40032C3F8002103
:101114002F4B00221A7005B0BDE8F08F94422CD0FA
:101124009146D2699EE719740122DB6992E7D31ACA
:1011340023F07F43834234BFC31A0023236053E761
:1011440021681368994213D8591A1160E26155E76E
:10115400091AD8691A4638B1034618688842F7D381
:10116400401A1860184613462160E061DC6112E7FA
:101174001346F2E7FFF76EFECAE74C4511D1CB697F
:101184002B6073B9DFF840E00120CDE90212CAF800
:101194000800CEF800300E4B1870FFF753FEDDE95F
:1011A40002121368D269C9F81C2012B110680344F2
:1011B40013602B68994218BF012755E71C070020CC
:1011C4001D0700202407002020070020140700200A
:1011D400100700200010014000E100E00406002098
:1011E400FEFF7F001107002072B6024A1368013324
:1011F4001360704728070020034A1368013B1360FB
:1012040003B962B6704700BF28070020FFF7ECBFA0
:10121400FFF7F2BF50E8002F0B4640E8003C9CF07B
:10122400000FF7D11046704750E8003F43EA01022F
:1012340040E8002C9CF0000FF6D11046704750E8AF
:10124400002F02EA010340E8003C9CF0000FF6D1B5
:101254001046704750E8003F03EB010240E8002CC1
:101264009CF0000FF6D11046704750E8003FA3EB06
:10127400010240E8002C9CF0000FF6D110467047A4
:101284000121FFF7D1BF0021FFF7D9BF10B590B1FD
:10129400D0E9012301689B1ADBB20A60013BDBB28F
:1012A400FF2B026802D10020107110BD11684C1C84
:1012B40014600B70F2E70E20F7E738B504460020FF
:1012C400FFF7A4FF226863681168994213D9481E86
:1012D400106011F8015CE368218A01FB0535A368FD
:1012E40011791B1ADBB2994200D213710020FFF767
:1012F4008FFF284638BD0025F8E738B5054600209D
:101304000C46FFF783FF2A681368591C1160E968CB
:10131400641A298AB4FBF1F41C700020BDE838403B
:10132400FFF776BF826810B504462AB143690168A5
:10133400006998470023A36010BD0EB403B5039958
:1013440021B104AB01AA019300F074F802B05DF876
:1013540004EB03B070470A2938B504460D4602D1A0
:101364000D21FFF7F8FFA3682268591CA160D5542A
:10137400D4E901329A4204D32046BDE83840FFF74D
:10138400D1BF38BD2DE9F84F9946DDE90A43174628
:10139400824688460A460126BA420FD24E4538BFD5
:1013A4004E4613F0010B01D164B900240125B9F1B3
:1013B400010F1AD909F1FF397D43F8E7B2FBF7F2BF
:1013C4000136E9E79B070ED5B9F1000F0CBF3025B4
:1013D4002025A642EAD2013C29465046FFF7BBFF2E
:1013E400002CF6D1E1E72025F3E7B8FBF5F39F42A3
:1013F400E2D9DFF83C90B8FBF5F3504619F8031036
:1014040005FB1388FFF7A7FFB5FBF7F3BD4207D22F
:10141400BBF1000F02D00CB1A64203D3BDE8F88F94
:101424001D46E8E720215046013CFFF794FFF2E710
:10143400363200002DE9F74F054617468846002945
:1014440000F0318118F8011B49B92B7B002B00F007
:101454002A81284603B0BDE8F04FFFF763BF252972
:1014640040F0C080002698F800302D2B424608F149
:10147400010823D0302B24D02B2B25D000242A2B59
:1014840002F1010123D13B681A1D1B683A601C4418
:101494000A4613782E2B26D101324FF0000A10464B
:1014A40010F8011BA1F1300CBCF1090F1DD80A235F
:1014B40003FB0A13A3F1300A0246F0E746F00106E3
:1014C400D1E746F00206CEE746F00406CBE711F872
:1014D400013CA3F130000928DBD80A2202FB0434C2
:1014E400303C0A46CBE74FF0000A12F8011B01F02A
:1014F400FB0068289046F8D069290ED04AD85829AC
:1015040064D006D825296DD098F80030002B99D1E5
:101514009BE7632962D06429F6D13A68D2F8009037
:10152400111D89EAE9723960A2EBE9724FF0010BEF
:10153400092A5BDCD34538BFD3462CB1B9F1000F7F
:1015440001DB710700D5013CB20702D5BAF1000FE7
:1015540004D0F30702D4002C4ED10024B9F1000FBB
:1015640052DAC9F100092D212846FFF7F4FE06F0EE
:101574000302022A05D1BAF1000F02D1002C47D18F
:101584000024CDE9004653460A2249462846FFF77F
:10159400F9FEB9E773294CD014D87029B4D13B684B
:1015A4001A1D3A60302128461C68FFF7D4FE7821C2
:1015B4002846FFF7D0FE00220823CDE90032214659
:1015C4001022E3E775292BD078299DD139680A1DAB
:1015D4003A60CDE900465346102228E03B681A1DC4
:1015E40019783A602846FFF7B6FE8DE70A230BF117
:1015F400010BB2FBF3F29BE7A345AFD220212846AF
:10160400013CFFF7A8FEA6E77007B0D52B21ABE796
:10161400A345B6D230212846013CFFF79CFEADE736
:101624003968CDE900460A1D3A6053460A22096822
:10163400ACE73B681A1D3A60F107D3F8009020D458
:10164400B9F1000F25D0484601F0ECFC0646B4423F
:1016540000D9C4B909F1FF3920E028460136FFF763
:101664007AFE19F806100029F7D1A642BFF44CAF50
:10167400002C3FF449AF20212846013CFFF76BFEC4
:10168400F3E70026EDE720212846013CFFF763FE3F
:10169400DDE74E46DBE72846FFF75DFE19F8011F3C
:1016A4000029F8D130E703B0BDE8F08F2DE9F04709
:1016B400B0F806904479D2F800A09DF8208009FB88
:1016C40004F4043C06460AEB0300A0420F4688BF1C
:1016D400A4EB030A191DC2F800A0B1FBF9F509FB3C
:1016E40015114DB9A9EB0104544528BF5446BAF16C
:1016F400000F04D1BDE8F0873668013DF1E70431FD
:101704007B1970182246B8F1000F0ED00146184616
:10171400AAEB040A01F05DFCD145254436684C4629
:101724004FF0000128BF5446E1E71946F0E7FFF700
:10173400ADBDF8B546790146721E054600239342B5
:101744002D6803D30024A64202D8F8BD0133F6E77E
:101754000F682846FFF7D1FD01343946F3E72DE938
:10176400F843068ACD1C0746FFF7A7FD043E35441F
:101774000446B5FBF6F5F0B14FF48073EDB2838007
:10178400C680013D076081464FF00008A84512D28B
:101794003846FFF792FD064648B163790133637119
:1017A40008F10108C9F8000007608146EEE7204609
:1017B400FFF7BFFF34462046BDE8F883012104301B
:1017C400FFF748BD10B5012104460430FFF74DFD75
:1017D40010F0FF0F04D12046BDE81040FFF7A9BF69
:1017E40010BD1FB503920022009203AAFFF75EFF0B
:1017F40005B05DF804FB1FB503920122009203AA11
:10180400FFF754FF05B05DF804FB836800225A60BB
:101814009A60C3E90422DA601A60704710B50D4972
:10182400A1F58C72914201D800200FE08B1ADB10D5
:1018340003EBD3735B1002EBC30452F833308342DF
:1018440005D802D204F10802ECE7606810BD214615
:10185400E8E700BF7433000008B5FFF7DFFF024B71
:10186400002808BF184608BD463200007FB503783B
:101874008DF804304368029383688DF80C30C36894
:10188400049303698DF81430054A064B01A853F8F4
:10189400213052F82110984707B05DF804FB00BFCF
:1018A4002C07002038070020F0B50646944616F8A9
:1018B400047B134A42F827C0124A42F82730124BDD
:1018C4000D460FCB85B06C4684E80F002B6800935F
:1018D4002B798DF805306B798DF80630AB6802935F
:1018E400BCF1000FAB89ADF80C30084A3B4608BF89
:1018F40000222146304600F0B5F905B0F0BD00BF26
:10190400380700202C070020083700007118000059
:101914001FB503788DF800304368019383688DF810
:101924000830C3680393054A054B684653F82130D1
:1019340052F82110984705B05DF804FB44070020D5
:10194400480700201FB503788DF8003043680193E1
:1019540083688DF80830C3680393054A054B6846CD
:1019640053F8213052F82110984705B05DF804FB74
:101974004407002048070020F0B5194B067891F879
:101984001DE043F82620174B94460A6943F82620A5
:10199400154B03F806E00C4607460FCC89B06D469C
:1019A4000FC594E80F0085E80F000496BEF1000F00
:1019B4000AD0BCF1000F0D4A694608BF0022381D49
:1019C40000F0ECFD09B0F0BDBCF1000F084A694617
:1019D40008BF002207F10C0000F0ECFBF2E700BFA7
:1019E40048070020440700204C0700201519000078
:1019F4004919000000F1804000F5C040002382B086
:101A0400036003680193019B02B07047800000F1FA
:101A1400A040D0F8003723F44033C0F80037D0F8A2
:101A2400003743EA0141C0F8001770472DE9F04F31
:101A340085B000245A4D01944FF48072012102F1C3
:101A4400804303F5C04390B21B68012B06D1D5F83F
:101A540004330B4202D0FFF7CDFF0C430432B2F53E
:101A6400907F4FEA4101EAD14E4B1B68012B0AD10A
:101A74004FF4BE70FFF7BEFF4FF0A04344F00044A4
:101A8400D3F81035019314F0FF0F1AD0464F0025F8
:101A94000126344210D0AB0003F1804303F5C04368
:101AA400D3F81005D3F8101557F8253023B1C1F336
:101AB4000141C0F3042098470135082D4FEA46063A
:101AC400E7D1002C64DA00224FF0FF33CDE9022382
:101AD400354D01274FF0000A344E54464FF0A048CC
:101AE40016F9012B531C46D0D2B222F0C0094FEA9A
:101AF400D90104A8084402F0070310F804CC07FA3B
:101B040003F31CEA030F36D005EB090C92099CF988
:101B140030C055F82CB0BBF1000F0AD1032A2AD1EA
:101B24000DF1080E1EF801C04CEA030C0EF801C0BA
:101B340001E0032AF4D009F5E07110F80C0C58F810
:101B440021101842C1F3014105D0022913D1032AFF
:101B54000BD1114604E003290DD1032A05D102213A
:101B64004846FFF753FF0134E4B2BBF1000F02D043
:101B740011464846D8470AF1010ABAF1040FAFD119
:101B840034B14FF0A043019AD3F81035934202D1F7
:101B940005B0BDE8F08F0193029B03939AE700BF61
:101BA400006000407C61004050070020A007002036
:101BB400014B1B68184700BFAC07002038B50B4B1E
:101BC40098420D4601D0002038BD0020FFF71EFBCF
:101BD400074B1C7914B901221D601A710020FFF70C
:101BE40017FB002CEFD01120EEE700BF00200040CF
:101BF400AC070020034B984201BF034B00221A603C
:101C04001A71704700200040AC070020114BD3F834
:101C1400183182B0E3B1104B00221A601B680193A3
:101C2400019B0E4BD97FFF2907D0987F01228A4060
:101C34004FF0A04148B1C1F80C2500225A771A721E
:101C4400D3E90021064802B01047C1F80825F4E79B
:101C540002B070470030004018310040B407002043
:101C6400BC0700202DE9F04F85B0077902920C469D
:101C74007B4A7C497C4D4FF0240B0BFB07FBAD1AD0
:101C840001EB0B028246107FED082D04884678B1E3
:101C94000820FFF7E1FD754A7549034645F0020047
:101CA400FEF7F5FE4FF00809484605B0BDE8F08F91
:101CB400DAF800606F49039230460193FFF77EFF24
:101CC400019B039A814660B11120FFF7C5FD674A65
:101CD4006749034645F00200FEF7D9FE4FF01109AB
:101CE400E2E7029948F80B105360237801930199B5
:101CF400227B01238B404FF0A041012A94BFC1F8FD
:101D04000C35C1F80835019B03F5E0734FF0010C65
:101D140041F823C06378FF2B1FBF0CFA03FCC1F802
:101D24000CC503F5E07C4FF0030E18BF41F82CE01E
:101D3400A17808BF4FF0FF33FF291FBF01F5E07CF6
:101D44004FF0A04E04204EF82C004FF0240C0CFB56
:101D5400078818BF8B4688F82010E17888F81F1090
:101D640008BF4FF0FF3BFF2919D094F804E04FF06F
:101D7400010808FA01F84FF0A04CBEF1000F66D03C
:101D8400CCF80C8501F5E0714FF003084CF8218084
:101D9400DFF8D0C0242101FB07C181F81EE00199BE
:101DA400C6F80815C6F80C35A368C6F810B5C6F809
:101DB4002435637B003318BF0123022A4AD0032A47
:101DC4004BD0012A01D143F00203C6F85435A3795C
:101DD400C6F8C035029B13B14023C6F80433072369
:101DE400C6F80035029B03B3DAF8003062791B0BA6
:101DF40059B20029A8BF01F16040DBB2B8BF03F0BB
:101E04000F044FEA4212B4BF1B4800F56140D2B23E
:101E1400B4BF025580F8002303F01F03012202FA25
:101E240003F34909154A42F821300E4B242202FBE0
:101E34000737002001233B777877FFF70DFD0B4A26
:101E44000B49034645F00300FEF721FE2CE7CCF8CE
:101E5400088597E743F00403B7E743F00603B4E7C4
:101E640088300000B40700209830000023370000B9
:101E74004B370000111C000014ED00E000E100E00D
:101E84002DE9F7430579574E574C24236B4380467D
:101E940094465648F2180F46241A517FE408240445
:101EA40069B11120FFF7D8FC514A5249034644F066
:101EB4000200FEF7ECFD112003B0BDE8F083F358F7
:101EC40023B11CF0140F04BF0123537797E80F00CC
:101ED4004FF0240E0EFB056E0EF10C0989E80F007D
:101EE4009EF81F20FF2A08D09EF81E10012393405D
:101EF4004FF0A04201B3C2F80835396821B101F0AE
:101F04006043B3F1005F06D1BA68C2B102F0604326
:101F1400B3F1005F13D0242303FB056500236B7723
:101F24001020FFF799FC344A3249034644F002007A
:101F3400FEF7ADFD1020BFE7C2F80C35DDE7D8F899
:101F440000307868C3F84415C3F84805F968C3F845
:101F540034250022C3F83815C3F81821D3F8182102
:101F64000192019A1CF0010218BF0122C3F8502506
:101F74001CF0020218BF01221CF0080FC3F8402510
:101F840004BF01221A6124226A43B25802BBD3F867
:101F94001821002AFBD0242303FB0565EA7FFF2ACE
:101FA40007D0A97F012393404FF0A04269B1C2F842
:101FB4000C350020FFF750FC0F4A0E49034644F04D
:101FC4000300FEF764FD002076E7C2F80835F0E769
:101FD4001CF0040F4FF0400214BFC3F80823C3F8E9
:101FE4000423E6E7B407002098300000883000009E
:101FF4003C3700004B3700003237000000234350C9
:1020040082B043580193019B02B070470A4610B551
:102014004FF48E71FFF7F2FF136A9168C95C136A7B
:1020240001331362C0F81C1510BD8B690A4610B544
:102034004FF4847123B9FFF7E1FFD0F8183510BDD0
:10204400FFF7DCFF536AD168D0F81805C854536A07
:1020540001335362F3E700001FB501238DF800300C
:10206400044BCDE90110D3E900126846904705B04E
:102074005DF804FBD807002030B54C4AD2F804338D
:1020840013F4007F85B015464FD0D2F82431002BCD
:102094004BD04FF492711046FFF7B0FF4FF4017329
:1020A400C2F80833424B93F8291009B90121516051
:1020B4003E4902228DF80020D1F88024C1F8802402
:1020C40003929A690292DA6801920022C3E9062215
:1020D4006846D3E9001290473448D0F81C315BB10C
:1020E40033490A6A4B699A420A464BD291F828301E
:1020F400002B47D1FFF78AFF2C4AD2F8443193B121
:102104004FF4A2711046FFF779FF294B93F8291079
:1021140009B1012111609A692AB100229A61586AB1
:10212400D968FFF799FF05B030BDD5F804335B07D4
:10213400D2D5D5F80831002BCED01D4C1B482146F2
:10214400FFF773FF636AA2699A422346C4D1E26926
:10215400E1684AB12369E3600023606AA261E36134
:102164006362FFF779FFB7E794F829200AB90122DF
:102174006A600E4A4FF40170C2F8080300229A61A3
:10218400586AEEE74FF48E710848FFF737FF51693C
:102194000029B1D00023029191688DF8003001919B
:1021A40053616846D2E900139847A5E70020004030
:1021B400D80700202DE9F843564F047991462C2284
:1021C40002FB0472064692F82A200D46002A40F0CB
:1021D4009A8051490068FFF7F1FC8046002840F0DE
:1021E400958029683368481C0BD04FF0A040012229
:1021F4008A40C0F8082501F5E0724FF0030C40F85E
:1022040022C06868421C1FBF00F5E0724FF0A04C6A
:102214004FF0000E4CF822E0AA6995F814C0C3F8F8
:1022240024256A7DBCF1010F4CEA0202C3F86C2537
:10223400C3F81405C3F80C151DD1AA68511C1FBF9F
:1022440002F5E0714FF0A0404FF0000C40F821C0BF
:10225400E968481C0BD04FF0A04C01208840CCF812
:10226400080501F5E0704FF0030E4CF820E0C3F8C8
:102274000815C3F810252C236343FA18C2F80490F8
:102284002A69FA50B9F1000F2AD04FF48E713068E0
:102294002D7FFFF7B3FE30684FF4A271FFF7AEFE57
:1022A40032681E4BC2F80433120B51B20029A8BF86
:1022B40001F160404FEA4513BABF194802F00F0517
:1022C40000F56140DBB2B4BF435580F8003302F03F
:1022D4001F02012303FA02F24909124B43F8212099
:1022E40033680422C3F800252C2303FB0473002263
:1022F400C3E9062283F829205A61012283F82A209F
:102304004046BDE8F8834FF00808F9E74FF011089C
:10231400F6E700BFD80700207D20000080000200FF
:1023240014ED00E000E100E0F8B5047900682D4DFB
:102334000023C0F800352C2303FB04535B6873B1FE
:10234400294BC0F80833020B53B201215B0902F098
:102354001F0201FA02F22033244941F82320D0F865
:102364000C65D0F81415D0F80835D0F810254FF0C6
:10237400FF37BE42C0F8147518BF06F5E076C0F802
:102384000C75C0F80875C0F810751EBF4FF0A04753
:102394004FF0020C47F826C04E1C1FBF4FF0A0465A
:1023A40001F5E071022746F82170511C1FBF4FF060
:1023B400A04102F5E072022641F822605A1C1FBFB8
:1023C40003F5E0734FF0A042022142F82310FFF717
:1023D40011FC2C2303FB0454002384F82A3063608B
:1023E400F8BD00BFD80700208402020000E100E02D
:1023F4002DE9F843224F06794FF02C0909FB0674A6
:1024040080466569002D37D16261A16025624FF471
:102414008E71006884F82850FFF7F0FDD8F80000AA
:10242400012383602146FFF7F1FD6368A1462BBBBE
:10243400D8F80050226A63699A4212D3D8F800305F
:10244400D3F81C21002AFBD00122DA6000202C23BF
:1024540003FB067600237361BDE8F88394F8283003
:1024640043B9D5F81C31002BF8D049462846FFF76C
:10247400CDFDDFE70F20EAE71120EDE72846EBE783
:10248400D80700200023435082B043580193019B96
:1024940002B070471FB501238DF80030044BCDE91D
:1024A4000110D3E900126846904705B05DF804FBBB
:1024B400040800207FB5374AD2F82461002E48D0A2
:1024C40010464FF49271FFF7DDFF02238DF80030C0
:1024D400D2F88034C2F880340393D2F83C350293A6
:1024E4002D4BDA6801920022C3E906226846D3E93B
:1024F40000129047274AD2F844317BB14FF4A271BD
:102504001046FFF7BFFF244B996939B10021C3E995
:102514000611D968D2F83C05FFF7BCFF1D4AD2F872
:102524002031A3B14FF490711046FFF7ABFF1A4B63
:10253400596961B1D2F84C150291002299688DF85D
:10254400002001915A616846D3E90012904704B013
:1025540070BDD2F81031002BCCD04FF488711046E6
:10256400FFF790FF0C4BD2F83C0599698842C1D122
:10257400DC69D96864B1D2F8005225F02005C2F8AC
:1025840000521A699C61DA60DE61FFF783FFB1E7EC
:102594009C61FAE700200040040800202DE9F8437C
:1025A4005A4F06799146242202FB0672044692F899
:1025B40020200D46002A40F0A28055490068FFF70C
:1025C400FDFA8046002840F09D8029682368481C55
:1025D4000BD04FF0A04001228A40C0F8082501F535
:1025E400E0724FF0030C40F822C06868421C1FBF21
:1025F40000F5E0724FF0A04C4FF0000E4CF822E0D2
:10260400AA6995F814C0C3F824256A7DBCF1010FAA
:102614004CEA0202C3F86C25C3F80C15C3F8140580
:102624001DD1AA68511C1FBF02F5E0714FF0A040F4
:102634004FF0000C40F821C0E968481C0BD04FF063
:10264400A04C01208840CCF8080501F5E0704FF05B
:10265400030E4CF820E0C3F80815C3F81025242312
:102664007343FA18C2F804902A69FA50B9F1000FBA
:1026740034D04FF4887120682D7FFFF703FF4FF4A7
:1026840090712068FFF7FEFE4FF492712068FFF707
:10269400F9FE20684FF4A271FFF7F4FE22681D4B87
:1026A400C2F80433120B51B20029A8BF01F16040F3
:1026B4004FEA4513BABF184802F00F0500F5614010
:1026C400DBB2B4BF435580F8003302F01F0201238C
:1026D40003FA02F24909114B43F821202368082226
:1026E400C3F80025242303FB06730022C3E9062252
:1026F4005A61012283F820204046BDE8F8834FF058
:102704000808F9E74FF01108F6E700BF04080020B5
:10271400B92400001003020014ED00E000E100E021
:10272400F8B5047900682D4D0023C0F80035242342
:1027340003FB04535B6873B1294BC0F80833020BE5
:1027440053B201215B0902F01F0201FA02F22033A5
:10275400244941F82320D0F80C65D0F81415D0F89A
:102764000835D0F810254FF0FF37BE42C0F80C757D
:1027740018BF06F5E076C0F81475C0F80875C0F8FF
:1027840010751EBF4FF0A0474FF0020C47F826C04B
:102794004E1C1FBF4FF0A04601F5E071022746F81A
:1027A4002170511C1FBF4FF0A04102F5E0720226B8
:1027B40041F822605A1C1FBF03F5E0734FF0A0429A
:1027C400022142F82310FFF715FA242303FB0454D3
:1027D400002384F820306360F8BD00BF04080020A3
:1027E4001003020000E100E001F06043B3F1005F78
:1027F4002DE9F041074632D11C4B0679242505FB0F
:10280400063598466C6964BB6A61A96000684FF438
:102814009071FFF737FE4FF4AC713868FFF732FE62
:102824003B686A69A968C3F84415C3F848250122BE
:102834009A606A68BAB9D3F82011D3F8582149B913
:10284400002AF8D00F20242303FB0686002373619B
:10285400BDE8F081002A14BF0F200020F3E7102008
:10286400F6E71120F4E72046F2E700BF0408002051
:10287400F0B51D46174C184BE41AE4082404174617
:1028840044F0030487B00E462A4614492046FEF756
:10289400F5F83B78124932462046FEF7F8F801ABCA
:1028A4000293EDB20123002202A90E488DF80460C0
:1028B400CDE903370595FFF7E3FA08B1FEF77CFA93
:1028C40020463B7808493246FEF7E1F8002007B07D
:1028D400F0BD00BFB030000088300000E4370000D5
:1028E400ED370000D83700000238000038B5044640
:1028F40038B1044D45F001054FF47A40A847013C36
:10290400FAD138BD903700002DE9F04F1E461E4C19
:102914001E4BDFF88490DFF884B0E41AE408240442
:1029240044F0030487B015460F4632461849204642
:10293400FEF7A4F805EB06080DF1040AA84508D132
:10294400204632461349FEF799F8002007B0BDE847
:10295400F08F15F8013B8DF805303A46494620467C
:102964008DF80470FEF793F80022022302A958465A
:10297400CDF808A0CDE903320592FFF781FA0028CB
:10298400DCD0FEF719FAD9E7B03000008830000037
:102994001638000026380000F5370000D83700004C
:1029A4001FB50A4B0FCB6C4684E80F00084B00930D
:1029B4004FF00073029300231A4621460548FEF7A0
:1029C40073FF08B1FEF7F8F904B010BD7C370000BE
:1029D4001C1D1E1FD437000070B58AB001238DF86A
:1029E4000230174B0793174B08930646164B09936F
:1029F400002468468DF8014000F0F0F8134A144BA7
:102A04009B1ADB081B0443F00303024698B11846E3
:102A14001049FEF733F82046FEF7CEF96C460FCC8A
:102A240035460FC50FCC0FC594E8030085E80300B5
:102A340030460AB070BD08491846FEF71BF8EDE7AA
:102A4400752800000D290000F128000088300000DE
:102A5400B0300000AB370000C437000010B50120CF
:102A64008AB0FEF78AF94FF400410020FDF742FED8
:102A740008B1FEF7A1F9FDF777FDFFF791FF0A48CA
:102A84000A4B0B49C01AC008000440F00300FDF7CC
:102A9400F1FFFDF789FE04460028FAD16846FFF7E6
:102AA4009BFF20460AB010BDB03000008830000003
:102AB4009637000048B1C3693BB1036A2BB1406A41
:102AC400B0FA80F04009404270474FF0FF30704741
:102AD40038B51C4683B1DD6975B19B78012B08BFFD
:102AE40040F0800013460A4601466078A847002853
:102AF40018BF6FF0010038BD4FF0FF30FBE72DE940
:102B0400F8430746894690461C46002B31D01D6A7F
:102B14007DB39B78012B237A08BF00F07F07112B2C
:102B240002D0237C152B21D143464A46394660788E
:102B3400A847636A054601209847002D18BF6FF027
:102B440001052846BDE8F883256A607801234A44D4
:102B5400A847636A0546012098473346DAB2B91894
:102B64004245C9B203F10106EED3E6E700231D4650
:102B7400F4E74FF0FF35E4E737B5B6238DF80730B7
:102B8400044618B3436A0BB3034601220DF107014F
:102B94007E20FFF7B4FF636A05460120984745B9D4
:102BA400A278012A08D00B4A0B4B6260C4E90223C5
:102BB4002361284603B030BD23460DF107017F2071
:102BC400FFF786FF0028EED00546F2E74FF0FF3509
:102BD400EFE700BF100803021408000273B50546AE
:102BE400FFF768FF0446C8B9AA78012A0DD000236C
:102BF4002B700426013E16F0FF061AD02B78D12B39
:102C04000FD1DCB16FF0020408E02B460DF107018F
:102C14007F20FFF75DFF0028E9D00446204602B07C
:102C240070BD2B46012229460020FFF751FF0446C0
:102C3400E0E7002CE6D12B78D12BE3D1FF23EB7016
:102C44002846FFF799FFE8E70C4B1B78062B10D1B9
:102C54000B4B1B681A070CD10A4B186800F0F003E1
:102C6400302B08D000F0E000A0F140035842584156
:102C74007047002070470120704700BFE00F00F04C
:102C8400E40F00F0E80F00F0094B1B78062B0CD181
:102C9400084B1B681A0708D1074B186800F0F000AE
:102CA400A0F130035842584170470020704700BFDC
:102CB400E00F00F0E40F00F0E80F00F008B5FFF7B4
:102CC400C3FF28B17D4B7E4A1B68C3F30423136002
:102CD400FFF7DAFF10B17B4B7B4A1A60FFF7B4FFB2
:102CE40028B17A4B7A4A1B68C3F342331360FFF767
:102CF400CBFF20B1774AD36823F08073D360FFF70A
:102D0400A3FF40B14FF080430022C3F80C21C3F865
:102D14001021C3F83825FFF7B7FF10B16E4B03221B
:102D24001A60FFF7B1FF40B16C4B05221A60012213
:102D34009A6700229A603F225A60694B1B78062BDF
:102D440050D1684B1B6819074CD1674B1B6803F0C3
:102D5400F003502B46D14FF08052644BD2F8041448
:102D6400C3F82015D2F80814C3F82415D2F80C14AB
:102D7400C3F82815D2F81014C3F82C15D2F814147B
:102D8400C3F83015D2F81814C3F83415D2F81C144B
:102D9400C3F84015D2F82014C3F84415D2F824140B
:102DA400C3F84815D2F82814C3F84C15D2F82C14DB
:102DB400C3F85015D2F83014C3F85415D2F83414AB
:102DC400C3F86015D2F83814C3F86415D2F83C146B
:102DD400C3F86815D2F84014C3F86C15D2F844242B
:102DE400C3F87025FFF730FF28B1414B414A1B68F7
:102DF40003F04F031360FFF727FF48B14FF0804300
:102E0400D3F80024D20744BF6FF00102C3F80024B2
:102E1400394B1B68062B08D1384B1B68062B01BFA6
:102E2400374A136843F480631360364AD2F8883013
:102E340043F47003C2F88830BFF34F8FBFF36F8F32
:102E44004FF01023D3F80022002A03DBD3F8043216
:102E5400002B2FDA2C4B0122C3F80425D3F80024CD
:102E6400002AFBD04FF010221521C2F80012D3F82B
:102E74000024002AFBD04FF010231522C3F80422AB
:102E8400214B1A46D3F800140029FBD00021C3F8C3
:102E94000415D2F80034002BFBD0BFF34F8F19492F
:102EA4001A4BCA6802F4E0621343CB60BFF34F8F3E
:102EB40000BFFDE7164B174A1A6008BD2403001033
:102EC4004035014074C007400DF0ADBA4402001013
:102ED4003C050040F0ED00E0A00500401056004025
:102EE400E00F00F0E40F00F0E80F00F000C0004035
:102EF40058020010E40E00403001001034010010AC
:102F04003C17004000ED00E000E001400400FA0539
:102F14001C0000200090D0037F2805D8034B185CC8
:102F2400034B5B5C18407047002070473838000042
:102F3400B8380000A0F16103192B98BF20387047FE
:102F4400A0F14103192B98BF203070477F2805D882
:102F5400034B185C034B5B5C1840704700207047C0
:102F640038380000B8380000A0F16103192B98BF6D
:102F740020387047A0F14103192B98BF20307047C7
:102F84007F299ABF017001206FF02E0070475AB15B
:102F94000A787F2A0AD800B10260002119605960BA
:102FA400501A18BF01207047002070476FF02E00A0
:102FB4007047000008B5034B5B689B681B68984723
:102FC40008BD00BF2000002008B50921FFF7F2FF6B
:102FD40008BD844640EA010313F0030F18D1844668
:102FE400202A0BD32DE9F007B1E8F807A0E8F80789
:102FF400A2F12002202AF7D2BDE8F007042A07D361
:1030040051F8043B40F8043BA2F10402042AF7D22D
:10301400002A05D011F8013B00F8013B013AF9D12F
:103024006046704700F1010110F0030F11D010F851
:10303400012B002A23D010F0030F0AD010F8012B23
:10304400002A1CD010F0030F03D010F8012B002A23
:1030540015D02DE970004FF001324FF0803350F855
:10306400044BA4EB020525EA04051D4000D1F6E754
:10307400A0F1040070BC10F8012B002AFBD1A0EBD6
:043084000100704790
:1030880018370000000000001F3700000000000093
:1030980069370000000003036E37000000000000DD
:1030A80073370000000000003931000000000303FE
:1030B800FC3000000000000008310000140000206F
:1030C80078000020400100204801002080000020F6
:0430D80018000000DC
:1030DC00FFFFFFFFFFFFFFFFFFFFFFFFFFFFFFFFF4
:1030EC0000000000000000000000D60106010000F6
:1030FC00990400003D050000950400007561727490
:10310C005F6C6F675F6261636B656E6400000000EB
:10311C006C0500207F000000EC0500204261636B11
:10312C00656E647320666C7573686564006170709D
:10313C000000000073310000BC3100007B31000046
:10314C00C4310000CC310000D4310000DC3100006F
:10315C00E4310000EC3100002025303278002020D2
:10316C0020007C002563001B5B306D002573001B69
:10317C005B313B33316D0025734C6F677320647288
:10318C006F70706564202825642925730D0A003C36
:10319C0025733E2025733A2000000000000000003B
:1031AC0011320000F4310000FC310000013200004B
:1031BC001B5B313B33306D001B5B313B33326D009D
:1031CC001B5B313B33336D001B5B313B33346D0088
:1031DC001B5B313B33356D001B5B313B33366D0074
:1031EC001B5B313B33376D007761726E696E670024
:1031FC00696E666F00646562756700111213144680
:10320C006174616C206572726F72005379737465AE
:10321C006D207265736574000000000000000000F2
:10322C00000000000338FDD870473031323334359C
:10323C0036373839414243444546556E6B6E6F778D
:10324C006E206572726F7220636F646500000000FF
:10325C000000000074330000010000008033000007
:10326C00020000009E33000003000000BF3300008A
:10327C0004000000D233000005000000E33300001E
:10328C0006000000F7330000070000000F340000B8
:10329C000800000027340000090000003F34000043
:1032AC000A000000583400000B00000070340000CD
:1032BC000C000000873400000D0000009B3400005F
:1032CC000E000000AD3400000F000000BC34000004
:1032DC0010000000D034000011000000E7340000A2
:1032EC0080000000F634000081000000173500005B
:1032FC008200000033350000830000004F350000D1
:10330C00840000006D350000850000008E35000043
:10331C0086000000B335000090000000CA350000A4
:10332C0091000000E8350000920000000636000015
:10333C00008200001B3600000182000039360000BC
:10334C000282000055360000008400007136000037
:10335C00018400009536000002840000BF36000096
:10336C0003840000E43600004E52465F535543433D
:10337C00455353004E52465F4552524F525F53567F
:10338C00435F48414E444C45525F4D495353494E5F
:10339C0047004E52465F4552524F525F534F465470
:1033AC004445564943455F4E4F545F454E41424C50
:1033BC004544004E52465F4552524F525F494E545F
:1033CC0045524E414C004E52465F4552524F525F51
:1033DC004E4F5F4D454D004E52465F4552524F5237
:1033EC005F4E4F545F464F554E44004E52465F451C
:1033FC0052524F525F4E4F545F535550504F525490
:10340C004544004E52465F4552524F525F494E560C
:10341C00414C49445F504152414D004E52465F452C
:10342C0052524F525F494E56414C49445F5354419E
:10343C005445004E52465F4552524F525F494E56CC
:10344C00414C49445F4C454E475448004E52465FF0
:10345C004552524F525F494E56414C49445F464C7F
:10346C00414753004E52465F4552524F525F494EB0
:10347C0056414C49445F44415441004E52465F45CD
:10348C0052524F525F444154415F53495A45004E8A
:10349C0052465F4552524F525F54494D454F555419
:1034AC00004E52465F4552524F525F4E554C4C00A7
:1034BC004E52465F4552524F525F464F524249441C
:1034CC0044454E004E52465F4552524F525F494E54
:1034DC0056414C49445F41444452004E52465F456C
:1034EC0052524F525F42555359004E52465F45520D
:1034FC00524F525F4D4F44554C455F4E4F545F49B0
:10350C004E495449414C495A4544004E52465F4538
:10351C0052524F525F4D555445585F494E49545F76
:10352C004641494C4544004E52465F4552524F521B
:10353C005F4D555445585F4C4F434B5F4641494C8A
:10354C004544004E52465F4552524F525F4D5554C2
:10355C0045585F554E4C4F434B5F4641494C454493
:10356C00004E52465F4552524F525F4D555445588E
:10357C005F434F4E445F494E49545F4641494C4569
:10358C0044004E52465F4552524F525F4D4F445588
:10359C004C455F414C52454144595F494E49544951
:1035AC00414C495A4544004E52465F4552524F5287
:1035BC005F53544F524147455F46554C4C004E5259
:1035CC00465F4552524F525F4150495F4E4F545FD8
:1035DC00494D504C454D454E544544004E52465F66
:1035EC004552524F525F464541545552455F4E4FDE
:1035FC00545F454E41424C4544004E52465F455245
:10360C00524F525F494F5F50454E44494E47004E12
:10361C0052465F4552524F525F4452565F5457497F
:10362C005F4552525F4F56455252554E004E5246D0
:10363C005F4552524F525F4452565F5457495F4553
:10364C0052525F414E41434B004E52465F455252DF
:10365C004F525F4452565F5457495F4552525F4434
:10366C004E41434B004E52465F4552524F525F42C1
:10367C004C455F495053505F52585F504B545F5408
:10368C0052554E4341544544004E52465F455252AA
:10369C004F525F424C455F495053505F4348414E37
:1036AC004E454C5F414C52454144595F4558495336
:1036BC005453004E52465F4552524F525F424C4556
:1036CC005F495053505F4C494E4B5F444953434FF5
:1036DC004E4E4543544544004E52465F4552524F60
:1036EC00525F424C455F495053505F504545525FC5
:1036FC0052454A454354454400000000FFFFFFFF7C
:10370C000006FF0000000040000000004750494F39
:10371C00544500505253006E7266785F7370696D39
:10372C005F696E6974007370696D5F7866657200AD
:10373C006E7266785F7370696D5F7866657200464D
:10374C00756E6374696F6E3A2025732C20657272E6
:10375C006F7220636F64653A2025732E00535049B5
:10376C004D00554152540055415254450000000043
:10377C00FFFFFFFF06FF00000000004000000000FC
:10378C00000000000338FDD870475350492065787D
:10379C00616D706C6520737461727465642E007356
:1037AC00656E736F725F696E6974206E6F74206FD3
:1037BC006B3A20256868640073656E736F725F697D
:1037CC006E6974206F6B0000000000000030004038
:1037DC00000000000100000072656164202568751E
:1037EC00006265666F72653A2025686864206973AB
:1037FC0020256868640061667465723A20256868E3
:10380C006420697320256868640077726974652088
:10381C002568752073746172740077726974652001
:10382C002568752073746F70000000002020202024
:10383C002020202020682828282820202020202014
:10384C002020202020202020202020204810101074
:10385C00101010101010101010101010848484848C
:10386C008484848484841010101010101081818141
:10387C0081818101010101010101010101010101AC
:10388C00010101010101011010101010108282823F
:10389C00828282020202020202020202020202027C
:1038AC000202020202020210101010200007032074
:1038BC000417020108571040800000006C3A000009
:1038CC0030390000443A000053756E004D6F6E00A5
:1038DC00547565005765640054687500467269003C
:1038EC0053617400000000004A616E00466562007E
:1038FC004D617200417072004D6179004A756E0025
:10390C004A756C0041756700536570004F63740015
:10391C004E6F76004465630000000000414D00507E
:10392C004D000000683A0000643A0000643A000060
:10393C00643A0000643A0000643A0000643A000003
:10394C00643A0000643A0000643A0000FFFFFFFF95
:10395C00FFFFFFFFFFFFFFFFFFFF0000A439000088
:10396C00D4380000E0390000F43800002839000099
:10397C0088390000383A000094390000256D2F2555
:10398C00642F257900000000256120256220256523
:10399C00202554202559000053756E646179004D23
:1039AC006F6E646179005475657364617900576555
:1039BC00646E6573646179005468757273646179BF
:1039CC00004672696461790053617475726461793F
:1039DC00000000004A616E75617279004665627282
:1039EC0075617279004D6172636800417072696C27
:1039FC00004D6179004A756E65004A756C7900411D
:103A0C0075677573740053657074656D62657200CB
:103A1C004F63746F626572004E6F76656D6265728E
:103A2C0000446563656D62657200000025483A25A7
:103A3C004D3A2553000000001D2F0000392F0000C7
:103A4C00452F0000512F00006D2F0000792F000032
:103A5C00852F0000932F0000000000002E000000B6
:0C3A6C0043000000504F53495800000078
:103A7800000000000020004000000000002000407E
:103A88000000000000000000FF0000000090D003CC
:103A9800C8380000C8380000C8380000C83800001E
:043AA800C83800001A
:040000030000037581
:00000001FF
