:100000000000012079030000610300006303000089
:1000100065030000670300006903000000000000A2
:100020000000000000000000000000006B03000062
:100030006D030000000000006F030000710300006A
:100040007303000073030000052E00003D3B000019
:10005000553B0000730300007303000073030000AE
:1000600073030000730300007303000073030000B8
:1000700073030000730300007303000073030000A8
:100080007303000073030000730300007303000098
:100090007303000073030000730300007303000088
:1000A0007303000073030000730300007303000078
:1000B0007303000073030000000000000000000054
:1000C0007303000073030000730300007303000058
:1000D00073030000730300007303000000000000BE
:1000E0000000000000000000000000000000000010
:1000F0000000000000000000000000000000000000
:1001000000000000000000000000000000000000EF
:1001100000000000000000000000000000000000DF
:1001200000000000000000000000000000000000CF
:1001300000000000000000000000000000000000BF
:1001400000000000000000000000000000000000AF
:10015000000000000000000000000000000000009F
:10016000000000000000000000000000000000008F
:10017000000000000000000000000000000000007F
:10018000000000000000000000000000000000006F
:10019000000000000000000000000000000000005F
:1001A000000000000000000000000000000000004F
:1001B000000000000000000000000000000000003F
:1001C000000000000000000000000000000000002F
:1001D000000000000000000000000000000000001F
:1001E000000000000000000000000000000000000F
:1001F00000000000000000000000000000000000FF
:10020000364937480A1A02D0072291438D463549AC
:1002100035480A1A06D00722914381F30988022241
:1002200082F3148831483249324A00F045F83248A6
:100230003249334A00F040F832483349334A00F03B
:100240003BF833483349344A00F036F833483449F0
:10025000344A00F031F834483449354A00F02CF87B
:1002600034483549354A00F027F8354835490022E9
:1002700000F02DF834483549002200F028F83448C1
:100280003449091A082903DB0022026004300160A6
:10029000314A90471F482049884205D002680430FF
:1002A00003B4904703BCF7E700208646EC460020E5
:1002B00000212A4A9047FEE7884207D0521A05D00B
:1002C000037801300B700131013AF9D1704788424F
:1002D00002D002700130FAE77047000000000120F0
:1002E00000E000200000012000000120D083000079
:1002F0000000002074000020D8030000D803000094
:1003000024750000D08300000000002000000020C1
:100310008075000080750000807500008075000009
:1003200080750000807500008075000080750000F9
:10033000D08300004484000074000020740000207A
:1003400074000020100A0020100A0020100A00206B
:10035000100A0020102A0020A1030000D557000039
:10036000FEE7FEE7FEE7FEE7FEE7FEE7FEE7FEE765
:10037000FEE7FEE7704700BF1048804710484FF087
:100380000701884385460F4880470F48016841F4BC
:1003900070010160BFF34F8FBFF36F8FFFF730BF66
:1003A0000A480B490B4A884207D0521A05D00378F5
:1003B00001300B700131013AF9D17047750300002B
:1003C00000000120AD6D000088ED00E080750000A8
:0803D0000000002000000020E5
:1003D80000B585B00190019B002B0AD0074B43F074
:1003E80001030393019B9B010293039B0298984787
:1003F80000E000BF05B05DF804FB00BF9075000089
:1004080000B583B00190019B002B0AD04FF47A709D
:10041800FFF7DEFF019B013B0193019B002BF5D108
:1004280000E000BF03B05DF804FB08B506F098FCD7
:1004380000BF08BD00B589B0039002910192019BED
:10044800002B33D00023079303230693029A079BBC
:100458001344019A1946002006F034FC0590079AC7
:10046800059B13440793019A059BD31A0193059B97
:10047800002B13D10F4B1B7883F00103DBB2002B49
:1004880013D10120FFF7BCFF069B013B0693069B97
:10049800002B03D1074B00221A7007E0054B0122FD
:1004A8001A70019B002BD1D100E000BF00BF09B03A
:1004B8005DF804FB7400002000B585B0039002913C
:1004C800054B00934023054A0299039800F012F85F
:1004D80000BF05B05DF804FB3D0400007800002073
:1004E80082B0019000BF02B0704782B0019000BF97
:1004F80002B0704700B5A1B0059004910392029331
:10050800049802F00EF9039B1593029B169300239F
:10051800179300238DF8603000231993229B1A93B8
:1005280000231F930FA91F9B0822049802F0D2F9F9
:1005380008231F93119B1293BDF84030ADF84C303F
:10054800BDF84230ADF84E3000238DF851309DF89B
:100558003C3003F00303DBB2012B26D10F9BC3F31E
:1005680095231C939DF83C30C3F3C203DBB28DF88E
:100578005030BDF83C30C3F38313DBB21B931B9B95
:100588009A0009A91F9B049802F0A4F91B9B9B00E1
:100598001F9A13441F9312AA09A915AB0093134677
:1005A8001B9A1C9801F002F82FE09DF83C3003F0EC
:1005B8000303DBB2022B28D1BDF83E30C3F3891305
:1005C8009BB21E939DF83C30C3F3C203DBB28DF897
:1005D80050301E9B082B28BF08231D9307A91F9B7B
:1005E8001D9A049802F076F91F9A1D9B13441F93D5
:1005F8001E9A1D9BD31A1E9315AB12AA07A81D9904
:1006080001F076F81E9B002BE3D1049802F098F8CD
:1006180000BF21B05DF804FB00B583B00190019BD9
:100628001B781A460C4B9B5C002B05D0019B0433AE
:10063800184604F057FC0BE0019B1B781A46064B42
:100648009B5C002B04D1019B0C33184603F026FE5B
:1006580000BF03B05DF804FBC406002000B587B0F6
:100668000390029113468DF8073000230593039BEE
:100678001B781A46114B9B5C002B09D0039B043353
:100688009DF807200299184604F05AFC05900FE0DF
:10069800039B1B781A46094B9B5C002B08D1039BD4
:1006A8000C339DF807200299184603F06DFE05905B
:1006B800059B184607B05DF804FB00BFC406002080
:1006C80082B001900091034B01221A7000BF02B062
:1006D800704700BFF800002030B58DB003468DF894
:1006E80007301A4B02AC1D460FCD0FC495E80F001A
:1006F80084E80F00062302934FF0FF3303934FF073
:10070800FF3304934FF0FF3305934FF0EB730893D7
:100718009DF80730002B01D00D4A00E0002202AB03
:1007280019460C4802F00AFB0B900B9B0A930A9B94
:10073800002B04D0084A43210A9801F09BF8074A85
:100748009DF80730137000BF0DB030BDDC75000098
:10075800C90600000000002098750000F90000207C
:1007680000B583B001238DF807309DF8073018468F
:10077800FFF7B2FF00BF03B05DF804FB00B589B016
:10078800039002910192019B8DF81F30124B0022B9
:100798001A709DF81F301A4602991048FFF75EFF3D
:1007A8000690069B0593059B002B04D00C4A532109
:1007B800059801F05FF800BF0A4B1B78002B07D0A3
:1007C800054B1B78DBB283F00103DBB2002BF3D1BE
:1007D80000BF09B05DF804FBF8000020000000200D
:1007E80098750000F900002000B585B003900291CB
:1007F800054B00934023054A02990398FFF77AFEB8
:1008080000BF05B05DF804FB85070000B8000020B4
:1008180082B0019000BF02B07047000000B583B0FD
:1008280001900548FFF7F8FE0020FFF755FF00BFCD
:1008380003B05DF804FB00BF0000002082B0019007
:10084800019BDB6801225A7100BF02B070470000AB
:1008580000B583B04FF0FF330193FFF7E6FD0421A5
:10086800114800F0BFFD0190019B002B03DA0F49EE
:10087800412001F0ECF80C48FFF7E0FFFFF770FFAC
:1008880004210B4800F0AEFD0190019B002B03DA18
:100898000649482001F0DBF80548FFF7CFFF00BF05
:1008A80003B05DF804FB00BF4C7500002C76000017
:1008B8005C75000000B583B001900091019B1B6836
:1008C8001B6800990198984700BF03B05DF804FBC6
:1008D80000B583B00190019B1B685B68019898473D
:1008E80000BF03B05DF804FB00B583B00190019B25
:1008F8001B689B680198984700BF03B05DF804FB2C
:1009080082B001900B468DF80330019BDB689DF89F
:1009180003201A7100BF02B0704782B00190019B9A
:10092800DB681B79184602B0704782B00190019BC2
:10093800DB6801225A7100BF02B0704782B0019093
:10094800019BDB685B79184602B0704700B585B03B
:1009580001900091154BFF229A60144B00221A60F7
:10096800124B00225A60114B0022C3F818240F4B77
:100978000022C3F814240D4B002283F820240C48CD
:1009880001F034FE0390039B002B01D0039B08E089
:10099800084801F0BFFF084A084BD31ADB08029346
:1009A8000023184605B05DF804FB00BF6402002070
:1009B8006C750000747600004C750000247500000A
:1009C800024A034BD31ADB08184670474C750000DF
:1009D8002475000000B587B001900B468DF80330F0
:1009E8009DF80330002B1FD0FFF7EAFF0490002387
:1009F800059313E0059B9B000E4A13440393039B46
:100A08001B881A46019B1B689A4204D1019B059AD0
:100A18001A60002309E0059B01330593059A049B9E
:100A28009A42E7D3052300E00023184607B05DF893
:100A380004FB00BF0000002000B585B001900B4604
:100A48008DF803309DF8032001AB11461846FFF7D7
:100A5800C1FF0346002B07D1019BDB00054A134465
:100A68000393039B1B6800E00023184605B05DF85C
:100A780004FB00BF2475000084B001900B468DF87C
:100A88000330019BDB00174A134402939DF803309F
:100A9800013B032B1CD801A252F823F0B50A000031
:100AA800BD0A0000C50A0000CF0A000002238DF825
:100AB8000F3011E004238DF80F300DE0029B1B79F5
:100AC8008DF80F3008E0029B5B798DF80F3003E05A
:100AD80000238DF80F3000BF9DF80F30184604B082
:100AE800704700BF2475000084B001900091002376
:100AF8008DF80F30019B1B7803F00403DBB2002B49
:100B080024D0019B1B78C3F30103DBB2012B02D075
:100B1800022B0CD017E0009B1B68019A1288C2F3C5
:100B28008312D2B213449A1C009B1A600BE0009BFC
:100B38001B68019A5288C2F3891292B213449A1C14
:100B4800009B1A6000BF01238DF80F309DF80F300D
:100B5800184604B07047000000B58BB00023ADF80C
:100B680026303E4801F001F83D4800F0FEFF3D4BBD
:100B78005B6804933B4B9B680693049A069B13405F
:100B880002339B00374A13440433089304AB1946D5
:100B98000898FFF7A9FF0346002B09D0049A069B83
:100BA800134002339B002F4A134404330893EDE7A4
:100BB80000BF0023079311E0049B5A1C0492069A75
:100BC8001340079A920001A90A44264902339B0060
:100BD8000B445B681360079B01330793079B012B4A
:100BE800EAD99DF80430C3F30103DBB2012B10D01E
:100BF800022B1CD1BDF80A30ADF82630BDF80630FE
:100C0800C3F389139BB203339A08049B13440493D8
:100C180013E0BDF80A30ADF82630BDF80430C3F350
:100C28008313DBB21A46049B1344049305E00E4970
:100C38004FF4BF7000F00BFF00BF094800F0A1FFA0
:100C48000590059B002B02D0049B064A5360BDF813
:100C5800263018460BB05DF804FB00BF7C06002068
:100C680078060020640200208476000000B585B074
:100C78000021074800F002FF0390039B0293029BA8
:100C880083F310030193019B184605B05DF804FB3C
:100C98008006002000B589B003900291019200936C
:100CA800039B1B0C0793FFF7E1FF0690FFF788FEF5
:100CB8000246079B934204D3214940F2A31000F057
:100CC800C6FE069B1904009B5A1C0A9B1340079AF0
:100CD8000A431C4902339B000B445A60009A0A9B42
:100CE800134002339B00174A134404330593039BB4
:100CF80003F00703D9B2059A137861F3C50313709B
:100D0800019B03F00F03D9B2059A138861F3891385
:100D18001380029BC3F31501059A136861F39F239F
:100D28001360059A1378012161F301031370059A82
:100D380013786FF38203137000BF09B05DF804FBEA
:100D4800847600006402002000B58BB00390029105
:100D580013468DF80730039B0233089301238DF85F
:100D68001F30002000F02CFE3E4B1A68029B1A60D0
:100D78003C4B9A683B4B59683A4B1B68CB1A134457
:100D88000133099314E00121374800F0BEFEFFF754
:100D9800E3FE05900599344800F0B7FE314B9A6898
:100DA800304B59682F4B1B68CB1A134401330993F6
:100DB800089A099B9A42E6D89DF81F30002B48D024
:100DC800002304939DF80730002B17D09DF81030AE
:100DD800012262F301038DF810309DF8103043F0C2
:100DE80004038DF81030039B03F00F03DAB2BDF84B
:100DF800103062F38913ADF8103016E09DF810300A
:100E0800022262F301038DF810309DF8103043F090
:100E180004038DF81030039BC3F309039AB2BDF89D
:100E2800123062F38F13ADF812300E4B1A680D4B67
:100E38009B68134002339B000A4A13440433069309
:100E4800049A069B1A60074B1A68089B1344054AC4
:100E58001360002000F0C8FD9DF81F3018460BB045
:100E68005DF804FB640200208006002000B58BB00A
:100E780005900491039202931F4B9B68079306AB5E
:100E8800012219460298FFF75FFF0346002B24D082
:100E9800069B023309930023089311E0089B9B00EB
:100EA800039A1A44099B591C099107990B40126827
:100EB800114902339B000B445A60089B0133089385
:100EC800089A029B9A42E9D3069A079B0093134615
:100ED800029A04990598FFF7DDFE074B93F8203432
:100EE800002B05D000BF00F07DF80346002BFAD197
:100EF80000BF0BB05DF804FB6402002000B583B0AE
:100F0800019000910023002200990198FFF7AEFF9D
:100F180000BF03B05DF804FB00B587B003900291F1
:100F28000192019B059305AA012302990398FFF7F3
:100F38009DFF00BF07B05DF804FB00B587B00390C4
:100F4800029101920093019B0493009B059304AACC
:100F5800022302990398FFF789FF00BF07B05DF8E5
:100F680004FB00B589B00390029101920093019BA4
:100F78000493009B05930A9B06930B9B079304AA73
:100F8800042302990398FFF771FF00BF09B05DF8C9
:100F980004FB00B58BB00390029101920093019B72
:100FA8000593009B06930C9B07930D9B08930E9B40
:100FB800099305AA052302990398FFF757FF00BF75
:100FC8000BB05DF804FB0000054B5A68044B1B6826
:100FD8009A420CBF01230023DBB21846704700BFBA
:100FE8006402002000B599B0FFF7EEFF0346002B1E
:100FF80001D00023B5E19A4B0022C3F81824BFF3AF
:101008004F8F974B5B680493954B9B681093049A9A
:10101800109B134002339B00914A134404331193ED
:10102800002317930023169300230F9304AB19464C
:101038001198FFF759FD0346002B19D0884BD3F8B8
:101048001834002B14D1864B1A68049B9A4205D891
:10105800834B1B68824A5360002382E1049A109BE9
:10106800134002339B007E4A134404331193DDE797
:101078000023159311E0049B5A1C0492109A134004
:10108800159A920001A90A44754902339B000B4442
:101098005B681360159B01331593159B012BEAD9E7
:1010A8009DF8043003F00303DBB2022B40F09C8070
:1010B800BDF80630C3F389139BB20D93BDF8063013
:1010C800C3F389139BB2502B28BF50239BB20C93B8
:1010D8000C9BC3F309039AB2BDF8063062F38F1371
:1010E800ADF806300C9B08330B939DF80430C3F31E
:1010F800C203DBB20F930B995A4801F082FA17909A
:10110800179B002B00F0D080179801F00AFB01A96B
:10111800169B0822179801F0BFFB169B08331693FD
:10112800049BDA43109B134001339B000A930C9AEB
:101138000A9B9A4242D90A9B002B08D0049A109B1A
:10114800134002339B00464A1344043300E0464BE5
:1011580008930A9B002B02D00A9BDBB201E00C9B90
:10116800DBB28DF81F300A9B002B01D03E4B00E00C
:10117800002306930A9B002B06D00C9BDAB20A9B2D
:10118800DBB2D31ADBB200E000238DF817309DF8EC
:101198001F20169B0899179801F07EFB9DF81F30B9
:1011A800169A13441693069B002B16D09DF8172009
:1011B800169B0699179801F06FFB0EE0049A109B96
:1011C800134002339B00264A134404330993169BA9
:1011D8000C9A0999179801F05FFB0D9B03339A0845
:1011E800049B134404935FE09DF8043003F0030369
:1011F800DBB2012B58D1BDF80430C3F38313DBB243
:10120800062B28BF0623DAB2BDF8043062F389132F
:10121800ADF80430BDF80430C3F38313DBB20233F6
:101228000E939DF80430C3F3C203DBB20F930E9BF9
:101238009B0019460B4801F0E4F91790179B002B07
:1012480032D0179801F06DFA01A9169B0822179859
:1012580001F022FB169B08331693002315931AE01E
:10126800640200206C75000070020020049B5A1C68
:101278000492109A134002339B003C4A1344191DF0
:10128800169B0422179801F007FB169B043316934C
:10129800159B01331593BDF80430C3F38313DBB2F8
:1012A8001A46159B9342E1D3179B002B39D02F4B3D
:1012B800D3F8103414932D4BD3F81834002B1BD0CB
:1012C800179801F03DFA46E000238DF84F30149846
:1012D800FFF734FB0346002B02D001238DF84F3073
:1012E8009DF84F30002B03D017991498FFF7E2FAB6
:1012F800149BDB681B681493149B002BE4D117988C
:1013080001F01EFA002000F05BFB184BD3F81834EC
:10131800002B02D1049B154A5360002000F064FBA7
:1013280019E0124BD3F81034129306E01298FFF725
:10133800DBFA129BDB681B681293129B002BF5D11A
:101348000B4A0C4BD31ADB081B0443F002030A496F
:101358001846FFF7D3FDFFF737FE034683F0010376
:10136800DBB2184619B05DF804FB00BF6402002028
:101378004475000024750000C476000000B585B0EF
:101388000023039323E0164BD3F810340293012370
:101398008DF807300FE00298FFF7BFFA03461A46A8
:1013A800039B934203D100238DF8073006E0029B8C
:1013B800DB681B680293029B002BECD19DF8073079
:1013C800002B01D0039B07E0039B01330393039B8E
:1013D800092BD8DD4FF0FF33184605B05DF804FB44
:1013E8006402002000B585B001900B468DF80330EB
:1013F800FFF7C4FF0390039BB3F1FF3F01D1039BA9
:1014080022E0039BDBB219460198FFF779FA104BEB
:10141800D3F81034002B08D10D4A019BC2F81034C0
:10142800019BDB6800221A600DE0094BD3F81034E9
:10143800DA68019BDB6812681A60054BD3F8103430
:10144800DB68019A1A60039B184605B05DF804FB37
:101458006402002000B583B00C4BD3F8103401931C
:101468000A4B012283F8202409E00198FFF75DFA6E
:101478000198FFF72DFA019BDB681B680193019B1C
:10148800002BF2D100BF03B05DF804FB640200201A
:1014980082B00190009100BF02B0704710B584B0CF
:1014A80003900291039BDB88002B0AD0039BDB8807
:1014B8001A461F4B009313461E4A1F49029800F014
:1014C8008FFC039B1B7A052B2ED0039B5B7A002B8A
:1014D80012D0039B9B881A46039B1B7A1946104619
:1014E800FFF7CAFA03461A46144B53F822301A4635
:1014F8001349029800F074FC039B1B681946029874
:10150800FFF7C6FF039B1B7A1A460E4B53F822407F
:10151800039B9B8800211846FFF78EFA0346224654
:101528000949029800F05CFC00BF04B010BD00BF80
:10153800F8760000087700004077000038000020A7
:1015480058770000240000205C77000000B585B0C3
:101558000390029113468DF80730039B1B7A052BE5
:101568000FD0039B5B7A002B06D00D4B1B681A46E5
:101578000C49029800F034FC0B49029800F030FC4A
:1015880007E09DF80730002B03D00749029800F0C8
:1015980027FC029800F002FC00BF05B05DF804FBD0
:1015A80038000020587700006877000030B58BB00D
:1015B80007900691059204930E9B1B7B8DF82730AC
:1015C8000E9B00221A730E990498FFF767FF059B7C
:1015D800062B7FD801A252F823F000BF01160000A5
:1015E8000B1600001B1600002F1600004D160000F9
:1015F80075160000A516000007990E9800F0F0FB7C
:1016080069E0069B1B681A4607990E9800F0E8FBEC
:1016180061E0069B1A68069B04331B6807990E98BD
:1016280000F0DEFB57E0069B1A68069B0433196836
:10163800069B08331B6800930B4607990E9800F029
:10164800CFFB48E0069B1968069B04331868069B85
:1016580008331B68069A0C321268019200930346FD
:101668000A4607990E9800F0BBFB34E0069B186801
:10167800069B04331C68069B08331B68069A0C32C9
:101688001268069910310968029101920093234665
:10169800024607990E9800F0A3FB1CE0069B1C6805
:1016A800069B04331D68069B08331B68069A0C3298
:1016B800126806991031096806981430006803907A
:1016C8000291019200932B46224607990E9800F04A
:1016D80087FB00E000BF00220E990498FFF736FF51
:1016E8000E9B9DF827201A7300BF0BB030BD00BFBA
:1016F80000B587B00390029101920093029B082BDA
:1017080060D8009B1B7B8DF81330009B00221A7356
:1017180000990198FFF7C2FE0023059314E0059A8B
:10172800029B9A4209D2039A059B13441B781A46D6
:101738002649009800F054FB03E02549009800F082
:101748004FFB059B01330593059B072BE7D92149DF
:10175800009800F045FB0023059326E0059A029BBC
:101768009A421BD2039A059B13441B788DF81230BA
:101778009DF812307E2B0AD89DF81230184605F0D5
:101788004DFE0346002B02D09DF8123000E02E23B8
:101798001A461149009800F023FB03E00F4900980E
:1017A80000F01EFB059B01330593059B072BD5D93C
:1017B800012200990198FFF7C9FE009B9DF81320AC
:1017C8001A7300E000BF07B05DF804FB6C770000F7
:1017D80074770000787700007C770000807700003D
:1017E80086B003900291019201238DF817309DF87D
:1017F80017301F4A039B13601D4A029B53601C4A03
:10180800019B9360039B44F20102934212D044F27D
:101818000202934221D1019B154AD360144BDB6825
:101828001B881A46124B9A61114BDB685B68104A99
:10183800D36112E0019B0E4A13610D4B1B699B6833
:101848000B4A53610A4B1B691B68094A9361084B91
:101858001B695B68064AD36100BF72B600BF9DF87A
:101868001730DBB2002BFAD162B600BF06B0704762
:101878008806002000B583B002900091019244F2DE
:10188800010071466A4600F003F803B000BD00BFCE
:1018980030B58BB007900691059272B6FFF7DAFD66
:1018A80000BFFFF79FFB0346002BFAD1079B44F2CA
:1018B8000102934215D044F2020293423ED1059BA5
:1018C80009932C4A2C4BD31ADB081B0443F0010064
:1018D800099B5B681A46099B1B882849FFF72DFB63
:1018E80039E0059B0893234A234BD31ADB081B04D2
:1018F80043F00104089B9D68089B9B68184601F00B
:1019080027F803461846089B5B681946089B1B681E
:10191800069A02920193009103462A4618492046E6
:10192800FFF737FB134A144BD31ADB081B0443F0A9
:10193800010314491846FFF7E1FA0CE00D4A0E4B73
:10194800D31ADB081B0443F00103069A0E49184614
:10195800FFF7E2FA00BF0D4B1B6803F00103002BF1
:1019680000D000BE059A06990798FFF739FF00BF17
:101978000BB030BD4475000024750000847700006A
:10198800A0770000C8770000DC770000F0ED00E0E9
:1019980072B6034B1B680133014A136000BF7047DE
:1019A800A8060020054B1B68013B044A1360034B43
:1019B8001B68002B00D162B600BF7047A806002044
:1019C80000B583B0019000F025F80346012B03D041
:1019D8000449432000F03BF8FFF7DAFF00BF03B0EB
:1019E8005DF804FBF477000000B583B003468DF87A
:1019F800073000F00FF80346012B03D004495120AB
:101A080000F025F8FFF7CEFF00BF03B05DF804FB38
:101A1800F477000084B0EFF305830193019BC3F3CF
:101A280008030393039B002B0DD1EFF3148300935A
:101A3800009B0293029B03F00103002B0CBF0123C0
:101A48000023DBB200E00123184604B0704700B55C
:101A580085B003460091ADF80630BDF80630ADF804
:101A68000830009B039302AB1A46002144F202009F
:101A7800FFF70EFF00BF05B05DF804FB10B487B098
:101A880001900091019B009A53E8004F104643E8EB
:101A9800000191F0000FF7D1059404900391059B84
:101AA800184607B05DF8044B704710B487B0019032
:101AB8000091019B009A53E8004F44EA020043E872
:101AC800000191F0000FF6D1059404900391049B56
:101AD800184607B05DF8044B704710B487B0019002
:101AE8000091019B009A53E8004F04EA020043E882
:101AF800000191F0000FF6D1059404900391059B25
:101B0800184607B05DF8044B704710B487B00190D1
:101B18000091019B009A53E8004F04EB020043E850
:101B2800000191F0000FF6D1059404900391049BF5
:101B3800184607B05DF8044B704710B487B00190A1
:101B48000091019B009A53E8004FA4EB020043E880
:101B5800000191F0000FF6D1059404900391049BC5
:101B6800184607B05DF8044B704700B583B0019084
:101B780001210198FFF799FF0346184603B05DF865
:101B880004FB00B583B0019000210198FFF7A5FF81
:101B98000346184603B05DF804FB000000B583B0A7
:101BA80001900B468DF80330019B002B03D10849A7
:101BB800E820FFF74CFF019BDA689DF80330019994
:101BC800098A01FB03F31344184603B05DF804FBCC
:101BD8003078000000B583B001900091019B002B84
:101BE80003D10849F520FFF732FF009B019AD2681C
:101BF8009B1A019A128AB3FBF2F3DBB2184603B0C0
:101C08005DF804FB3078000000B585B00190019BB9
:101C1800002B01D10E234DE0019B1B68002B03D143
:101C28002649FF20FFF713FF019B5B68002B04D1B7
:101C380022494FF48070FFF70AFF019B9B68002B35
:101C480004D11E4940F20110FFF701FF019BDB6838
:101C5800002B04D119494FF48170FFF7F8FE019B5E
:101C68001B8A002B04D1154940F20310FFF7EFFE41
:101C7800019B9B681A46019B5B68D31A8DF80F304D
:101C8800019B1B68019A52681A6007E0019B1A6859
:101C98001368591C11609DF80F201A709DF80F30B9
:101CA8005A1E8DF80F20002BF0D1019B1B680022D3
:101CB8001A710023184605B05DF804FB307800005F
:101CC80000B585B00190019B002B04D11C494FF44D
:101CD8009270FFF7BCFE002303930020FFF770FE0D
:101CE800019B1B681A68019B5B689A4220D9019B7B
:101CF8001B681A68013A1A601B681B781946019814
:101D0800FFF74CFF0390019B9B681A46019B1B68D9
:101D18001B68D31A8DF80B30019B1B681B799DF843
:101D28000B209A4204D9019B1B689DF80B201A715D
:101D38000020FFF759FE039B184605B05DF804FB29
:101D48003078000010B584B001900091019B002B01
:101D580004D1114940F24710FFF779FE009B002B90
:101D680004D10D494FF4A470FFF771FE009B039353
:101D78000020FFF725FE019B1B681C68621C1A6087
:101D880003990198FFF726FF034623700020FFF709
:101D98002BFE00BF04B010BD3078000000B583B042
:101DA8000190019B002B03D10C493120FFF74FFE16
:101DB800019B9B68002B0CD0019B5B69019A106901
:101DC800019A1168019A92689847019B00229A60CB
:101DD80000E000BF03B05DF804FB00BF68780000B6
:101DE8000EB400B584B00190019B002B03D11849B3
:101DF8004220FFF72CFE019B5B69002B03D114499D
:101E08004320FFF724FE019B1B68002B03D11049D8
:101E18004420FFF71CFE019B5B68002B03D10C4993
:101E28004520FFF714FE059B002B0AD000230393DF
:101E380006AB039303AB1A460599019800F0B8F96D
:101E480000E000BF04B05DF804EB03B0704700BFCA
:101E58006878000000B583B001900B468DF8033018
:101E68009DF803300A2B03D10D210198FFF7F2FFEB
:101E7800019B1A68019B9B68581C01998860134450
:101E88009DF803201A70019B9A68019B5B689A422F
:101E980002D30198FFF782FF00BF03B05DF804FB8F
:101EA80000B587B003900291019200930023059337
:101EB800009B03F00103002B24D00BE0029B0133AD
:101EC8000293059B013305939DF813301946039837
:101ED800FFF7C0FF029B1B788DF813309DF8133075
:101EE800002BEBD106E0019B013B019320210398D5
:101EF800FFF7B0FF019A059B9A422ED9019B002B50
:101F0800F1D12AE0029B002B0BD0029805F0D6FAFB
:101F1800059006E0019B013B019320210398FFF700
:101F280099FF019A059B9A420FD9019B002BF1D189
:101F38000BE0029B01330293059B013305939DF847
:101F4800133019460398FFF785FF029B1B788DF81D
:101F580013309DF81330002BEBD100BF07B05DF8AC
:101F680004FB000000B589B0039002910192009330
:101F7800029B07930123069307E0079A019BB2FB94
:101F8800F3F30793069B01330693079A019B9A4242
:101F9800F3D2009A069B9A4201D9009B06930B9BA9
:101FA80003F00103002B22D10A9B002B1FD00B9BAF
:101FB80003F00203002B06D0009B002B03D1302333
:101FC8008DF8173002E020238DF8173008E00A9BBF
:101FD800013B0A939DF8173019460398FFF73AFF1B
:101FE8000A9B002B03D0069A0A9B9A42EFD301233F
:101FF8000793009B012B03D9009B013B009309E049
:10200800029A079BB2FBF3F30493049A019B9A424A
:1020180000D205E0079B019A02FB03F30793E8E768
:10202800029A079BB2FBF3F30493049B079A02FB03
:1020380003F3029AD31A0293154A049B13441B789C
:1020480019460398FFF706FF079A019BB2FBF3F3C3
:102058000793079B002BE3D10B9B03F00103002B95
:1020680011D00A9B002B0ED006E00A9B013B0A9375
:1020780020210398FFF7EEFE0A9B002B03D0069A57
:102088000A9B9A42F1D300BF09B05DF804FB00BF78
:10209800C878000000B589B00590049103920293B6
:1020A800049B002BB8BF5B4206930123079307E00C
:1020B800039B069A92FBF3F30693079B013307935E
:1020C800039B069A9A42F3DA029A079B9A4201D92D
:1020D800029B07930A9B002B0AD0049B002B04DB6E
:1020E8000B9B03F00403002B02D00A9B013B0A93CD
:1020F8000B9B03F00203002B02D0029B002B16D08F
:102108000B9B03F00103002B11D10A9B002B0ED06F
:1021180006E00A9B013B0A9320210598FFF79AFEE7
:102128000A9B002B03D0079A0A9B9A42F1D3049B7F
:10213800002B07DA049B5B4204932D210598FFF7D7
:1021480089FE08E00B9B03F00403002B03D02B212E
:102158000598FFF77FFE0B9B03F00203002B19D0B5
:102168000B9B03F00103002B14D1029B002B11D110
:102178000A9B002B0ED006E00A9B013B0A933021F4
:102188000598FFF767FE0A9B002B03D0079A0A9B66
:102198009A42F1D304990B9B01930A9B0093029BEB
:1021A800039A0598FFF7DEFE00BF09B05DF804FB4F
:1021B80000B58FB0059004910392059B002B04D1C4
:1021C800C8494FF4A270FFF742FC059B5B69002BDE
:1021D80004D1C4494FF4A370FFF739FC059B1B6871
:1021E800002B04D1BF4940F24710FFF730FC059B94
:1021F8005B68002B04D1BB494FF4A470FFF727FCA0
:10220800049B002B00F0ED81049B1B788DF8373080
:10221800049B013304939DF83730002B00F0D881DC
:102228009DF83730252B40F0C78100230A930123FE
:102238000C93049B1B788DF837309DF837302D2B85
:1022480004D0302B0AD02B2B10D017E00A9B43F078
:1022580001030A93049B0133049312E00A9B43F0A1
:1022680002030A93049B013304930AE00A9B43F098
:1022780004030A93049B0133049302E000230C93A4
:1022880000BF0C9B002BD4D1002309939DF8373055
:102298002A2B0CD1039B1B68191D039A11601B681C
:1022A800099A13440993049B013304931AE0049B8D
:1022B8001B788DF837309DF837302F2B12D99DF8C1
:1022C8003730392B0ED8049B01330493099A1346EF
:1022D8009B0013445B001A469DF837301344303B8B
:1022E8000993D3E700230B93049B1B788DF83730B1
:1022F8009DF837302E2B1DD1049B01330493049B8A
:102308001B788DF837309DF837302F2B12D99DF870
:102318003730392B0ED8049B013304930B9A13469C
:102328009B0013445B001A469DF837301344303B3A
:102338000B93E4E7049B1B788DF837309DF8373012
:102348006C2B03D09DF83730682B07D1049B0133E1
:102358000493049B1B788DF83730EFE79DF83730EE
:10236800253B532B00F2238101A252F823F000BF32
:10237800AD250000B7250000B7250000B7250000EF
:10238800B7250000B7250000B7250000B7250000D5
:10239800B7250000B7250000B7250000B7250000C5
:1023A800B7250000B7250000B7250000B7250000B5
:1023B800B7250000B7250000B7250000B7250000A5
:1023C800B7250000B7250000B7250000B725000095
:1023D800B7250000B7250000B7250000B725000085
:1023E800B7250000B7250000B7250000B725000075
:1023F800B7250000B7250000B7250000B725000065
:10240800B7250000B7250000B7250000B725000054
:10241800B7250000B7250000B7250000B725000044
:10242800B7250000B7250000B7250000B725000034
:10243800B7250000B7250000B725000039250000A2
:10244800B7250000B7250000B7250000B725000014
:10245800B7250000B7250000B7250000B725000004
:10246800B7250000B7250000C9240000F1240000AA
:10247800B7250000B7250000B7250000B7250000E4
:10248800F1240000B7250000B7250000B72500009B
:10249800B7250000B7250000B72500007925000002
:1024A800B7250000B72500005D250000B72500000E
:1024B80015250000B7250000B725000039250000C4
:1024C800039B1B68191D039A11601B680C930C9BD6
:1024D8008DF81F309DF81F3019460598FFF7BAFC94
:1024E80066E000BF94780000039B1B68191D039ADF
:1024F80011601B680C930A9B0193099B00930B9B2B
:102508000A220C990598FFF7C5FD51E0039B1B684B
:10251800191D039A11601B680C930C990A9B01936F
:10252800099B00930B9B0A220598FFF71BFD3FE0D0
:10253800039B1B68191D039A11601B680C930C9967
:102548000A9B0193099B00930B9B10220598FFF7A8
:1025580009FD2DE0039B1B68191D039A11601B6878
:1025680008930A9B099A08990598FFF799FC1FE0B8
:10257800039B1B68191D039A11601B680C9330217B
:102588000598FFF767FC78210598FFF763FC0C991D
:102598000023019308230093082310220598FFF7CE
:1025A800E1FC05E025210598FFF754FC00E000BF99
:1025B800049B0133049305E09DF8373019460598CC
:1025C800FFF748FC049B1B78002B7FF41DAE00E04E
:1025D80000BF059B1B7B002B04D00598FFF7DEFB93
:1025E80000E000BF0FB05DF804FB00BF00B583B08A
:1025F80001900198FFF708FB0346184603B05DF801
:1026080004FB00B58BB001900091019B1B8A043B31
:102618000793009A079B1344DA1C079BB2FBF3F35A
:102628008DF81B300198FFF74BFB0590059B002B9D
:1026380001D1002338E0059B00221A71059B012275
:102648005A71079B9AB2059BDA80059B09939DF8FE
:102658001B30013B0493099B019A1A6000230893DD
:102668001DE00198FFF72CFB0390039B002B0ED075
:10267800059B5B790133DAB2059B5A71099B039A72
:102688001A60039B019A1A60039B099304E005985A
:1026980000F00EF8002307E0089B01330893089A1E
:1026A800049B9A42DDD3059B18460BB05DF804FBEA
:1026B80000B58BB00190019B0793079B5B798DF860
:1026C8001B30019B08939DF81B30013B05930023A9
:1026D800099305E0089B1B680893099B013309933C
:1026E800099A059B9A42F5D3089B1B680493019BA2
:1026F8000893002309930BE0089B1B680393089930
:102708000498FFF71FFB039B0893099B0133099368
:102718009DF81B30099A9A42EED300BF0BB05DF8C2
:1027280004FB00B585B00190019B0393039B043320
:1027380001211846FFF7E9F900BF05B05DF804FB71
:1027480000B587B00190019B0593059B04330121D7
:102758001846FFF7F2F90346039303AB0493049B6F
:102768001B78002B02D10198FFF7A2FF00BF07B02A
:102778005DF804FB00B591B00390029101920093BB
:10278800039B002B03D14349B620FFF760F9039B55
:102798000993039B0F93099BDB881A46099B5B7976
:1027A80003FB02F3043B0893009A089B9A4203D365
:1027B8003849C420FFF74BF9099BDB880793009B36
:1027C8001A1D079BB2FBF3F30E93009B0433079A81
:1027D800B3FBF2F2079901FB02F29B1A0D93019BDE
:1027E8001A68009B1344089A9A4203D2089A009BDD
:1027F800D31A01E0019B1B680C93019B0C9A1A6089
:1028080005E00F9B1B680F930E9B013B0E930E9BDD
:10281800002BF6D100230B93079A0D9BD31A0A932A
:102828000A9A0C9B934228BF13460A932AE0029AFD
:102838000B9B134406930F9A0D9B13440433059383
:102848009DF84830002B05D00A9A0599069804F09F
:10285800EAFD04E00A9A0699059804F0E4FD0023CD
:102868000D930F9B1B680F930C9A0A9BD31A0C931A
:102878000B9A0A9B13440B93079A0C9B934228BF0D
:1028880013460A930C9B002BD1D100BF11B05DF801
:1028980004FB00BFD878000000B589B0059004910A
:1028A80003920293039B079307AA00230093029BBA
:1028B80004990598FFF75EFF079B039A9A4203D095
:1028C8000349F620FFF7C3F800BF09B05DF804FB21
:1028D800D878000000B589B005900491039202935E
:1028E800039B079307AA01230093029B0499059869
:1028F800FFF740FF079B039A9A4204D004494FF41C
:102908008070FFF7A4F800BF09B05DF804FB00BFB2
:10291800D878000082B00190019B9B6800229A60E1
:10292800019B9B6800221A61019B9B6800225A61E7
:10293800019B9B680022DA60019B9B6800225A6019
:10294800019B9B6800221A6000BF02B0704700001C
:1029580000B585B00190019800F00EF80390039B34
:10296800002B01D0039B00E0024B184605B05DF830
:1029780004FB00BF1079000086B00190164B059348
:10298800164B04931FE0049A059BD31ADB10DA0F49
:1029980013445B10DB00059A13440393039B1B68E5
:1029A8000293029A019B9A4202D9039B04930AE07C
:1029B800029A019B9A4203D2039B0833059302E0D3
:1029C800039B5B6804E0059A049B9A42DBD30023CF
:1029D800184606B0704700BFE47C0000FC7D00008C
:1029E80000B585B00190019B002B0AD0074B43F03E
:1029F80001030393019B9B010293039B0298984751
:102A080000E000BF05B05DF804FB00BF307E0000A9
:102A180000B583B00190019B1B681F2B04D90549A1
:102A28004FF4F370FFF713F84FF0A043184603B0C4
:102A38005DF804FBFC7D000000B585B0019001AB9A
:102A48001846FFF7E5FF0390019B012202FA03F302
:102A58001946039800F035F800BF05B05DF804FB8F
:102A680000B585B0019001AB1846FFF7D1FF039080
:102A7800019B012202FA03F31946039800F02BF890
:102A880000BF05B05DF804FB00B585B0019001AB4F
:102A98001846FFF7BDFF0390039800F00AF80246B6
:102AA800019B22FA03F303F00103184605B05DF811
:102AB80004FB82B00190019BD3F81035184602B090
:102AC800704782B001900091019B009AC3F80825D5
:102AD80000BF02B0704782B001900091019B009A3C
:102AE800C3F80C2500BF02B0704700B585B001904F
:102AF8004FF0A042019B1B6803F5E07340F20C61A4
:102B080042F823104FF0A042019B5B6803F5E07385
:102B180040F20C6142F82310019B1B681846FFF72E
:102B28008BFF019B5B681846FFF786FF4FF0A042BA
:102B3800019B1B6803F5E07340F20D6142F8231016
:102B48004FF0A042019B5B6803F5E07340F20D6112
:102B580042F823100420FFF743FF002303931EE0ED
:102B6800019B5B681846FFF78FFF0346002B03D0D5
:102B7800039B002B17D124E0019B1B681846FFF725
:102B88006FFF0420FFF72CFF019B1B681846FFF717
:102B980053FF0420FFF724FF039B01330393039B98
:102BA800082BDDDD00E000BF019B5B681846FFF7DE
:102BB80057FF0420FFF714FF019B5B681846FFF7D7
:102BC8003BFF05B05DF804FB00B589B001900091AA
:102BD800009B0793019B1B788DF80C30019B1B7998
:102BE8008DF81030019B5B798DF81130019B9B6843
:102BF800DBB28DF81230019BDB68DBB28DF8133045
:102C0800019B1B690593019B5B690693074A079B18
:102C180052F823300649079A51F8221003AA1046A1
:102C2800984700BF09B05DF804FB00BFAC06002060
:102C3800B406002000B587B003900291019200937A
:102C4800039B1B7805931249059B019A41F82320A1
:102C58001049059B009A41F82320029B5B7B002BBF
:102C680002D00298FFF741FF00230493039B181D2D
:102C7800019B002B01D0084A00E00022059B029925
:102C880000F0F8FA0490049B184607B05DF804FBBE
:102C9800AC060020B4060020D12B000000B589B096
:102CA80001900091009B0793019B1B788DF80C30D5
:102CB800019B5B680493019B9B68DBB28DF8143021
:102CC800019BDB680693074A079B52F823300649A5
:102CD800079A51F8221003AA1046984700BF09B076
:102CE8005DF804FBBC060020C006002000B589B0D2
:102CF80001900091009B0793019B1B788DF80C3085
:102D0800019B5B680493019B9B68DBB28DF81430D0
:102D1800019BDB680693074A079B52F82330064954
:102D2800079A51F8221003AA1046984700BF09B025
:102D38005DF804FBBC060020C006002030B58FB04B
:102D4800039002910192039B1B780C9326490C9BDC
:102D5800019A41F82320029B1A6924490C9B41F8E7
:102D68002320029B5B7F1946214A0C9B13440A4689
:102D78001A70029B04AC1D460FCD0FC495E80F00D6
:102D880084E80F000C9B089300230D93039B1B788A
:102D98001A46174B9B5C002B0DD0039B181D019BFB
:102DA800002B01D0134A00E0002204AB194602F0C0
:102DB80033F80D9014E0039B1B781A460C4B9B5C70
:102DC800002B0DD1039B03F10C00019B002B01D0BC
:102DD800094A00E0002204AB194601F0F5F90D900C
:102DE8000D9B18460FB030BDBC060020C006002061
:102DF800C4060020A52C0000F52C000008B5064BE1
:102E08001B68002B03D105495120FEF720FE024B19
:102E18001B68984700BF08BDC80600203C7E00001C
:102E280082B00190019B044A934201D1034B00E018
:102E38000023184602B0704700200040C806002052
:102E480000B587B001900091019B002B03D1184970
:102E58007720FEF7FCFD0198FFF7E2FF0590059B40
:102E6800002B1ED000238DF813300020FEF7A8FD9C
:102E7800059B1B79002B03D001238DF8133005E047
:102E8800059B009A1A60059B01221A710020FEF723
:102E9800ABFD9DF81330002B03D011230393039B44
:102EA80002E000230393039B184607B05DF804FB78
:102EB8003C7E000000B585B00190019B002B03D13A
:102EC8000A499B20FEF7C3FD0198FFF7A9FF03906D
:102ED800039B002B05D0039B00221A60039B002252
:102EE8001A7100BF05B05DF804FB00BF3C7E00000E
:102EF80082B003468DF807309DF8073003F01F02B3
:102F080005499DF907305B09012000FA02F241F8F2
:102F1800232000BF02B0704700E100E082B0034602
:102F280000918DF807309DF90730002B0CDA009BD3
:102F3800DAB20C499DF8073003F00F03043B520145
:102F4800D2B20B441A7609E0009BDAB206499DF921
:102F580007305201D2B20B4483F8002300BF02B0FD
:102F6800704700BF00ED00E000E100E082B0019092
:102F7800019B03F06043B3F1005F0CBF0123002302
:102F8800DBB2184602B0704782B00190019B1B0B60
:102F98005BB2184602B0704700B583B003460A46D4
:102FA8008DF8073013468DF806309DF80630072B4C
:102FB80003D908496B20FEF74AFD9DF806209DF9C4
:102FC800073011461846FFF7A9FF00BF03B05DF8A8
:102FD80004FB00BF747E000000B583B003468DF883
:102FE80007309DF907301846FFF782FF00BF03B08E
:102FF8005DF804FB82B001900B468DF803309DF814
:103008000330019A134401221A6000BF02B07047CE
:1030180084B001900B46ADF80230BDF80230019A39
:10302800134400221A60BDF80230019A13441B6849
:103038000393039B00BF04B0704782B001900B4616
:10304800ADF80230BDF80230019A13441B68002B1A
:1030580014BF01230023DBB2184602B0704782B0C8
:1030680001900091019B009AC3F8042300BF02B0AD
:10307800704782B001900091019B009AC3F8082321
:1030880000BF02B0704782B00190019B0622C3F8CE
:10309800002500BF02B0704784B0039002910192EE
:1030A800039B029AC3F80825039B019AC3F80C25D1
:1030B80000BF04B0704782B001900091019B009A54
:1030C800C3F8242500BF02B0704784B00190019B6B
:1030D800D3F8C4340393019B039AC3F8C424039B15
:1030E800184604B0704782B001900B468DF8033043
:1030F8009DF80320019BC3F8882500BF02B07047E4
:1031080084B0039002910192029A039BC3F844256C
:10311800039B019AC3F8482500BF04B0704784B0E8
:10312800039002910192029A039BC3F83425039BF2
:10313800019AC3F8382500BF04B0704782B00190E7
:103148000091019B009AC3F8002200BF02B07047AB
:1031580082B00190019BD3F84C35184602B07047F5
:1031680082B00190019BD3F83C35184602B07047F5
:1031780082B00190019B0122C3F8502500BF02B024
:10318800704782B00190019B0022C3F8502500BF10
:1031980002B0704782B00190019B0122C3F840251C
:1031A80000BF02B0704782B00190019B0022C3F8B3
:1031B800402500BF02B0704700B583B00190019B65
:1031C8001B681F2B04D905494FF4F370FEF73FFC29
:1031D8004FF0A043184603B05DF804FBA07E000042
:1031E80000B585B00190084611461A4603468DF889
:1031F80003300B468DF8023013468DF8013001ABD1
:103208001846FFF7D9FF03909DF803209DF8023078
:103218005B001A439DF801309B001A439DF8183053
:103228001B0242EA03019DF81C301B04019A194352
:10323800039B02F5E07243F8221000BF05B05DF869
:1032480004FB84B0019003230393019B03F0020362
:10325800002B02D048F201230393019B03F00403DF
:10326800002B02D048F202230393039B184604B0B4
:103278007047000000B58BB005900491039202934B
:10328800049B002B03D14A49A920FEF7E0FB049BCD
:103298001A68049B5B689A4203D14549AA20FEF745
:1032A800D6FB059B1B791A46342303FB02F3414ADC
:1032B80013440893089B93F82D30002B03D0082360
:1032C8000793079B70E0059B1A68059B1B791946B5
:1032D800394B53F8213019461046FFF7B1FD034624
:1032E800002B03D011230793079B5DE0089B039AEB
:1032F8001A60089B029A5A60089B00229A60089BF1
:10330800002283F83020089B002283F82F20049B9A
:103318005A7B089B83F83220049B1868002301938A
:1033280006230093032300220021FFF759FF049B83
:1033380058680023019306230093032300220021E9
:10334800FFF74EFF059B1B680993049B1968049BB4
:103358005B681A460998FFF79FFE049B9B6819460D
:103368000998FFF7A8FE089B1B68002B15D0059B42
:103378001B681846FFF708FE03461A46049B1B7B8A
:1033880019461046FFF708FE059B1B681846FFF70D
:10339800FBFD03461846FFF71FFE089B012283F832
:1033A8002D2000230793079B18460BB05DF804FBFC
:1033B800D47E0000D0060020087F000000B585B04C
:1033C8000190019B1B791A46342303FB02F30D4A33
:1033D80013440393039B93F82D30012B04D00A491F
:1033E80040F21110FEF733FB019B1B681846FFF7EC
:1033F8004AFE039B022283F82D2000BF05B05DF82A
:1034080004FB00BFD0060020D47E000000B583B0C6
:1034180001900091009B03F00103002B03D0019859
:10342800FFF7A6FE02E00198FFF7ABFE009B03F052
:103438000203002B03D00198FFF7ACFE02E00198CD
:10344800FFF7B1FE00BF03B05DF804FB30B589B0EB
:1034580003900291019200930023079308238DF8AB
:103468001B304FF48273ADF81830019BDB681846A7
:10347800FFF77CFD034683F00103DBB2002B03D08A
:1034880010230793079BA2E1A0490298FFF7F1FDDB
:10349800039B93F82F30DBB2002B09D0039B9B686A
:1034A80019460298FFF7DBFD11230793079B8EE16E
:1034B800009B03F00403002B06D1009B03F01003CC
:1034C800002B01D1012300E0002303F00103DAB24D
:1034D800039B83F82F20039B019A03F10C041546E4
:1034E8000FCD0FC42B682360009B1B0903F0010359
:1034F800002B14BF01230023DAB2039B83F830208A
:10350800019B5B7819460298FFF7EDFD4FF4827135
:103518000298FFF77DFD4FF492710298FFF778FD4E
:1035280000990298FFF772FF019B1B78032B00F2AA
:10353800F38001A252F823F087360000E13600003C
:103548002D36000051350000009B03F01003002BBE
:1035580004D06F4940F27110FEF779FA009B03F02E
:103568000803002B04D06A494FF4B970FEF76FFACC
:10357800009B03F00403002B04D0654940F273104C
:10358800FEF765FA019B1B691846FFF7EFFC034637
:1035980083F00103DBB2002B03D010230793079BB2
:1035A80015E14FF480710298FFF7C8FD019BD968B7
:1035B800019B5B681A460298FFF7A2FD4FF4A871B9
:1035C8000298FFF725FD4FF4B0710298FFF720FD30
:1035D8004FF4A4710298FFF71BFD20210298FFF712
:1035E80009FD08210298FFF705FD00BF4FF4A871F7
:1035F8000298FFF722FD034683F00103DBB2002B9C
:10360800F4D14FF4A8710298FFF702FD019B1969E4
:10361800019B9B681A460298FFF772FD039B3D4A7F
:103628009A607CE0019BD968019B5B681A46029806
:10363800FFF766FD019B1B691846FFF797FC0346D9
:1036480083F00103DBB2002B03D010230793079B01
:10365800BDE0019B1969019B9B681A460298FFF718
:103668005EFD4FF484510298FFF768FD039B40F21A
:1036780002229A6020210298FFF7BCFC4FE0019BD0
:10368800D968019B5B681A460298FFF739FD009BD1
:1036980003F02003002B11D04FF480710298FFF73C
:1036A8004DFD039B1B4A9A604FF4A4710298FFF7E3
:1036B800AFFC4FF4A473ADF8183008E04FF4007174
:1036C8000298FFF73BFD039B40F202229A602021FB
:1036D8000298FFF78FFC22E0019BD968019B5B6889
:1036E8001A460298FFF71BFD4FF480510298FFF726
:1036F80025FD039B40F202229A6000238DF81B30BF
:1037080020210298FFF776FC09E000BF02029C0125
:10371800D47E0000000204000723079300BF009B2B
:1037280003F00803002B09D1019B1B78032B05D05C
:103738009DF81B3019460298FFF75CFC039B1B6839
:10374800002B28D0009B03F00403002B03D0039B1D
:103758004FF400729A60039B9B6819460298FFF722
:103768007EFC33E04FF492710298FFF766FC034643
:10377800002B10D04FF492710298FFF749FC2021DA
:103788000298FFF737FC14210298FFF733FC4FF437
:103798008273ADF81830BDF8183019460298FFF753
:1037A8004CFC034683F00103DBB2002BDAD102980C
:1037B800FFF78BFC0590039B002283F82F20059BC5
:1037C800002B03D00598FFF73CFD0790079B184690
:1037D80009B030BD00B587B0039002910192039BF8
:1037E8001B79002B07D1029B5B68FF2B03D8029B38
:1037F8009B68FF2B10D9039B1B79012B07D1029BD8
:103808005B68FF2B03D8029B9B68FF2B04D91B49DD
:103818004FF4F870FEF71BF900230593039B1B79FF
:103828001A46342303FB02F3154A13440493049BFA
:103838001B68002B08D1029B1B78022B04D10F496F
:103848004FF4FB70FEF703F9049B1B68002B08D1AB
:10385800029B1B78032B04D1084940F2F710FEF7AE
:10386800F6F8039B1968019B029A0498FFF7EEFD8E
:103878000590059B184607B05DF804FBD47E000050
:10388800D006002000B58BB00390019200930B4640
:103898008DF80B3005AB00221A605A609A60DA6026
:1038A8001A619DF80B308DF81530009B0693019B2B
:1038B80008939DF83030002B01D0202200E0002230
:1038C80005AB19460398FFF785FF034618460BB06A
:1038D8005DF804FB00B58BB00390019200930B4692
:1038E8008DF80B3005AB00221A605A609A60DA60D6
:1038F8001A6101238DF814309DF80B308DF81530BE
:10390800009B0693019B089305AB00221946039878
:10391800FFF760FF034618460BB05DF804FB000094
:1039280030B58BB001900091009B1B68002B04D12F
:103938007E4940F24520FEF78AF84FF492710198CB
:10394800FFF77BFB0346002B27D04FF492710198B9
:10395800FFF75EFB4FF482710198FFF76EFB034699
:1039680083F00103DBB2002B17D0009B9B6819463C
:103978000198FFF77EFB009B02229A60009B9B68E0
:1039880019460198FFF76BFB20210198FFF732FBDE
:1039980014210198FFF72EFBC5E04FF482710198BE
:1039A800FFF74BFB0346002B50D04FF48271019870
:1039B800FFF72EFB009B04AC03F10C050FCD0FC4E1
:1039C8002B682360009B93F82E30002B1BD0009BA4
:1039D8001B7B012B04D10198FFF7C2FB034603E0D0
:1039E8000198FFF7B5FB03460593009B1B7B022B51
:1039F80004D10198FFF7B4FB034603E00198FFF7F1
:103A0800A7FB034606934FF4B0710198FFF700FB3C
:103A18004FF4AE710198FFF7FBFA009B93F8303032
:103A280083F00103DBB2002B04D1009B93F82E3006
:103A3800002B4CD000210198FFF780FB009B00224F
:103A48009A603B490198FFF714FB40E04FF4A471DA
:103A58000198FFF7DDFA009B1B7B002B1BD1009B15
:103A680004AC03F10C050FCD0FC42B682360009B39
:103A780093F8303083F00103DBB2002B27D000210C
:103A88000198FFF75BFB009B00229A602849019888
:103A9800FFF7EFFA1BE04FF400710198FFF74EFBB8
:103AA800009B40F202229A6021490198FFF7E1FA4F
:103AB800009B9B6819460198FFF7D1FA08210198E5
:103AC800FFF798FA20210198FFF794FA2BE0019864
:103AD800FFF7FBFA0990099B03F00203002B03D0C0
:103AE80001238DF80C300BE0099B03F00403002B35
:103AF80003D002238DF80C3002E000238DF80C303F
:103B0800009B93F8303083F00103DBB2002B03D025
:103B1800009B002283F82F20009B1B68009A5168A5
:103B280003AA104698470BB030BD00BFD47E0000F2
:103B380002029C0108B503490348FFF7F1FE00BFE4
:103B480008BD00BFD00600200030004008B503497A
:103B58004FF04020FFF7E4FE00BF08BD0407002037
:103B680082B003468DF807309DF8073003F01F0236
:103B780005499DF907305B09012000FA02F241F876
:103B8800232000BF02B0704700E100E082B0034686
:103B98008DF807309DF8073003F01F0206499DF99C
:103BA80007305B09012000FA02F2203341F8232094
:103BB80000BF02B0704700BF00E100E082B00346DA
:103BC80000918DF807309DF90730002B0CDA009B27
:103BD800DAB20C499DF8073003F00F03043B520199
:103BE800D2B20B441A7609E0009BDAB206499DF975
:103BF80007305201D2B20B4483F8002300BF02B051
:103C0800704700BF00ED00E000E100E082B00190E5
:103C1800019B1B0B5BB2184602B0704700B583B01E
:103C280003460A468DF8073013468DF806309DF88E
:103C38000630072B03D908496B20FDF708FF9DF8CC
:103C480006209DF9073011461846FFF7B7FF00BF59
:103C580003B05DF804FB00BF107F000000B583B01F
:103C680003468DF807309DF907301846FFF778FFAF
:103C780000BF03B05DF804FB00B583B003468DF8C0
:103C880007309DF907301846FFF780FF00BF03B0E3
:103C98005DF804FB84B001900B46ADF80230BDF826
:103CA8000230019A134400221A60BDF80230019ACA
:103CB80013441B680393039B00BF04B0704782B092
:103CC80001900B46ADF80230BDF80230019A13445A
:103CD8001B68002B14BF01230023DBB2184602B077
:103CE800704782B001900091019B009AC3F80423A9
:103CF80000BF02B0704782B001900091019BD3F8D9
:103D08000423009B1340002B14BF01230023DBB2C4
:103D1800184602B0704782B001900091019B009A4A
:103D2800C3F8082300BF02B0704784B00190019B1C
:103D3800D3F880340393019B039AC3F88024039B30
:103D4800184604B0704782B00190019B0422C3F862
:103D5800002500BF02B0704782B00190019B00228D
:103D6800C3F8002500BF02B0704784B003900291E9
:103D78000192039B019AC3F81425039B029AC3F886
:103D88000C2500BF04B0704700B583B001904FF018
:103D9800FF324FF0FF310198FFF7E7FF00BF03B094
:103DA8005DF804FB82B00190019BD3F80C351846EE
:103DB80002B0704782B00190019BD3F814351846C1
:103DC80002B0704782B00190019BD3F808351846BD
:103DD80002B0704782B00190019BD3F810351846A5
:103DE80002B0704784B0039002910192039B029A3B
:103DF800C3F80825039B019AC3F8102500BF04B037
:103E0800704700B583B001904FF0FF324FF0FF319B
:103E18000198FFF7E7FF00BF03B05DF804FB82B02D
:103E28000190019BD3F81835DBB2184602B07047F1
:103E380082B001900B468DF803309DF80320019B5A
:103E4800C3F81C2500BF02B0704782B001900B4632
:103E58008DF803309DF80330019A134401221A604B
:103E680000BF02B0704782B001900B468DF8033056
:103E780013468DF802309DF803209DF80230134355
:103E8800DBB21A46019BC3F86C2500BF02B070472D
:103E980082B001900091019B009AC3F8242500BFCD
:103EA80002B0704700B583B00190019B1B681F2BBF
:103EB80004D905494FF4F370FDF7C9FD4FF0A0434D
:103EC800184603B05DF804FB3C7F000000B585B0E0
:103ED8000190084611461A4603468DF803300B46F2
:103EE8008DF8023013468DF8013001AB1846FFF704
:103EF800D9FF03909DF803209DF802305B001A4318
:103F08009DF801309B001A439DF818301B0242EAC5
:103F180003019DF81C301B04019A1943039B02F509
:103F2800E07243F8221000BF05B05DF804FB00B54D
:103F380085B00390002301930023009300230122FE
:103F480001210398FFF7C2FF00BF05B05DF804FB2D
:103F580000B585B003900B468DF80B309DF80B200B
:103F680000230193002300931346002200210398A5
:103F7800FFF7ACFF00BF05B05DF804FB00B585B0E6
:103F880003900023019300230093002301220021C2
:103F98000398FFF79BFF00BF05B05DF804FB00B571
:103FA80085B0019001AB1846FFF77CFF0390019B99
:103FB800012202FA03F31946039800F004F800BF3F
:103FC80005B05DF804FB82B001900091019B009A56
:103FD800C3F8082500BF02B0704700B583B0019050
:103FE8000091009B1B68B3F1FF3F09D0009B1B6841
:103FF8001846FFF7D4FF009B1B681846FFF797FF8A
:10400800009B5B68B3F1FF3F05D0009B5B68002114
:104018001846FFF79DFF019B1A68009B9B6919468C
:104028001046FFF735FF019B1868009B597D009BE0
:104038001B7D1A46FFF717FF019B1868009B19683C
:10404800009B5B681A46FFF790FE009B1B7D012BC7
:1040580022D1009B9B68B3F1FF3F05D0009B9B6872
:1040680000211846FFF774FF009BDB68B3F1FF3FA0
:1040780009D0009BDB681846FFF791FF009BDB68BF
:104088001846FFF754FF019B1868009BD968009BEE
:104098009B681A46FFF7A6FE00BF03B05DF804FB55
:1040A80000B583B001900B468DF80330019B1B6867
:1040B8004FF48E711846FFF7EDFD019B1B684FF416
:1040C800A2711846FFF7E6FD019B1B680E491846CA
:1040D800FFF707FE019B1B681846FFF797FD03468D
:1040E8001A469DF8033019461046FFF797FD019BC5
:1040F8001B681846FFF78AFD03461846FFF7AEFD12
:1041080000BF03B05DF804FB8000020000B583B077
:104118000190019B1B6808491846FFF7FCFD019BAD
:104128001B681846FFF772FD03461846FFF7A4FD03
:1041380000BF03B05DF804FB8402020000B587B03D
:104148000190019B1B681846FFF72CFE0590019B08
:104158001B681846FFF72EFE0490019B1B68184643
:10416800FFF730FE0390019B1B681846FFF732FEED
:104178000290019B1B681846FFF706FE019B1B680F
:104188001846FFF73EFE059BB3F1FF3F02D00598A6
:10419800FFF7F4FE049BB3F1FF3F02D00498FFF74A
:1041A800EDFE029BB3F1FF3F02D00298FFF7E6FE57
:1041B800039BB3F1FF3F02D00398FFF7DFFE00BF78
:1041C80007B05DF804FB000000B587B003900291CA
:1041D8000192029B002B03D12D49AA20FDF737FC41
:1041E800039B1B791A462C2303FB02F3294A134429
:1041F800049300230593049B93F82A30002B03D0E3
:1042080008230593059B3EE0039B1A68039B1B79D3
:104218001946214B53F8213019461046FEF710FE77
:104228000346002B03D011230593059B2BE002992D
:104238000398FFF7D2FE049B019A5A60029B1A6901
:10424800049B1A60049B5B68002B05D0029B1B7FB4
:1042580019460398FFF724FF039B1B681846FFF7CE
:1042680072FD049B00229A61049B0022DA61049B80
:10427800002283F82920049B00225A61049B012212
:1042880083F82A20059B184607B05DF804FB00BF99
:10429800707F000038070020A47F000000B585B0BB
:1042A8000190019B1B791A462C2303FB02F3114A48
:1042B80013440393019B1B681846FFF74DFD039BAE
:1042C8005B68002B02D00198FFF720FF0198FFF7E9
:1042D80035FF019B1B681846FEF7ECFD039B002287
:1042E80083F82A20039B00225A6000BF05B05DF8BE
:1042F80004FB00BF3807002000B585B0019000918D
:104308004FF48E710198FFF7C5FC009B9A68009BDB
:104318001B6A13441B788DF80F30009B1B6A5A1CCC
:10432800009B1A629DF80F3019460198FFF780FD2F
:1043380000BF05B05DF804FB00B583B001900091A3
:1043480016E0009B93F82830DBB2002B01D0002345
:1043580015E04FF48E710198FFF7B1FC034683F026
:104368000103DBB2002BECD100990198FFF7C4FFE1
:10437800009B1A6A009B5B699A42EAD3012318469C
:1043880003B05DF804FB000000B587B0039002910C
:104398000192039B1B791A462C2303FB02F33C4A28
:1043A80013440493049B93F82A30012B04D0394911
:1043B80040F21510FDF74BFB029B002B04D1354949
:1043C8004FF48B70FDF743FB019B002B04D131495F
:1043D80040F21710FDF73BFB039800F05DF8034629
:1043E800002B03D011230593059B4CE0049B019AF5
:1043F8005A61049B029A9A60049B00221A62049BE9
:10440800002283F8282000230593039B1B684FF4A0
:104418008E711846FFF73EFC039B1B68082118465F
:10442800FFF713FD039B1B6804991846FFF764FF09
:10443800049B5B68002B25D1039B1B6804991846D5
:10444800FFF77AFF034683F00103DBB2002B02D0AB
:104458000F23059313E000BF039B1B684FF48E7175
:104468001846FFF72CFC034683F00103DBB2002B50
:10447800F2D1039B1B680C211846FFF7E6FC049B4E
:1044880000225A61059B184607B05DF804FB00BF7F
:1044980038070020707F000082B00190019B1B79D3
:1044A8001946074A2C2303FB01F3134414331B68F2
:1044B800002B14BF01230023DBB2184602B070475B
:1044C8003807002010B582B001900091009B9B69CD
:1044D800002B08D14FF484710198FFF7DBFB01989A
:1044E800FFF79DFC13E04FF484710198FFF7D2FBAE
:1044F800009BDA68009B5B6AD4180198FFF78FFC71
:1045080003462370009B5B6A5A1C009B5A6202B0E8
:1045180010BD00B589B003900291019201238DF876
:104528001030029B0693019B0593039B5B68039ADB
:10453800116804AA1046984700BF09B05DF804FB4B
:1045480000B587B00190009100238DF80830009BDA
:104558000493019B9B680393019B00225A61019B72
:104568005B68019A116802AA1046984700BF07B015
:104578005DF804FB00B589B0019000914FF400711B
:104588000198FFF7B8FB0346002B39D04FF492711E
:104598000198FFF794FB0346002B31D04FF492713A
:1045A8000198FFF777FB4FF401710198FFF7B3FB10
:1045B800009B93F8293083F00103DBB2002B03D072
:1045C80004210198FFF741FC02238DF80830019877
:1045D800FFF7ABFB03460593009B9B690493009B85
:1045E800DB680393009B00229A61009B0022DA613A
:1045F800009B5B68009A116802AA1046984752E02F
:1046080004210198FFF777FB0346002B4BD04FF4AA
:1046180084710198FFF753FB0346002B43D00099A0
:104628000198FFF74FFF009B9A69009B5B6A9A42CB
:1046380039D1009BDB69002B19D0009BDB680793FD
:10464800009B5B6A0693009BDA69009B9A61009B5A
:104658001A69009BDA60009B0022DA61009B002245
:104668005A62079A06990098FFF753FF1BE0009BD0
:1046780093F8293083F00103DBB2002B03D0042127
:104688000198FFF7E2FB4FF401710198FFF743FB34
:10469800009B00229A61009B596A009BDB681A46BE
:1046A8000098FFF736FF4FF48E710198FFF707FB6C
:1046B8000346002B22D0009B1A6A009B5B699A4232
:1046C8000DD2009B93F82830DBB283F00103DBB2F4
:1046D800002B04D000990198FFF70EFE0EE04FF46E
:1046E8008E710198FFF7D6FA009B5B69002B05D005
:1046F800009B5B6919460098FFF722FF4FF4A271EF
:104708000198FFF7DCFA0346002B1CD04FF4A27186
:104718000198FFF7BFFA009B93F82930002B03D0CC
:1047280000210198FFF791FB009B9B69002B0AD0A1
:10473800009B00229A61009B596A009BDB681A461D
:104748000098FFF7E6FE00BF09B05DF804FB000023
:1047580008B503490348FFF70DFF00BF08BD00BFB8
:10476800380700200020004082B003468DF807304B
:104778009DF8073003F01F0205499DF907305B09D2
:10478800012000FA02F241F8232000BF02B070476E
:1047980000E100E082B003468DF807309DF807304D
:1047A80003F01F0206499DF907305B09012000FA52
:1047B80002F2203341F8232000BF02B0704700BF47
:1047C80000E100E082B0034600918DF807309DF9C2
:1047D8000730002B0CDA009BDAB20C499DF8073041
:1047E80003F00F03043B5201D2B20B441A7609E0DE
:1047F800009BDAB206499DF907305201D2B20B4448
:1048080083F8002300BF02B0704700BF00ED00E04E
:1048180000E100E082B00190019B03F06043B3F136
:10482800005F0CBF01230023DBB2184602B07047BB
:1048380082B00190019B1B0B5BB2184602B0704717
:1048480000B583B003460A468DF8073013468DF845
:1048580006309DF80630072B03D908496B20FDF771
:10486800F6F89DF806209DF9073011461846FFF71F
:10487800A9FF00BF03B05DF804FB00BFA87F0000DC
:1048880000B583B003468DF807309DF90730184608
:10489800FFF76AFF00BF03B05DF804FB00B583B003
:1048A80003468DF807309DF907301846FFF772FF69
:1048B80000BF03B05DF804FB84B001900B46ADF86F
:1048C8000230BDF80230019A134400221A60BDF884
:1048D8000230019A13441B680393039B00BF04B082
:1048E800704782B001900B46ADF80230BDF8023037
:1048F800019A13441B68002B14BF01230023DBB269
:10490800184602B0704782B001900091019BD3F81D
:104918000022009BDB431A40019BC3F8002200BF22
:1049280002B0704782B001900091019B009AC3F8D1
:10493800042300BF02B0704782B001900091019B30
:10494800009AC3F8082300BF02B0704784B00190F2
:10495800019BD3F880340393019B039AC3F8802406
:10496800039B184604B0704782B00190019B08224F
:10497800C3F8002500BF02B0704782B00190019BC8
:104988000022C3F8002500BF02B0704784B003902E
:1049980002910192039B029AC3F80C25039B019A8A
:1049A800C3F8142500BF04B0704700B583B0019068
:1049B8004FF0FF324FF0FF310198FFF7E7FF00BFDC
:1049C80003B05DF804FB82B00190019BD3F80C356D
:1049D800184602B0704782B00190019BD3F8143595
:1049E800184602B0704782B00190019BD3F8083591
:1049F800184602B0704782B00190019BD3F8103579
:104A0800184602B0704784B0039002910192039B4C
:104A1800029AC3F80825039B019AC3F8102500BF22
:104A280004B0704700B583B001904FF0FF324FF0EB
:104A3800FF310198FFF7E7FF00BF03B05DF804FB03
:104A480082B001900B468DF803309DF80330019A2F
:104A5800134401221A6000BF02B0704782B001906F
:104A68000B468DF8033013468DF802309DF803206D
:104A78009DF802301343DBB21A46019BC3F86C253C
:104A880000BF02B0704782B001900091019B009A6C
:104A9800C3F8242500BF02B0704784B00390029188
:104AA8000192029A039BC3F84425039B019AC3F819
:104AB800482500BF04B0704782B00190019BD3F82D
:104AC8004C35184602B0704782B00190019BD3F86C
:104AD8003C35184602B0704700B583B00190019B81
:104AE8001B681F2B04D905494FF4F370FCF7AFFF7F
:104AF8004FF0A043184603B05DF804FBD47F0000D4
:104B080000B585B00190084611461A4603468DF84F
:104B180003300B468DF8023013468DF8013001AB97
:104B28001846FFF7D9FF03909DF803209DF802303F
:104B38005B001A439DF801309B001A439DF818301A
:104B48001B0242EA03019DF81C301B04019A194319
:104B5800039B02F5E07243F8221000BF05B05DF830
:104B680004FB00B585B00390002301930023009354
:104B78000023012201210398FFF7C2FF00BF05B0FF
:104B88005DF804FB00B585B003900B468DF80B303B
:104B98009DF80B2000230193002300931346002265
:104BA80000210398FFF7ACFF00BF05B05DF804FBD8
:104BB80000B585B0039000230193002300930023E0
:104BC800012200210398FFF79BFF00BF05B05DF8A5
:104BD80004FB00B585B0019001AB1846FFF77CFFD8
:104BE8000390019B012202FA03F31946039800F08F
:104BF80004F800BF05B05DF804FB82B00190009195
:104C0800019B009AC3F8082500BF02B0704700B5A1
:104C180083B001900091009B1B68B3F1FF3F09D05E
:104C2800009B1B681846FFF7D4FF009B1B681846BB
:104C3800FFF797FF009B5B68B3F1FF3F05D0009B30
:104C48005B6800211846FFF79DFF019B1A68009BCF
:104C58009B6919461046FFF716FF019B1868009BD1
:104C6800597D009B1B7D1A46FFF7F8FE019B1868CB
:104C7800009B1968009B5B681A46FFF787FE009B3C
:104C88001B7D012B22D1009B9B68B3F1FF3F05D010
:104C9800009B9B6800211846FFF774FF009BDB68A8
:104CA800B3F1FF3F09D0009BDB681846FFF791FF7F
:104CB800009BDB681846FFF754FF019B1868009BB0
:104CC800D968009B9B681A46FFF79DFE00BF03B09A
:104CD8005DF804FB00B583B001900B468DF80330F6
:104CE800019B1B684FF488711846FFF7E5FD019B8F
:104CF8001B684FF490711846FFF7DEFD019B1B6897
:104D08004FF492711846FFF7D7FD019B1B684FF4CB
:104D1800A2711846FFF7D0FD019B1B680E49184683
:104D2800FFF700FE019B1B681846FFF781FD03464D
:104D38001A469DF8033019461046FFF781FD019B7E
:104D48001B681846FFF774FD03461846FFF798FDE1
:104D580000BF03B05DF804FB1003020000B583B088
:104D68000190019B1B6808491846FFF7E5FD019B68
:104D78001B681846FFF75CFD03461846FFF78EFDD3
:104D880000BF03B05DF804FB1003020000B587B054
:104D98000190019B1B681846FFF715FE0590019BC3
:104DA8001B681846FFF717FE0490019B1B681846FE
:104DB800FFF719FE0390019B1B681846FFF71BFEBF
:104DC8000290019B1B681846FFF7EFFD019B1B68CB
:104DD8001846FFF727FE059BB3F1FF3F02D0059861
:104DE800FFF7E6FE049BB3F1FF3F02D00498FFF7FC
:104DF800DFFE029BB3F1FF3F02D00298FFF7D8FE17
:104E0800039BB3F1FF3F02D00398FFF7D1FE00BF29
:104E180007B05DF804FB000000B587B0039002916D
:104E28000192029B002B03D12B49CD20FCF70FFEEA
:104E3800039B1B791A461346DB0013449B00274A41
:104E48001344049300230593049B93F82030002B0C
:104E580003D008230593059B3AE0039B1A68039B3C
:104E68001B7919461E4B53F8213019461046FDF799
:104E7800E7FF0346002B03D011230593059B27E08A
:104E880002990398FFF7C3FE049B019A5A60029B9C
:104E98001A69049B1A60049B5B68002B05D0029B6F
:104EA8001B7F19460398FFF715FF039B1B681846DD
:104EB800FFF75AFD049B00229A61049B0022DA61E5
:104EC800049B00225A61049B012283F82020059B41
:104ED800184607B05DF804FB08800000640700204E
:104EE8003C80000000B585B00190019B1B791A46F3
:104EF8001346DB0013449B00104A13440393019BA1
:104F08001B681846FFF739FD039B5B68002B02D02E
:104F18000198FFF723FF0198FFF738FF019B1B68F3
:104F28001846FDF7C7FF039B002283F82020039B48
:104F380000225A6000BF05B05DF804FB640700203A
:104F480000B589B0039002910192039B1B791A4620
:104F58001346DB0013449B004C4A13440493049B00
:104F680093F82030012B04D049494FF49270FCF794
:104F78006EFD029B002B04D1454940F22510FCF739
:104F880066FD019B002B04D141494FF49370FCF757
:104F98005EFD039B1B79002B02D1019BFF2B04D9DB
:104FA8003B4940F22710FCF752FD0298FFF732FC0C
:104FB800034683F00103DBB2002B03D010230693D2
:104FC800069B5EE0039800F065F80346002B03D0CB
:104FD80011230693069B54E0049B019A5A61049B93
:104FE800029A9A6000230693039B1B684FF4907102
:104FF8001846FFF761FC039B1B684FF4AC71184619
:10500800FFF75AFC039B1868049B9968049B5B692B
:105018001A46FFF742FD039B1B6808211846FFF755
:105028000FFD049B5B68002B2AD1039B1B684FF480
:1050380090711846FFF755FC03468DF81730039B0F
:105048001B684FF4AC711846FFF74BFC03468DF80C
:105058001F309DF8173083F00103DBB2002B06D018
:105068009DF81F3083F00103DBB2002BDDD19DF8E2
:105078001F30002B01D00F230693049B00225A6196
:10508800069B184609B05DF804FB00BF64070020C2
:105098000880000082B00190019B1B791946084ADC
:1050A8000B46DB000B449B00134414331B68002B96
:1050B80014BF01230023DBB2184602B0704700BFBB
:1050C8006407002000B589B0039002910192012382
:1050D8008DF81030029B0693019B0593039B5B6838
:1050E800039A116804AA1046984700BF09B05DF8F2
:1050F80004FB00B587B00190009100238DF80830BB
:10510800009B0493019B9B680393019B00225A61B7
:10511800019B5B68019A116802AA1046984700BF74
:1051280007B05DF804FB00B589B0019000914FF419
:1051380092710198FFF7D5FB0346002B22D04FF45C
:1051480092710198FFF7B8FB02238DF80830019897
:10515800FFF7FCFB034605930198FFF7B5FC0346F0
:105168000493009BDB680393009B00229A61009BD9
:105178000022DA61009B5B68009A116802AA104657
:1051880098473BE04FF488710198FFF7AAFB034664
:10519800002B33D04FF488710198FFF78DFB0198ED
:1051A800FFF792FC0790009B9B69079A9A4225D1CA
:1051B800009BDB69002B17D0009BDB68069320213E
:1051C8000198FFF7A0FB009BDA69009B9A61009B9E
:1051D8001A69009BDA60009B0022DA61069A079937
:1051E8000098FFF76FFF09E0009B00229A61009B7F
:1051F800DB681A4607990098FFF764FF4FF4A2711D
:105208000198FFF76EFB0346002B18D04FF4A271EC
:105218000198FFF751FB009B9B69002B0FD0009B67
:1052280000229A61009B0022DA610198FFF74CFC8A
:105238000146009BDB681A460098FFF743FF4FF4CE
:1052480090710198FFF74DFB0346002B10D04FF4E7
:1052580090710198FFF730FB009B5B69002B07D02A
:105268000198FFF729FC034619460098FFF741FF0C
:1052780000BF09B05DF804FB08B503490348FFF710
:1052880052FF00BF08BD00BF640700200020004097
:1052980000B585B00190019B002B0AD0074B43F065
:1052A80001030393019B9B010293039B0298984778
:1052B80000E000BF05B05DF804FB00BF708100008E
:1052C80000B583B00190019B04331846FEF776F8C9
:1052D80000BF03B05DF804FB00B589B005900392E8
:1052E8001A460B468DF8133013468DF812300023FA
:1052F8000793059B181D9DF812209DF813109DF823
:10530800283000931346039AFEF7BCFA0790079BD0
:10531800184609B05DF804FB00B587B00390019208
:105328001A460B468DF80B3013468DF80A300023C9
:105338000593039B181D9DF80A309DF80B10019AE0
:10534800FEF7C8FA0590059B184607B05DF804FB00
:1053580000B583B00190019B002B0AD04FF47A70FE
:10536800FFF796FF019B013B0193019B002BF5D1B1
:1053780000E000BF03B05DF804FB000000B587B093
:105388006B4600221A605A609A60DA601B23009309
:105398001A2301934FF0CC73029302238DF80C303B
:1053A8006946002300220A48FDF744FC0590059B46
:1053B8000493049B002B04D0064A27210498FCF789
:1053C80059FA0348FFF77CFF00BF07B05DF804FBFC
:1053D800408000005080000000B589B002921A4653
:1053E80003468DF80F300B468DF80E301346ADF896
:1053F8000C301D4A1D4BD31ADB081B0443F0030372
:10540800BDF80C201A491846FBF786FD0DF10E026F
:105418009DF80F100123009301231648FFF75CFF46
:105428000790079B0693069B002B04D0124A312154
:105438000698FCF71FFABDF80C30DBB29DF80F1088
:10544800029A0C48FFF768FF0790079B0593059B96
:10545800002B04D0084A35210598FCF70BFA0023E5
:10546800184609B05DF804FB447500002475000077
:10547800888000004080000050800000B0B588B0EF
:1054880002AF3A601A460346FB710B46BB711346DE
:10549800BB806B461D462C4A2C4BD31ADB081B04D9
:1054A80043F00303BA882A491846FBF735FDBB8841
:1054B800581C431E7B61034619464FF000024FF00B
:1054C80000034FF00004D40044EA5174CB000346B3
:1054D80019464FF000024FF000034FF00004D400CB
:1054E80044EA5174CB0003460733DB08DB00ADEB1D
:1054F800030D02AB00333B613B69BA791A703B6913
:105508000133BA883968184601F08DFF3A69BB88BB
:10551800DBB20133D8B2F9790023009303460D4872
:10552800FFF7DAFEF860FB68BB60BB68002B04D0AD
:10553800094A4321B868FCF79DF90023AD4618468F
:105548001837BD46B0BD00BF447500002475000083
:1055580094800000408000005080000030B58FB07B
:10556800019068238DF8093000238DF80A30224B0A
:105578000993224B0A93224B0B9300238DF8373063
:1055880002AB184600F02CFA03468DF837309DF927
:105598003730002B17D01B4A1B4BD31ADB081B04D0
:1055A80043F003039DF9372018491846FBF7B4FC6C
:1055B80000230C930C9B002B10D1154A5521002079
:1055C800FCF758F90AE00F4A0F4BD31ADB081B0403
:1055D80043F003030F491846FBF790FC019B1D4657
:1055E80002AC0FCC0FC50FCC0FC594E8030085E8BB
:1055F800030001980FB030BDE1530000855400004E
:10560800595300004475000024750000A480000070
:1056180050800000C080000084B000B583B00DF158
:10562800100C8CE80F0000238DF807300C238DF840
:10563800153003238DF8163002238DF81730112307
:105648008DF814300D238DF81D3000238DF81E3091
:1056580002238DF81F3015238DF81C3004A800F0A4
:1056680052FA03468DF807309DF90730002B17D002
:10567800144A154BD31ADB081B0443F003039DF9A6
:10568800072012491846FBF747FC00230093009BAC
:10569800002B10D10E4A75210020FCF7EBF80AE028
:1056A800084A094BD31ADB081B0443F003030949D2
:1056B8001846FBF723FC00BF03B05DF804EB04B009
:1056C800704700BF4475000024750000D0800000BA
:1056D80050800000EC80000084B010B58AB00CAC9B
:1056E80084E80F0002AA05A90CAB072000F06DFAA8
:1056F80003468DF827309DF92730002B17D02C4A08
:105708002C4BD31ADB081B0443F003039DF9272015
:1057180029491846FBF700FC00230893089B002B37
:1057280040D1264A81210020FCF7A4F83AE0204A1B
:10573800204BD31ADB081B0443F003032049184607
:10574800FBF7DCFB1A4A1B4BD31ADB081B0443F09C
:105758000300BDF908301946BDF90A301C46BDF9E9
:105768000C301A46049B0193009223460A461549B9
:10577800FBF7F7FB0E4A0F4BD31ADB081B0443F069
:105788000300BDF914301946BDF916301C46BDF9A1
:1057980018301A46079B0193009223460A460A4985
:1057A800FBF7DFFB00BF0AB0BDE8104004B070474C
:1057B800447500002475000000810000508000003E
:1057C8001C8100002C8100004081000030B593B09E
:1057D80000210020FBF7BAF81190119B002B04D090
:1057E800264A8B211198FCF745F8FBF731F8244A33
:1057F800244BD31ADB081B0443F003032249184641
:10580800FBF77CFB00BFFBF7EDFB0346002BFAD14F
:10581800FFF7B4FD07AB1846FFF7A0FE00BFFBF784
:10582800E1FB0346002BFAD16D460BAC0FCC0FC53C
:1058380094E8030085E8030007AB0FCBFFF7ECFE05
:1058480000BFFBF7CFFB0346002BFAD16D460BAC2C
:105858000FCC0FC594E8030085E8030007AB0FCB16
:10586800FFF73AFF00BFFBF7BDFB0346002BFAD159
:105878004FF47A70FFF76CFDE8E700BF5080000036
:1058880044750000247500005481000010B586B0EE
:105898000291019303468DF80F301346ADF80C3092
:1058A80000238DF81730019B002B03D0019BDB6987
:1058B800002B03D1FF238DF817301DE0019B9B7847
:1058C800012B05D19DF80F3063F07F038DF80F3061
:1058D800019BDC69019B5878BDF80C309DF80F10CE
:1058E800029AA04703468DF817309DF91730002B10
:1058F80002D0FE238DF817309DF91730184606B0F0
:1059080010BD10B586B00291019303468DF80F3093
:105918001346ADF80C3000238DF8173000238DF8AE
:105928001630019B002B03D0019B1B6A002B03D16F
:10593800FF238DF817304EE0019B9B78012B05D192
:105948009DF80F3003F07F038DF80F30019B1B7A11
:10595800112B03D0019B1B7C152B2ED1019B1C6A9C
:10596800019B5878BDF80C309DF80F10029AA0479B
:1059780003468DF81730019B5B6A0120984723E0A6
:10598800019B1C6A019B58789DF81630029A1A44AC
:105998009DF80F100123A04703468DF817309DF896
:1059A8000F3001338DF80F30019B5B6A0120984757
:1059B8009DF8163001338DF816309DF816309BB2DD
:1059C800BDF80C209A42DBD89DF91730002B02D085
:1059D800FE238DF817309DF91730184606B010BD14
:1059E80000B585B0019003238DF80E30019800F0C2
:1059F80067F903468DF80F309DF90F30002B0DD154
:105A0800019B9B78012B09D10DF10D01019B01220E
:105A18007F20FFF73BFF03468DF80F309DF90F30CD
:105A2800002B2CD1019B00221A7008E00199019BE0
:105A380001220020FFF72AFF03468DF80F309DF85A
:105A48000E305A1E8DF80E20002B03D0019B1B78B8
:105A5800D12BEBD19DF90F30002B0DD1019B1B7879
:105A6800D12B09D1019BFF22DA70019800F00DF8C3
:105A780003468DF80F3002E0FD238DF80F309DF9B5
:105A88000F30184605B05DF804FB00B585B00190ED
:105A9800B6238DF80E30019B002B03D0019B5B6A67
:105AA800002B03D1FF238DF80F3026E00DF10E01F6
:105AB800019B01227E20FFF724FF03468DF80F305B
:105AC800019B5B6A012098479DF90F30002B0DD18F
