:100000000000012079030000610300006303000089
:1000100065030000670300006903000000000000A2
:100020000000000000000000000000006B03000062
:100030006D030000000000006F030000710300006A
:100040007303000073030000D9410000514B00000E
:100050007303000073030000F93E00007303000007
:1000600073030000730300007303000073030000B8
:1000700073030000730300007303000073030000A8
:1000800073030000C9220000730300007303000023
:1000900009230000730300007303000073030000D2
:1000A0007303000073030000730300007303000078
:1000B0007303000073030000000000000000000054
:1000C0007303000073030000730300007303000058
:1000D00073030000730300007303000000000000BE
:1000E0000000000000000000000000000000000010
:1000F0000000000000000000000000000000000000
:1001000000000000000000000000000000000000EF
:1001100000000000000000000000000000000000DF
:1001200000000000000000000000000000000000CF
:1001300000000000000000000000000000000000BF
:1001400000000000000000000000000000000000AF
:10015000000000000000000000000000000000009F
:10016000000000000000000000000000000000008F
:10017000000000000000000000000000000000007F
:10018000000000000000000000000000000000006F
:10019000000000000000000000000000000000005F
:1001A000000000000000000000000000000000004F
:1001B000000000000000000000000000000000003F
:1001C000000000000000000000000000000000002F
:1001D000000000000000000000000000000000001F
:1001E000000000000000000000000000000000000F
:1001F00000000000000000000000000000000000FF
:10020000364937480A1A02D0072291438D463549AC
:1002100035480A1A06D00722914381F30988022241
:1002200082F3148831483249324A00F045F83248A6
:100230003249334A00F040F832483349334A00F03B
:100240003BF833483349344A00F036F833483449F0
:10025000344A00F031F834483449354A00F02CF87B
:1002600034483549354A00F027F8354835490022E9
:1002700000F02DF834483549002200F028F83448C1
:100280003449091A082903DB0022026004300160A6
:10029000314A90471F482049884205D002680430FF
:1002A00003B4904703BCF7E700208646EC460020E5
:1002B00000212A4A9047FEE7884207D0521A05D00B
:1002C000037801300B700131013AF9D1704788424F
:1002D00002D002700130FAE77047000000000120F0
:1002E00000E000200000012000000120F08B000051
:1002F000000000206C000020D8030000D80300009C
:10030000967C0000F08B0000000000200000002020
:10031000EC7C0000EC7C0000EC7C0000EC7C00003D
:10032000EC7C0000EC7C0000EC7C0000EC7C00002D
:10033000F08B00005C8C00006C0000206C00002042
:100340006C000020910800209408002094080020F0
:100350009408002094280020A103000059670000A1
:10036000FEE7FEE7FEE7FEE7FEE7FEE7FEE7FEE765
:10037000FEE7FEE7704700BF1048804710484FF087
:100380000701884385460F4880470F48016841F4BC
:1003900070010160BFF34F8FBFF36F8FFFF730BF66
:1003A0000A480B490B4A884207D0521A05D00378F5
:1003B00001300B700131013AF9D17047750300002B
:1003C00000000120FD74000088ED00E0EC7C0000DE
:0803D0000000002000000020E5
:1003D80000B5A1B00590049103920293049802F02D
:1003E8005EFE039B1593029B16930023179300232D
:1003F8008DF8603000231993229B1A9300231F93D2
:100408000FA91F9B0822049802F022FF08231F93BC
:10041800119B1293BDF84030ADF84C30BDF8423016
:10042800ADF84E3000238DF851309DF83C3003F084
:100438000303DBB2012B26D10F9BC3F395231C9337
:100448009DF83C30C3F3C203DBB28DF85030BDF8E1
:100458003C30C3F38313DBB21B931B9B9A0009A99F
:100468001F9B049802F0F4FE1B9B9B001F9A1344E9
:100478001F9312AA09A915AB009313461B9A1C983F
:1004880000F0EEFF2FE09DF83C3003F00303DBB2F1
:10049800022B28D1BDF83E30C3F389139BB21E93BB
:1004A8009DF83C30C3F3C203DBB28DF850301E9B7D
:1004B800082B28BF08231D9307A91F9B1D9A049882
:1004C80002F0C6FE1F9A1D9B13441F931E9A1D9B84
:1004D800D31A1E9315AB12AA07A81D9901F062F84A
:1004E8001E9B002BE3D1049802F0E8FD00BF21B069
:1004F8005DF804FB00B583B00190019B1B781A4698
:100508000C4B9B5C002B05D0019B0433184605F06F
:10051800E9FC0BE0019B1B781A46064B9B5C002B01
:1005280004D1019B0C33184604F0B8FE00BF03B099
:100538005DF804FBA007002000B587B00390029186
:1005480013468DF8073000230593039B1B781A4642
:10055800114B9B5C002B09D0039B04339DF80720AB
:100568000299184605F0ECFC05900FE0039B1B78F8
:100578001A46094B9B5C002B08D1039B0C339DF852
:1005880007200299184604F0FFFE0590059B1846BF
:1005980007B05DF804FB00BFA007002082B00190FF
:1005A8000091034B01221A7000BF02B0704700BFD0
:1005B800AC00002030B58DB003468DF807301A4BDB
:1005C80002AC1D460FCD0FC495E80F0084E80F005C
:1005D800062302934FF0FF3303934FF0FF33049346
:1005E8004FF0FF3305934FF0EB7308939DF80730F6
:1005F800002B01D00D4A00E0002202AB19460C483E
:1006080002F058FF0B900B9B0A930A9B002B04D017
:10061800084A43210A9801F0B7F9074A9DF80730BC
:10062800137000BF0DB030BD307D0000A50500007F
:1006380000000020EC7C0000AD00002000B583B075
:1006480001238DF807309DF807301846FFF7B2FFF1
:1006580000BF03B05DF804FB00B589B003900291B8
:100668000192019B8DF81F30124B00221A709DF8E1
:100678001F301A4602991048FFF75EFF0690069B46
:100688000593059B002B04D00C4A5321059801F0D3
:100698007BF900BF0A4B1B78002B07D0054B1B7852
:1006A800DBB283F00103DBB2002BF3D100BF09B04A
:1006B8005DF804FBAC00002000000020EC7C00008A
:1006C800AD00002000B585B003900291054B009362
:1006D8004023054A02990398FFF77AFE00BF05B048
:1006E8005DF804FB610600006C00002082B00190F8
:1006F80000BF02B07047000000B583B00190054804
:10070800FFF7F8FE0020FFF755FF00BF03B05DF8C4
:1007180004FB00BF0000002082B00190019BDB6851
:1007280001225A7100BF02B07047000000B583B0C3
:100738004FF0FF330193FFF781FF0421084800F0D1
:10074800ABFD0190019B002B03DA0649482001F01C
:100758003CFE0348FFF7E0FF00BF03B05DF804FB71
:10076800C87C0000707D000000B583B00190009146
:10077800019B1B681B6800990198984700BF03B04C
:100788005DF804FB00B583B00190019B1B685B68B2
:100798000198984700BF03B05DF804FB00B583B02B
:1007A8000190019B1B689B680198984700BF03B0A4
:1007B8005DF804FB82B001900B468DF80330019B75
:1007C800DB689DF803201A7100BF02B0704782B041
:1007D8000190019BDB681B79184602B0704782B014
:1007E8000190019BDB6801225A7100BF02B070477B
:1007F80082B00190019BDB685B79184602B07047B4
:1008080000B585B001900091154BFF229A60144BFA
:1008180000221A60124B00225A60114B0022C3F8C2
:1008280018240F4B0022C3F814240D4B002283F820
:1008380020240C4802F098FB0390039B002B01D066
:10084800039B08E0084802F023FD084A084BD31A26
:10085800DB0802930023184605B05DF804FB00BFCF
:1008680018020020D87C0000B87D0000C87C000079
:10087800987C0000024A034BD31ADB0818467047DD
:10088800C87C0000987C000000B587B001900B463A
:100898008DF803309DF80330002B1FD0FFF7EAFFD7
:1008A80004900023059313E0059B9B000E4A134414
:1008B8000393039B1B881A46019B1B689A4204D129
:1008C800019B059A1A60002309E0059B01330593F3
:1008D800059A049B9A42E7D3052300E000231846B3
:1008E80007B05DF804FB00BF0000002000B585B02C
:1008F80001900B468DF803309DF8032001AB11469B
:100908001846FFF7C1FF0346002B07D1019BDB0008
:10091800054A13440393039B1B6800E00023184611
:1009280005B05DF804FB00BF987C000084B001901E
:100938000B468DF80330019BDB00174A13440293E2
:100948009DF80330013B032B1CD801A252F823F079
:100958006909000071090000790900008309000095
:1009680002238DF80F3011E004238DF80F300DE0CD
:10097800029B1B798DF80F3008E0029B5B798DF89C
:100988000F3003E000238DF80F3000BF9DF80F30C3
:10099800184604B0704700BF987C000084B00190EE
:1009A800009100238DF80F30019B1B7803F004039E
:1009B800DBB2002B24D0019B1B78C3F30103DBB20D
:1009C800012B02D0022B0CD017E0009B1B68019A68
:1009D8001288C2F38312D2B213449A1C009B1A6085
:1009E8000BE0009B1B68019A5288C2F3891292B2ED
:1009F80013449A1C009B1A6000BF01238DF80F3026
:100A08009DF80F30184604B07047000000B58BB051
:100A18000023ADF826303E4801F065FD3D4801F061
:100A280062FD3D4B5B6804933B4B9B680693049ABD
:100A3800069B134002339B00374A13440433089340
:100A480004AB19460898FFF7A9FF0346002B09D005
:100A5800049A069B134002339B002F4A1344043325
:100A68000893EDE700BF0023079311E0049B5A1C8D
:100A78000492069A1340079A920001A90A4426494B
:100A880002339B000B445B681360079B0133079399
:100A9800079B012BEAD99DF80430C3F30103DBB2AD
:100AA800012B10D0022B1CD1BDF80A30ADF826302E
:100AB800BDF80630C3F389139BB203339A08049B2D
:100AC8001344049313E0BDF80A30ADF82630BDF89E
:100AD8000430C3F38313DBB21A46049B1344049314
:100AE80005E00E494FF4BF7001F06FFC00BF0948E4
:100AF80001F005FD0590059B002B02D0049B064ADA
:100B08005360BDF8263018460BB05DF804FB00BFF3
:100B1800300600202C06002018020020C87D0000A6
:100B280000B585B00021074801F066FC0390039BDF
:100B38000293029B83F310030193019B184605B0AF
:100B48005DF804FB3406002000B589B003900291DB
:100B580001920093039B1B0C0793FFF7E1FF06909C
:100B6800FFF788FE0246079B934204D3214940F2CF
:100B7800A31001F02AFC069B1904009B5A1C0A9B2F
:100B88001340079A0A431C4902339B000B445A60DE
:100B9800009A0A9B134002339B00174A13440433FC
:100BA8000593039B03F00703D9B2059A137861F301
:100BB800C5031370019B03F00F03D9B2059A13887C
:100BC80061F389131380029BC3F31501059A136817
:100BD80061F39F231360059A1378012161F30103E0
:100BE8001370059A13786FF38203137000BF09B06E
:100BF8005DF804FBC87D00001802002000B58BB02A
:100C08000390029113468DF80730039B0233089333
:100C180001238DF81F30002001F090FB3E4B1A682D
:100C2800029B1A603C4B9A683B4B59683A4B1B68CD
:100C3800CB1A13440133099314E00121374801F01A
:100C480022FCFFF7E3FE05900599344801F01BFCF0
:100C5800314B9A68304B59682F4B1B68CB1A134499
:100C680001330993089A099B9A42E6D89DF81F30E8
:100C7800002B48D0002304939DF80730002B17D091
:100C88009DF81030012262F301038DF810309DF8B1
:100C9800103043F004038DF81030039B03F00F036A
:100CA800DAB2BDF8103062F38913ADF8103016E0EF
:100CB8009DF81030022262F301038DF810309DF880
:100CC800103043F004038DF81030039BC3F309037D
:100CD8009AB2BDF8123062F38F13ADF812300E4B92
:100CE8001A680D4B9B68134002339B000A4A134451
:100CF80004330693049A069B1A60074B1A68089BEC
:100D08001344054A1360002001F02CFB9DF81F30A6
:100D180018460BB05DF804FB1802002034060020CA
:100D280000B58BB005900491039202931F4B9B680A
:100D3800079306AB012219460298FFF75FFF0346A7
:100D4800002B24D0069B023309930023089311E05B
:100D5800089B9B00039A1A44099B591C09910799FF
:100D68000B401268114902339B000B445A60089BE0
:100D780001330893089A029B9A42E9D3069A079B83
:100D880000931346029A04990598FFF7DDFE074B76
:100D980093F82034002B05D000BF00F07DF80346FF
:100DA800002BFAD100BF0BB05DF804FB180200203D
:100DB80000B583B0019000910023002200990198AA
:100DC800FFF7AEFF00BF03B05DF804FB00B587B0C6
:100DD800039002910192019B059305AA01230299B0
:100DE8000398FFF79DFF00BF07B05DF804FB00B54F
:100DF80087B00390029101920093019B0493009B9A
:100E0800059304AA022302990398FFF789FF00BFFC
:100E180007B05DF804FB00B589B003900291019218
:100E28000093019B0493009B05930A9B06930B9BDD
:100E3800079304AA042302990398FFF771FF00BFE0
:100E480009B05DF804FB00B58BB0039002910192E4
:100E58000093019B0593009B06930C9B07930D9BA6
:100E680008930E9B099305AA052302990398FFF797
:100E780057FF00BF0BB05DF804FB0000054B5A6834
:100E8800044B1B689A420CBF01230023DBB21846AF
:100E9800704700BF1802002000B599B0FFF7EEFFB9
:100EA8000346002B01D00023B5E19A4B0022C3F87A
:100EB8001824BFF34F8F974B5B680493954B9B683F
:100EC8001093049A109B134002339B00914A1344D9
:100ED80004331193002317930023169300230F93D1
:100EE80004AB19461198FFF759FD0346002B19D09A
:100EF800884BD3F81834002B14D1864B1A68049BFE
:100F08009A4205D8834B1B68824A5360002382E1CA
:100F1800049A109B134002339B007E4A1344043307
:100F28001193DDE70023159311E0049B5A1C0492EA
:100F3800109A1340159A920001A90A447549023380
:100F48009B000B445B681360159B01331593159B3D
:100F5800012BEAD99DF8043003F00303DBB2022B1E
:100F680040F09C80BDF80630C3F389139BB20D9303
:100F7800BDF80630C3F389139BB2502B28BF50230A
:100F88009BB20C930C9BC3F309039AB2BDF80630CD
:100F980062F38F13ADF806300C9B08330B939DF862
:100FA8000430C3F3C203DBB20F930B995A4801F024
:100FB800E6FF1790179B002B00F0D080179802F0DF
:100FC8006EF801A9169B0822179802F023F9169BC0
:100FD80008331693049BDA43109B134001339B009C
:100FE8000A930C9A0A9B9A4242D90A9B002B08D072
:100FF800049A109B134002339B00464A134404335F
:1010080000E0464B08930A9B002B02D00A9BDBB2F8
:1010180001E00C9BDBB28DF81F300A9B002B01D03E
:101028003E4B00E0002306930A9B002B06D00C9B46
:10103800DAB20A9BDBB2D31ADBB200E000238DF8E8
:1010480017309DF81F20169B0899179802F0E2F8B0
:101058009DF81F30169A13441693069B002B16D042
:101068009DF81720169B0699179802F0D3F80EE002
:10107800049A109B134002339B00264A13440433FE
:101088000993169B0C9A0999179802F0C3F80D9BBF
:1010980003339A08049B134404935FE09DF80430DB
:1010A80003F00303DBB2012B58D1BDF80430C3F3BE
:1010B8008313DBB2062B28BF0623DAB2BDF804304F
:1010C80062F38913ADF80430BDF80430C3F3831319
:1010D800DBB202330E939DF80430C3F3C203DBB2D4
:1010E8000F930E9B9B0019460B4801F048FF179081
:1010F800179B002B32D0179801F0D1FF01A9169B3E
:101108000822179802F086F8169B083316930023D6
:1011180015931AE018020020D87C00002402002051
:10112800049B5A1C0492109A134002339B003C4AB9
:101138001344191D169B0422179802F06BF8169B8E
:1011480004331693159B01331593BDF80430C3F38C
:101158008313DBB21A46159B9342E1D3179B002BEE
:1011680039D02F4BD3F8103414932D4BD3F81834AF
:10117800002B1BD0179801F0A1FF46E000238DF843
:101188004F301498FFF734FB0346002B02D001239D
:101198008DF84F309DF84F30002B03D017991498D5
:1011A800FFF7E2FA149BDB681B681493149B002B6F
:1011B800E4D1179801F082FF002001F0BFF8184B26
:1011C800D3F81834002B02D1049B154A5360002031
:1011D80001F0C8F819E0124BD3F81034129306E066
:1011E8001298FFF7DBFA129BDB681B681293129BBD
:1011F800002BF5D10B4A0C4BD31ADB081B0443F028
:1012080002030A491846FFF7D3FDFFF737FE0346E6
:1012180083F00103DBB2184619B05DF804FB00BF88
:1012280018020020C07C0000987C0000087E0000A6
:1012380000B585B00023039323E0164BD3F8103490
:10124800029301238DF807300FE00298FFF7BFFAE9
:1012580003461A46039B934203D100238DF80730B7
:1012680006E0029BDB681B680293029B002BECD113
:101278009DF80730002B01D0039B07E0039B013347
:101288000393039B092BD8DD4FF0FF33184605B0B5
:101298005DF804FB1802002000B585B001900B46EC
:1012A8008DF80330FFF7C4FF0390039BB3F1FF3FB2
:1012B80001D1039B22E0039BDBB219460198FFF79B
:1012C80079FA104BD3F81034002B08D10D4A019B42
:1012D800C2F81034019BDB6800221A600DE0094B4C
:1012E800D3F81034DA68019BDB6812681A60054B82
:1012F800D3F81034DB68019A1A60039B184605B0CE
:101308005DF804FB1802002000B583B00C4BD3F83D
:10131800103401930A4B012283F8202409E0019834
:10132800FFF75DFA0198FFF72DFA019BDB681B6850
:101338000193019B002BF2D100BF03B05DF804FBC1
:101348001802002082B00190009100BF02B07047DF
:1013580010B584B003900291039BDB88002B0AD060
:10136800039BDB881A461F4B009313461E4A1F49EE
:10137800029801F0F3F9039B1B7A052B2ED0039BEF
:101388005B7A002B12D0039B9B881A46039B1B7A1F
:1013980019461046FFF7CAFA03461A46144B53F883
:1013A80022301A461349029801F0D8F9039B1B68AA
:1013B80019460298FFF7C6FF039B1B7A1A460E4B85
:1013C80053F82240039B9B8800211846FFF78EFAAA
:1013D800034622460949029801F0C0F900BF04B04B
:1013E80010BD00BF3C7E00004C7E0000847E0000E3
:1013F800300000209C7E00001C000020A07E000021
:1014080000B585B00390029113468DF80730039B11
:101418001B7A052B0FD0039B5B7A002B06D00D4B54
:101428001B681A460C49029801F098F90B49029872
:1014380001F094F907E09DF80730002B03D0074925
:10144800029801F08BF9029801F066F900BF05B027
:101458005DF804FB300000209C7E0000AC7E00009C
:1014680030B58BB007900691059204930E9B1B7BB9
:101478008DF827300E9B00221A730E990498FFF7F7
:1014880067FF059B062B7FD801A252F823F000BF07
:10149800B5140000BF140000CF140000E3140000CE
:1014A80001150000291500005915000007990E982C
:1014B80001F054F969E0069B1B681A4607990E98D3
:1014C80001F04CF961E0069B1A68069B04331B681F
:1014D80007990E9801F042F957E0069B1A68069B97
:1014E80004331968069B08331B6800930B46079959
:1014F8000E9801F033F948E0069B1968069B0433FF
:101508001868069B08331B68069A0C321268019209
:10151800009303460A4607990E9801F01FF934E034
:10152800069B1868069B04331C68069B08331B68D7
:10153800069A0C32126806991031096802910192D4
:1015480000932346024607990E9801F007F91CE01C
:10155800069B1C68069B04331D68069B08331B68A2
:10156800069A0C32126806991031096806981430E8
:10157800006803900291019200932B462246079936
:101588000E9801F0EBF800E000BF00220E990498D5
:10159800FFF736FF0E9B9DF827201A7300BF0BB08C
:1015A80030BD00BF00B587B003900291019200934F
:1015B800029B082B60D8009B1B7B8DF81330009B87
:1015C80000221A7300990198FFF7C2FE00230593C1
:1015D80014E0059A029B9A4209D2039A059B134488
:1015E8001B781A462649009801F0B8F803E0254907
:1015F800009801F0B3F8059B01330593059B072B71
:10160800E7D92149009801F0A9F80023059326E0BD
:10161800059A029B9A421BD2039A059B13441B7896
:101628008DF812309DF812307E2B0AD89DF81230B2
:10163800184606F09BFA0346002B02D09DF812309C
:1016480000E02E231A461149009801F087F803E0BC
:101658000F49009801F082F8059B01330593059B1B
:10166800072BD5D9012200990198FFF7C9FE009BE5
:101678009DF813201A7300E000BF07B05DF804FB63
:10168800B07E0000B87E0000BC7E0000C07E000076
:10169800C47E000000B583B00190019B1B681F2B1E
:1016A80004D905494FF4F37000F08FFE4FF0A043C2
:1016B800184603B05DF804FBC87E000000B585B08D
:1016C8000190084611461A4603468DF803300B462A
:1016D8008DF8023013468DF8013001AB1846FFF73C
:1016E800D9FF03909DF803209DF802305B001A4350
:1016F8009DF801309B001A439DF818301B0242EAFE
:1017080003019DF81C301B04019A1943039B02F541
:10171800E07243F8221000BF05B05DF804FB00B585
:1017280085B0039000230193002300930023012236
:1017380001210398FFF7C2FF00BF05B05DF804FB65
:1017480000B585B003900B468DF80B309DF80B2043
:1017580000230193002300931346002200210398DD
:10176800FFF7ACFF00BF05B05DF804FB00B585B01E
:10177800019001AB1846FFF78DFF0390019B0122F2
:1017880002FA03F31946039800F02AF800BF05B0DF
:101798005DF804FB00B585B0019001AB1846FFF772
:1017A80079FF0390019B012202FA03F3194603987B
:1017B80000F020F800BF05B05DF804FB00B583B069
:1017C80001900091009B002B03D10198FFF7E2FFE5
:1017D80002E00198FFF7CAFF00BF03B05DF804FB01
:1017E80082B001900091019B009AC3F8082500BFC0
:1017F80002B0704782B001900091019B009AC3F833
:101808000C2500BF02B0704700B583B00190019B62
:10181800032B03D90749472000F0D7FD064A019B4F
:1018280013441B7801211846FFF7C8FF00BF03B017
:101838005DF804FBF47E00001C7F000000B583B057
:101848000023019305E00198FFF7DEFF019B0133B8
:101858000193019B032BF6D900BF03B05DF804FB8D
:1018680000B583B00023019309E0094A019B1344A2
:101878001B781846FFF753FF019B01330193019B27
:10188800032BF2D9FFF7DAFF00BF03B05DF804FBC2
:101898001C7F000000B583B0002301930AE0094AC9
:1018A800019B13441B7803211846FFF749FF019B4E
:1018B80001330193019B032BF1D900BF03B05DF8FD
:1018C80004FB00BF207F000000B583B00190019B9E
:1018D80003F00103002B01D0FFF7C2FF019B03F0C7
:1018E8000203002B01D0FFF7D5FF00BF03B05DF85E
:1018F80004FB000086B003900291019201238DF849
:1019080017309DF817301F4A039B13601D4A029B2E
:1019180053601C4A019B9360039B44F2010293426B
:1019280012D044F20202934221D1019B154AD3609E
:10193800144BDB681B881A46124B9A61114BDB6803
:101948005B68104AD36112E0019B0E4A13610D4B8C
:101958001B699B680B4A53610A4B1B691B68094A40
:101968009361084B1B695B68064AD36100BF72B676
:1019780000BF9DF81730DBB2002BFAD162B600BF6A
:1019880006B070473C06002000B583B00290009175
:10199800019244F2010071466A4600F003F803B070
:1019A80000BD00BF30B58BB007900691059272B6A6
:1019B800FFF7AAFC00BFFFF76FFA0346002BFAD126
:1019C800079B44F20102934215D044F2020293426B
:1019D8003ED1059B09932C4A2C4BD31ADB081B04D8
:1019E80043F00100099B5B681A46099B1B8828493C
:1019F800FFF7FDF939E0059B0893234A234BD31AD7
:101A0800DB081B0443F00104089B9D68089B9B6846
:101A1800184601F05BFC03461846089B5B681946AC
:101A2800089B1B68069A02920193009103462A4676
:101A380018492046FFF707FA134A144BD31ADB0854
:101A48001B0443F0010314491846FFF7B1F90CE0F1
:101A58000D4A0E4BD31ADB081B0443F00103069A08
:101A68000E491846FFF7B2F900BF0D4B1B6803F08B
:101A78000103002B00D000BE059A06990798FFF7CE
:101A880039FF00BF0BB030BDC07C0000987C00005F
:101A9800247F0000407F0000687F00007C7F0000FA
:101AA800F0ED00E082B003468DF807309DF807306E
:101AB80003F01F0205499DF907305B09012000FA70
:101AC80002F241F8232000BF02B0704700E100E0B5
:101AD80082B003468DF807309DF8073003F01F02E7
:101AE80006499DF907305B09012000FA02F220330C
:101AF80041F8232000BF02B0704700BF00E100E0BA
:101B080082B003468DF807309DF8073003F01F02B6
:101B180006499DF907305B09012000FA02F24033BB
:101B280041F8232000BF02B0704700BF00E100E089
:101B380082B003468DF807309DF8073003F01F0286
:101B480006499DF907305B09012000FA02F260336B
:101B580041F8232000BF02B0704700BF00E100E059
:101B680000B585B00190019B002B0AD0074B43F0CC
:101B780001030393019B9B010293039B02989847DF
:101B880000E000BF05B05DF804FB00BFA07F0000C7
:101B980008B50D4B4FF48032C3F844230A4B4FF479
:101BA8008032C3F804231120FFF7C2FF1120FFF78A
:101BB80079FF054B01221A602F20FFF7D1FF034B55
:101BC80001221A7000BF08BD001001407A070020EA
:101BD80008B51120FFF77CFF0E4B4FF48032C3F895
:101BE80048230C4B4FF48032C3F80823094B0122D9
:101BF8005A602F20FFF7B4FF064B01229A60064B6C
:101C080000221A602F20FFF7ABFF044B00221A7046
:101C180000BF08BD001001406C0700207A070020B3
:101C2800024BD3F804351846704700BF0010014036
:101C380082B001900091019A009BD31A23F07F4350
:101C4800184602B07047000082B00190034A019B19
:101C5800C2F8403500BF02B0704700BF0010014015
:101C680086B00190284B1B68002B03D1264A019BA4
:101C7800136045E0019B1A68234B1B681B689A4256
:101C880010D8214B1B681968019B1A681E4B1B68EA
:101C98008A1A1A601C4B1A68019BDA611A4A019B5E
:101CA80013602DE0019B1B680393174B1B6805937A
:101CB800154B1B68049309E0049B1B68039AD31A0D
:101CC8000393049B0593049BDB690493049B002BFB
:101CD80004D0049B1B68039A9A42EDD8049B002BFE
:101CE80005D0049B1A68039BD21A049B1A60019BB7
:101CF800039A1A60019B049ADA61059B019ADA61DA
:101D080000BF06B0704700BF6807002000B587B065
:101D180001902A4B1B680393284B1B680593059B6E
:101D2800049308E0049A019B9A4208D0049B059307
:101D3800049BDB690493049B002BF3D100E000BFF4
:101D4800049B002B01D1002333E0059A049B9A429F
:101D580014D11A4B1B68DB69184A1360174B1B68B0
:101D6800002B0BD1164B01229A60164B00221A60E9
:101D7800154B01221A702F20FFF7F2FE049B1B68F7
:101D88000293049BDA69059BDA61059BDB6904937E
:101D9800049B002B05D0049B1A68029B1A44049BE1
:101DA8001A60064B1B68039A9A4214BF012300234A
:101DB800DBB2184607B05DF804FB00BF68070020D7
:101DC800001001406C0700207B07002008B5112097
:101DD800FFF796FE00BF08BD08B51420FFF790FE78
:101DE80000BF08BD00B583B00190019B5B69019AF3
:101DF80092691046984700BF03B05DF804FB0000E5
:101E080000B585B02B4B1B68002B4ED000230193E7
:101E1800FFF706FF0246284B1B6819461046FFF7D6
:101E280007FF0290234B1B6803931DE0039B1B686D
:101E3800029A9A421CD3039B1B68029AD31A0293F4
:101E4800039B1B68019A13440193039B0093039B14
:101E5800DB690393009B1B7C002B05D0009B0022B1
:101E68001A740098FFF7BEFF039B002BDED100E039
:101E780000BF124B1A78124B1B789A420CD1104BA8
:101E88001B780133DAB20E4B1A700D4B1B78022BFC
:101E980002D10B4B00221A70094B1B781946094ACC
:101EA800019B42F82130FFF797FF00BF05B05DF8AE
:101EB80004FB00BF680700206C070020780700209B
:101EC800790700207007002082B00190184B1A781B
:101ED800184B1B789A4223D0154B1B780133DAB282
:101EE800134B1A70124B1B78022B02D1104B002295
:101EF8001A700F4B1B781A460F4B53F82220019B80
:101F08001A60019B1A680D4B1B6813440B4A136037
:101F18000A4B1B6823F07F43084A1360012303E040
:101F2800019B00221A600023184602B0704700BFC8
:101F38007807002079070020700700206C07002030
:101F480088B00390029101920023079338E0204B58
:101F58001B680693069B1B68039A9A4206D2069B47
:101F68001A68039BD21A069B1A602DE0069B1B6811
:101F7800039AD31A0393069B1B68079A1344079383
:101F8800069B00221A60124B1B680593069BDB69AF
:101F98000F4A1360069BDB68002B11D0029A079B3F
:101FA800134423F07F42069B5A60069BDA68069B1F
:101FB8009A60019B1A68069BDA61019B059A1A6070
:101FC800034B1B68002BC2D100BF08B0704700BF8D
:101FD8006807002000B589B0019000238DF81F30F4
:101FE800664B1B680593AAE0019B002B05D0019B5B
:101FF8000693069BDB69019361E0614B1B781A46E7
:1020080013465B001344DB005D4A13440433049316
:102018005B4B1B780133DAB2594B1A70584B1A785C
:10202800574B9B789A4202D1554B00221A70049B59
:102038005B680693049B1B78022B04D0032B1BD0F0
:10204800012B1FD01DE0049B5B681846FFF75EFE5E
:102058000346002B02D001238DF81F30069B002277
:102068001A746CE0454B1B680393039B00221A7497
:10207800039BDB69414A1360404B1B68002BF1D17D
:102088005DE05CE000BF069B1B7C002B00D056E0A7
:10209800049B9A68069B5A60049BDA68069B9A60C0
:1020A800049B1A69069BDA60049B5A69069B9A612D
:1020B800344B1B78002B02D0069B00225A60069BEB
:1020C8005A68314B1B68D31A23F07F432F4A934237
:1020D8000ED8069B5A682C4B1B6819461046FFF70A
:1020E800A7FD0246069B9B681A44069B1A6017E0E8
:1020F800254B1A68069B5B6819461046FFF798FD42
:102108000290069B9B68029A9A4206D2069B9A689E
:10211800029BD21A069B1A6002E0069B00221A60F4
:10212800069B00225A60069B00229A60069B0122A9
:102138001A74069B0022DA610698FFF791FD019B4D
:10214800002B7FF451AF0E4B1A780D4B5B789A42F7
:102158007FF44AAF9DF81F30002B04D1074B1B6852
:10216800059A9A4201D0012300E0002303F00103FD
:10217800DBB2184609B05DF804FB00BF6807002011
:102188005C0600207B0700206C070020FEFF7F0014
:1021980010B588B00190274B1B68002B44D0254B05
:1021A8001B681B680793FFF73BFD0690224B1B68D3
:1021B800059305990698FFF73BFD034603330493FF
:1021C8001E4B1B7883F00103DBB2002B01D0FFF715
:1021D800DFFC049A079B934238BF1346059A1344C1
:1021E8000593059B23F07F4305930598FFF72CFD86
:1021F800FFF716FD039006990398FFF719FD0346AC
:10220800DC1C06990598FFF713FD03469C420DD97F
:10221800FFF706FD03461846FFF716FD2F20FFF7C8
:102228009FFCFFF7D3FD01E0FFF7D2FC00BF08B029
:1022380010BD00BF680700206C0700207A07002047
:1022480000B587B00023019300238DF81730194B90
:102258001B680493184B1B6803936B461846FFF7DB
:1022680033FE03468DF80B309DF80B30002B08D059
:10227800009B01AA04991846FFF762FE01238DF816
:102288001730019B1846FFF7A5FE0346002B02D026
:1022980001238DF817309DF81730002B02D00398D2
:1022A800FFF776FF054B00221A7000BF07B05DF8F4
:1022B80004FB00BF6C070020680700207B07002094
:1022C80008B50E4B0022C3F840210C4B0022C3F87E
:1022D80044210A4B0022C3F84821084B0022C3F8C6
:1022E8004C21064B0022C3F80021044B0022C3F8FE
:1022F8000421FFF785FD00BF08BD00BF00100140A5
:1023080008B5FFF79DFF00BF08BD000072B6034B7C
:102318001B680133014A136000BF70477C07002027
:10232800054B1B68013B044A1360034B1B68002BD9
:1023380000D162B600BF70477C07002000B583B0AB
:10234800019000F025F80346012B03D004494320EF
:1023580000F03BF8FFF7DAFF00BF03B05DF804FBBD
:10236800A87F000000B583B003468DF8073000F061
:102378000FF80346012B03D00449512000F025F83B
:10238800FFF7CEFF00BF03B05DF804FBA87F000095
:1023980084B0EFF305830193019BC3F30803039310
:1023A800039B002B0DD1EFF314830093009B029342
:1023B800029B03F00103002B0CBF01230023DBB2B7
:1023C80000E00123184604B0704700B585B0034605
:1023D8000091ADF80630BDF80630ADF80830009B26
:1023E800039302AB1A46002144F20200FFF7DAFA1F
:1023F80000BF05B05DF804FB10B487B001900091F0
:10240800019B009A53E8004F104643E8000191F001
:10241800000FF7D1059404900391059B184607B067
:102428005DF8044B704710B487B001900091019B90
:10243800009A53E8004F44EA020043E8000191F093
:10244800000FF6D1059404900391049B184607B039
:102458005DF8044B704710B487B001900091019B60
:10246800009A53E8004F04EA020043E8000191F0A3
:10247800000FF6D1059404900391059B184607B008
:102488005DF8044B704710B487B001900091019B30
:10249800009A53E8004F04EB020043E8000191F072
:1024A800000FF6D1059404900391049B184607B0D9
:1024B8005DF8044B704710B487B001900091019B00
:1024C800009A53E8004FA4EB020043E8000191F0A2
:1024D800000FF6D1059404900391049B184607B0A9
:1024E8005DF8044B704700B583B001900121019855
:1024F800FFF799FF0346184603B05DF804FB00B5E3
:1025080083B0019000210198FFF7A5FF0346184604
:1025180003B05DF804FB000000B583B001900B46E2
:102528008DF80330019B002B03D10849E820FFF701
:102538004CFF019BDA689DF803300199098A01FB79
:1025480003F31344184603B05DF804FBE47F00006E
:1025580000B583B001900091019B002B03D108497D
:10256800F520FFF732FF009B019AD2689B1A019A67
:10257800128AB3FBF2F3DBB2184603B05DF804FB32
:10258800E47F000000B585B00190019B002B01D1CC
:102598000E234DE0019B1B68002B03D12649FF2029
:1025A800FFF713FF019B5B68002B04D122494FF40E
:1025B8008070FFF70AFF019B9B68002B04D11E491E
:1025C80040F20110FFF701FF019BDB68002B04D1EB
:1025D80019494FF48170FFF7F8FE019B1B8A002B05
:1025E80004D1154940F20310FFF7EFFE019B9B68E9
:1025F8001A46019B5B68D31A8DF80F30019B1B6844
:10260800019A52681A6007E0019B1A681368591CFE
:1026180011609DF80F201A709DF80F305A1E8DF822
:102628000F20002BF0D1019B1B6800221A71002398
:10263800184605B05DF804FBE47F000000B585B0DE
:102648000190019B002B04D11C494FF49270FFF7B5
:10265800BCFE002303930020FFF770FE019B1B685C
:102668001A68019B5B689A4220D9019B1B681A680B
:10267800013A1A601B681B7819460198FFF74CFF4E
:102688000390019B9B681A46019B1B681B68D31A21
:102698008DF80B30019B1B681B799DF80B209A4223
:1026A80004D9019B1B689DF80B201A710020FFF7C5
:1026B80059FE039B184605B05DF804FBE47F000053
:1026C80010B584B001900091019B002B04D11149F1
:1026D80040F24710FFF779FE009B002B04D10D490B
:1026E8004FF4A470FFF771FE009B03930020FFF7DF
:1026F80025FE019B1B681C68621C1A6003990198DF
:10270800FFF726FF034623700020FFF72BFE00BFCC
:1027180004B010BDE47F000000B583B00190019BB8
:10272800002B03D10C493120FFF74FFE019B9B681A
:10273800002B0CD0019B5B69019A1069019A116802
:10274800019A92689847019B00229A6000E000BFB6
:1027580003B05DF804FB00BF1C8000000EB400B598
:1027680084B00190019B002B03D118494220FFF748
:102778002CFE019B5B69002B03D114494320FFF712
:1027880024FE019B1B68002B03D110494420FFF74E
:102798001CFE019B5B68002B03D10C494520FFF709
:1027A80014FE059B002B0AD00023039306AB03936A
:1027B80003AB1A460599019800F0B8F900E000BF8C
:1027C80004B05DF804EB03B0704700BF1C80000044
:1027D80000B583B001900B468DF803309DF80330A7
:1027E8000A2B03D10D210198FFF7F2FF019B1A680C
:1027F800019B9B68581C0199886013449DF803202D
:102808001A70019B9A68019B5B689A4202D30198EF
:10281800FFF782FF00BF03B05DF804FB00B587B087
:10282800039002910192009300230593009B03F00B
:102838000103002B24D00BE0029B01330293059B7C
:10284800013305939DF8133019460398FFF7C0FF2D
:10285800029B1B788DF813309DF81330002BEBD1B9
:1028680006E0019B013B019320210398FFF7B0FF8D
:10287800019A059B9A422ED9019B002BF1D12AE09F
:10288800029B002B0BD0029805F0D1F9059006E0C9
:10289800019B013B019320210398FFF799FF019ABF
:1028A800059B9A420FD9019B002BF1D10BE0029BAB
:1028B80001330293059B013305939DF813301946A4
:1028C8000398FFF785FF029B1B788DF813309DF85E
:1028D8001330002BEBD100BF07B05DF804FB0000FC
:1028E80000B589B00390029101920093029B07936F
:1028F8000123069307E0079A019BB2FBF3F30793C2
:10290800069B01330693079A019B9A42F3D2009AD9
:10291800069B9A4201D9009B06930B9B03F0010387
:10292800002B22D10A9B002B1FD00B9B03F0020324
:10293800002B06D0009B002B03D130238DF81730D5
:1029480002E020238DF8173008E00A9B013B0A9328
:102958009DF8173019460398FFF73AFF0A9B002B9A
:1029680003D0069A0A9B9A42EFD301230793009B50
:10297800012B03D9009B013B009309E0029A079BB6
:10298800B2FBF3F30493049A019B9A4200D205E048
:10299800079B019A02FB03F30793E8E7029A079B58
:1029A800B2FBF3F30493049B079A02FB03F3029A26
:1029B800D31A0293154A049B13441B7819460398AB
:1029C800FFF706FF079A019BB2FBF3F30793079BF8
:1029D800002BE3D10B9B03F00103002B11D00A9BC2
:1029E800002B0ED006E00A9B013B0A932021039896
:1029F800FFF7EEFE0A9B002B03D0069A0A9B9A4229
:102A0800F1D300BF09B05DF804FB00BF7C80000073
:102A180000B589B00590049103920293049B002BA2
:102A2800B8BF5B4206930123079307E0039B069A0E
:102A380092FBF3F30693079B01330793039B069AD4
:102A48009A42F3DA029A079B9A4201D9029B0793AA
:102A58000A9B002B0AD0049B002B04DB0B9B03F082
:102A68000403002B02D00A9B013B0A930B9B03F043
:102A78000203002B02D0029B002B16D00B9B03F005
:102A88000103002B11D10A9B002B0ED006E00A9BF4
:102A9800013B0A9320210598FFF79AFE0A9B002B19
:102AA80003D0079A0A9B9A42F1D3049B002B07DABA
:102AB800049B5B4204932D210598FFF789FE08E0EB
:102AC8000B9B03F00403002B03D02B210598FFF781
:102AD8007FFE0B9B03F00203002B19D00B9B03F026
:102AE8000103002B14D1029B002B11D10A9B002B50
:102AF8000ED006E00A9B013B0A9330210598FFF7A8
:102B080067FE0A9B002B03D0079A0A9B9A42F1D3CF
:102B180004990B9B01930A9B0093029B039A0598C7
:102B2800FFF7DEFE00BF09B05DF804FB00B58FB00B
:102B3800059004910392059B002B04D1C8494FF4DA
:102B4800A270FFF742FC059B5B69002B04D1C449C6
:102B58004FF4A370FFF739FC059B1B68002B04D1C9
:102B6800BF4940F24710FFF730FC059B5B68002B1C
:102B780004D1BB494FF4A470FFF727FC049B002B3A
:102B880000F0ED81049B1B788DF83730049B0133EE
:102B980004939DF83730002B00F0D8819DF837302A
:102BA800252B40F0C78100230A9301230C93049B33
:102BB8001B788DF837309DF837302D2B04D0302B0B
:102BC8000AD02B2B10D017E00A9B43F001030A937D
:102BD800049B0133049312E00A9B43F002030A9317
:102BE800049B013304930AE00A9B43F004030A930D
:102BF800049B0133049302E000230C9300BF0C9B59
:102C0800002BD4D1002309939DF837302A2B0CD1FF
:102C1800039B1B68191D039A11601B68099A1344CA
:102C28000993049B013304931AE0049B1B788DF8E5
:102C380037309DF837302F2B12D99DF83730392B84
:102C48000ED8049B01330493099A13469B0013443E
:102C58005B001A469DF837301344303B0993D3E79D
:102C680000230B93049B1B788DF837309DF8373081
:102C78002E2B1DD1049B01330493049B1B788DF8E4
:102C880037309DF837302F2B12D99DF83730392B34
:102C98000ED8049B013304930B9A13469B001344EC
:102CA8005B001A469DF837301344303B0B93E4E73A
:102CB800049B1B788DF837309DF837306C2B03D088
:102CC8009DF83730682B07D1049B01330493049B8C
:102CD8001B788DF83730EFE79DF83730253B532BBD
:102CE80000F2238101A252F823F000BF292F00002F
:102CF800332F0000332F0000332F0000332F000044
:102D0800332F0000332F0000332F0000332F000033
:102D1800332F0000332F0000332F0000332F000023
:102D2800332F0000332F0000332F0000332F000013
:102D3800332F0000332F0000332F0000332F000003
:102D4800332F0000332F0000332F0000332F0000F3
:102D5800332F0000332F0000332F0000332F0000E3
:102D6800332F0000332F0000332F0000332F0000D3
:102D7800332F0000332F0000332F0000332F0000C3
:102D8800332F0000332F0000332F0000332F0000B3
:102D9800332F0000332F0000332F0000332F0000A3
:102DA800332F0000332F0000332F0000332F000093
:102DB800332F0000332F0000B52E0000332F000002
:102DC800332F0000332F0000332F0000332F000073
:102DD800332F0000332F0000332F0000332F000063
:102DE800332F0000452E00006D2E0000332F000009
:102DF800332F0000332F0000332F00006D2E00000A
:102E0800332F0000332F0000332F0000332F000032
:102E1800332F0000332F0000F52E0000332F000061
:102E2800332F0000D92E0000332F0000912E000010
:102E3800332F0000332F0000B52E0000039B1B68C2
:102E4800191D039A11601B680C930C9B8DF81F3099
:102E58009DF81F3019460598FFF7BAFC66E000BFD9
:102E680048800000039B1B68191D039A11601B68AA
:102E78000C930A9B0193099B00930B9B0A220C99C4
:102E88000598FFF7C5FD51E0039B1B68191D039AC0
:102E980011601B680C930C990A9B0193099B009382
:102EA8000B9B0A220598FFF71BFD3FE0039B1B685D
:102EB800191D039A11601B680C930C990A9B0193C6
:102EC800099B00930B9B10220598FFF709FD2DE045
:102ED800039B1B68191D039A11601B6808930A9BC2
:102EE800099A08990598FFF799FC1FE0039B1B684E
:102EF800191D039A11601B680C9330210598FFF780
:102F080067FC78210598FFF763FC0C99002301936F
:102F180008230093082310220598FFF7E1FC05E039
:102F280025210598FFF754FC00E000BF049B0133FE
:102F3800049305E09DF8373019460598FFF748FCDB
:102F4800049B1B78002B7FF41DAE00E000BF059B9F
:102F58001B7B002B04D00598FFF7DEFB00E000BFC9
:102F68000FB05DF804FB00BF00B583B00190019875
:102F7800FFF708FB0346184603B05DF804FB00B5ED
:102F88008BB001900091019B1B8A043B0793009A28
:102F9800079B1344DA1C079BB2FBF3F38DF81B3035
:102FA8000198FFF74BFB0590059B002B01D10023EF
:102FB80038E0059B00221A71059B01225A71079B74
:102FC8009AB2059BDA80059B09939DF81B30013B5B
:102FD8000493099B019A1A60002308931DE0019845
:102FE800FFF72CFB0390039B002B0ED0059B5B790E
:102FF8000133DAB2059B5A71099B039A1A60039B45
:10300800019A1A60039B099304E0059800F00EF8F2
:10301800002307E0089B01330893089A049B9A420F
:10302800DDD3059B18460BB05DF804FB00B58BB0EB
:103038000190019B0793079B5B798DF81B30019BDF
:1030480008939DF81B30013B05930023099305E085
:10305800089B1B680893099B01330993099A059BF0
:103068009A42F5D3089B1B680493019B089300239D
:1030780009930BE0089B1B68039308990498FFF7D2
:103088001FFB039B0893099B013309939DF81B3091
:10309800099A9A42EED300BF0BB05DF804FB00B565
:1030A80085B00190019B0393039B043301211846CB
:1030B800FFF7E9F900BF05B05DF804FB00B587B07C
:1030C8000190019B0593059B043301211846FFF7E6
:1030D800F2F90346039303AB0493049B1B78002B7C
:1030E80002D10198FFF7A2FF00BF07B05DF804FB0B
:1030F80000B591B00390029101920093039B002BBD
:1031080003D14349B620FFF760F9039B0993039B5A
:103118000F93099BDB881A46099B5B7903FB02F333
:10312800043B0893009A089B9A4203D33849C42069
:10313800FFF74BF9099BDB880793009B1A1D079B38
:10314800B2FBF3F30E93009B0433079AB3FBF2F23E
:10315800079901FB02F29B1A0D93019B1A68009BC9
:103168001344089A9A4203D2089A009BD31A01E0A2
:10317800019B1B680C93019B0C9A1A6005E00F9B3E
:103188001B680F930E9B013B0E930E9B002BF6D1F1
:1031980000230B93079A0D9BD31A0A930A9A0C9B48
:1031A800934228BF13460A932AE0029A0B9B1344C2
:1031B80006930F9A0D9B1344043305939DF84830EA
:1031C800002B05D00A9A0599069804F0D4FC04E06F
:1031D8000A9A0699059804F0CEFC00230D930F9BDC
:1031E8001B680F930C9A0A9BD31A0C930B9A0A9B91
:1031F80013440B93079A0C9B934228BF13460A93D8
:103208000C9B002BD1D100BF11B05DF804FB00BFAF
:103218008C80000000B589B0059004910392029358
:10322800039B079307AA00230093029B0499059820
:10323800FFF75EFF079B039A9A4203D00349F620E3
:10324800FFF7C3F800BF09B05DF804FB8C800000ED
:1032580000B589B00590049103920293039B0793EC
:1032680007AA01230093029B04990598FFF740FFE2
:10327800079B039A9A4204D004494FF48070FFF7E1
:10328800A4F800BF09B05DF804FB00BF8C80000003
:1032980082B00190019B9B6800229A60019B9B6809
:1032A80000221A61019B9B6800225A61019B9B685E
:1032B8000022DA60019B9B6800225A60019B9B6890
:1032C80000221A6000BF02B07047000000B585B048
:1032D8000190019800F00EF80390039B002B01D099
:1032E800039B00E0024B184605B05DF804FB00BFE5
:1032F800C480000086B00190164B0593164B0493CA
:103308001FE0049A059BD31ADB10DA0F13445B10F5
:10331800DB00059A13440393039B1B680293029AEC
:10332800019B9A4202D9039B04930AE0029A019BEB
:103338009A4203D2039B0833059302E0039B5B6820
:1033480004E0059A049B9A42DBD30023184606B092
:10335800704700BF98840000B085000000B589B0B0
:1033680001900091009B0793019B1B788DF8083012
:10337800019B5B680393019B9B68DBB28DF810305F
:10338800019BDB680593019B1B69DBB28DF8183044
:10339800074A079B52F823300649079A51F822102A
:1033A80002AA1046984700BF09B05DF804FB00BFA9
:1033B800800700208C07002000B58BB00390029195
:1033C80001920093039B1B7809930F49099B019A6B
:1033D80041F823200D49099B009A41F82320002336
:1033E8000893039B181D019B002B01D0084A00E09D
:1033F8000022099B029901F029F90890089B1846B8
:103408000BB05DF804FB00BF800700208C0700208C
:103418006533000000B589B001900091009B0793C7
:10342800019B1B788DF80C30019B5B680493019B12
:103438009B68DBB28DF81430019BDB680693074A62
:10344800079B52F823300649079A51F8221003AA1D
:103458001046984700BF09B05DF804FB98070020A4
:103468009C07002000B589B001900091009B07934C
:10347800019B1B788DF80C30019B5B680493019BC2
:103488009B68DBB28DF81430019BDB680693074A12
:10349800079B52F823300649079A51F8221003AACD
:1034A8001046984700BF09B05DF804FB9807002054
:1034B8009C07002030B58FB0039002910192039BC6
:1034C8001B780C9326490C9B019A41F82320029BF8
:1034D8001A6924490C9B41F82320029B5B7F1946FB
:1034E800214A0C9B13440A461A70029B04AC1D46E1
:1034F8000FCD0FC495E80F0084E80F000C9B0893CC
:1035080000230D93039B1B781A46174B9B5C002BDB
:103518000DD0039B181D019B002B01D0134A00E01E
:10352800002204AB194602F077FC0D9014E0039BCF
:103538001B781A460C4B9B5C002B0DD1039B03F1A7
:103548000C00019B002B01D0094A00E0002204ABCB
:10355800194601F039FE0D900D9B18460FB030BD8D
:10356800980700209C070020A00700201D340000B9
:103578006D34000082B003468DF807309DF807309F
:1035880003F01F0205499DF907305B09012000FA85
:1035980002F241F8232000BF02B0704700E100E0CA
:1035A80082B0034600918DF807309DF90730002B53
:1035B8000CDA009BDAB20C499DF8073003F00F03D0
:1035C800043B5201D2B20B441A7609E0009BDAB2EE
:1035D80006499DF907305201D2B20B4483F8002303
:1035E80000BF02B0704700BF00ED00E000E100E05E
:1035F80000B583B003460A468DF8073013468DF8A8
:1036080006309DF80630072B03D908496B20FEF7D2
:10361800DCFE9DF806209DF9073011461846FFF795
:10362800BFFF00BF03B05DF804FB00BFB08500001A
:1036380000B583B003468DF807309DF9073018466A
:10364800FFF798FF00BF03B05DF804FB00B583B037
:103658000346ADF80630BDF80630184600F026F8E7
:1036680003461B68012B0CBF01230023DBB218465D
:1036780003B05DF804FB00B585B00346ADF806302D
:10368800BDF80630184600F011F803461A46002324
:103698001360BDF80630184600F008F803461B68AA
:1036A8000393039B00BF05B05DF804FB82B003469B
:1036B800ADF80630BDF8063003F1804303F5C0438A
:1036C800184602B07047000082B00190034A019B7F
:1036D800C2F8043300BF02B0704700BF006000406A
:1036E80082B00190034BD3F80423019B1340184682
:1036F80002B070470060004082B00190084A019B08
:1037080003F5A27352F82330054943F00102019BE7
:1037180003F5A27341F8232000BF02B0704700BF31
:103728000060004084B00390029113468DF8073082
:10373800144A039B03F5A27352F82330114923F46A
:10374800473323F44073039A02F5A27241F82230FA
:103758000C4A039B03F5A27352F82320029B1B0219
:1037680003F4F8519DF807301B0403F440330B436E
:1037780004491A43039B03F5A27341F8232000BFB1
:1037880004B070470060004082B00190054A019B78
:1037980003F5A27352F823301B0A03F01F031846DF
:1037A80002B070470060004082B00190064A019B59
:1037B80003F5A27352F823301B0C03F00303DBB2AA
:1037C800184602B0704700BF0060004000B583B0E3
:1037D8000190019B1B681F2B04D905494FF4F37016
:1037E800FEF7F3FD4FF0A043184603B05DF804FB65
:1037F800DC85000000B585B00190084611461A46E0
:1038080003468DF803300B468DF8023013468DF8C9
:10381800013001AB1846FFF7D9FF03909DF803204C
:103828009DF802305B001A439DF801309B001A4353
:103838009DF818301B0242EA03019DF81C301B0456
:10384800019A1943039B02F5E07243F8221000BF66
:1038580005B05DF804FB00B585B003900B468DF804
:103868000B309DF80B20002301930023009313468F
:10387800002200210398FFF7BDFF00BF05B05DF8E7
:1038880004FB00B585B0019001AB1846FFF79EFF19
:103898000390019A039B02F5E07253F8223023F05B
:1038A80002030293019A039B02F5E072029943F81E
:1038B800221000BF05B05DF804FB00B585B001908B
:1038C8000B468DF8033001AB1846FFF77FFF0390D6
:1038D800019A039B02F5E07253F82230019A23F40F
:1038E8004031039B02F5E07243F82210019A039BD2
:1038F80002F5E07253F822309DF8032012041146B5
:10390800019A1943039B02F5E07243F8221000BFA5
:1039180005B05DF804FB00B585B0019001AB184611
:10392800FFF754FF0390039800F020F80246019B2C
:1039380022FA03F303F00103184605B05DF804FB0F
:1039480000B585B0019001AB1846FFF73FFF039023
:10395800019A039B02F5E07253F822301B0C03F026
:103968000303DBB2184605B05DF804FB82B0019092
:10397800019BD3F81035184602B0704700B587B0E0
:103988000390029101924FF0A0430493039A029B83
:103998001344012B04D9124940F21630FEF715FDE5
:1039A800039B059311E0059B9B0006AA134453F85B
:1039B800083C1846FFF7DAFF0246019B1A60019B94
:1039C80004330193059B01330593039A029B134427
:1039D800059A9A42E7D300BF07B05DF804FB00BF21
:1039E800DC85000084B001900091009B0393019B4B
:1039F800DB080293019B03F0070301930122019B5B
:103A080002FA03F30399029A0A44127813401846FB
:103A180004B0704784B001900091009B0393019B10
:103A2800DB080293019B03F007030193039A029BAF
:103A380013441B785AB20121019B01FA03F35BB2CC
:103A4800134359B2039A029B1344CAB21A7000BFB7
:103A580004B0704782B001900C4A019B1344303384
:103A680093F90030002B09DB084A019B13443033DB
:103A780093F90030072B01DC012300E0002303F059
:103A88000103DBB2184602B0704700BFA40700204C
:103A980082B00190064A019B1344303393F90030F9
:103AA800072BCCBF01230023DBB2184602B07047B6
:103AB800A407002082B00190064A019B13443033CA
:103AC80093F90030DB43DBB2DB09DBB2184602B006
:103AD800704700BFA407002084B0039002910192B0
:103AE8008DF80330029B59B20E4A039B13443033BE
:103AF8000A461A700B49029B019A41F823209DF847
:103B0800033083F00103DBB2002B08D0029B083B93
:103B1800039A51B2034A13440A4683F8502000BF5F
:103B280004B07047A407002082B00190044A019BAA
:103B380013443033FF221A7000BF02B0704700BF31
:103B4800A407002000B583B0019004490198FFF74D
:103B580061FF00BF03B05DF804FB00BFF807002059
:103B680082B00190044A019B1344303393F900302A
:103B7800184602B0704700BFA407002082B0019029
:103B8800034A019B52F82330184602B0704700BF21
:103B9800A407002000B589B00390029113468DF860
:103BA8000730FF238DF81F309DF80730002B01D018
:103BB800002300E0082305939DF80730002B01D06F
:103BC800082300E00C230493059B069314E00F4A96
:103BD800069B52F82330B3F1FF3F0AD19DF8073016
:103BE800029A06990398FFF777FF069B8DF81F3016
:103BF80006E0069B01330693069A049B9A42E6D395
:103C08009DF91F30184609B05DF804FBA407002091
:103C180082B003468DF807309DF80730094A4FF007
:103C2800FF3142F823109DF80730072B07D99DF87C
:103C38000730083B034A1344FF2283F8502000BF93
:103C480002B07047A407002000B583B0254B93F855
:103C58005830002B03D008230193019B3EE000233A
:103C68008DF8033009E09DF803301846FFF75CFF34
:103C78009DF8033001338DF803309DF803301F2B76
:103C8800F1D900238DF8033009E09DF80330184678
:103C9800FFF7BEFF9DF8033001338DF803309DF820
:103CA80003300B2BF1D9042200210F4803F08CFFBD
:103CB80006210620FFF79CFC0620FFF7B9FC4FF40D
:103CC800BE70FFF7D8FC4FF00040FFF7FDFC054B36
:103CD800012283F8582000230193019B184603B062
:103CE8005DF804FBA4070020F807002000B587B0A2
:103CF800039002910192039B1F2B04D9364940F28D
:103D08000720FEF762FB002305930398FFF7D2FE16
:103D18000346002B02D00823059357E0029B9B78AB
:103D2800C3F34003DBB21A4601990398FFF732FF49
:103D380003468DF813309DF91330B3F1FF3F43D09C
:103D4800029B9B78C3F38003DBB283F00103DBB2F1
:103D5800002B13D0029B9B7803F00103DBB2002BEE
:103D680003D00398FFF78DFD05E0029B5B781946A9
:103D78000398FFF770FD0398FFF7E4FE029B9B781A
:103D880003F00203DBB2002B08D09DF91300029B5D
:103D98001B781A460399FFF7C5FC17E09DF9133005
:103DA800083B0E4A134493F95010029B1B789B0161
:103DB8005AB29DF91330083B0A4351B2074A1344DB
:103DC8000A4683F8502001E004230593059B184612
:103DD80007B05DF804FB00BF10860000A4070020B0
:103DE80000B589B001900B468DF80330019B1F2B5D
:103DF80004D93D4940F23720FEF7E7FA0198FFF76A
:103E080059FE0346002B04D137494FF40E70FEF7D4
:103E1800DCFA0198FFF73CFE0346002B2FD00198EF
:103E2800FFF79EFE0346083B304A134493F950308F
:103E38008DF80F309DF80F309B098DF80E309DF8E6
:103E48000E30032B0BD10198FFF765FD0346002BBD
:103E580001D0032300E002238DF81F3008E09DF80D
:103E68000E30012B01D1022300E003238DF81F300F
:103E78009DF81F3019460198FFF71FFD30E00198A3
:103E8800FFF7E8FD0346002B2AD00198FFF768FEEC
:103E980003460693069B9BB240339BB29B00ADF84A
:103EA8001630069B1846FFF727FCBDF81630184653
:103EB800FFF7E1FB9DF80330002B11D00198FFF7C5
:103EC8004FFE03461846FFF759FE0490049B002B4B
:103ED80006D00122069B02FA03F31846FFF7F4FB0B
:103EE80000BF09B05DF804FB10860000A40700209D
:103EF80000B595B000231093002303934FF480730B
:103F0800ADF83A300123129300230F9321E0BDF856
:103F18003A301846FFF79AFB0346002B0ED012984A
:103F2800FFF7DEFB0346002B08D0BDF83A301846F1
:103F3800FFF7A1FB109A129B13431093129B5B008F
:103F48001293BDF83A300433ADF83A300F9B013381
:103F58000F930F9B072BDAD94FF4BE70FFF776FB50
:103F68000346002B0DD04FF4BE70FFF784FB109B67
:103F780043F00043109303AB1A4601210020FFF7DA
:103F8800FDFC109BDBB2002B29D0012312930023E8
:103F98000F9321E0129A109B1340002B16D00F9814
:103FA800FFF7F2FB0D900F98FFF7FEFB03468DF825
:103FB80033300F98FFF7E2FD0B900B9B002B05D0D9
:103FC8009DF833200B9B11460D989847129B5B0078
:103FD80012930F9B01330F930F9B072BDAD9109B7A
:103FE800002B80F2EE8000238DF84F3000230293DF
:103FF800002311930AE0119B9B0014AA13444FF06D
:10400800FF3243F84C2C119B01331193119B002B69
:10401800F1D000238DF84F3000230F9378E06B4ADE
:104028000F9B1344503393F900308DF82B309DF8D3
:104038002B3023F0C0030993644A0F9B1344503379
:1040480093F90030B3F1FF3F5FD001AB19460998EF
:10405800FFF7C8FC0346002B57D09DF82B309B096F
:104068008DF823300998FFF77BFD03461846FFF7C4
:1040780085FD0790079B002B03D19DF82330032B68
:1040880043D19DF82330032B04D102AB194609987C
:10409800FFF7C0FC0998FFF753FC03468DF81B3067
:1040A80003AB19460998FFF79DFC0590059B002B6B
:1040B80003D09DF81B30022B06D0059B002B24D182
:1040C8009DF81B30032B20D19DF82330032B13D1EF
:1040D8009DF81B30022B01D1032300E002238DF849
:1040E80013309DF8133019460998FFF7E6FB9DF841
:1040F8004F3001338DF84F30079B002B05D09DF8CA
:104108002320079B1146099898470F9B01330F936B
:104118000F9B032B83D99DF84F30002B4CD00123E4
:104128008DF84E306B461A4601210020FFF726FC19
:104138000023119314E0119B9B0014AA134453F815
:10414800502C119B9B0014A90B4453F8443C9A42F1
:1041580003D000238DF84E3005E0119B01331193F5
:10416800119B002BE7D09DF84E30002B03D0002385
:104178008DF84F3020E0002311931AE0119B9B002B
:1041880014AA134453F8502C119B9B0014A90B44F8
:1041980043F8442C119B9B0014AA134453F8482C51
:1041A800119B9B0014A90B4443F84C2C119B013321
:1041B8001193119B002BE1D09DF84F30002B7FF419
:1041C80028AF00BF15B05DF804FB00BFA4070020AE
:1041D80008B5064B1B68002B03D105495120FEF793
:1041E800F4F8024B1B68984700BF08BD0008002080
:1041F8004886000082B00190019B044A934201D195
:10420800034B00E00023184602B07047002000402E
:104218000008002000B587B001900091019B002B99
:1042280003D118497720FEF7D0F80198FFF7E2FF8D
:104238000590059B002B1ED000238DF8133000201D
:10424800FEF77CF8059B1B79002B03D001238DF822
:10425800133005E0059B009A1A60059B01221A712C
:104268000020FEF77FF89DF81330002B03D01123B0
:104278000393039B02E000230393039B184607B0B4
:104288005DF804FB4886000000B585B00190019BED
:10429800002B03D10A499B20FEF797F80198FFF7F6
:1042A800A9FF0390039B002B05D0039B00221A60F3
:1042B800039B00221A7100BF05B05DF804FB00BF24
:1042C8004886000082B003468DF807309DF8073015
:1042D80003F01F0205499DF907305B09012000FA28
:1042E80002F241F8232000BF02B0704700E100E06D
:1042F80082B0034600918DF807309DF90730002BF6
:104308000CDA009BDAB20C499DF8073003F00F0372
:10431800043B5201D2B20B441A7609E0009BDAB290
:1043280006499DF907305201D2B20B4483F80023A5
:1043380000BF02B0704700BF00ED00E000E100E000
:1043480082B00190019B1B0B5BB2184602B070470C
:1043580000B583B003460A468DF8073013468DF83A
:1043680006309DF80630072B03D908496B20FEF765
:104378002CF89DF806209DF9073011461846FFF7DE
:10438800B7FF00BF03B05DF804FB00BF80860000E4
:1043980000B583B003468DF807309DF907301846FD
:1043A800FFF790FF00BF03B05DF804FB84B00190F5
:1043B8000B46ADF80230BDF80230019A13440022D2
:1043C8001A60BDF80230019A13441B680393039BDB
:1043D80000BF04B0704782B001900B46ADF80230C0
:1043E800BDF80230019A13441B68002B14BF012347
:1043F8000023DBB2184602B0704782B001900091EA
:10440800019B009AC3F8042300BF02B0704782B032
:1044180001900091019B009AC3F8082300BF02B0E5
:10442800704782B00190019B0122C3F8002500BFAC
:1044380002B0704784B00390029101920093039BED
:10444800029AC3F80825039B019AC3F80C25039B1D
:10445800009AC3F8102500BF04B0704782B00190DD
:104468000B468DF803309DF80320019BC3F81C25EB
:1044780000BF02B0704782B00190019BD3F8183595
:10448800DBB2184602B0704782B001900091009AE2
:10449800019BC3F8242500BF02B0704784B0019087
:1044A8000B468DF8033013468DF802309DF8023024
:1044B800002B14BF01230023DBB203939DF80330C4
:1044C800022B09D0032B0CD0012B00D00EE0039B4C
:1044D80043F00203039309E0039B43F004030393AF
:1044E80004E0039B43F00603039300BF019B039A78
:1044F800C3F8542500BF04B07047000000B583B06E
:104508000190019B1B681F2B04D905494FF4F370D8
:10451800FDF75BFF4FF0A043184603B05DF804FBBE
:10452800AC86000000B585B00190084611461A46D1
:1045380003468DF803300B468DF8023013468DF88C
:10454800013001AB1846FFF7D9FF03909DF803200F
:104558009DF802305B001A439DF801309B001A4316
:104568009DF818301B0242EA03019DF81C301B0419
:10457800019A1943039B02F5E07243F8221000BF29
:1045880005B05DF804FB00B585B0039000230193E6
:10459800002300930023012201210398FFF7C2FFA3
:1045A80000BF05B05DF804FB00B585B003900B466D
:1045B8008DF80B309DF80B20002301930023009306
:1045C8001346002200210398FFF7ACFF00BF05B097
:1045D8005DF804FB00B585B0019001AB1846FFF704
:1045E8008DFF0390019B012202FA03F319460398F9
:1045F80000F018F800BF05B05DF804FB00B585B001
:10460800019001AB1846FFF779FF0390019B012247
:1046180002FA03F31946039800F00EF800BF05B03C
:104628005DF804FB82B001900091019B009AC3F8E9
:10463800082500BF02B0704782B001900091019B2D
:10464800009AC3F80C2500BF02B0704700B58DB0C2
:104658000590049103920293049B002B03D17449A3
:104668005320FDF7B2FE059B1B791A462C2303FB4A
:1046780002F3704A13440A930A9B1B7F002B03D052
:1046880008230793079BCFE0059B1A68059B1B79B6
:104698001946694B53F8213019461046FFF7BAFD01
:1046A8000346002B03D011230793079BBCE00A9B0A
:1046B800039A1A600A9B029A5A60049B1B7B012B7F
:1046C80005D8049B1B781846FFF798FF04E0049B65
:1046D8001B781846FFF77EFF049B1B7818460023BB
:1046E800019300230093002300220121FFF71AFF02
:1046F800049B5B78FF2B09D0049B5B780B930B988A
:10470800FFF77CFF0B98FFF73EFF02E04FF0FF3307
:104718000B93049B9B78FF2B07D0049B9B780993F2
:1047280001210998FFF740FF02E04FF0FF3309939A
:10473800059B1B791846049B99783E4A2C2303FB5A
:1047480000F313441F330A461A70049BDB78FF2BCF
:1047580009D0049BDB781846FFF73CFF049BDB7805
:104768001846FFF710FF059B1B791846049BD9785C
:10477800304A2C2303FB00F313441E330A461A70F5
:10478800059B1B680893049B1B781946099B0B9A89
:104798000898FFF74FFE049B9B6819460898FFF797
:1047A80073FE049B197B049B5B7B1A460898FFF7F2
:1047B80075FE059B1B791846049B59791D4A2C23C5
:1047C80003FB00F3134420330A461A700A9B1B6844
:1047D800002B03D004210898FFF70FFE0898FFF775
:1047E80020FE0A9B1B68002B15D0059B1B681846EA
:1047F800FFF7A6FD03461A46049B1B791946104687
:10480800FFF7A6FD059B1B681846FFF799FD0346B1
:104818001846FFF7BDFD0A9B00225A770A9B012222
:104828001A7700230793079B18460DB05DF804FB21
:10483800DC860000080800201087000000B583B05F
:104848000190019B9B7FFF2B04D0019B9B7F184607
:10485800FFF7C0FE019B00225A77019B00221A72C3
:10486800019B1B68019A02F10800019A52681146DF
:10487800984700BF03B05DF804FB00B585B0019010
:1048880000910198FFF7F7FD03468DF80B30009B68
:104898005A6A009B9B699A4208D2009B5A69009BFE
:1048A8005B6A13449DF80B20D2B21A70009B5B6AB6
:1048B8005A1C009B5A62009B5B6A01330393009B5E
:1048C80093F82830002B0FD0009B1B69039A9A425B
:1048D80002D2009B039A1A61009B9B69039A9A4231
:1048E80002D2009B039A9A61009B1B69039A9A4221
:1048F8000AD2009BDA68039B13441B781946019877
:10490800FFF7ACFD01231FE0009B9B69039A9A42C5
:1049180008D2009B93F8203019460198FFF79EFDB6
:10492800012311E0009B5A6A009B1B699A4205D338
:10493800009B5A6A009B9B699A4201D2012300E0BE
:10494800002303F00103DBB2184605B05DF804FB51
:1049580000B585B0039002910192029B00225A6231
:1049680004210398FFF753FD4FF484710398FFF770
:104978001DFD019B5B68002B03D0019B1B681B7806
:1049880002E0029B93F8203019460398FFF766FD72
:10499800019B5B68012B08D9019B1B6801331B78BD
:1049A80019460398FFF75AFD0AE0019BDB68012BC3
:1049B80006D9029B93F8203019460398FFF74EFD5D
:1049C800029B1B68002B04D004210398FFF715FDF8
:1049D80020E000BF4FF484710398FFF7FCFC034606
:1049E80083F00103DBB2002BF4D14FF484710398F8
:1049F800FFF7DCFC02990398FFF73FFF0346002B03
:104A0800E7D1029B9B7FFF2B04D0029B9B7F18461C
:104A1800FFF7E0FD00BF05B05DF804FB10B586B0F8
:104A2800039002910192039B1B791A462C2303FBE6
:104A380002F3304A13440593059B1B7F002B04D1D6
:104A48002D494FF4B270FDF7C0FC029B1B68002B88
:104A580008D1029B5B68002B04D0274940F26510FF
:104A6800FDF7B3FC029B9B68002B08D1029BDB6817
:104A7800002B04D020494FF4B370FDF7A6FC0023A7
:104A88000493059B5B7FDBB2002B03D011230493B7
:104A9800049B2CE0059B1B68002B02D0059B012280
:104AA8005A77059B029A03F10C0413460FCB84E84E
:104AB8000F00059B002283F82820059B9B7FFF2B76
:104AC80004D0059B9B7F1846FFF798FD019B002BA0
:104AD80005D0059B00225A770623049306E0039B22
:104AE8001B68029A05991846FFF732FF049B18467F
:104AF80006B010BD08080020DC86000000B583B0B1
:104B080001900091009B1B68002B04D10D4940F2D5
:104B18009910FDF75AFC4FF484710198FFF746FC91
:104B280000990198FFF7A9FE034683F00103DBB261
:104B3800002B02D00098FFF781FE00BF03B05DF89C
:104B480004FB00BFDC86000008B503490348FFF7F3
:104B5800D5FF00BF08BD00BF080800200030004096
:104B680082B003468DF807309DF8073003F01F0226
:104B780005499DF907305B09012000FA02F241F866
:104B8800232000BF02B0704700E100E082B0034676
:104B98008DF807309DF8073003F01F0206499DF98C
:104BA80007305B09012000FA02F2203341F8232084
:104BB80000BF02B0704700BF00E100E082B00346CA
:104BC80000918DF807309DF90730002B0CDA009B17
:104BD800DAB20C499DF8073003F00F03043B520189
:104BE800D2B20B441A7609E0009BDAB206499DF965
:104BF80007305201D2B20B4483F8002300BF02B041
:104C0800704700BF00ED00E000E100E082B00190D5
:104C1800019B1B0B5BB2184602B0704700B583B00E
:104C280003460A468DF8073013468DF806309DF87E
:104C38000630072B03D908496B20FDF7C6FB9DF802
:104C480006209DF9073011461846FFF7B7FF00BF49
:104C580003B05DF804FB00BF1487000000B583B003
:104C680003468DF807309DF907301846FFF778FF9F
:104C780000BF03B05DF804FB00B583B003468DF8B0
:104C880007309DF907301846FFF780FF00BF03B0D3
:104C98005DF804FB84B001900B46ADF80230BDF816
:104CA8000230019A134400221A60BDF80230019ABA
:104CB80013441B680393039B00BF04B0704782B082
:104CC80001900B46ADF80230BDF80230019A13444A
:104CD8001B68002B14BF01230023DBB2184602B067
:104CE800704782B001900091019B009AC3F8042399
:104CF80000BF02B0704782B001900091019BD3F8C9
:104D08000423009B1340002B14BF01230023DBB2B4
:104D1800184602B0704782B001900091019B009A3A
:104D2800C3F8082300BF02B0704784B00190019B0C
:104D3800D3F880340393019B039AC3F88024039B20
:104D4800184604B0704782B00190019B0422C3F852
:104D5800002500BF02B0704782B00190019B00227D
:104D6800C3F8002500BF02B0704784B003900291D9
:104D78000192039B019AC3F81425039B029AC3F876
:104D88000C2500BF04B0704700B583B001904FF008
:104D9800FF324FF0FF310198FFF7E7FF00BF03B084
:104DA8005DF804FB82B00190019BD3F80C351846DE
:104DB80002B0704782B00190019BD3F814351846B1
:104DC80002B0704782B00190019BD3F808351846AD
:104DD80002B0704782B00190019BD3F81035184695
:104DE80002B0704784B0039002910192039B029A2B
:104DF800C3F80825039B019AC3F8102500BF04B027
:104E0800704700B583B001904FF0FF324FF0FF318B
:104E18000198FFF7E7FF00BF03B05DF804FB82B01D
:104E28000190019BD3F81835DBB2184602B07047E1
:104E380082B001900B468DF803309DF80320019B4A
:104E4800C3F81C2500BF02B0704782B001900B4622
:104E58008DF803309DF80330019A134401221A603B
:104E680000BF02B0704782B001900B468DF8033046
:104E780013468DF802309DF803209DF80230134345
:104E8800DBB21A46019BC3F86C2500BF02B070471D
:104E980082B001900091019B009AC3F8242500BFBD
:104EA80002B0704700B583B00190019B1B681F2BAF
:104EB80004D905494FF4F370FDF787FA4FF0A04382
:104EC800184603B05DF804FB4087000000B585B0C4
:104ED8000190084611461A4603468DF803300B46E2
:104EE8008DF8023013468DF8013001AB1846FFF7F4
:104EF800D9FF03909DF803209DF802305B001A4308
:104F08009DF801309B001A439DF818301B0242EAB5
:104F180003019DF81C301B04019A1943039B02F5F9
:104F2800E07243F8221000BF05B05DF804FB00B53D
:104F380085B00390002301930023009300230122EE
:104F480001210398FFF7C2FF00BF05B05DF804FB1D
:104F580000B585B003900B468DF80B309DF80B20FB
:104F68000023019300230093134600220021039895
:104F7800FFF7ACFF00BF05B05DF804FB00B585B0D6
:104F880003900023019300230093002301220021B2
:104F98000398FFF79BFF00BF05B05DF804FB00B561
:104FA80085B0019001AB1846FFF77CFF0390019B89
:104FB800012202FA03F31946039800F004F800BF2F
:104FC80005B05DF804FB82B001900091019B009A46
:104FD800C3F8082500BF02B0704700B583B0019040
:104FE8000091009B1B68B3F1FF3F09D0009B1B6831
:104FF8001846FFF7D4FF009B1B681846FFF797FF7A
:10500800009B5B68B3F1FF3F05D0009B5B68002104
:105018001846FFF79DFF019B1A68009B9B6919467C
:105028001046FFF735FF019B1868009B597D009BD0
:105038001B7D1A46FFF717FF019B1868009B19682C
:10504800009B5B681A46FFF790FE009B1B7D012BB7
:1050580022D1009B9B68B3F1FF3F05D0009B9B6862
:1050680000211846FFF774FF009BDB68B3F1FF3F90
:1050780009D0009BDB681846FFF791FF009BDB68AF
:105088001846FFF754FF019B1868009BD968009BDE
:105098009B681A46FFF7A6FE00BF03B05DF804FB45
:1050A80000B583B001900B468DF80330019B1B6857
:1050B8004FF48E711846FFF7EDFD019B1B684FF406
:1050C800A2711846FFF7E6FD019B1B680E491846BA
:1050D800FFF707FE019B1B681846FFF797FD03467D
:1050E8001A469DF8033019461046FFF797FD019BB5
:1050F8001B681846FFF78AFD03461846FFF7AEFD02
:1051080000BF03B05DF804FB8000020000B583B067
:105118000190019B1B6808491846FFF7FCFD019B9D
:105128001B681846FFF772FD03461846FFF7A4FDF3
:1051380000BF03B05DF804FB8402020000B587B02D
:105148000190019B1B681846FFF72CFE0590019BF8
:105158001B681846FFF72EFE0490019B1B68184633
:10516800FFF730FE0390019B1B681846FFF732FEDD
:105178000290019B1B681846FFF706FE019B1B68FF
:105188001846FFF73EFE059BB3F1FF3F02D0059896
:10519800FFF7F4FE049BB3F1FF3F02D00498FFF73A
:1051A800EDFE029BB3F1FF3F02D00298FFF7E6FE47
:1051B800039BB3F1FF3F02D00398FFF7DFFE00BF68
:1051C80007B05DF804FB000000B587B003900291BA
:1051D8000192029B002B03D12D49AA20FDF7F5F877
:1051E800039B1B791A462C2303FB02F3294A134419
:1051F800049300230593049B93F82A30002B03D0D3
:1052080008230593059B3EE0039B1A68039B1B79C3
:105218001946214B53F8213019461046FEF7FAFF7C
:105228000346002B03D011230593059B2BE002991D
:105238000398FFF7D2FE049B019A5A60029B1A69F1
:10524800049B1A60049B5B68002B05D0029B1B7FA4
:1052580019460398FFF724FF039B1B681846FFF7BE
:1052680072FD049B00229A61049B0022DA61049B70
:10527800002283F82920049B00225A61049B012202
:1052880083F82A20059B184607B05DF804FB00BF89
:105298007487000034080020A887000000B585B096
:1052A8000190019B1B791A462C2303FB02F3114A38
:1052B80013440393019B1B681846FFF74DFD039B9E
:1052C8005B68002B02D00198FFF720FF0198FFF7D9
:1052D80035FF019B1B681846FEF7D6FF039B00228B
:1052E80083F82A20039B00225A6000BF05B05DF8AE
:1052F80004FB00BF3408002000B585B00190009180
:105308004FF48E710198FFF7C5FC009B9A68009BCB
:105318001B6A13441B788DF80F30009B1B6A5A1CBC
:10532800009B1A629DF80F3019460198FFF780FD1F
:1053380000BF05B05DF804FB00B583B00190009193
:1053480016E0009B93F82830DBB2002B01D0002335
:1053580015E04FF48E710198FFF7B1FC034683F016
:105368000103DBB2002BECD100990198FFF7C4FFD1
:10537800009B1A6A009B5B699A42EAD3012318468C
:1053880003B05DF804FB000000B587B003900291FC
:105398000192039B1B791A462C2303FB02F33C4A18
:1053A80013440493049B93F82A30012B04D0394901
:1053B80040F21510FDF709F8029B002B04D135497E
:1053C8004FF48B70FDF701F8019B002B04D1314994
:1053D80040F21710FCF7F9FF039800F05DF8034658
:1053E800002B03D011230593059B4CE0049B019AE5
:1053F8005A61049B029A9A60049B00221A62049BD9
:10540800002283F8282000230593039B1B684FF490
:105418008E711846FFF73EFC039B1B68082118464F
:10542800FFF713FD039B1B6804991846FFF764FFF9
:10543800049B5B68002B25D1039B1B6804991846C5
:10544800FFF77AFF034683F00103DBB2002B02D09B
:105458000F23059313E000BF039B1B684FF48E7165
:105468001846FFF72CFC034683F00103DBB2002B40
:10547800F2D1039B1B680C211846FFF7E6FC049B3E
:1054880000225A61059B184607B05DF804FB00BF6F
:10549800340800207487000082B00190019B1B79BA
:1054A8001946074A2C2303FB01F3134414331B68E2
:1054B800002B14BF01230023DBB2184602B070474B
:1054C8003408002010B582B001900091009B9B69C0
:1054D800002B08D14FF484710198FFF7DBFB01988A
:1054E800FFF79DFC13E04FF484710198FFF7D2FB9E
:1054F800009BDA68009B5B6AD4180198FFF78FFC61
:1055080003462370009B5B6A5A1C009B5A6202B0D8
:1055180010BD00B589B003900291019201238DF866
:105528001030029B0693019B0593039B5B68039ACB
:10553800116804AA1046984700BF09B05DF804FB3B
:1055480000B587B00190009100238DF80830009BCA
:105558000493019B9B680393019B00225A61019B62
:105568005B68019A116802AA1046984700BF07B005
:105578005DF804FB00B589B0019000914FF400710B
:105588000198FFF7B8FB0346002B39D04FF492710E
:105598000198FFF794FB0346002B31D04FF492712A
:1055A8000198FFF777FB4FF401710198FFF7B3FB00
:1055B800009B93F8293083F00103DBB2002B03D062
:1055C80004210198FFF741FC02238DF80830019867
:1055D800FFF7ABFB03460593009B9B690493009B75
:1055E800DB680393009B00229A61009B0022DA612A
:1055F800009B5B68009A116802AA1046984752E01F
:1056080004210198FFF777FB0346002B4BD04FF49A
:1056180084710198FFF753FB0346002B43D0009990
:105628000198FFF74FFF009B9A69009B5B6A9A42BB
:1056380039D1009BDB69002B19D0009BDB680793ED
:10564800009B5B6A0693009BDA69009B9A61009B4A
:105658001A69009BDA60009B0022DA61009B002235
:105668005A62079A06990098FFF753FF1BE0009BC0
:1056780093F8293083F00103DBB2002B03D0042117
:105688000198FFF7E2FB4FF401710198FFF743FB24
:10569800009B00229A61009B596A009BDB681A46AE
:1056A8000098FFF736FF4FF48E710198FFF707FB5C
:1056B8000346002B22D0009B1A6A009B5B699A4222
:1056C8000DD2009B93F82830DBB283F00103DBB2E4
:1056D800002B04D000990198FFF70EFE0EE04FF45E
:1056E8008E710198FFF7D6FA009B5B69002B05D0F5
:1056F800009B5B6919460098FFF722FF4FF4A271DF
:105708000198FFF7DCFA0346002B1CD04FF4A27176
:105718000198FFF7BFFA009B93F82930002B03D0BC
:1057280000210198FFF791FB009B9B69002B0AD091
:10573800009B00229A61009B596A009BDB681A460D
:105748000098FFF7E6FE00BF09B05DF804FB000013
:1057580008B503490348FFF70DFF00BF08BD00BFA8
:10576800340800200020004082B003468DF807303E
:105778009DF8073003F01F0205499DF907305B09C2
:10578800012000FA02F241F8232000BF02B070475E
:1057980000E100E082B003468DF807309DF807303D
:1057A80003F01F0206499DF907305B09012000FA42
:1057B80002F2203341F8232000BF02B0704700BF37
:1057C80000E100E082B0034600918DF807309DF9B2
:1057D8000730002B0CDA009BDAB20C499DF8073031
:1057E80003F00F03043B5201D2B20B441A7609E0CE
:1057F800009BDAB206499DF907305201D2B20B4438
:1058080083F8002300BF02B0704700BF00ED00E03E
:1058180000E100E082B00190019B03F06043B3F126
:10582800005F0CBF01230023DBB2184602B07047AB
:1058380082B00190019B1B0B5BB2184602B0704707
:1058480000B583B003460A468DF8073013468DF835
:1058580006309DF80630072B03D908496B20FCF762
:10586800B4FD9DF806209DF9073011461846FFF74C
:10587800A9FF00BF03B05DF804FB00BFAC870000C0
:1058880000B583B003468DF807309DF907301846F8
:10589800FFF76AFF00BF03B05DF804FB00B583B0F3
:1058A80003468DF807309DF907301846FFF772FF59
:1058B80000BF03B05DF804FB84B001900B46ADF85F
:1058C8000230BDF80230019A134400221A60BDF874
:1058D8000230019A13441B680393039B00BF04B072
:1058E800704782B001900B46ADF80230BDF8023027
:1058F800019A13441B68002B14BF01230023DBB259
:10590800184602B0704782B001900091019BD3F80D
:105918000022009BDB431A40019BC3F8002200BF12
:1059280002B0704782B001900091019B009AC3F8C1
:10593800042300BF02B0704782B001900091019B20
:10594800009AC3F8082300BF02B0704784B00190E2
:10595800019BD3F880340393019B039AC3F88024F6
:10596800039B184604B0704782B00190019B08223F
:10597800C3F8002500BF02B0704782B00190019BB8
:105988000022C3F8002500BF02B0704784B003901E
:1059980002910192039B029AC3F80C25039B019A7A
:1059A800C3F8142500BF04B0704700B583B0019058
:1059B8004FF0FF324FF0FF310198FFF7E7FF00BFCC
:1059C80003B05DF804FB82B00190019BD3F80C355D
:1059D800184602B0704782B00190019BD3F8143585
:1059E800184602B0704782B00190019BD3F8083581
:1059F800184602B0704782B00190019BD3F8103569
:105A0800184602B0704784B0039002910192039B3C
:105A1800029AC3F80825039B019AC3F8102500BF12
:105A280004B0704700B583B001904FF0FF324FF0DB
:105A3800FF310198FFF7E7FF00BF03B05DF804FBF3
:105A480082B001900B468DF803309DF80330019A1F
:105A5800134401221A6000BF02B0704782B001905F
:105A68000B468DF8033013468DF802309DF803205D
:105A78009DF802301343DBB21A46019BC3F86C252C
:105A880000BF02B0704782B001900091019B009A5C
:105A9800C3F8242500BF02B0704784B00390029178
:105AA8000192029A039BC3F84425039B019AC3F809
:105AB800482500BF04B0704782B00190019BD3F81D
:105AC8004C35184602B0704782B00190019BD3F85C
