:1000000000000120750300005D0300005F03000095
:1000100061030000630300006503000000000000AE
:100020000000000000000000000000006703000066
:1000300069030000000000006B0300006D03000076
:100040006F0300006F03000025160000B5170000C5
:10005000C51700006F0300006F0300006F0300006E
:100060006F0300006F0300006F0300006F030000C8
:100070006F0300006F0300006F0300006F030000B8
:100080006F0300006F0300006F0300006F030000A8
:100090006F0300006F0300006F0300006F03000098
:1000A0006F0300006F0300006F0300006F03000088
:1000B0006F0300006F03000000000000000000005C
:1000C0006F0300006F0300006F0300006F03000068
:1000D0006F0300006F0300006F03000000000000CA
:1000E0000000000000000000000000000000000010
:1000F0000000000000000000000000000000000000
:1001000000000000000000000000000000000000EF
:1001100000000000000000000000000000000000DF
:1001200000000000000000000000000000000000CF
:1001300000000000000000000000000000000000BF
:1001400000000000000000000000000000000000AF
:10015000000000000000000000000000000000009F
:10016000000000000000000000000000000000008F
:10017000000000000000000000000000000000007F
:10018000000000000000000000000000000000006F
:10019000000000000000000000000000000000005F
:1001A000000000000000000000000000000000004F
:1001B000000000000000000000000000000000003F
:1001C000000000000000000000000000000000002F
:1001D000000000000000000000000000000000001F
:1001E000000000000000000000000000000000000F
:1001F00000000000000000000000000000000000FF
:10020000354936480A1A02D0072291438D463449AF
:1002100034480A1A06D00722914381F30988022242
:1002200082F3148830483149314A00F044F83148AB
:100230003149324A00F03FF831483249324A00F041
:100240003AF832483249334A00F035F832483349F7
:10025000334A00F030F833483349344A00F02BF881
:1002600033483449344A00F026F8344834490022EF
:1002700000F02CF833483449002200F027F83348C6
:100280003349091A082902DB002202604160314A21
:1002900090471F481F49884205D00268043003B4C4
:1002A000904703BCF7E700208646EC46002000217B
:1002B000294A9047FEE7884207D0521A05D00378B2
:1002C00001300B700131013AF9D17047884202D0F8
:1002D00002700130FAE770470000012000E00020C2
:1002E0000000012000000120F42D0000000000208B
:1002F00034000020D4030000D40300008229000051
:10030000F42D00000000002000000020D029000093
:10031000D0290000D0290000D0290000D0290000F9
:10032000D0290000D0290000D0290000F42D0000C1
:10033000282E00003400002034000020340000206B
:10034000E4060020E4060020E4060020E406002085
:10035000E42600209D03000049240000FEE7FEE79C
:10036000FEE7FEE7FEE7FEE7FEE7FEE7FEE7FEE765
:10037000704700BF1048804710484FF0070188437E
:1003800085460F4880470F48016841F470010160BD
:10039000BFF34F8FBFF36F8FFFF732BF0A480B4990
:1003A0000B4A884207D0521A05D0037801300B70EF
:1003B0000131013AF9D170477103000000000120BA
:1003C0005525000088ED00E0D02900000000002045
:0403D0000000002009
:1003D400F0B595B01C46164608460D4600F0E6FFFB
:1003E4001A9B0D93CDE9086400242346082205A92D
:1003F40028460A948DF82C400C9400F0F4FF079BD7
:100404000293069B03939DF814308DF8114003F07A
:100414000302012A1DD1BDF81440059EC3F3C20393
:10042400C4F383148DF81030A20008230EA92846C3
:1004340000F0D9FFC6F3952608AB0093224602AB21
:100444000EA9304600F0C4FB284600F0B3FF15B0F7
:10045400F0BD022AF8D1BDF81640C3F3C203A409C3
:100464008DF810300827082C264628BF08263B465E
:1004740032460EA9284600F0B6FFA41B08AB02AA18
:1004840031460EA8374400F007FC002CEBD1DBE723
:10049400014B01221A70704775000020704700005C
:1004A40070B50E4D06460FCD88B06C460FC495E866
:1004B4000F00002E84E80F004FF00603084A094895
:1004C400009308BF0022694601F06CF808B100F0FF
:1004D4003DFC054B1E7008B070BD00BFD029000064
:1004E40095040000000000203400002007B5044BF0
:1004F4000093044A4023FFF76BFF03B05DF804FB4D
:100504000D0500003500002038B50D4B0D4D0020C1
:1005140018700D4804782D5DD2B21C4665B10430C4
:1005240001F02CFF08B100F011FC084B1A7812B14D
:100534002378002BFBD038BD0C3001F023FDF1E70C
:100544007500002020060020000000203400002058
:1005540008B50848084A0378D35C3BB1043001F07D
:10056400A9FE0020BDE80840FFF79ABF0C3001F057
:10057400A5FCF6E700000020200600200120FFF77C
:100584008FBF000008B5FFF7F9FF0421034800F00E
:100594008DFA034B01225A7108BD00BFAC2900003B
:1005A40014000020037813F0040216D003F00303B0
:1005B400012B03D0022B09D0012070470A68008860
:1005C4000232C0F3831002440A60F5E70B684288E4
:1005D400023303EB92130B60EEE710467047000002
:1005E4002DE9F04F044685B0851C00200F46904647
:1005F40000F004FC454806683E60D0E9013213442B
:1006040001339B1B824600F21C4600F5836900F20D
:100614001447AB421AD30022B8F1000F6FD0052360
:1006240063F3070264F38912DAF80010DAF8083089
:100634000B4003330D444AF823200020CAF800502D
:1006440000F0DEFB012005B0BDE8F08F012130464B
:1006540000F0F8FB484600F00BFC384600F008FCBC
:10066400DAF80400DAF808B0009000EA0B0003306E
:100674000AEB80006946FFF795FF009B50BB0BEA2D
:1006840003020AEB820203F1020CD26801920133E5
:1006940003EA0B0B0AEB8B0B02F00302012ACDF8E1
:1006A40000C0DBF80C1022D0022A16D0834638464C
:1006B40000F0E1FB10B1009BCAF804305946304603
:1006C40000F0C0FBDAE901231344DAF80020013317
:1006D4009B1A9EE70BEA0300C9E7BDF806309B09A5
:1006E40003334FEA114B0CEB93030093DFE7BDF8A0
:1006F4000430C3F383134FEA114B6344F5E7062335
:1007040063F3070264F39F528EE700BF48010020A1
:100714000B4B0C48FF2210B59A600022C3F8182432
:10072400C3E90022C3F8142483F8202400F0F7FD61
:10073400044610B9044800F060FE204610BD00BF16
:1007440048010020BC290000102A000030B50A4CE2
:1007540071B10A4A0A49121BD20800239A4201D1F4
:10076400002030BD31F82350854202D00133F5E733
:10077400034654F83300F4E784290000AC29000050
:1007840000000020094B013903EBC000032909D8FC
:10079400DFE801F00A02040604207047007970477C
:1007A4004079704700207047022070478429000078
:1007B400034BD3E90030C31A58425841704700BF75
:1007C400480100202DE9F04385B0FFF7F1FF06460C
:1007D400002840F0F7807C4DC5F81804BFF34F8F14
:1007E4006868AC6800902040033005EB80006946DF
:1007F400FFF7D8FE009B18B1D5F81824002A5FD063
:1008040004EA0302991C013305EB8202234005EB41
:100814008303D268DB68029302F00303022B019284
:10082400009162D1BDF8063068484FEA9318B8F1D8
:10083400500FC14628BF4FF0500969F38F1309F1D7
:100844000801ADF8063000F082FD0746002800F0EC
:10085400A48000F0ABFD01A900230822384600F073
:10086400B8FD009924EA01060136B600B14535D930
:100874005FFA89F97EB3F6B2A9EB06092140033188
:100884005FFA89F4B146524E05EB810108234A46CA
:10089400384600F09EFD36B109F108032246314680
:1008A400384600F096FD009B08F1030803EB98031B
:1008B4000093D5F81834002B4BD1D5F810445BE0E5
:1008C4002A689A4204D86A60304605B0BDE8F083CD
:1008D40004EA030088E73E493446D7E72140033160
:1008E40008234A4605EB8101DAE7012B55D1BDF80F
:1008F40004303648C3F38311062928BF062161F367
:10090400891302318900ADF8043000F020FD074658
:10091400002842D000F04AFD0023082201A93846ED
:1009240000F057FD0026BDF80420C2F38312B30083
:10093400964203F10803BCD200994A1C21400331BA
:10094400009205EB81010422384600F042FD013695
:10095400E9E7384600F02EFDFFF72AFF80F001009A
:10096400C6B2B1E7E3685B7923B1236839461B68F3
:1009740020469847E3681C68002CF3D1384600F001
:1009840019FD204600F03AFAD5F818340BB9009B4B
:100994006B60002000F034FADEE7D5F8104454B957
:1009A4000C4B0D480D49C01AC008000440F0020069
:1009B40000F06EF8D0E7236820469B689847E36808
:1009C4001C68ECE700267FE748010020BC290000F2
:1009D4005401002084290000A42900001C2A0000DE
:1009E4002DE9F74F284C80460F46924601A9012273
:1009F40018469B46D4F80890FFF7F2FD80B3019D9A
:100A04000026A91C5E4506EB010233D100211F48D4
:100A140000F0F8F980F310006A1C02EA090204EB02
:100A24008202000405EA0903033340EA1840D06057
:100A340014F8232068F3C50204F8232034F8232093
:100A440066F3891224F8232054F8232067F39F22A5
:100A540044F8232002F0F80242F0010204F82320B3
:100A640094F820341BB1FFF7ADFE0028FBD103B08E
:100A7400BDE8F08F09EA020204EB82025AF826303C
:100A8400D3600136BEE700BF4801002064050020A2
:100A940000231A46FFF7A4BF07B50123019201AA58
:100AA400FFF79EFF03B05DF804FB000030B50F496B
:100AB400D1F81024002314463CB9C468237152B9F8
:100AC400C1F810042260184630BDE46825799D42BF
:100AD40006D02468F0E7D268116821601060F2E75C
:100AE40001330A2BE7D14FF0FF33ECE74801002034
:100AF400094A38B50123D2F8104482F820341D463F
:100B040004B938BDE3685D71236820465B68984783
:100B1400E3681C68F4E700BF48010020037A052B52
:100B240010B50C460FD0437A23B1084A0849204631
:100B340000F0FBF90749204600F0F7F92046BDE82C
:100B4400104000F0E7B9002AF8D0F3E7672A000064
:100B54006C2A00008C2A0000C38873B504460D4635
:100B640033B1144A00921449144A284600F0DDF9BE
:100B7400217A05291CD0637A4BB1A088FFF702FEC5
:100B84000F4B104953F82020284600F0CEF9227A62
:100B94000D4BA08853F822600021FFF7D7FD0B49C5
:100BA40003463246284602B0BDE8704000F0BDB9A5
:100BB40002B070BD672A0000772A00006F2A000087
:100BC400342A00006C2A00009C2A00008F2A0000AE
:100BD4002DE9F04385B01F460C9D002306460C46C4
:100BE400904695F80C902B7329463846FFF7B4FFCE
:100BF400B8F1060F09D8DFE808F00412181F2833EB
:100C040040003146284600F090F900222946384633
:100C1400FFF784FF85F80C9005B0BDE8F0832268E7
:100C24003146284600F081F9EFE7D4E90023314644
:100C3400284600F07AF9E8E7A36800933146D4E93E
:100C44000023284600F071F9DFE7E3680193A36805
:100C540000933146D4E90023284600F066F9D4E72E
:100C640023690293E3680193A36800933146D4E9AE
:100C74000023284600F059F9C7E763690393236901
:100C84000293E3680193A36800933146D4E90023F7
:100C9400284600F04AF9B8E708292DE9F84F8046BC
:100CA4000E4617461C463AD8002593F80C901D733F
:100CB40019461046FFF750FFDFF884A0DFF884B030
:100CC400AE422ED918F805205946204600F02DF9D9
:100CD4000135082DF4D11849DFF86CB0204600F036
:100CE40024F94FF0000A564520D918F80A507E2DF1
:100CF40003D8284601F0B2FD00B92E252A465946EC
:100D0400204600F012F90AF1010ABAF1080FEAD1FB
:100D1400012221463846FFF701FF84F80C90BDE814
:100D2400F88F5146204600F000F9D1E703492046E8
:100D340000F0FBF8E7E700BF622A0000602A000029
:100D44005E2A0000582A0000642A00001FB5002112
:100D5400039001AA44F20100CDE9011100F004F866
:100D640005B05DF804FB000010B572B6FFF7C0FED5
:100D7400FFF728FD0028FBD1104B114C1149E41A50
:100D8400E408240444F00100FFF782FE0E4B1B68C4
:100D9400DB0700D500BE0D4944F00200FFF778FEE2
:100DA400BFF34F8F0A490B4BCA6802F4E062134346
:100DB400CB60BFF34F8F00BFFDE700BF8429000065
:100DC400A4290000FB2A0000F0ED00E0072B00003E
:100DD40000ED00E00400FA0572B6024A136801331C
:100DE4001360704704060020034A1368013B136034
:100DF40003B962B6704700BF04060020FFF7ECBFDA
:100E0400FFF7F2BF50E8002F0B4640E8003C9CF08F
:100E1400000FF7D11046704750E8003F43EA010243
:100E240040E8002C9CF0000FF6D11046704750E8C3
:100E3400002F02EA010340E8003C9CF0000FF6D1C9
:100E44001046704750E8003F03EB010240E8002CD5
:100E54009CF0000FF6D11046704750E8003FA3EB1A
:100E6400010240E8002C9CF0000FF6D110467047B8
:100E74000121FFF7D1BF0021FFF7D9BF10B590B111
:100E8400D0E9012301689B1ADBB20A60013BDBB2A3
:100E9400FF2B026802D10020107110BD11684C1C98
:100EA40014600B70F2E70E20F7E738B50446002013
:100EB400FFF7A4FF226863681168994213D9481E9A
:100EC400106011F8015CE368218A01FB0535A36811
:100ED40011791B1ADBB2994200D213710020FFF77B
:100EE4008FFF284638BD0025F8E738B505460020B1
:100EF4000C46FFF783FF2A681368591C1160E968E0
:100F0400641A298AB4FBF1F41C700020BDE838404F
:100F1400FFF776BF826810B504462AB143690168B9
:100F2400006998470023A36010BD0EB403B503996C
:100F340021B104AB01AA019300F074F802B05DF88A
:100F440004EB03B070470A2938B504460D4602D1B4
:100F54000D21FFF7F8FFA3682268591CA160D5543E
:100F6400D4E901329A4204D32046BDE83840FFF761
:100F7400D1BF38BD2DE9F84F9946DDE90A4317463C
:100F8400824688460A460126BA420FD24E4538BFE9
:100F94004E4613F0010B01D164B900240125B9F1C7
:100FA400010F1AD909F1FF397D43F8E7B2FBF7F2D3
:100FB4000136E9E79B070ED5B9F1000F0CBF3025C8
:100FC4002025A642EAD2013C29465046FFF7BBFF42
:100FD400002CF6D1E1E72025F3E7B8FBF5F39F42B7
:100FE400E2D9DFF83C90B8FBF5F3504619F803104A
:100FF40005FB1388FFF7A7FFB5FBF7F3BD4207D244
:10100400BBF1000F02D00CB1A64203D3BDE8F88FA8
:101014001D46E8E720215046013CFFF794FFF2E724
:10102400142B00002DE9F74F054617468846002982
:1010340000F0318118F8011B49B92B7B002B00F01B
:101044002A81284603B0BDE8F04FFFF763BF252986
:1010540040F0C080002698F800302D2B424608F15D
:10106400010823D0302B24D02B2B25D000242A2B6D
:1010740002F1010123D13B681A1D1B683A601C442C
:101084000A4613782E2B26D101324FF0000A10465F
:1010940010F8011BA1F1300CBCF1090F1DD80A2373
:1010A40003FB0A13A3F1300A0246F0E746F00106F7
:1010B400D1E746F00206CEE746F00406CBE711F886
:1010C400013CA3F130000928DBD80A2202FB0434D6
:1010D400303C0A46CBE74FF0000A12F8011B01F03E
:1010E400FB0068289046F8D069290ED04AD85829C0
:1010F40064D006D825296DD098F80030002B99D1FA
:101104009BE7632962D06429F6D13A68D2F800904B
:10111400111D89EAE9723960A2EBE9724FF0010B03
:10112400092A5BDCD34538BFD3462CB1B9F1000F93
:1011340001DB710700D5013CB20702D5BAF1000FFB
:1011440004D0F30702D4002C4ED10024B9F1000FCF
:1011540052DAC9F100092D212846FFF7F4FE06F002
:101164000302022A05D1BAF1000F02D1002C47D1A3
:101174000024CDE9004653460A2249462846FFF793
:10118400F9FEB9E773294CD014D87029B4D13B685F
:101194001A1D3A60302128461C68FFF7D4FE7821D6
:1011A4002846FFF7D0FE00220823CDE9003221466D
:1011B4001022E3E775292BD078299DD139680A1DBF
:1011C4003A60CDE900465346102228E03B681A1DD8
:1011D40019783A602846FFF7B6FE8DE70A230BF12B
:1011E400010BB2FBF3F29BE7A345AFD220212846C3
:1011F400013CFFF7A8FEA6E77007B0D52B21ABE7AB
:10120400A345B6D230212846013CFFF79CFEADE74A
:101214003968CDE900460A1D3A6053460A22096836
:10122400ACE73B681A1D3A60F107D3F8009020D46C
:10123400B9F1000F25D0484601F071FB0646B442CF
:1012440000D9C4B909F1FF3920E028460136FFF777
:101254007AFE19F806100029F7D1A642BFF44CAF64
:10126400002C3FF449AF20212846013CFFF76BFED8
:10127400F3E70026EDE720212846013CFFF763FE53
:10128400DDE74E46DBE72846FFF75DFE19F8011F50
:101294000029F8D130E703B0BDE8F08F2DE9F0471D
:1012A400B0F806904479D2F800A09DF8208009FB9C
:1012B40004F4043C06460AEB0300A0420F4688BF30
:1012C400A4EB030A191DC2F800A0B1FBF9F509FB50
:1012D40015114DB9A9EB0104544528BF5446BAF180
:1012E400000F04D1BDE8F0873668013DF1E7043111
:1012F4007B1970182246B8F1000F0ED0014618462B
:10130400AAEB040A01F0AFFAD145254436684C46ED
:101314004FF0000128BF5446E1E71946F0E7FFF714
:10132400ADBDF8B546790146721E054600239342C9
:101334002D6803D30024A64202D8F8BD0133F6E792
:101344000F682846FFF7D1FD01343946F3E72DE94C
:10135400F843068ACD1C0746FFF7A7FD043E354433
:101364000446B5FBF6F5F0B14FF48073EDB283801B
:10137400C680013D076081464FF00008A84512D29F
:101384003846FFF792FD064648B16379013363712D
:1013940008F10108C9F8000007608146EEE720461D
:1013A400FFF7BFFF34462046BDE8F883012104302F
:1013B400FFF748BD10B5012104460430FFF74DFD89
:1013C40010F0FF0F04D12046BDE81040FFF7A9BF7D
:1013D40010BD1FB503920022009203AAFFF75EFF1F
:1013E40005B05DF804FB1FB503920122009203AA25
:1013F400FFF754FF05B05DF804FB836800225A60D0
:101404009A60C3E90422DA601A6070471FB5037852
:101414008DF800308388ADF8043083688DF8063089
:10142400C3688DF807300369029343690393054A3F
:10143400054B684653F8213052F82110984705B0FF
:101444005DF804FB0806002010060020024B4FF450
:10145400807043F001031847302B00002DE9F0475A
:1014640091460778324A42F82790324A42F82730A8
:101474004B7B80460C4663B30868496882008B0046
:1014840002F1A04203F1A04340F20C65C2F80057F8
:101494000126C3F800574FF0A04506FA00F006FAFB
:1014A40001F1C5F80805C5F8081540F20D61C2F848
:1014B4000017C3F80017FFF7C9FF4FF0000AD5F86B
:1014C4001025636822FA03F3DB070FD5BAF1000F86
:1014D4001FD1B9F1000F3B46174A214608F1040019
:1014E40008BF0022BDE8F04700F072B9236806FA8D
:1014F40003F3C5F80C35FFF7A9FF236806FA03F3D5
:10150400C5F808350AF1010AFFF7A0FFBAF1090F7F
:10151400D5D1636801254FF0A04605FA03F3C6F858
:101524000C35FFF793FF63689D40C6F80855D0E774
:101534001006002008060020111400001FB50378CF
:101544008DF800304368019383688DF80830C368D0
:101554000393054A054B684653F8213052F821108D
:10156400984705B05DF804FB180600201C0600200F
:101574001FB503788DF800304368019383688DF8B4
:101584000830C3680393054A054B684653F8213075
:1015940052F82110984705B05DF804FB18060020A6
:1015A4001C060020F0B5194B067891F81DE043F8AD
:1015B4002620174B94460A6943F82620154B03F856
:1015C40006E00C4607460FCC89B06D460FC594E87B
:1015D4000F0085E80F000496BEF1000F0AD0BCF19D
:1015E400000F0D4A694608BF0022381D00F0A0FD17
:1015F40009B0F0BDBCF1000F084A694608BF0022DB
:1016040007F10C0000F0A0FBF2E700BF1C0600206D
:101614001806002020060020411500007515000062
:10162400014B1B68184700BF2406002038B50B4B3C
:1016340098420D4601D0002038BD0020FFF7DEFBA4
:10164400074B1C7914B901221D601A710020FFF7A1
:10165400D7FB002CEFD01120EEE700BF00200040A4
:1016640024060020034B984201BF034B00221A605A
:101674001A717047002000402406002000234350C4
:1016840082B043580193019B02B07047F0B5D0F883
:10169400243187B004460D469BB14FF49271FFF795
:1016A400EDFFD0F8043163B9AB68C0F80833022306
:1016B400AB60AB68C0F8043301230362436107B035
:1016C400F0BDD4F80431002B34D04FF4827120469D
:1016D40005F10C07FFF7D2FF0FCF01AE0FC63B6831
:1016E400336095F82E3073B12B7B012B0CBFD4F8EB
:1016F4003C25D4F84C250292022B0CBFD4F83C357F
:10170400D4F84C3503934FF4B0712046FFF7B6FF7D
:101714004FF4AE71FFF7B2FF95F8303013B195F87E
:101724002E30CBB10023C4F80032AB601F4BC4F899
:10173400083311E04FF4A4712046FFF79FFF2B7B81
:10174400EBB905F10C070FCF01AE0FC63B68336050
:1017540095F83030002BE6D0D4F8C434C4F8C4343F
:101764009A071ED501238DF8003095F830300BB957
:1017740085F82F30D5E90031684698479FE74FF444
:101784000073C4F8003240F20223AB6003F1CE735D
:10179400C4F80833AB68C4F804330123A36023629C
:1017A4008DE713F0040318BF0223DCE702029C0157
:1017B40001490248FFF76ABF2C06002000300040B0
:1017C40002494FF04020FFF761BF00BF60060020D0
:1017D4002DE9F84F0479344D4FF0340808FB04F830
:1017E40005EB08069B4696F82D3081460F46924637
:1017F400002B54D12D4B006853F82410FFF716FF2B
:1018040000284ED139687B7B86F8323001F5E072CE
:101814004FF0A043B060C6F804B086F82F0086F8F5
:10182400300040F20C6645F808A043F822607A685C
:1018340002F5E07C43F82C60D9F80030C3F80815B1
:10184400C3F80C25BA68C3F82425BAF1000F1ED0DA
:101854001B0B59B200293A7BB4BF154E01F1604607
:10186400DBB2B8BF03F00F074FEA4212A8BF06F578
:101874006146D2B2B4BFF25586F8002303F01F03C9
:10188400012202FA03F349090A4A42F821303423B7
:1018940003FB0454012384F82D30BDE8F88F08209D
:1018A400FBE71120F9E700BF2C0600203C2B0000C9
:1018B40014ED00E000E100E0026803790621C2F8BB
:1018C4000015044A342101FB0323022283F82D204E
:1018D400704700BF2C0600202DE9F843CB6803F0C5
:1018E4006043B3F1005F0D46904603D010221046CA
:1018F400BDE8F8830779964E0468964BC4F808331C
:101904004FF0340C0CFB076C9CF82F302BB1DCF837
:101914000830C4F804331122E9E712F0140F0CBFA5
:10192400012300238CF82F308946B9E80F000CF10D
:101934000C0EAEE80F00D9F80030CEF80030C8F332
:1019440000138CF830306B78C4F888354FF482710A
:101954002046FFF793FE4FF49271FFF78FFE18F0C5
:10196400010318BF0123C4F8503518F0020318BF4F
:101974000123C4F840352B78032B00F2C780DFE83D
:1019840003F087AF68022B6903F06043B3F1005F93
:10199400ACD14FF48073EA68C4F800326B68C4F8C1
:1019A40044254FF4A871C4F84835FFF767FE4FF497
:1019B400B071FFF763FE4FF4A471FFF75FFE0123DC
:1019C4002362A360D4F85031002BFBD04FF4A871EC
:1019D4002046FFF753FEAB682A69C4F84425C4F8CF
:1019E4004835342303FB07635B4A9A604FF48273E0
:1019F4000821002218F0080F04D1287803281CBFFE
:101A0400012060503421794370187158002940F046
:101A14008280012523441968002900F0898034213B
:101A2400D4F8C434C4F8C43401FB0766002186F832
:101A34002F10002B3FF45BAF13F0020F48F201228A
:101A440008BF032213F0040F48F2022318BF1A46FA
:101A54004DE76B68EA68C4F84425C4F848352B6937
:101A640003F06042B2F1005F7FF440AFAA68C4F8AB
:101A740034354FF48453C4F83825C4F80032342381
:101A840003FB076340F202229A6001232362ADE75D
:101A94006B68EA68C4F8442518F0200FC4F8483588
:101AA4004FF0340310D003FB07634FF48072C4F883
:101AB4000022294A9A604FF4A471FFF7DFFD4FF426
:101AC400A4730122226293E74FF4007203FB0763BD
:101AD400C4F8002240F202229A604FF48273F0E7C5
:101AE4006B68EA68C4F83425C4F838354FF4805379
:101AF400C4F80032342303FB076340F202229A60E5
:101B04000123236200214FF4827372E74FF482733E
:101B1400082107226EE718F0040F1CBF4FF400736E
:101B24008360342303FB0766B368C4F80433DEE63A
:101B3400D4F8241100293FF46EAF4FF4927120467B
:101B4400FFF79CFD25624FF48273656162E700BF75
:101B54002C06002002029C0100020400F0B587B0AC
:101B640004460F461546002112220DF106001E46BA
:101B740000F0A2FE0123002201A920468DF80430C2
:101B84008DF8057002960495FFF7A6FE07B0F0BD28
:101B94000023435082B043580193019B02B0704725
:101BA4000A4610B54FF48E71FFF7F2FF136A91687D
:101BB400C95C136A01331362C0F81C1510BD8B692C
:101BC4000A4610B54FF4847123B9FFF7E1FFD0F84A
:101BD400183510BDFFF7DCFF536AD168D0F818053B
:101BE400C854536A01335362F3E700001FB501235D
:101BF4008DF80030044BCDE90110D3E9001268469A
:101C0400904705B05DF804FB9406002030B54C4ABB
:101C1400D2F8043313F4007F85B015464FD0D2F8C0
:101C24002431002B4BD04FF492711046FFF7B0FFD4
:101C34004FF40173C2F80833424B93F8291009B9E1
:101C4400012151603E4902228DF80020D1F8802400
:101C5400C1F8802403929A690292DA680192002200
:101C6400C3E906226846D3E9001290473448D0F805
:101C74001C315BB133490A6A4B699A420A464BD21A
:101C840091F82830002B47D1FFF78AFF2C4AD2F86D
:101C9400443193B14FF4A2711046FFF779FF294BF9
:101CA40093F8291009B1012111609A692AB100221F
:101CB4009A61586AD968FFF799FF05B030BDD5F825
:101CC40004335B07D2D5D5F80831002BCED01D4C98
:101CD4001B482146FFF773FF636AA2699A422346B1
:101CE400C4D1E269E1684AB12369E3600023606A10
:101CF400A261E3616362FFF779FFB7E794F82920F3
:101D04000AB901226A600E4A4FF40170C2F808034E
:101D140000229A61586AEEE74FF48E710848FFF783
:101D240037FF51690029B1D00023029191688DF8E1
:101D34000030019153616846D2E900139847A5E742
:101D440000200040940600202DE9F843564F047902
:101D540091462C2202FB0472064692F82A200D4674
:101D6400002A40F09A8051490068FFF75FFC8046E2
:101D7400002840F0958029683368481C0BD04FF048
:101D8400A04001228A40C0F8082501F5E0724FF016
:101D9400030C40F822C06868421C1FBF00F5E072C3
:101DA4004FF0A04C4FF0000E4CF822E0AA6995F8D1
:101DB40014C0C3F824256A7DBCF1010F4CEA020269
:101DC400C3F86C25C3F81405C3F80C151DD1AA6813
:101DD400511C1FBF02F5E0714FF0A0404FF0000C02
:101DE40040F821C0E968481C0BD04FF0A04C0120FA
:101DF4008840CCF8080501F5E0704FF0030E4CF86C
:101E040020E0C3F80815C3F810252C236343FA18FF
:101E1400C2F804902A69FA50B9F1000F2AD04FF49D
:101E24008E7130682D7FFFF7B3FE30684FF4A271D6
:101E3400FFF7AEFE32681E4BC2F80433120B51B2E8
:101E44000029A8BF01F160404FEA4513BABF194801
:101E540002F00F0500F56140DBB2B4BF435580F8D2
:101E6400003302F01F02012303FA02F24909124B64
:101E740043F8212033680422C3F800252C2303FBF4
:101E840004730022C3E9062283F829205A6101223F
:101E940083F82A204046BDE8F8834FF00808F9E7A4
:101EA4004FF01108F6E700BF94060020111C000053
:101EB4008000020014ED00E000E100E0F8B50479D0
:101EC40000682D4D0023C0F800352C2303FB045378
:101ED4005B6873B1294BC0F80833020B53B201217C
:101EE4005B0902F01F0201FA02F22033244941F88F
:101EF4002320D0F80C65D0F81415D0F80835D0F8A4
:101F040010254FF0FF37BE42C0F8147518BF06F510
:101F1400E076C0F80C75C0F80875C0F810751EBFDF
:101F24004FF0A0474FF0020C47F826C04E1C1FBFCD
:101F34004FF0A04601F5E071022746F82170511CCC
:101F44001FBF4FF0A04102F5E072022641F8226063
:101F54005A1C1FBF03F5E0734FF0A042022142F860
:101F64002310FFF77FFB2C2303FB0454002384F886
:101F74002A306360F8BD00BF94060020840202008A
:101F840000E100E02DE9F843224F06794FF02C09D7
:101F940009FB067480466569002D37D16261A16032
:101FA40025624FF48E71006884F82850FFF7F0FD25
:101FB400D8F80000012383602146FFF7F1FD636830
:101FC400A1462BBBD8F80050226A63699A4212D307
:101FD400D8F80030D3F81C21002AFBD00122DA60A3
:101FE40000202C2303FB067600237361BDE8F883ED
:101FF40094F8283043B9D5F81C31002BF8D0494661
:102004002846FFF7CDFDDFE70F20EAE71120EDE7D3
:102014002846EBE7940600200023435082B043583F
:102024000193019B02B070471FB501238DF8003066
:10203400044BCDE90110D3E900126846904705B07E
:102044005DF804FBC00600207FB5374AD2F824614E
:10205400002E48D010464FF49271FFF7DDFF0223A3
:102064008DF80030D2F88034C2F880340393D2F86B
:102074003C3502932D4BDA6801920022C3E9062213
:102084006846D3E900129047274AD2F844317BB11D
:102094004FF4A2711046FFF7BFFF244B996939B181
:1020A4000021C3E90611D968D2F83C05FFF7BCFF4B
:1020B4001D4AD2F82031A3B14FF490711046FFF7B6
:1020C400ABFF1A4B596961B1D2F84C150291002249
:1020D40099688DF8002001915A616846D3E900128D
:1020E400904704B070BDD2F81031002BCCD04FF41F
:1020F40088711046FFF790FF0C4BD2F83C059969A4
:102104008842C1D1DC69D96864B1D2F8005225F0A3
:102114002005C2F800521A699C61DA60DE61FFF79B
:1021240083FFB1E79C61FAE700200040C00600206D
:102134002DE9F8435A4F06799146242202FB067290
:10214400044692F820200D46002A40F0A28055490A
:102154000068FFF76BFA8046002840F09D802968EC
:102164002368481C0BD04FF0A04001228A40C0F8DD
:10217400082501F5E0724FF0030C40F822C06868AE
:10218400421C1FBF00F5E0724FF0A04C4FF0000E50
:102194004CF822E0AA6995F814C0C3F824256A7D96
:1021A400BCF1010F4CEA0202C3F86C25C3F80C150C
:1021B400C3F814051DD1AA68511C1FBF02F5E071B4
:1021C4004FF0A0404FF0000C40F821C0E968481CD3
:1021D4000BD04FF0A04C01208840CCF8080501F545
:1021E400E0704FF0030E4CF820E0C3F80815C3F874
:1021F400102524237343FA18C2F804902A69FA506C
:10220400B9F1000F34D04FF4887120682D7FFFF7A7
:1022140003FF4FF490712068FFF7FEFE4FF49271B4
:102224002068FFF7F9FE20684FF4A271FFF7F4FE6F
:1022340022681D4BC2F80433120B51B20029A8BF07
:1022440001F160404FEA4513BABF184802F00F0588
:1022540000F56140DBB2B4BF435580F8003302F0AF
:102264001F02012303FA02F24909114B43F821200A
:1022740023680822C3F80025242303FB06730022E5
:10228400C3E906225A61012283F820204046BDE8B2
:10229400F8834FF00808F9E74FF01108F6E700BF9C
:1022A400C00600204D2000001003020014ED00E0E1
:1022B40000E100E0F8B5047900682D4D0023C0F872
:1022C4000035242303FB04535B6873B1294BC0F826
:1022D4000833020B53B201215B0902F01F0201FA19
:1022E40002F22033244941F82320D0F80C65D0F8B9
:1022F4001415D0F80835D0F810254FF0FF37BE423A
:10230400C0F80C7518BF06F5E076C0F81475C0F86F
:102314000875C0F810751EBF4FF0A0474FF0020CAF
:1023240047F826C04E1C1FBF4FF0A04601F5E071D0
:10233400022746F82170511C1FBF4FF0A04102F53F
:10234400E072022641F822605A1C1FBF03F5E073B5
:102354004FF0A042022142F82310FFF783F924230F
:1023640003FB0454002384F820306360F8BD00BFED
:10237400C00600201003020000E100E001F0604309
:10238400B3F1005F2DE9F041074632D11C4B0679C9
:10239400242505FB063598466C6964BB6A61A9600F
:1023A40000684FF49071FFF737FE4FF4AC71386852
:1023B400FFF732FE3B686A69A968C3F84415C3F89D
:1023C400482501229A606A68BAB9D3F82011D3F873
:1023D400582149B9002AF8D00F20242303FB06868C
:1023E40000237361BDE8F081002A14BF0F20002090
:1023F400F3E71020F6E71120F4E72046F2E700BFE8
:10240400C00600201FB51B211A22CDE900124FF08F
:10241400CC72002302920222039369468DF80C20A9
:1024240006481A46FFF71AF808B1FEF78FFC04486D
:10243400FFF742FA05B05DF804FB00BF542B00001F
:10244400582B00002DE9F34100210846FEF760F9FE
:1024540008B1FEF77BFCFEF795F81A4C1A4B1B49A2
:10246400E41AE408240444F003042046FEF710FBB5
:10247400FEF7A8F906460028FAD1FFF7C3FF144F68
:10248400DFF85480012501230DF10702E9B2384633
:10249400FFF764FB28B92A4641462046FEF7FCFABA
:1024A4000126FEF78FF90028FBD10135802DEAD1F2
:1024B4003EB908492046FEF7EBFAFEF783F90028F7
:1024C400FBD1FEE7A429000084290000642B00004E
:1024D400582B00009E2B0000792B00000C4B1B781E
:1024E400062B10D10B4B1B681A070CD10A4B18682A
:1024F40000F0F003302B08D000F0E000A0F140031E
:10250400584258417047002070470120704700BF6F
:10251400E00F00F0E40F00F0E80F00F0094B1B7827
:10252400062B0CD1084B1B681A0708D1074B1868F7
:1025340000F0F000A0F130035842584170470020E9
:10254400704700BFE00F00F0E40F00F0E80F00F068
:1025540008B5FFF7C3FF28B17D4B7E4A1B68C3F360
:1025640004231360FFF7DAFF10B17B4B7B4A1A6038
:10257400FFF7B4FF28B17A4B7A4A1B68C3F342339E
:102584001360FFF7CBFF20B1774AD36823F0807341
:10259400D360FFF7A3FF40B14FF080430022C3F89C
:1025A4000C21C3F81021C3F83825FFF7B7FF10B189
:1025B4006E4B03221A60FFF7B1FF40B16C4B05224A
:1025C4001A6001229A6700229A603F225A60694B7E
:1025D4001B78062B50D1684B1B6819074CD1674BED
:1025E4001B6803F0F003502B46D14FF08052644B2C
:1025F400D2F80414C3F82015D2F80814C3F824152B
:10260400D2F80C14C3F82815D2F81014C3F82C15FA
:10261400D2F81414C3F83015D2F81814C3F83415CA
:10262400D2F81C14C3F84015D2F82014C3F844158A
:10263400D2F82414C3F84815D2F82814C3F84C155A
:10264400D2F82C14C3F85015D2F83014C3F854152A
:10265400D2F83414C3F86015D2F83814C3F86415EA
:10266400D2F83C14C3F86815D2F84014C3F86C15BA
:10267400D2F84424C3F87025FFF730FF28B1414B4A
:10268400414A1B6803F04F031360FFF727FF48B16B
:102694004FF08043D3F80024D20744BF6FF0010207
:1026A400C3F80024394B1B68062B08D1384B1B6830
:1026B400062B01BF374A136843F480631360364A1C
:1026C400D2F8883043F47003C2F88830BFF34F8FD8
:1026D400BFF36F8F4FF01023D3F80022002A03DBDF
:1026E400D3F80432002B2FDA2C4B0122C3F8042533
:1026F400D3F80024002AFBD04FF010221521C2F891
:102704000012D3F80024002AFBD04FF01023152226
:10271400C3F80422214B1A46D3F800140029FBD035
:102724000021C3F80415D2F80034002BFBD0BFF30A
:102734004F8F19491A4BCA6802F4E0621343CB6005
:10274400BFF34F8F00BFFDE7164B174A1A6008BD51
:10275400240300104035014074C007400DF0ADBAA9
:10276400440200103C050040F0ED00E0A0050040EC
:1027740010560040E00F00F0E40F00F0E80F00F006
:1027840000C0004058020010E40E00403001001068
:10279400340100103C17004000ED00E000E001406F
:1027A4000400FA051C0000200090D0037F2805D8FF
:1027B400034B185C034B5B5C184070470020704768
:1027C400B42B0000342C0000A0F16103192B98BF36
:1027D40020387047A0F14103192B98BF203070476F
:1027E4007F2805D8034B185C034B5B5C184070478B
:1027F40000207047B42B0000342C0000A0F16103CA
:10280400192B98BF20387047A0F14103192B98BFAA
:10281400203070477F299ABF017001206FF02E008D
:1028240070475AB10A787F2A0AD800B102600021A1
:1028340019605960501A18BF012070470020704772
:102844006FF02E007047000008B5034B5B689B686F
:102854001B68984708BD00BF2000002008B5092167
:10286400FFF7F2FF08BD844640EA010313F0030FAB
:1028740018D18446202A0BD32DE9F007B1E8F807D4
:10288400A0E8F807A2F12002202AF7D2BDE8F00759
:10289400042A07D351F8043B40F8043BA2F1040294
:1028A400042AF7D2002A05D011F8013B00F8013BB5
:1028B400013AF9D1604670478446002A2DD010F0C1
:1028C400030F04D000F8011B013A26D0F7E7C9B280
:1028D40041EA012141EA0141202A12D3A2F1200256
:1028E4002DE9F0030B460C460D460E460F4688466E
:1028F4008946A0E8FA03203AFBD2BDE8F00320326F
:102904000BD0042A05D340F8041B043A05D0042A4A
:10291400F9D200F8011B013AFBD16046704700F17F
:10292400010110F0030F11D010F8012B002A23D05D
:1029340010F0030F0AD010F8012B002A1CD010F05D
:10294400030F03D010F8012B002A15D02DE97000D5
:102954004FF001324FF0803350F8044BA4EB0205E2
:1029640025EA04051D4000D1F6E7A0F1040070BC7F
:0E29740010F8012B002AFBD1A0EB01007047E8
:10298400362B000000000000442B00000000000073
:10299400492B0000000000004E2B00000000000046
:0829A4002D2A000000000303CE
:1029AC00F029000000000000FC29000014000020A9
:1029BC007800002040010020480100208000002009
:0429CC0018000000EF
:1029D000FFFFFFFFFFFFFFFFFFFFFFFFFFFFFFFF07
:1029E00000000000000000000000D6010601000009
:1029F000F104000055050000A10400007561727427
:102A00005F6C6F675F6261636B656E6400000000FE
:102A10006C0500207F000000EC0500204261636B24
:102A2000656E647320666C757368656400617070B0
:102A300000000000672A0000B02A00006F2A000092
:102A4000B82A0000C02A0000C82A0000D02A0000CE
:102A5000D82A0000E02A000020253032780020200B
:102A600020007C002563001B5B306D002573001B7C
:102A70005B313B33316D0025734C6F67732064729B
:102A80006F70706564202825642925730D0A003C49
:102A900025733E2025733A2000000000000000004E
:102AA000012B0000E82A0000F02A0000F52A0000AF
:102AB0001B5B313B33306D001B5B313B33326D00B0
:102AC0001B5B313B33336D001B5B313B33346D009B
:102AD0001B5B313B33356D001B5B313B33366D0087
:102AE0001B5B313B33376D007761726E696E670037
:102AF000696E666F00646562756700466174616C3B
:102B0000206572726F720053797374656D207265FF
:102B100073657400303132333435363738394142D9
:102B20004344454600000000000000000000000093
:102B30000338FDD87047505253000000B51700000D
:102B4000C51700005457494D005541525400554196
:102B5000525445000000000000300040000000001A
:102B600001000000545749207363616E6E65722046
:102B7000737461727465642E0054574920646576DD
:102B8000696365206465746563746564206174209D
:102B90006164647265737320307825782E004E6FFF
:102BA000206465766963652077617320666F756E52
:102BB000642E0000202020202020202020682828AB
:102BC00028282020202020202020202020202020F5
:102BD000202020204810101010101010101010107D
:102BE000101010108484848484848484848410105D
:102BF000101010101081818181818101010101017A
:102C000001010101010101010101010101010110A5
:102C1000101010101082828282828202020202024E
:102C20000202020202020202020202020202021076
:102C3000101010200007032004170201085710404D
:102C400080000000E82D0000AC2C0000C02D00002A
:102C500053756E004D6F6E005475650057656400C6
:102C600054687500467269005361740000000000EA
:102C70004A616E00466562004D61720041707200EB
:102C80004D6179004A756E004A756C0041756700A8
:102C9000536570004F6374004E6F760044656300A7
:102CA00000000000414D00504D000000E42D0000E8
:102CB000E02D0000E02D0000E02D0000E02D0000E0
:102CC000E02D0000E02D0000E02D0000E02D0000D0
:102CD000E02D0000FFFFFFFFFFFFFFFFFFFFFFFFF3
:102CE000FFFF0000202D0000502C00005C2D000094
:102CF000702C0000A42C0000042D0000B42D000056
:102D0000102D0000256D2F25642F2579000000006F
:102D100025612025622025652025542025590000A5
:102D200053756E646179004D6F6E646179005475FE
:102D30006573646179005765646E657364617900D9
:102D400054687572736461790046726964617900D0
:102D50005361747572646179000000004A616E7598
:102D6000617279004665627275617279004D6172B7
:102D7000636800417072696C004D6179004A756E3C
:102D800065004A756C790041756775737400536509
:102D90007074656D626572004F63746F6265720076
:102DA0004E6F76656D62657200446563656D626540
:102DB0007200000025483A254D3A255300000000D6
:102DC000B1270000CD270000D9270000E52700002B
:102DD000012800000D280000192800002728000005
:102DE000000000002E00000043000000504F534937
:042DF0005800000087
:102DF400000000000020004000000000002000400F
:102E04000000000000000000FF0000000090D0035C
:102E1400442C0000442C0000442C0000442C0000EE
:042E2400442C00003A
:040000030000037581
:00000001FF
